{"contracts/GovSpendingLedger.sol":{"GovSpendingLedger":{"abi":[{"inputs":[],"stateMutability":"nonpayable","type":"constructor"},{"inputs":[],"name":"AccessControlBadConfirmation","type":"error"},{"inputs":[{"internalType":"address","name":"account","type":"address"},{"internalType":"bytes32","name":"neededRole","type":"bytes32"}],"name":"AccessControlUnauthorizedAccount","type":"error"},{"anonymous":false,"inputs":[{"indexed":true,"internalType":"uint256","name":"recordId","type":"uint256"},{"indexed":true,"internalType":"address","name":"auditor","type":"address"},{"indexed":false,"internalType":"string","name":"notes","type":"string"}],"name":"AuditSubmitted","type":"event"},{"anonymous":false,"inputs":[{"indexed":true,"internalType":"uint256","name":"recordId","type":"uint256"},{"indexed":true,"internalType":"address","name":"submittedBy","type":"address"},{"indexed":false,"internalType":"bytes32","name":"documentHash","type":"bytes32"}],"name":"RecordSubmitted","type":"event"},{"anonymous":false,"inputs":[{"indexed":true,"internalType":"bytes32","name":"role","type":"bytes32"},{"indexed":true,"internalType":"bytes32","name":"previousAdminRole","type":"bytes32"},{"indexed":true,"internalType":"bytes32","name":"newAdminRole","type":"bytes32"}],"name":"RoleAdminChanged","type":"event"},{"anonymous":false,"inputs":[{"indexed":true,"internalType":"bytes32","name":"role","type":"bytes32"},{"indexed":true,"internalType":"address","name":"account","type":"address"},{"indexed":true,"internalType":"address","name":"sender","type":"address"}],"name":"RoleGranted","type":"event"},{"anonymous":false,"inputs":[{"indexed":true,"internalType":"bytes32","name":"role","type":"bytes32"},{"indexed":true,"internalType":"address","name":"account","type":"address"},{"indexed":true,"internalType":"address","name":"sender","type":"address"}],"name":"RoleRevoked","type":"event"},{"inputs":[],"name":"AUDITOR_ROLE","outputs":[{"internalType":"bytes32","name":"","type":"bytes32"}],"stateMutability":"view","type":"function"},{"inputs":[],"name":"CITIZEN_ROLE","outputs":[{"internalType":"bytes32","name":"","type":"bytes32"}],"stateMutability":"view","type":"function"},{"inputs":[],"name":"DEFAULT_ADMIN_ROLE","outputs":[{"internalType":"bytes32","name":"","type":"bytes32"}],"stateMutability":"view","type":"function"},{"inputs":[],"name":"GOV_AGENCY_ROLE","outputs":[{"internalType":"bytes32","name":"","type":"bytes32"}],"stateMutability":"view","type":"function"},{"inputs":[{"internalType":"address","name":"account","type":"address"}],"name":"addGovAgency","outputs":[],"stateMutability":"nonpayable","type":"function"},{"inputs":[{"internalType":"uint256","name":"","type":"uint256"},{"internalType":"uint256","name":"","type":"uint256"}],"name":"auditFindings","outputs":[{"internalType":"uint256","name":"recordId","type":"uint256"},{"internalType":"string","name":"notes","type":"string"},{"internalType":"address","name":"auditor","type":"address"},{"internalType":"uint256","name":"timestamp","type":"uint256"}],"stateMutability":"view","type":"function"},{"inputs":[{"internalType":"uint256","name":"recordId","type":"uint256"}],"name":"getAuditCount","outputs":[{"internalType":"uint256","name":"","type":"uint256"}],"stateMutability":"view","type":"function"},{"inputs":[{"internalType":"uint256","name":"recordId","type":"uint256"}],"name":"getAudits","outputs":[{"components":[{"internalType":"uint256","name":"recordId","type":"uint256"},{"internalType":"string","name":"notes","type":"string"},{"internalType":"address","name":"auditor","type":"address"},{"internalType":"uint256","name":"timestamp","type":"uint256"}],"internalType":"struct GovSpendingLedger.AuditFinding[]","name":"","type":"tuple[]"}],"stateMutability":"view","type":"function"},{"inputs":[{"internalType":"uint256","name":"recordId","type":"uint256"}],"name":"getRecordBasic","outputs":[{"internalType":"uint256","name":"","type":"uint256"},{"internalType":"bytes32","name":"","type":"bytes32"},{"internalType":"string","name":"","type":"string"},{"internalType":"uint256","name":"","type":"uint256"},{"internalType":"address","name":"","type":"address"},{"internalType":"uint256","name":"","type":"uint256"}],"stateMutability":"view","type":"function"},{"inputs":[{"internalType":"bytes32","name":"role","type":"bytes32"}],"name":"getRoleAdmin","outputs":[{"internalType":"bytes32","name":"","type":"bytes32"}],"stateMutability":"view","type":"function"},{"inputs":[],"name":"getSpendingCount","outputs":[{"internalType":"uint256","name":"","type":"uint256"}],"stateMutability":"view","type":"function"},{"inputs":[{"internalType":"bytes32","name":"role","type":"bytes32"},{"internalType":"address","name":"account","type":"address"}],"name":"grantRole","outputs":[],"stateMutability":"nonpayable","type":"function"},{"inputs":[{"internalType":"bytes32","name":"role","type":"bytes32"},{"internalType":"address","name":"account","type":"address"}],"name":"hasRole","outputs":[{"internalType":"bool","name":"","type":"bool"}],"stateMutability":"view","type":"function"},{"inputs":[],"name":"recordCount","outputs":[{"internalType":"uint256","name":"","type":"uint256"}],"stateMutability":"view","type":"function"},{"inputs":[{"internalType":"bytes32","name":"role","type":"bytes32"},{"internalType":"address","name":"callerConfirmation","type":"address"}],"name":"renounceRole","outputs":[],"stateMutability":"nonpayable","type":"function"},{"inputs":[{"internalType":"bytes32","name":"role","type":"bytes32"},{"internalType":"address","name":"account","type":"address"}],"name":"revokeRole","outputs":[],"stateMutability":"nonpayable","type":"function"},{"inputs":[{"internalType":"uint256","name":"","type":"uint256"}],"name":"spendingRecords","outputs":[{"internalType":"uint256","name":"recordId","type":"uint256"},{"internalType":"bytes32","name":"documentHash","type":"bytes32"},{"internalType":"string","name":"recordType","type":"string"},{"internalType":"uint256","name":"amount","type":"uint256"},{"internalType":"address","name":"submittedBy","type":"address"},{"internalType":"uint256","name":"timestamp","type":"uint256"}],"stateMutability":"view","type":"function"},{"inputs":[{"internalType":"uint256","name":"recordId","type":"uint256"},{"internalType":"string","name":"notes","type":"string"}],"name":"submitAudit","outputs":[],"stateMutability":"nonpayable","type":"function"},{"inputs":[{"internalType":"bytes32","name":"documentHash","type":"bytes32"},{"internalType":"string","name":"recordType","type":"string"},{"internalType":"uint256","name":"amount","type":"uint256"}],"name":"submitSpendingRecord","outputs":[],"stateMutability":"nonpayable","type":"function"},{"inputs":[{"internalType":"bytes4","name":"interfaceId","type":"bytes4"}],"name":"supportsInterface","outputs":[{"internalType":"bool","name":"","type":"bool"}],"stateMutability":"view","type":"function"}],"evm":{"bytecode":{"linkReferences":{},"object":"6080604052600060025534801561001557600080fd5b506100296000801b3361002f60201b60201c565b5061019e565b6000610041838361012c60201b60201c565b61012157600160008085815260200190815260200160002060000160008473ffffffffffffffffffffffffffffffffffffffff1673ffffffffffffffffffffffffffffffffffffffff16815260200190815260200160002060006101000a81548160ff0219169083151502179055506100be61019660201b60201c565b73ffffffffffffffffffffffffffffffffffffffff168273ffffffffffffffffffffffffffffffffffffffff16847f2f8788117e7eff1d82e926ec794901d17c78024a50270940304540a733656f0d60405160405180910390a460019050610126565b600090505b92915050565b600080600084815260200190815260200160002060000160008373ffffffffffffffffffffffffffffffffffffffff1673ffffffffffffffffffffffffffffffffffffffff16815260200190815260200160002060009054906101000a900460ff16905092915050565b600033905090565b611e21806101ad6000396000f3fe608060405234801561001057600080fd5b506004361061012c5760003560e01c8063656a42be116100ad578063900407bc11610071578063900407bc1461035d57806391d148541461037b578063a217fddf146103ab578063bac5d8f9146103c9578063d547741f146103fe5761012c565b8063656a42be146102a057806366cf3930146102be57806366e1d6af146102da5780636e1d616e1461030a57806376e2f16a146103285761012c565b806336568abe116100f457806336568abe146101fb578063487819db146102175780634d320c31146102335780635843296e146102515780635ca26de11461026d5761012c565b806301ffc9a714610131578063248a9ca3146101615780632b9e1d70146101915780632f2ff15d146101af578063347c19cd146101cb575b600080fd5b61014b60048036038101906101469190611269565b61041a565b60405161015891906112b1565b60405180910390f35b61017b60048036038101906101769190611302565b610494565b604051610188919061133e565b60405180910390f35b6101996104b3565b6040516101a6919061133e565b60405180910390f35b6101c960048036038101906101c491906113b7565b6104d7565b005b6101e560048036038101906101e0919061142d565b6104f9565b6040516101f29190611469565b60405180910390f35b610215600480360381019061021091906113b7565b610569565b005b610231600480360381019061022c91906115ca565b6105e4565b005b61023b610761565b604051610248919061133e565b60405180910390f35b61026b60048036038101906102669190611639565b610785565b005b61028760048036038101906102829190611666565b6107c0565b6040516102979493929190611734565b60405180910390f35b6102a86108b5565b6040516102b59190611469565b60405180910390f35b6102d860048036038101906102d39190611780565b6108bf565b005b6102f460048036038101906102ef919061142d565b610a74565b6040516103019190611969565b60405180910390f35b610312610c33565b60405161031f919061133e565b60405180910390f35b610342600480360381019061033d919061142d565b610c57565b6040516103549695949392919061198b565b60405180910390f35b610365610dc6565b6040516103729190611469565b60405180910390f35b610395600480360381019061039091906113b7565b610dcc565b6040516103a291906112b1565b60405180910390f35b6103b3610e36565b6040516103c0919061133e565b60405180910390f35b6103e360048036038101906103de919061142d565b610e3d565b6040516103f59695949392919061198b565b60405180910390f35b610418600480360381019061041391906113b7565b610f21565b005b60007f7965db0b000000000000000000000000000000000000000000000000000000007bffffffffffffffffffffffffffffffffffffffffffffffffffffffff1916827bffffffffffffffffffffffffffffffffffffffffffffffffffffffff1916148061048d575061048c82610f43565b5b9050919050565b6000806000838152602001908152602001600020600101549050919050565b7f8f1426173eb922d2001706a308dabfa96e3c06475230fb5111184f70a4b5776d81565b6104e082610494565b6104e981610fad565b6104f38383610fc1565b50505050565b6000808211801561050c57506002548211155b61054b576040517f08c379a000000000000000000000000000000000000000000000000000000000815260040161054290611a3f565b60405180910390fd5b60036000838152602001908152602001600020805490509050919050565b6105716110b2565b73ffffffffffffffffffffffffffffffffffffffff168173ffffffffffffffffffffffffffffffffffffffff16146105d5576040517f6697b23200000000000000000000000000000000000000000000000000000000815260040160405180910390fd5b6105df82826110ba565b505050565b7f94ac8bf7c2c0d570b676d8037eaa0516224e8bca85d85e9465db2088d225fcab61060e81610fad565b6001600260008282546106219190611a8e565b925050819055506040518060c0016040528060025481526020018581526020018481526020018381526020013373ffffffffffffffffffffffffffffffffffffffff16815260200142815250600160006002548152602001908152602001600020600082015181600001556020820151816001015560408201518160020190816106ab9190611cce565b506060820151816003015560808201518160040160006101000a81548173ffffffffffffffffffffffffffffffffffffffff021916908373ffffffffffffffffffffffffffffffffffffffff16021790555060a082015181600501559050503373ffffffffffffffffffffffffffffffffffffffff166002547fb47aefd0fcf9ea22919b53c3e42140e5fbcfed253f5aa6dc225cb4fa1915278486604051610753919061133e565b60405180910390a350505050565b7f94ac8bf7c2c0d570b676d8037eaa0516224e8bca85d85e9465db2088d225fcab81565b6000801b61079281610fad565b6107bc7f94ac8bf7c2c0d570b676d8037eaa0516224e8bca85d85e9465db2088d225fcab836104d7565b5050565b600360205281600052604060002081815481106107dc57600080fd5b90600052602060002090600402016000915091505080600001549080600101805461080690611af1565b80601f016020809104026020016040519081016040528092919081815260200182805461083290611af1565b801561087f5780601f106108545761010080835404028352916020019161087f565b820191906000526020600020905b81548152906001019060200180831161086257829003601f168201915b5050505050908060020160009054906101000a900473ffffffffffffffffffffffffffffffffffffffff16908060030154905084565b6000600254905090565b7f59a1c48e5837ad7a7f3dcedcbe129bf3249ec4fbf651fd4f5e2600ead39fe2f56108e981610fad565b6000831180156108fb57506002548311155b61093a576040517f08c379a000000000000000000000000000000000000000000000000000000000815260040161093190611a3f565b60405180910390fd5b6003600084815260200190815260200160002060405180608001604052808581526020018481526020013373ffffffffffffffffffffffffffffffffffffffff1681526020014281525090806001815401808255809150506001900390600052602060002090600402016000909190919091506000820151816000015560208201518160010190816109cc9190611cce565b5060408201518160020160006101000a81548173ffffffffffffffffffffffffffffffffffffffff021916908373ffffffffffffffffffffffffffffffffffffffff1602179055506060820151816003015550503373ffffffffffffffffffffffffffffffffffffffff16837fae05e28e072a893738dd5e5fe7b7de2434bbf70c0da8be431ca7f522a583dee484604051610a679190611da0565b60405180910390a3505050565b6060600082118015610a8857506002548211155b610ac7576040517f08c379a0000000000000000000000000000000000000000000000000000000008152600401610abe90611a3f565b60405180910390fd5b60036000838152602001908152602001600020805480602002602001604051908101604052809291908181526020016000905b82821015610c28578382906000526020600020906004020160405180608001604052908160008201548152602001600182018054610b3790611af1565b80601f0160208091040260200160405190810160405280929190818152602001828054610b6390611af1565b8015610bb05780601f10610b8557610100808354040283529160200191610bb0565b820191906000526020600020905b815481529060010190602001808311610b9357829003601f168201915b505050505081526020016002820160009054906101000a900473ffffffffffffffffffffffffffffffffffffffff1673ffffffffffffffffffffffffffffffffffffffff1673ffffffffffffffffffffffffffffffffffffffff16815260200160038201548152505081526020019060010190610afa565b505050509050919050565b7f59a1c48e5837ad7a7f3dcedcbe129bf3249ec4fbf651fd4f5e2600ead39fe2f581565b6000806060600080600080600160008981526020019081526020016000206040518060c00160405290816000820154815260200160018201548152602001600282018054610ca490611af1565b80601f0160208091040260200160405190810160405280929190818152602001828054610cd090611af1565b8015610d1d5780601f10610cf257610100808354040283529160200191610d1d565b820191906000526020600020905b815481529060010190602001808311610d0057829003601f168201915b50505050508152602001600382015481526020016004820160009054906101000a900473ffffffffffffffffffffffffffffffffffffffff1673ffffffffffffffffffffffffffffffffffffffff1673ffffffffffffffffffffffffffffffffffffffff1681526020016005820154815250509050806000015181602001518260400151836060015184608001518560a001519650965096509650965096505091939550919395565b60025481565b600080600084815260200190815260200160002060000160008373ffffffffffffffffffffffffffffffffffffffff1673ffffffffffffffffffffffffffffffffffffffff16815260200190815260200160002060009054906101000a900460ff16905092915050565b6000801b81565b6001602052806000526040600020600091509050806000015490806001015490806002018054610e6c90611af1565b80601f0160208091040260200160405190810160405280929190818152602001828054610e9890611af1565b8015610ee55780601f10610eba57610100808354040283529160200191610ee5565b820191906000526020600020905b815481529060010190602001808311610ec857829003601f168201915b5050505050908060030154908060040160009054906101000a900473ffffffffffffffffffffffffffffffffffffffff16908060050154905086565b610f2a82610494565b610f3381610fad565b610f3d83836110ba565b50505050565b60007f01ffc9a7000000000000000000000000000000000000000000000000000000007bffffffffffffffffffffffffffffffffffffffffffffffffffffffff1916827bffffffffffffffffffffffffffffffffffffffffffffffffffffffff1916149050919050565b610fbe81610fb96110b2565b6111ac565b50565b6000610fcd8383610dcc565b6110a757600160008085815260200190815260200160002060000160008473ffffffffffffffffffffffffffffffffffffffff1673ffffffffffffffffffffffffffffffffffffffff16815260200190815260200160002060006101000a81548160ff0219169083151502179055506110446110b2565b73ffffffffffffffffffffffffffffffffffffffff168273ffffffffffffffffffffffffffffffffffffffff16847f2f8788117e7eff1d82e926ec794901d17c78024a50270940304540a733656f0d60405160405180910390a4600190506110ac565b600090505b92915050565b600033905090565b60006110c68383610dcc565b156111a157600080600085815260200190815260200160002060000160008473ffffffffffffffffffffffffffffffffffffffff1673ffffffffffffffffffffffffffffffffffffffff16815260200190815260200160002060006101000a81548160ff02191690831515021790555061113e6110b2565b73ffffffffffffffffffffffffffffffffffffffff168273ffffffffffffffffffffffffffffffffffffffff16847ff6391f5c32d9c69d2a47ea670b442974b53935d1edc7fd64eb21e047a839171b60405160405180910390a4600190506111a6565b600090505b92915050565b6111b68282610dcc565b6111f95780826040517fe2517d3f0000000000000000000000000000000000000000000000000000000081526004016111f0929190611dc2565b60405180910390fd5b5050565b6000604051905090565b600080fd5b600080fd5b60007fffffffff0000000000000000000000000000000000000000000000000000000082169050919050565b61124681611211565b811461125157600080fd5b50565b6000813590506112638161123d565b92915050565b60006020828403121561127f5761127e611207565b5b600061128d84828501611254565b91505092915050565b60008115159050919050565b6112ab81611296565b82525050565b60006020820190506112c660008301846112a2565b92915050565b6000819050919050565b6112df816112cc565b81146112ea57600080fd5b50565b6000813590506112fc816112d6565b92915050565b60006020828403121561131857611317611207565b5b6000611326848285016112ed565b91505092915050565b611338816112cc565b82525050565b6000602082019050611353600083018461132f565b92915050565b600073ffffffffffffffffffffffffffffffffffffffff82169050919050565b600061138482611359565b9050919050565b61139481611379565b811461139f57600080fd5b50565b6000813590506113b18161138b565b92915050565b600080604083850312156113ce576113cd611207565b5b60006113dc858286016112ed565b92505060206113ed858286016113a2565b9150509250929050565b6000819050919050565b61140a816113f7565b811461141557600080fd5b50565b60008135905061142781611401565b92915050565b60006020828403121561144357611442611207565b5b600061145184828501611418565b91505092915050565b611463816113f7565b82525050565b600060208201905061147e600083018461145a565b92915050565b600080fd5b600080fd5b6000601f19601f8301169050919050565b7f4e487b7100000000000000000000000000000000000000000000000000000000600052604160045260246000fd5b6114d78261148e565b810181811067ffffffffffffffff821117156114f6576114f561149f565b5b80604052505050565b60006115096111fd565b905061151582826114ce565b919050565b600067ffffffffffffffff8211156115355761153461149f565b5b61153e8261148e565b9050602081019050919050565b82818337600083830152505050565b600061156d6115688461151a565b6114ff565b90508281526020810184848401111561158957611588611489565b5b61159484828561154b565b509392505050565b600082601f8301126115b1576115b0611484565b5b81356115c184826020860161155a565b91505092915050565b6000806000606084860312156115e3576115e2611207565b5b60006115f1868287016112ed565b935050602084013567ffffffffffffffff8111156116125761161161120c565b5b61161e8682870161159c565b925050604061162f86828701611418565b9150509250925092565b60006020828403121561164f5761164e611207565b5b600061165d848285016113a2565b91505092915050565b6000806040838503121561167d5761167c611207565b5b600061168b85828601611418565b925050602061169c85828601611418565b9150509250929050565b600081519050919050565b600082825260208201905092915050565b60005b838110156116e05780820151818401526020810190506116c5565b60008484015250505050565b60006116f7826116a6565b61170181856116b1565b93506117118185602086016116c2565b61171a8161148e565b840191505092915050565b61172e81611379565b82525050565b6000608082019050611749600083018761145a565b818103602083015261175b81866116ec565b905061176a6040830185611725565b611777606083018461145a565b95945050505050565b6000806040838503121561179757611796611207565b5b60006117a585828601611418565b925050602083013567ffffffffffffffff8111156117c6576117c561120c565b5b6117d28582860161159c565b9150509250929050565b600081519050919050565b600082825260208201905092915050565b6000819050602082019050919050565b611811816113f7565b82525050565b600082825260208201905092915050565b6000611833826116a6565b61183d8185611817565b935061184d8185602086016116c2565b6118568161148e565b840191505092915050565b61186a81611379565b82525050565b60006080830160008301516118886000860182611808565b50602083015184820360208601526118a08282611828565b91505060408301516118b56040860182611861565b5060608301516118c86060860182611808565b508091505092915050565b60006118df8383611870565b905092915050565b6000602082019050919050565b60006118ff826117dc565b61190981856117e7565b93508360208202850161191b856117f8565b8060005b85811015611957578484038952815161193885826118d3565b9450611943836118e7565b925060208a0199505060018101905061191f565b50829750879550505050505092915050565b6000602082019050818103600083015261198381846118f4565b905092915050565b600060c0820190506119a0600083018961145a565b6119ad602083018861132f565b81810360408301526119bf81876116ec565b90506119ce606083018661145a565b6119db6080830185611725565b6119e860a083018461145a565b979650505050505050565b7f5265636f726420646f6573206e6f742065786973740000000000000000000000600082015250565b6000611a296015836116b1565b9150611a34826119f3565b602082019050919050565b60006020820190508181036000830152611a5881611a1c565b9050919050565b7f4e487b7100000000000000000000000000000000000000000000000000000000600052601160045260246000fd5b6000611a99826113f7565b9150611aa4836113f7565b9250828201905080821115611abc57611abb611a5f565b5b92915050565b7f4e487b7100000000000000000000000000000000000000000000000000000000600052602260045260246000fd5b60006002820490506001821680611b0957607f821691505b602082108103611b1c57611b1b611ac2565b5b50919050565b60008190508160005260206000209050919050565b60006020601f8301049050919050565b600082821b905092915050565b600060088302611b847fffffffffffffffffffffffffffffffffffffffffffffffffffffffffffffffff82611b47565b611b8e8683611b47565b95508019841693508086168417925050509392505050565b6000819050919050565b6000611bcb611bc6611bc1846113f7565b611ba6565b6113f7565b9050919050565b6000819050919050565b611be583611bb0565b611bf9611bf182611bd2565b848454611b54565b825550505050565b600090565b611c0e611c01565b611c19818484611bdc565b505050565b5b81811015611c3d57611c32600082611c06565b600181019050611c1f565b5050565b601f821115611c8257611c5381611b22565b611c5c84611b37565b81016020851015611c6b578190505b611c7f611c7785611b37565b830182611c1e565b50505b505050565b600082821c905092915050565b6000611ca560001984600802611c87565b1980831691505092915050565b6000611cbe8383611c94565b9150826002028217905092915050565b611cd7826116a6565b67ffffffffffffffff811115611cf057611cef61149f565b5b611cfa8254611af1565b611d05828285611c41565b600060209050601f831160018114611d385760008415611d26578287015190505b611d308582611cb2565b865550611d98565b601f198416611d4686611b22565b60005b82811015611d6e57848901518255600182019150602085019450602081019050611d49565b86831015611d8b5784890151611d87601f891682611c94565b8355505b6001600288020188555050505b505050505050565b60006020820190508181036000830152611dba81846116ec565b905092915050565b6000604082019050611dd76000830185611725565b611de4602083018461132f565b939250505056fea2646970667358221220c43cdb817486ee9ac890d9df28a0ec50c07ca909b00f8bbf38a13b66cceb809e64736f6c634300081c0033","opcodes":"PUSH1 0x80 PUSH1 0x40 MSTORE PUSH1 0x0 PUSH1 0x2 SSTORE CALLVALUE DUP1 ISZERO PUSH2 0x15 JUMPI PUSH1 0x0 DUP1 REVERT JUMPDEST POP PUSH2 0x29 PUSH1 0x0 DUP1 SHL CALLER PUSH2 0x2F PUSH1 0x20 SHL PUSH1 0x20 SHR JUMP JUMPDEST POP PUSH2 0x19E JUMP JUMPDEST PUSH1 0x0 PUSH2 0x41 DUP4 DUP4 PUSH2 0x12C PUSH1 0x20 SHL PUSH1 0x20 SHR JUMP JUMPDEST PUSH2 0x121 JUMPI PUSH1 0x1 PUSH1 0x0 DUP1 DUP6 DUP2 MSTORE PUSH1 0x20 ADD SWAP1 DUP2 MSTORE PUSH1 0x20 ADD PUSH1 0x0 KECCAK256 PUSH1 0x0 ADD PUSH1 0x0 DUP5 PUSH20 0xFFFFFFFFFFFFFFFFFFFFFFFFFFFFFFFFFFFFFFFF AND PUSH20 0xFFFFFFFFFFFFFFFFFFFFFFFFFFFFFFFFFFFFFFFF AND DUP2 MSTORE PUSH1 0x20 ADD SWAP1 DUP2 MSTORE PUSH1 0x20 ADD PUSH1 0x0 KECCAK256 PUSH1 0x0 PUSH2 0x100 EXP DUP2 SLOAD DUP2 PUSH1 0xFF MUL NOT AND SWAP1 DUP4 ISZERO ISZERO MUL OR SWAP1 SSTORE POP PUSH2 0xBE PUSH2 0x196 PUSH1 0x20 SHL PUSH1 0x20 SHR JUMP JUMPDEST PUSH20 0xFFFFFFFFFFFFFFFFFFFFFFFFFFFFFFFFFFFFFFFF AND DUP3 PUSH20 0xFFFFFFFFFFFFFFFFFFFFFFFFFFFFFFFFFFFFFFFF AND DUP5 PUSH32 0x2F8788117E7EFF1D82E926EC794901D17C78024A50270940304540A733656F0D PUSH1 0x40 MLOAD PUSH1 0x40 MLOAD DUP1 SWAP2 SUB SWAP1 LOG4 PUSH1 0x1 SWAP1 POP PUSH2 0x126 JUMP JUMPDEST PUSH1 0x0 SWAP1 POP JUMPDEST SWAP3 SWAP2 POP POP JUMP JUMPDEST PUSH1 0x0 DUP1 PUSH1 0x0 DUP5 DUP2 MSTORE PUSH1 0x20 ADD SWAP1 DUP2 MSTORE PUSH1 0x20 ADD PUSH1 0x0 KECCAK256 PUSH1 0x0 ADD PUSH1 0x0 DUP4 PUSH20 0xFFFFFFFFFFFFFFFFFFFFFFFFFFFFFFFFFFFFFFFF AND PUSH20 0xFFFFFFFFFFFFFFFFFFFFFFFFFFFFFFFFFFFFFFFF AND DUP2 MSTORE PUSH1 0x20 ADD SWAP1 DUP2 MSTORE PUSH1 0x20 ADD PUSH1 0x0 KECCAK256 PUSH1 0x0 SWAP1 SLOAD SWAP1 PUSH2 0x100 EXP SWAP1 DIV PUSH1 0xFF AND SWAP1 POP SWAP3 SWAP2 POP POP JUMP JUMPDEST PUSH1 0x0 CALLER SWAP1 POP SWAP1 JUMP JUMPDEST PUSH2 0x1E21 DUP1 PUSH2 0x1AD PUSH1 0x0 CODECOPY PUSH1 0x0 RETURN INVALID PUSH1 0x80 PUSH1 0x40 MSTORE CALLVALUE DUP1 ISZERO PUSH2 0x10 JUMPI PUSH1 0x0 DUP1 REVERT JUMPDEST POP PUSH1 0x4 CALLDATASIZE LT PUSH2 0x12C JUMPI PUSH1 0x0 CALLDATALOAD PUSH1 0xE0 SHR DUP1 PUSH4 0x656A42BE GT PUSH2 0xAD JUMPI DUP1 PUSH4 0x900407BC GT PUSH2 0x71 JUMPI DUP1 PUSH4 0x900407BC EQ PUSH2 0x35D JUMPI DUP1 PUSH4 0x91D14854 EQ PUSH2 0x37B JUMPI DUP1 PUSH4 0xA217FDDF EQ PUSH2 0x3AB JUMPI DUP1 PUSH4 0xBAC5D8F9 EQ PUSH2 0x3C9 JUMPI DUP1 PUSH4 0xD547741F EQ PUSH2 0x3FE JUMPI PUSH2 0x12C JUMP JUMPDEST DUP1 PUSH4 0x656A42BE EQ PUSH2 0x2A0 JUMPI DUP1 PUSH4 0x66CF3930 EQ PUSH2 0x2BE JUMPI DUP1 PUSH4 0x66E1D6AF EQ PUSH2 0x2DA JUMPI DUP1 PUSH4 0x6E1D616E EQ PUSH2 0x30A JUMPI DUP1 PUSH4 0x76E2F16A EQ PUSH2 0x328 JUMPI PUSH2 0x12C JUMP JUMPDEST DUP1 PUSH4 0x36568ABE GT PUSH2 0xF4 JUMPI DUP1 PUSH4 0x36568ABE EQ PUSH2 0x1FB JUMPI DUP1 PUSH4 0x487819DB EQ PUSH2 0x217 JUMPI DUP1 PUSH4 0x4D320C31 EQ PUSH2 0x233 JUMPI DUP1 PUSH4 0x5843296E EQ PUSH2 0x251 JUMPI DUP1 PUSH4 0x5CA26DE1 EQ PUSH2 0x26D JUMPI PUSH2 0x12C JUMP JUMPDEST DUP1 PUSH4 0x1FFC9A7 EQ PUSH2 0x131 JUMPI DUP1 PUSH4 0x248A9CA3 EQ PUSH2 0x161 JUMPI DUP1 PUSH4 0x2B9E1D70 EQ PUSH2 0x191 JUMPI DUP1 PUSH4 0x2F2FF15D EQ PUSH2 0x1AF JUMPI DUP1 PUSH4 0x347C19CD EQ PUSH2 0x1CB JUMPI JUMPDEST PUSH1 0x0 DUP1 REVERT JUMPDEST PUSH2 0x14B PUSH1 0x4 DUP1 CALLDATASIZE SUB DUP2 ADD SWAP1 PUSH2 0x146 SWAP2 SWAP1 PUSH2 0x1269 JUMP JUMPDEST PUSH2 0x41A JUMP JUMPDEST PUSH1 0x40 MLOAD PUSH2 0x158 SWAP2 SWAP1 PUSH2 0x12B1 JUMP JUMPDEST PUSH1 0x40 MLOAD DUP1 SWAP2 SUB SWAP1 RETURN JUMPDEST PUSH2 0x17B PUSH1 0x4 DUP1 CALLDATASIZE SUB DUP2 ADD SWAP1 PUSH2 0x176 SWAP2 SWAP1 PUSH2 0x1302 JUMP JUMPDEST PUSH2 0x494 JUMP JUMPDEST PUSH1 0x40 MLOAD PUSH2 0x188 SWAP2 SWAP1 PUSH2 0x133E JUMP JUMPDEST PUSH1 0x40 MLOAD DUP1 SWAP2 SUB SWAP1 RETURN JUMPDEST PUSH2 0x199 PUSH2 0x4B3 JUMP JUMPDEST PUSH1 0x40 MLOAD PUSH2 0x1A6 SWAP2 SWAP1 PUSH2 0x133E JUMP JUMPDEST PUSH1 0x40 MLOAD DUP1 SWAP2 SUB SWAP1 RETURN JUMPDEST PUSH2 0x1C9 PUSH1 0x4 DUP1 CALLDATASIZE SUB DUP2 ADD SWAP1 PUSH2 0x1C4 SWAP2 SWAP1 PUSH2 0x13B7 JUMP JUMPDEST PUSH2 0x4D7 JUMP JUMPDEST STOP JUMPDEST PUSH2 0x1E5 PUSH1 0x4 DUP1 CALLDATASIZE SUB DUP2 ADD SWAP1 PUSH2 0x1E0 SWAP2 SWAP1 PUSH2 0x142D JUMP JUMPDEST PUSH2 0x4F9 JUMP JUMPDEST PUSH1 0x40 MLOAD PUSH2 0x1F2 SWAP2 SWAP1 PUSH2 0x1469 JUMP JUMPDEST PUSH1 0x40 MLOAD DUP1 SWAP2 SUB SWAP1 RETURN JUMPDEST PUSH2 0x215 PUSH1 0x4 DUP1 CALLDATASIZE SUB DUP2 ADD SWAP1 PUSH2 0x210 SWAP2 SWAP1 PUSH2 0x13B7 JUMP JUMPDEST PUSH2 0x569 JUMP JUMPDEST STOP JUMPDEST PUSH2 0x231 PUSH1 0x4 DUP1 CALLDATASIZE SUB DUP2 ADD SWAP1 PUSH2 0x22C SWAP2 SWAP1 PUSH2 0x15CA JUMP JUMPDEST PUSH2 0x5E4 JUMP JUMPDEST STOP JUMPDEST PUSH2 0x23B PUSH2 0x761 JUMP JUMPDEST PUSH1 0x40 MLOAD PUSH2 0x248 SWAP2 SWAP1 PUSH2 0x133E JUMP JUMPDEST PUSH1 0x40 MLOAD DUP1 SWAP2 SUB SWAP1 RETURN JUMPDEST PUSH2 0x26B PUSH1 0x4 DUP1 CALLDATASIZE SUB DUP2 ADD SWAP1 PUSH2 0x266 SWAP2 SWAP1 PUSH2 0x1639 JUMP JUMPDEST PUSH2 0x785 JUMP JUMPDEST STOP JUMPDEST PUSH2 0x287 PUSH1 0x4 DUP1 CALLDATASIZE SUB DUP2 ADD SWAP1 PUSH2 0x282 SWAP2 SWAP1 PUSH2 0x1666 JUMP JUMPDEST PUSH2 0x7C0 JUMP JUMPDEST PUSH1 0x40 MLOAD PUSH2 0x297 SWAP5 SWAP4 SWAP3 SWAP2 SWAP1 PUSH2 0x1734 JUMP JUMPDEST PUSH1 0x40 MLOAD DUP1 SWAP2 SUB SWAP1 RETURN JUMPDEST PUSH2 0x2A8 PUSH2 0x8B5 JUMP JUMPDEST PUSH1 0x40 MLOAD PUSH2 0x2B5 SWAP2 SWAP1 PUSH2 0x1469 JUMP JUMPDEST PUSH1 0x40 MLOAD DUP1 SWAP2 SUB SWAP1 RETURN JUMPDEST PUSH2 0x2D8 PUSH1 0x4 DUP1 CALLDATASIZE SUB DUP2 ADD SWAP1 PUSH2 0x2D3 SWAP2 SWAP1 PUSH2 0x1780 JUMP JUMPDEST PUSH2 0x8BF JUMP JUMPDEST STOP JUMPDEST PUSH2 0x2F4 PUSH1 0x4 DUP1 CALLDATASIZE SUB DUP2 ADD SWAP1 PUSH2 0x2EF SWAP2 SWAP1 PUSH2 0x142D JUMP JUMPDEST PUSH2 0xA74 JUMP JUMPDEST PUSH1 0x40 MLOAD PUSH2 0x301 SWAP2 SWAP1 PUSH2 0x1969 JUMP JUMPDEST PUSH1 0x40 MLOAD DUP1 SWAP2 SUB SWAP1 RETURN JUMPDEST PUSH2 0x312 PUSH2 0xC33 JUMP JUMPDEST PUSH1 0x40 MLOAD PUSH2 0x31F SWAP2 SWAP1 PUSH2 0x133E JUMP JUMPDEST PUSH1 0x40 MLOAD DUP1 SWAP2 SUB SWAP1 RETURN JUMPDEST PUSH2 0x342 PUSH1 0x4 DUP1 CALLDATASIZE SUB DUP2 ADD SWAP1 PUSH2 0x33D SWAP2 SWAP1 PUSH2 0x142D JUMP JUMPDEST PUSH2 0xC57 JUMP JUMPDEST PUSH1 0x40 MLOAD PUSH2 0x354 SWAP7 SWAP6 SWAP5 SWAP4 SWAP3 SWAP2 SWAP1 PUSH2 0x198B JUMP JUMPDEST PUSH1 0x40 MLOAD DUP1 SWAP2 SUB SWAP1 RETURN JUMPDEST PUSH2 0x365 PUSH2 0xDC6 JUMP JUMPDEST PUSH1 0x40 MLOAD PUSH2 0x372 SWAP2 SWAP1 PUSH2 0x1469 JUMP JUMPDEST PUSH1 0x40 MLOAD DUP1 SWAP2 SUB SWAP1 RETURN JUMPDEST PUSH2 0x395 PUSH1 0x4 DUP1 CALLDATASIZE SUB DUP2 ADD SWAP1 PUSH2 0x390 SWAP2 SWAP1 PUSH2 0x13B7 JUMP JUMPDEST PUSH2 0xDCC JUMP JUMPDEST PUSH1 0x40 MLOAD PUSH2 0x3A2 SWAP2 SWAP1 PUSH2 0x12B1 JUMP JUMPDEST PUSH1 0x40 MLOAD DUP1 SWAP2 SUB SWAP1 RETURN JUMPDEST PUSH2 0x3B3 PUSH2 0xE36 JUMP JUMPDEST PUSH1 0x40 MLOAD PUSH2 0x3C0 SWAP2 SWAP1 PUSH2 0x133E JUMP JUMPDEST PUSH1 0x40 MLOAD DUP1 SWAP2 SUB SWAP1 RETURN JUMPDEST PUSH2 0x3E3 PUSH1 0x4 DUP1 CALLDATASIZE SUB DUP2 ADD SWAP1 PUSH2 0x3DE SWAP2 SWAP1 PUSH2 0x142D JUMP JUMPDEST PUSH2 0xE3D JUMP JUMPDEST PUSH1 0x40 MLOAD PUSH2 0x3F5 SWAP7 SWAP6 SWAP5 SWAP4 SWAP3 SWAP2 SWAP1 PUSH2 0x198B JUMP JUMPDEST PUSH1 0x40 MLOAD DUP1 SWAP2 SUB SWAP1 RETURN JUMPDEST PUSH2 0x418 PUSH1 0x4 DUP1 CALLDATASIZE SUB DUP2 ADD SWAP1 PUSH2 0x413 SWAP2 SWAP1 PUSH2 0x13B7 JUMP JUMPDEST PUSH2 0xF21 JUMP JUMPDEST STOP JUMPDEST PUSH1 0x0 PUSH32 0x7965DB0B00000000000000000000000000000000000000000000000000000000 PUSH28 0xFFFFFFFFFFFFFFFFFFFFFFFFFFFFFFFFFFFFFFFFFFFFFFFFFFFFFFFF NOT AND DUP3 PUSH28 0xFFFFFFFFFFFFFFFFFFFFFFFFFFFFFFFFFFFFFFFFFFFFFFFFFFFFFFFF NOT AND EQ DUP1 PUSH2 0x48D JUMPI POP PUSH2 0x48C DUP3 PUSH2 0xF43 JUMP JUMPDEST JUMPDEST SWAP1 POP SWAP2 SWAP1 POP JUMP JUMPDEST PUSH1 0x0 DUP1 PUSH1 0x0 DUP4 DUP2 MSTORE PUSH1 0x20 ADD SWAP1 DUP2 MSTORE PUSH1 0x20 ADD PUSH1 0x0 KECCAK256 PUSH1 0x1 ADD SLOAD SWAP1 POP SWAP2 SWAP1 POP JUMP JUMPDEST PUSH32 0x8F1426173EB922D2001706A308DABFA96E3C06475230FB5111184F70A4B5776D DUP2 JUMP JUMPDEST PUSH2 0x4E0 DUP3 PUSH2 0x494 JUMP JUMPDEST PUSH2 0x4E9 DUP2 PUSH2 0xFAD JUMP JUMPDEST PUSH2 0x4F3 DUP4 DUP4 PUSH2 0xFC1 JUMP JUMPDEST POP POP POP POP JUMP JUMPDEST PUSH1 0x0 DUP1 DUP3 GT DUP1 ISZERO PUSH2 0x50C JUMPI POP PUSH1 0x2 SLOAD DUP3 GT ISZERO JUMPDEST PUSH2 0x54B JUMPI PUSH1 0x40 MLOAD PUSH32 0x8C379A000000000000000000000000000000000000000000000000000000000 DUP2 MSTORE PUSH1 0x4 ADD PUSH2 0x542 SWAP1 PUSH2 0x1A3F JUMP JUMPDEST PUSH1 0x40 MLOAD DUP1 SWAP2 SUB SWAP1 REVERT JUMPDEST PUSH1 0x3 PUSH1 0x0 DUP4 DUP2 MSTORE PUSH1 0x20 ADD SWAP1 DUP2 MSTORE PUSH1 0x20 ADD PUSH1 0x0 KECCAK256 DUP1 SLOAD SWAP1 POP SWAP1 POP SWAP2 SWAP1 POP JUMP JUMPDEST PUSH2 0x571 PUSH2 0x10B2 JUMP JUMPDEST PUSH20 0xFFFFFFFFFFFFFFFFFFFFFFFFFFFFFFFFFFFFFFFF AND DUP2 PUSH20 0xFFFFFFFFFFFFFFFFFFFFFFFFFFFFFFFFFFFFFFFF AND EQ PUSH2 0x5D5 JUMPI PUSH1 0x40 MLOAD PUSH32 0x6697B23200000000000000000000000000000000000000000000000000000000 DUP2 MSTORE PUSH1 0x4 ADD PUSH1 0x40 MLOAD DUP1 SWAP2 SUB SWAP1 REVERT JUMPDEST PUSH2 0x5DF DUP3 DUP3 PUSH2 0x10BA JUMP JUMPDEST POP POP POP JUMP JUMPDEST PUSH32 0x94AC8BF7C2C0D570B676D8037EAA0516224E8BCA85D85E9465DB2088D225FCAB PUSH2 0x60E DUP2 PUSH2 0xFAD JUMP JUMPDEST PUSH1 0x1 PUSH1 0x2 PUSH1 0x0 DUP3 DUP3 SLOAD PUSH2 0x621 SWAP2 SWAP1 PUSH2 0x1A8E JUMP JUMPDEST SWAP3 POP POP DUP2 SWAP1 SSTORE POP PUSH1 0x40 MLOAD DUP1 PUSH1 0xC0 ADD PUSH1 0x40 MSTORE DUP1 PUSH1 0x2 SLOAD DUP2 MSTORE PUSH1 0x20 ADD DUP6 DUP2 MSTORE PUSH1 0x20 ADD DUP5 DUP2 MSTORE PUSH1 0x20 ADD DUP4 DUP2 MSTORE PUSH1 0x20 ADD CALLER PUSH20 0xFFFFFFFFFFFFFFFFFFFFFFFFFFFFFFFFFFFFFFFF AND DUP2 MSTORE PUSH1 0x20 ADD TIMESTAMP DUP2 MSTORE POP PUSH1 0x1 PUSH1 0x0 PUSH1 0x2 SLOAD DUP2 MSTORE PUSH1 0x20 ADD SWAP1 DUP2 MSTORE PUSH1 0x20 ADD PUSH1 0x0 KECCAK256 PUSH1 0x0 DUP3 ADD MLOAD DUP2 PUSH1 0x0 ADD SSTORE PUSH1 0x20 DUP3 ADD MLOAD DUP2 PUSH1 0x1 ADD SSTORE PUSH1 0x40 DUP3 ADD MLOAD DUP2 PUSH1 0x2 ADD SWAP1 DUP2 PUSH2 0x6AB SWAP2 SWAP1 PUSH2 0x1CCE JUMP JUMPDEST POP PUSH1 0x60 DUP3 ADD MLOAD DUP2 PUSH1 0x3 ADD SSTORE PUSH1 0x80 DUP3 ADD MLOAD DUP2 PUSH1 0x4 ADD PUSH1 0x0 PUSH2 0x100 EXP DUP2 SLOAD DUP2 PUSH20 0xFFFFFFFFFFFFFFFFFFFFFFFFFFFFFFFFFFFFFFFF MUL NOT AND SWAP1 DUP4 PUSH20 0xFFFFFFFFFFFFFFFFFFFFFFFFFFFFFFFFFFFFFFFF AND MUL OR SWAP1 SSTORE POP PUSH1 0xA0 DUP3 ADD MLOAD DUP2 PUSH1 0x5 ADD SSTORE SWAP1 POP POP CALLER PUSH20 0xFFFFFFFFFFFFFFFFFFFFFFFFFFFFFFFFFFFFFFFF AND PUSH1 0x2 SLOAD PUSH32 0xB47AEFD0FCF9EA22919B53C3E42140E5FBCFED253F5AA6DC225CB4FA19152784 DUP7 PUSH1 0x40 MLOAD PUSH2 0x753 SWAP2 SWAP1 PUSH2 0x133E JUMP JUMPDEST PUSH1 0x40 MLOAD DUP1 SWAP2 SUB SWAP1 LOG3 POP POP POP POP JUMP JUMPDEST PUSH32 0x94AC8BF7C2C0D570B676D8037EAA0516224E8BCA85D85E9465DB2088D225FCAB DUP2 JUMP JUMPDEST PUSH1 0x0 DUP1 SHL PUSH2 0x792 DUP2 PUSH2 0xFAD JUMP JUMPDEST PUSH2 0x7BC PUSH32 0x94AC8BF7C2C0D570B676D8037EAA0516224E8BCA85D85E9465DB2088D225FCAB DUP4 PUSH2 0x4D7 JUMP JUMPDEST POP POP JUMP JUMPDEST PUSH1 0x3 PUSH1 0x20 MSTORE DUP2 PUSH1 0x0 MSTORE PUSH1 0x40 PUSH1 0x0 KECCAK256 DUP2 DUP2 SLOAD DUP2 LT PUSH2 0x7DC JUMPI PUSH1 0x0 DUP1 REVERT JUMPDEST SWAP1 PUSH1 0x0 MSTORE PUSH1 0x20 PUSH1 0x0 KECCAK256 SWAP1 PUSH1 0x4 MUL ADD PUSH1 0x0 SWAP2 POP SWAP2 POP POP DUP1 PUSH1 0x0 ADD SLOAD SWAP1 DUP1 PUSH1 0x1 ADD DUP1 SLOAD PUSH2 0x806 SWAP1 PUSH2 0x1AF1 JUMP JUMPDEST DUP1 PUSH1 0x1F ADD PUSH1 0x20 DUP1 SWAP2 DIV MUL PUSH1 0x20 ADD PUSH1 0x40 MLOAD SWAP1 DUP2 ADD PUSH1 0x40 MSTORE DUP1 SWAP3 SWAP2 SWAP1 DUP2 DUP2 MSTORE PUSH1 0x20 ADD DUP3 DUP1 SLOAD PUSH2 0x832 SWAP1 PUSH2 0x1AF1 JUMP JUMPDEST DUP1 ISZERO PUSH2 0x87F JUMPI DUP1 PUSH1 0x1F LT PUSH2 0x854 JUMPI PUSH2 0x100 DUP1 DUP4 SLOAD DIV MUL DUP4 MSTORE SWAP2 PUSH1 0x20 ADD SWAP2 PUSH2 0x87F JUMP JUMPDEST DUP3 ADD SWAP2 SWAP1 PUSH1 0x0 MSTORE PUSH1 0x20 PUSH1 0x0 KECCAK256 SWAP1 JUMPDEST DUP2 SLOAD DUP2 MSTORE SWAP1 PUSH1 0x1 ADD SWAP1 PUSH1 0x20 ADD DUP1 DUP4 GT PUSH2 0x862 JUMPI DUP3 SWAP1 SUB PUSH1 0x1F AND DUP3 ADD SWAP2 JUMPDEST POP POP POP POP POP SWAP1 DUP1 PUSH1 0x2 ADD PUSH1 0x0 SWAP1 SLOAD SWAP1 PUSH2 0x100 EXP SWAP1 DIV PUSH20 0xFFFFFFFFFFFFFFFFFFFFFFFFFFFFFFFFFFFFFFFF AND SWAP1 DUP1 PUSH1 0x3 ADD SLOAD SWAP1 POP DUP5 JUMP JUMPDEST PUSH1 0x0 PUSH1 0x2 SLOAD SWAP1 POP SWAP1 JUMP JUMPDEST PUSH32 0x59A1C48E5837AD7A7F3DCEDCBE129BF3249EC4FBF651FD4F5E2600EAD39FE2F5 PUSH2 0x8E9 DUP2 PUSH2 0xFAD JUMP JUMPDEST PUSH1 0x0 DUP4 GT DUP1 ISZERO PUSH2 0x8FB JUMPI POP PUSH1 0x2 SLOAD DUP4 GT ISZERO JUMPDEST PUSH2 0x93A JUMPI PUSH1 0x40 MLOAD PUSH32 0x8C379A000000000000000000000000000000000000000000000000000000000 DUP2 MSTORE PUSH1 0x4 ADD PUSH2 0x931 SWAP1 PUSH2 0x1A3F JUMP JUMPDEST PUSH1 0x40 MLOAD DUP1 SWAP2 SUB SWAP1 REVERT JUMPDEST PUSH1 0x3 PUSH1 0x0 DUP5 DUP2 MSTORE PUSH1 0x20 ADD SWAP1 DUP2 MSTORE PUSH1 0x20 ADD PUSH1 0x0 KECCAK256 PUSH1 0x40 MLOAD DUP1 PUSH1 0x80 ADD PUSH1 0x40 MSTORE DUP1 DUP6 DUP2 MSTORE PUSH1 0x20 ADD DUP5 DUP2 MSTORE PUSH1 0x20 ADD CALLER PUSH20 0xFFFFFFFFFFFFFFFFFFFFFFFFFFFFFFFFFFFFFFFF AND DUP2 MSTORE PUSH1 0x20 ADD TIMESTAMP DUP2 MSTORE POP SWAP1 DUP1 PUSH1 0x1 DUP2 SLOAD ADD DUP1 DUP3 SSTORE DUP1 SWAP2 POP POP PUSH1 0x1 SWAP1 SUB SWAP1 PUSH1 0x0 MSTORE PUSH1 0x20 PUSH1 0x0 KECCAK256 SWAP1 PUSH1 0x4 MUL ADD PUSH1 0x0 SWAP1 SWAP2 SWAP1 SWAP2 SWAP1 SWAP2 POP PUSH1 0x0 DUP3 ADD MLOAD DUP2 PUSH1 0x0 ADD SSTORE PUSH1 0x20 DUP3 ADD MLOAD DUP2 PUSH1 0x1 ADD SWAP1 DUP2 PUSH2 0x9CC SWAP2 SWAP1 PUSH2 0x1CCE JUMP JUMPDEST POP PUSH1 0x40 DUP3 ADD MLOAD DUP2 PUSH1 0x2 ADD PUSH1 0x0 PUSH2 0x100 EXP DUP2 SLOAD DUP2 PUSH20 0xFFFFFFFFFFFFFFFFFFFFFFFFFFFFFFFFFFFFFFFF MUL NOT AND SWAP1 DUP4 PUSH20 0xFFFFFFFFFFFFFFFFFFFFFFFFFFFFFFFFFFFFFFFF AND MUL OR SWAP1 SSTORE POP PUSH1 0x60 DUP3 ADD MLOAD DUP2 PUSH1 0x3 ADD SSTORE POP POP CALLER PUSH20 0xFFFFFFFFFFFFFFFFFFFFFFFFFFFFFFFFFFFFFFFF AND DUP4 PUSH32 0xAE05E28E072A893738DD5E5FE7B7DE2434BBF70C0DA8BE431CA7F522A583DEE4 DUP5 PUSH1 0x40 MLOAD PUSH2 0xA67 SWAP2 SWAP1 PUSH2 0x1DA0 JUMP JUMPDEST PUSH1 0x40 MLOAD DUP1 SWAP2 SUB SWAP1 LOG3 POP POP POP JUMP JUMPDEST PUSH1 0x60 PUSH1 0x0 DUP3 GT DUP1 ISZERO PUSH2 0xA88 JUMPI POP PUSH1 0x2 SLOAD DUP3 GT ISZERO JUMPDEST PUSH2 0xAC7 JUMPI PUSH1 0x40 MLOAD PUSH32 0x8C379A000000000000000000000000000000000000000000000000000000000 DUP2 MSTORE PUSH1 0x4 ADD PUSH2 0xABE SWAP1 PUSH2 0x1A3F JUMP JUMPDEST PUSH1 0x40 MLOAD DUP1 SWAP2 SUB SWAP1 REVERT JUMPDEST PUSH1 0x3 PUSH1 0x0 DUP4 DUP2 MSTORE PUSH1 0x20 ADD SWAP1 DUP2 MSTORE PUSH1 0x20 ADD PUSH1 0x0 KECCAK256 DUP1 SLOAD DUP1 PUSH1 0x20 MUL PUSH1 0x20 ADD PUSH1 0x40 MLOAD SWAP1 DUP2 ADD PUSH1 0x40 MSTORE DUP1 SWAP3 SWAP2 SWAP1 DUP2 DUP2 MSTORE PUSH1 0x20 ADD PUSH1 0x0 SWAP1 JUMPDEST DUP3 DUP3 LT ISZERO PUSH2 0xC28 JUMPI DUP4 DUP3 SWAP1 PUSH1 0x0 MSTORE PUSH1 0x20 PUSH1 0x0 KECCAK256 SWAP1 PUSH1 0x4 MUL ADD PUSH1 0x40 MLOAD DUP1 PUSH1 0x80 ADD PUSH1 0x40 MSTORE SWAP1 DUP2 PUSH1 0x0 DUP3 ADD SLOAD DUP2 MSTORE PUSH1 0x20 ADD PUSH1 0x1 DUP3 ADD DUP1 SLOAD PUSH2 0xB37 SWAP1 PUSH2 0x1AF1 JUMP JUMPDEST DUP1 PUSH1 0x1F ADD PUSH1 0x20 DUP1 SWAP2 DIV MUL PUSH1 0x20 ADD PUSH1 0x40 MLOAD SWAP1 DUP2 ADD PUSH1 0x40 MSTORE DUP1 SWAP3 SWAP2 SWAP1 DUP2 DUP2 MSTORE PUSH1 0x20 ADD DUP3 DUP1 SLOAD PUSH2 0xB63 SWAP1 PUSH2 0x1AF1 JUMP JUMPDEST DUP1 ISZERO PUSH2 0xBB0 JUMPI DUP1 PUSH1 0x1F LT PUSH2 0xB85 JUMPI PUSH2 0x100 DUP1 DUP4 SLOAD DIV MUL DUP4 MSTORE SWAP2 PUSH1 0x20 ADD SWAP2 PUSH2 0xBB0 JUMP JUMPDEST DUP3 ADD SWAP2 SWAP1 PUSH1 0x0 MSTORE PUSH1 0x20 PUSH1 0x0 KECCAK256 SWAP1 JUMPDEST DUP2 SLOAD DUP2 MSTORE SWAP1 PUSH1 0x1 ADD SWAP1 PUSH1 0x20 ADD DUP1 DUP4 GT PUSH2 0xB93 JUMPI DUP3 SWAP1 SUB PUSH1 0x1F AND DUP3 ADD SWAP2 JUMPDEST POP POP POP POP POP DUP2 MSTORE PUSH1 0x20 ADD PUSH1 0x2 DUP3 ADD PUSH1 0x0 SWAP1 SLOAD SWAP1 PUSH2 0x100 EXP SWAP1 DIV PUSH20 0xFFFFFFFFFFFFFFFFFFFFFFFFFFFFFFFFFFFFFFFF AND PUSH20 0xFFFFFFFFFFFFFFFFFFFFFFFFFFFFFFFFFFFFFFFF AND PUSH20 0xFFFFFFFFFFFFFFFFFFFFFFFFFFFFFFFFFFFFFFFF AND DUP2 MSTORE PUSH1 0x20 ADD PUSH1 0x3 DUP3 ADD SLOAD DUP2 MSTORE POP POP DUP2 MSTORE PUSH1 0x20 ADD SWAP1 PUSH1 0x1 ADD SWAP1 PUSH2 0xAFA JUMP JUMPDEST POP POP POP POP SWAP1 POP SWAP2 SWAP1 POP JUMP JUMPDEST PUSH32 0x59A1C48E5837AD7A7F3DCEDCBE129BF3249EC4FBF651FD4F5E2600EAD39FE2F5 DUP2 JUMP JUMPDEST PUSH1 0x0 DUP1 PUSH1 0x60 PUSH1 0x0 DUP1 PUSH1 0x0 DUP1 PUSH1 0x1 PUSH1 0x0 DUP10 DUP2 MSTORE PUSH1 0x20 ADD SWAP1 DUP2 MSTORE PUSH1 0x20 ADD PUSH1 0x0 KECCAK256 PUSH1 0x40 MLOAD DUP1 PUSH1 0xC0 ADD PUSH1 0x40 MSTORE SWAP1 DUP2 PUSH1 0x0 DUP3 ADD SLOAD DUP2 MSTORE PUSH1 0x20 ADD PUSH1 0x1 DUP3 ADD SLOAD DUP2 MSTORE PUSH1 0x20 ADD PUSH1 0x2 DUP3 ADD DUP1 SLOAD PUSH2 0xCA4 SWAP1 PUSH2 0x1AF1 JUMP JUMPDEST DUP1 PUSH1 0x1F ADD PUSH1 0x20 DUP1 SWAP2 DIV MUL PUSH1 0x20 ADD PUSH1 0x40 MLOAD SWAP1 DUP2 ADD PUSH1 0x40 MSTORE DUP1 SWAP3 SWAP2 SWAP1 DUP2 DUP2 MSTORE PUSH1 0x20 ADD DUP3 DUP1 SLOAD PUSH2 0xCD0 SWAP1 PUSH2 0x1AF1 JUMP JUMPDEST DUP1 ISZERO PUSH2 0xD1D JUMPI DUP1 PUSH1 0x1F LT PUSH2 0xCF2 JUMPI PUSH2 0x100 DUP1 DUP4 SLOAD DIV MUL DUP4 MSTORE SWAP2 PUSH1 0x20 ADD SWAP2 PUSH2 0xD1D JUMP JUMPDEST DUP3 ADD SWAP2 SWAP1 PUSH1 0x0 MSTORE PUSH1 0x20 PUSH1 0x0 KECCAK256 SWAP1 JUMPDEST DUP2 SLOAD DUP2 MSTORE SWAP1 PUSH1 0x1 ADD SWAP1 PUSH1 0x20 ADD DUP1 DUP4 GT PUSH2 0xD00 JUMPI DUP3 SWAP1 SUB PUSH1 0x1F AND DUP3 ADD SWAP2 JUMPDEST POP POP POP POP POP DUP2 MSTORE PUSH1 0x20 ADD PUSH1 0x3 DUP3 ADD SLOAD DUP2 MSTORE PUSH1 0x20 ADD PUSH1 0x4 DUP3 ADD PUSH1 0x0 SWAP1 SLOAD SWAP1 PUSH2 0x100 EXP SWAP1 DIV PUSH20 0xFFFFFFFFFFFFFFFFFFFFFFFFFFFFFFFFFFFFFFFF AND PUSH20 0xFFFFFFFFFFFFFFFFFFFFFFFFFFFFFFFFFFFFFFFF AND PUSH20 0xFFFFFFFFFFFFFFFFFFFFFFFFFFFFFFFFFFFFFFFF AND DUP2 MSTORE PUSH1 0x20 ADD PUSH1 0x5 DUP3 ADD SLOAD DUP2 MSTORE POP POP SWAP1 POP DUP1 PUSH1 0x0 ADD MLOAD DUP2 PUSH1 0x20 ADD MLOAD DUP3 PUSH1 0x40 ADD MLOAD DUP4 PUSH1 0x60 ADD MLOAD DUP5 PUSH1 0x80 ADD MLOAD DUP6 PUSH1 0xA0 ADD MLOAD SWAP7 POP SWAP7 POP SWAP7 POP SWAP7 POP SWAP7 POP SWAP7 POP POP SWAP2 SWAP4 SWAP6 POP SWAP2 SWAP4 SWAP6 JUMP JUMPDEST PUSH1 0x2 SLOAD DUP2 JUMP JUMPDEST PUSH1 0x0 DUP1 PUSH1 0x0 DUP5 DUP2 MSTORE PUSH1 0x20 ADD SWAP1 DUP2 MSTORE PUSH1 0x20 ADD PUSH1 0x0 KECCAK256 PUSH1 0x0 ADD PUSH1 0x0 DUP4 PUSH20 0xFFFFFFFFFFFFFFFFFFFFFFFFFFFFFFFFFFFFFFFF AND PUSH20 0xFFFFFFFFFFFFFFFFFFFFFFFFFFFFFFFFFFFFFFFF AND DUP2 MSTORE PUSH1 0x20 ADD SWAP1 DUP2 MSTORE PUSH1 0x20 ADD PUSH1 0x0 KECCAK256 PUSH1 0x0 SWAP1 SLOAD SWAP1 PUSH2 0x100 EXP SWAP1 DIV PUSH1 0xFF AND SWAP1 POP SWAP3 SWAP2 POP POP JUMP JUMPDEST PUSH1 0x0 DUP1 SHL DUP2 JUMP JUMPDEST PUSH1 0x1 PUSH1 0x20 MSTORE DUP1 PUSH1 0x0 MSTORE PUSH1 0x40 PUSH1 0x0 KECCAK256 PUSH1 0x0 SWAP2 POP SWAP1 POP DUP1 PUSH1 0x0 ADD SLOAD SWAP1 DUP1 PUSH1 0x1 ADD SLOAD SWAP1 DUP1 PUSH1 0x2 ADD DUP1 SLOAD PUSH2 0xE6C SWAP1 PUSH2 0x1AF1 JUMP JUMPDEST DUP1 PUSH1 0x1F ADD PUSH1 0x20 DUP1 SWAP2 DIV MUL PUSH1 0x20 ADD PUSH1 0x40 MLOAD SWAP1 DUP2 ADD PUSH1 0x40 MSTORE DUP1 SWAP3 SWAP2 SWAP1 DUP2 DUP2 MSTORE PUSH1 0x20 ADD DUP3 DUP1 SLOAD PUSH2 0xE98 SWAP1 PUSH2 0x1AF1 JUMP JUMPDEST DUP1 ISZERO PUSH2 0xEE5 JUMPI DUP1 PUSH1 0x1F LT PUSH2 0xEBA JUMPI PUSH2 0x100 DUP1 DUP4 SLOAD DIV MUL DUP4 MSTORE SWAP2 PUSH1 0x20 ADD SWAP2 PUSH2 0xEE5 JUMP JUMPDEST DUP3 ADD SWAP2 SWAP1 PUSH1 0x0 MSTORE PUSH1 0x20 PUSH1 0x0 KECCAK256 SWAP1 JUMPDEST DUP2 SLOAD DUP2 MSTORE SWAP1 PUSH1 0x1 ADD SWAP1 PUSH1 0x20 ADD DUP1 DUP4 GT PUSH2 0xEC8 JUMPI DUP3 SWAP1 SUB PUSH1 0x1F AND DUP3 ADD SWAP2 JUMPDEST POP POP POP POP POP SWAP1 DUP1 PUSH1 0x3 ADD SLOAD SWAP1 DUP1 PUSH1 0x4 ADD PUSH1 0x0 SWAP1 SLOAD SWAP1 PUSH2 0x100 EXP SWAP1 DIV PUSH20 0xFFFFFFFFFFFFFFFFFFFFFFFFFFFFFFFFFFFFFFFF AND SWAP1 DUP1 PUSH1 0x5 ADD SLOAD SWAP1 POP DUP7 JUMP JUMPDEST PUSH2 0xF2A DUP3 PUSH2 0x494 JUMP JUMPDEST PUSH2 0xF33 DUP2 PUSH2 0xFAD JUMP JUMPDEST PUSH2 0xF3D DUP4 DUP4 PUSH2 0x10BA JUMP JUMPDEST POP POP POP POP JUMP JUMPDEST PUSH1 0x0 PUSH32 0x1FFC9A700000000000000000000000000000000000000000000000000000000 PUSH28 0xFFFFFFFFFFFFFFFFFFFFFFFFFFFFFFFFFFFFFFFFFFFFFFFFFFFFFFFF NOT AND DUP3 PUSH28 0xFFFFFFFFFFFFFFFFFFFFFFFFFFFFFFFFFFFFFFFFFFFFFFFFFFFFFFFF NOT AND EQ SWAP1 POP SWAP2 SWAP1 POP JUMP JUMPDEST PUSH2 0xFBE DUP2 PUSH2 0xFB9 PUSH2 0x10B2 JUMP JUMPDEST PUSH2 0x11AC JUMP JUMPDEST POP JUMP JUMPDEST PUSH1 0x0 PUSH2 0xFCD DUP4 DUP4 PUSH2 0xDCC JUMP JUMPDEST PUSH2 0x10A7 JUMPI PUSH1 0x1 PUSH1 0x0 DUP1 DUP6 DUP2 MSTORE PUSH1 0x20 ADD SWAP1 DUP2 MSTORE PUSH1 0x20 ADD PUSH1 0x0 KECCAK256 PUSH1 0x0 ADD PUSH1 0x0 DUP5 PUSH20 0xFFFFFFFFFFFFFFFFFFFFFFFFFFFFFFFFFFFFFFFF AND PUSH20 0xFFFFFFFFFFFFFFFFFFFFFFFFFFFFFFFFFFFFFFFF AND DUP2 MSTORE PUSH1 0x20 ADD SWAP1 DUP2 MSTORE PUSH1 0x20 ADD PUSH1 0x0 KECCAK256 PUSH1 0x0 PUSH2 0x100 EXP DUP2 SLOAD DUP2 PUSH1 0xFF MUL NOT AND SWAP1 DUP4 ISZERO ISZERO MUL OR SWAP1 SSTORE POP PUSH2 0x1044 PUSH2 0x10B2 JUMP JUMPDEST PUSH20 0xFFFFFFFFFFFFFFFFFFFFFFFFFFFFFFFFFFFFFFFF AND DUP3 PUSH20 0xFFFFFFFFFFFFFFFFFFFFFFFFFFFFFFFFFFFFFFFF AND DUP5 PUSH32 0x2F8788117E7EFF1D82E926EC794901D17C78024A50270940304540A733656F0D PUSH1 0x40 MLOAD PUSH1 0x40 MLOAD DUP1 SWAP2 SUB SWAP1 LOG4 PUSH1 0x1 SWAP1 POP PUSH2 0x10AC JUMP JUMPDEST PUSH1 0x0 SWAP1 POP JUMPDEST SWAP3 SWAP2 POP POP JUMP JUMPDEST PUSH1 0x0 CALLER SWAP1 POP SWAP1 JUMP JUMPDEST PUSH1 0x0 PUSH2 0x10C6 DUP4 DUP4 PUSH2 0xDCC JUMP JUMPDEST ISZERO PUSH2 0x11A1 JUMPI PUSH1 0x0 DUP1 PUSH1 0x0 DUP6 DUP2 MSTORE PUSH1 0x20 ADD SWAP1 DUP2 MSTORE PUSH1 0x20 ADD PUSH1 0x0 KECCAK256 PUSH1 0x0 ADD PUSH1 0x0 DUP5 PUSH20 0xFFFFFFFFFFFFFFFFFFFFFFFFFFFFFFFFFFFFFFFF AND PUSH20 0xFFFFFFFFFFFFFFFFFFFFFFFFFFFFFFFFFFFFFFFF AND DUP2 MSTORE PUSH1 0x20 ADD SWAP1 DUP2 MSTORE PUSH1 0x20 ADD PUSH1 0x0 KECCAK256 PUSH1 0x0 PUSH2 0x100 EXP DUP2 SLOAD DUP2 PUSH1 0xFF MUL NOT AND SWAP1 DUP4 ISZERO ISZERO MUL OR SWAP1 SSTORE POP PUSH2 0x113E PUSH2 0x10B2 JUMP JUMPDEST PUSH20 0xFFFFFFFFFFFFFFFFFFFFFFFFFFFFFFFFFFFFFFFF AND DUP3 PUSH20 0xFFFFFFFFFFFFFFFFFFFFFFFFFFFFFFFFFFFFFFFF AND DUP5 PUSH32 0xF6391F5C32D9C69D2A47EA670B442974B53935D1EDC7FD64EB21E047A839171B PUSH1 0x40 MLOAD PUSH1 0x40 MLOAD DUP1 SWAP2 SUB SWAP1 LOG4 PUSH1 0x1 SWAP1 POP PUSH2 0x11A6 JUMP JUMPDEST PUSH1 0x0 SWAP1 POP JUMPDEST SWAP3 SWAP2 POP POP JUMP JUMPDEST PUSH2 0x11B6 DUP3 DUP3 PUSH2 0xDCC JUMP JUMPDEST PUSH2 0x11F9 JUMPI DUP1 DUP3 PUSH1 0x40 MLOAD PUSH32 0xE2517D3F00000000000000000000000000000000000000000000000000000000 DUP2 MSTORE PUSH1 0x4 ADD PUSH2 0x11F0 SWAP3 SWAP2 SWAP1 PUSH2 0x1DC2 JUMP JUMPDEST PUSH1 0x40 MLOAD DUP1 SWAP2 SUB SWAP1 REVERT JUMPDEST POP POP JUMP JUMPDEST PUSH1 0x0 PUSH1 0x40 MLOAD SWAP1 POP SWAP1 JUMP JUMPDEST PUSH1 0x0 DUP1 REVERT JUMPDEST PUSH1 0x0 DUP1 REVERT JUMPDEST PUSH1 0x0 PUSH32 0xFFFFFFFF00000000000000000000000000000000000000000000000000000000 DUP3 AND SWAP1 POP SWAP2 SWAP1 POP JUMP JUMPDEST PUSH2 0x1246 DUP2 PUSH2 0x1211 JUMP JUMPDEST DUP2 EQ PUSH2 0x1251 JUMPI PUSH1 0x0 DUP1 REVERT JUMPDEST POP JUMP JUMPDEST PUSH1 0x0 DUP2 CALLDATALOAD SWAP1 POP PUSH2 0x1263 DUP2 PUSH2 0x123D JUMP JUMPDEST SWAP3 SWAP2 POP POP JUMP JUMPDEST PUSH1 0x0 PUSH1 0x20 DUP3 DUP5 SUB SLT ISZERO PUSH2 0x127F JUMPI PUSH2 0x127E PUSH2 0x1207 JUMP JUMPDEST JUMPDEST PUSH1 0x0 PUSH2 0x128D DUP5 DUP3 DUP6 ADD PUSH2 0x1254 JUMP JUMPDEST SWAP2 POP POP SWAP3 SWAP2 POP POP JUMP JUMPDEST PUSH1 0x0 DUP2 ISZERO ISZERO SWAP1 POP SWAP2 SWAP1 POP JUMP JUMPDEST PUSH2 0x12AB DUP2 PUSH2 0x1296 JUMP JUMPDEST DUP3 MSTORE POP POP JUMP JUMPDEST PUSH1 0x0 PUSH1 0x20 DUP3 ADD SWAP1 POP PUSH2 0x12C6 PUSH1 0x0 DUP4 ADD DUP5 PUSH2 0x12A2 JUMP JUMPDEST SWAP3 SWAP2 POP POP JUMP JUMPDEST PUSH1 0x0 DUP2 SWAP1 POP SWAP2 SWAP1 POP JUMP JUMPDEST PUSH2 0x12DF DUP2 PUSH2 0x12CC JUMP JUMPDEST DUP2 EQ PUSH2 0x12EA JUMPI PUSH1 0x0 DUP1 REVERT JUMPDEST POP JUMP JUMPDEST PUSH1 0x0 DUP2 CALLDATALOAD SWAP1 POP PUSH2 0x12FC DUP2 PUSH2 0x12D6 JUMP JUMPDEST SWAP3 SWAP2 POP POP JUMP JUMPDEST PUSH1 0x0 PUSH1 0x20 DUP3 DUP5 SUB SLT ISZERO PUSH2 0x1318 JUMPI PUSH2 0x1317 PUSH2 0x1207 JUMP JUMPDEST JUMPDEST PUSH1 0x0 PUSH2 0x1326 DUP5 DUP3 DUP6 ADD PUSH2 0x12ED JUMP JUMPDEST SWAP2 POP POP SWAP3 SWAP2 POP POP JUMP JUMPDEST PUSH2 0x1338 DUP2 PUSH2 0x12CC JUMP JUMPDEST DUP3 MSTORE POP POP JUMP JUMPDEST PUSH1 0x0 PUSH1 0x20 DUP3 ADD SWAP1 POP PUSH2 0x1353 PUSH1 0x0 DUP4 ADD DUP5 PUSH2 0x132F JUMP JUMPDEST SWAP3 SWAP2 POP POP JUMP JUMPDEST PUSH1 0x0 PUSH20 0xFFFFFFFFFFFFFFFFFFFFFFFFFFFFFFFFFFFFFFFF DUP3 AND SWAP1 POP SWAP2 SWAP1 POP JUMP JUMPDEST PUSH1 0x0 PUSH2 0x1384 DUP3 PUSH2 0x1359 JUMP JUMPDEST SWAP1 POP SWAP2 SWAP1 POP JUMP JUMPDEST PUSH2 0x1394 DUP2 PUSH2 0x1379 JUMP JUMPDEST DUP2 EQ PUSH2 0x139F JUMPI PUSH1 0x0 DUP1 REVERT JUMPDEST POP JUMP JUMPDEST PUSH1 0x0 DUP2 CALLDATALOAD SWAP1 POP PUSH2 0x13B1 DUP2 PUSH2 0x138B JUMP JUMPDEST SWAP3 SWAP2 POP POP JUMP JUMPDEST PUSH1 0x0 DUP1 PUSH1 0x40 DUP4 DUP6 SUB SLT ISZERO PUSH2 0x13CE JUMPI PUSH2 0x13CD PUSH2 0x1207 JUMP JUMPDEST JUMPDEST PUSH1 0x0 PUSH2 0x13DC DUP6 DUP3 DUP7 ADD PUSH2 0x12ED JUMP JUMPDEST SWAP3 POP POP PUSH1 0x20 PUSH2 0x13ED DUP6 DUP3 DUP7 ADD PUSH2 0x13A2 JUMP JUMPDEST SWAP2 POP POP SWAP3 POP SWAP3 SWAP1 POP JUMP JUMPDEST PUSH1 0x0 DUP2 SWAP1 POP SWAP2 SWAP1 POP JUMP JUMPDEST PUSH2 0x140A DUP2 PUSH2 0x13F7 JUMP JUMPDEST DUP2 EQ PUSH2 0x1415 JUMPI PUSH1 0x0 DUP1 REVERT JUMPDEST POP JUMP JUMPDEST PUSH1 0x0 DUP2 CALLDATALOAD SWAP1 POP PUSH2 0x1427 DUP2 PUSH2 0x1401 JUMP JUMPDEST SWAP3 SWAP2 POP POP JUMP JUMPDEST PUSH1 0x0 PUSH1 0x20 DUP3 DUP5 SUB SLT ISZERO PUSH2 0x1443 JUMPI PUSH2 0x1442 PUSH2 0x1207 JUMP JUMPDEST JUMPDEST PUSH1 0x0 PUSH2 0x1451 DUP5 DUP3 DUP6 ADD PUSH2 0x1418 JUMP JUMPDEST SWAP2 POP POP SWAP3 SWAP2 POP POP JUMP JUMPDEST PUSH2 0x1463 DUP2 PUSH2 0x13F7 JUMP JUMPDEST DUP3 MSTORE POP POP JUMP JUMPDEST PUSH1 0x0 PUSH1 0x20 DUP3 ADD SWAP1 POP PUSH2 0x147E PUSH1 0x0 DUP4 ADD DUP5 PUSH2 0x145A JUMP JUMPDEST SWAP3 SWAP2 POP POP JUMP JUMPDEST PUSH1 0x0 DUP1 REVERT JUMPDEST PUSH1 0x0 DUP1 REVERT JUMPDEST PUSH1 0x0 PUSH1 0x1F NOT PUSH1 0x1F DUP4 ADD AND SWAP1 POP SWAP2 SWAP1 POP JUMP JUMPDEST PUSH32 0x4E487B7100000000000000000000000000000000000000000000000000000000 PUSH1 0x0 MSTORE PUSH1 0x41 PUSH1 0x4 MSTORE PUSH1 0x24 PUSH1 0x0 REVERT JUMPDEST PUSH2 0x14D7 DUP3 PUSH2 0x148E JUMP JUMPDEST DUP2 ADD DUP2 DUP2 LT PUSH8 0xFFFFFFFFFFFFFFFF DUP3 GT OR ISZERO PUSH2 0x14F6 JUMPI PUSH2 0x14F5 PUSH2 0x149F JUMP JUMPDEST JUMPDEST DUP1 PUSH1 0x40 MSTORE POP POP POP JUMP JUMPDEST PUSH1 0x0 PUSH2 0x1509 PUSH2 0x11FD JUMP JUMPDEST SWAP1 POP PUSH2 0x1515 DUP3 DUP3 PUSH2 0x14CE JUMP JUMPDEST SWAP2 SWAP1 POP JUMP JUMPDEST PUSH1 0x0 PUSH8 0xFFFFFFFFFFFFFFFF DUP3 GT ISZERO PUSH2 0x1535 JUMPI PUSH2 0x1534 PUSH2 0x149F JUMP JUMPDEST JUMPDEST PUSH2 0x153E DUP3 PUSH2 0x148E JUMP JUMPDEST SWAP1 POP PUSH1 0x20 DUP2 ADD SWAP1 POP SWAP2 SWAP1 POP JUMP JUMPDEST DUP3 DUP2 DUP4 CALLDATACOPY PUSH1 0x0 DUP4 DUP4 ADD MSTORE POP POP POP JUMP JUMPDEST PUSH1 0x0 PUSH2 0x156D PUSH2 0x1568 DUP5 PUSH2 0x151A JUMP JUMPDEST PUSH2 0x14FF JUMP JUMPDEST SWAP1 POP DUP3 DUP2 MSTORE PUSH1 0x20 DUP2 ADD DUP5 DUP5 DUP5 ADD GT ISZERO PUSH2 0x1589 JUMPI PUSH2 0x1588 PUSH2 0x1489 JUMP JUMPDEST JUMPDEST PUSH2 0x1594 DUP5 DUP3 DUP6 PUSH2 0x154B JUMP JUMPDEST POP SWAP4 SWAP3 POP POP POP JUMP JUMPDEST PUSH1 0x0 DUP3 PUSH1 0x1F DUP4 ADD SLT PUSH2 0x15B1 JUMPI PUSH2 0x15B0 PUSH2 0x1484 JUMP JUMPDEST JUMPDEST DUP2 CALLDATALOAD PUSH2 0x15C1 DUP5 DUP3 PUSH1 0x20 DUP7 ADD PUSH2 0x155A JUMP JUMPDEST SWAP2 POP POP SWAP3 SWAP2 POP POP JUMP JUMPDEST PUSH1 0x0 DUP1 PUSH1 0x0 PUSH1 0x60 DUP5 DUP7 SUB SLT ISZERO PUSH2 0x15E3 JUMPI PUSH2 0x15E2 PUSH2 0x1207 JUMP JUMPDEST JUMPDEST PUSH1 0x0 PUSH2 0x15F1 DUP7 DUP3 DUP8 ADD PUSH2 0x12ED JUMP JUMPDEST SWAP4 POP POP PUSH1 0x20 DUP5 ADD CALLDATALOAD PUSH8 0xFFFFFFFFFFFFFFFF DUP2 GT ISZERO PUSH2 0x1612 JUMPI PUSH2 0x1611 PUSH2 0x120C JUMP JUMPDEST JUMPDEST PUSH2 0x161E DUP7 DUP3 DUP8 ADD PUSH2 0x159C JUMP JUMPDEST SWAP3 POP POP PUSH1 0x40 PUSH2 0x162F DUP7 DUP3 DUP8 ADD PUSH2 0x1418 JUMP JUMPDEST SWAP2 POP POP SWAP3 POP SWAP3 POP SWAP3 JUMP JUMPDEST PUSH1 0x0 PUSH1 0x20 DUP3 DUP5 SUB SLT ISZERO PUSH2 0x164F JUMPI PUSH2 0x164E PUSH2 0x1207 JUMP JUMPDEST JUMPDEST PUSH1 0x0 PUSH2 0x165D DUP5 DUP3 DUP6 ADD PUSH2 0x13A2 JUMP JUMPDEST SWAP2 POP POP SWAP3 SWAP2 POP POP JUMP JUMPDEST PUSH1 0x0 DUP1 PUSH1 0x40 DUP4 DUP6 SUB SLT ISZERO PUSH2 0x167D JUMPI PUSH2 0x167C PUSH2 0x1207 JUMP JUMPDEST JUMPDEST PUSH1 0x0 PUSH2 0x168B DUP6 DUP3 DUP7 ADD PUSH2 0x1418 JUMP JUMPDEST SWAP3 POP POP PUSH1 0x20 PUSH2 0x169C DUP6 DUP3 DUP7 ADD PUSH2 0x1418 JUMP JUMPDEST SWAP2 POP POP SWAP3 POP SWAP3 SWAP1 POP JUMP JUMPDEST PUSH1 0x0 DUP2 MLOAD SWAP1 POP SWAP2 SWAP1 POP JUMP JUMPDEST PUSH1 0x0 DUP3 DUP3 MSTORE PUSH1 0x20 DUP3 ADD SWAP1 POP SWAP3 SWAP2 POP POP JUMP JUMPDEST PUSH1 0x0 JUMPDEST DUP4 DUP2 LT ISZERO PUSH2 0x16E0 JUMPI DUP1 DUP3 ADD MLOAD DUP2 DUP5 ADD MSTORE PUSH1 0x20 DUP2 ADD SWAP1 POP PUSH2 0x16C5 JUMP JUMPDEST PUSH1 0x0 DUP5 DUP5 ADD MSTORE POP POP POP POP JUMP JUMPDEST PUSH1 0x0 PUSH2 0x16F7 DUP3 PUSH2 0x16A6 JUMP JUMPDEST PUSH2 0x1701 DUP2 DUP6 PUSH2 0x16B1 JUMP JUMPDEST SWAP4 POP PUSH2 0x1711 DUP2 DUP6 PUSH1 0x20 DUP7 ADD PUSH2 0x16C2 JUMP JUMPDEST PUSH2 0x171A DUP2 PUSH2 0x148E JUMP JUMPDEST DUP5 ADD SWAP2 POP POP SWAP3 SWAP2 POP POP JUMP JUMPDEST PUSH2 0x172E DUP2 PUSH2 0x1379 JUMP JUMPDEST DUP3 MSTORE POP POP JUMP JUMPDEST PUSH1 0x0 PUSH1 0x80 DUP3 ADD SWAP1 POP PUSH2 0x1749 PUSH1 0x0 DUP4 ADD DUP8 PUSH2 0x145A JUMP JUMPDEST DUP2 DUP2 SUB PUSH1 0x20 DUP4 ADD MSTORE PUSH2 0x175B DUP2 DUP7 PUSH2 0x16EC JUMP JUMPDEST SWAP1 POP PUSH2 0x176A PUSH1 0x40 DUP4 ADD DUP6 PUSH2 0x1725 JUMP JUMPDEST PUSH2 0x1777 PUSH1 0x60 DUP4 ADD DUP5 PUSH2 0x145A JUMP JUMPDEST SWAP6 SWAP5 POP POP POP POP POP JUMP JUMPDEST PUSH1 0x0 DUP1 PUSH1 0x40 DUP4 DUP6 SUB SLT ISZERO PUSH2 0x1797 JUMPI PUSH2 0x1796 PUSH2 0x1207 JUMP JUMPDEST JUMPDEST PUSH1 0x0 PUSH2 0x17A5 DUP6 DUP3 DUP7 ADD PUSH2 0x1418 JUMP JUMPDEST SWAP3 POP POP PUSH1 0x20 DUP4 ADD CALLDATALOAD PUSH8 0xFFFFFFFFFFFFFFFF DUP2 GT ISZERO PUSH2 0x17C6 JUMPI PUSH2 0x17C5 PUSH2 0x120C JUMP JUMPDEST JUMPDEST PUSH2 0x17D2 DUP6 DUP3 DUP7 ADD PUSH2 0x159C JUMP JUMPDEST SWAP2 POP POP SWAP3 POP SWAP3 SWAP1 POP JUMP JUMPDEST PUSH1 0x0 DUP2 MLOAD SWAP1 POP SWAP2 SWAP1 POP JUMP JUMPDEST PUSH1 0x0 DUP3 DUP3 MSTORE PUSH1 0x20 DUP3 ADD SWAP1 POP SWAP3 SWAP2 POP POP JUMP JUMPDEST PUSH1 0x0 DUP2 SWAP1 POP PUSH1 0x20 DUP3 ADD SWAP1 POP SWAP2 SWAP1 POP JUMP JUMPDEST PUSH2 0x1811 DUP2 PUSH2 0x13F7 JUMP JUMPDEST DUP3 MSTORE POP POP JUMP JUMPDEST PUSH1 0x0 DUP3 DUP3 MSTORE PUSH1 0x20 DUP3 ADD SWAP1 POP SWAP3 SWAP2 POP POP JUMP JUMPDEST PUSH1 0x0 PUSH2 0x1833 DUP3 PUSH2 0x16A6 JUMP JUMPDEST PUSH2 0x183D DUP2 DUP6 PUSH2 0x1817 JUMP JUMPDEST SWAP4 POP PUSH2 0x184D DUP2 DUP6 PUSH1 0x20 DUP7 ADD PUSH2 0x16C2 JUMP JUMPDEST PUSH2 0x1856 DUP2 PUSH2 0x148E JUMP JUMPDEST DUP5 ADD SWAP2 POP POP SWAP3 SWAP2 POP POP JUMP JUMPDEST PUSH2 0x186A DUP2 PUSH2 0x1379 JUMP JUMPDEST DUP3 MSTORE POP POP JUMP JUMPDEST PUSH1 0x0 PUSH1 0x80 DUP4 ADD PUSH1 0x0 DUP4 ADD MLOAD PUSH2 0x1888 PUSH1 0x0 DUP7 ADD DUP3 PUSH2 0x1808 JUMP JUMPDEST POP PUSH1 0x20 DUP4 ADD MLOAD DUP5 DUP3 SUB PUSH1 0x20 DUP7 ADD MSTORE PUSH2 0x18A0 DUP3 DUP3 PUSH2 0x1828 JUMP JUMPDEST SWAP2 POP POP PUSH1 0x40 DUP4 ADD MLOAD PUSH2 0x18B5 PUSH1 0x40 DUP7 ADD DUP3 PUSH2 0x1861 JUMP JUMPDEST POP PUSH1 0x60 DUP4 ADD MLOAD PUSH2 0x18C8 PUSH1 0x60 DUP7 ADD DUP3 PUSH2 0x1808 JUMP JUMPDEST POP DUP1 SWAP2 POP POP SWAP3 SWAP2 POP POP JUMP JUMPDEST PUSH1 0x0 PUSH2 0x18DF DUP4 DUP4 PUSH2 0x1870 JUMP JUMPDEST SWAP1 POP SWAP3 SWAP2 POP POP JUMP JUMPDEST PUSH1 0x0 PUSH1 0x20 DUP3 ADD SWAP1 POP SWAP2 SWAP1 POP JUMP JUMPDEST PUSH1 0x0 PUSH2 0x18FF DUP3 PUSH2 0x17DC JUMP JUMPDEST PUSH2 0x1909 DUP2 DUP6 PUSH2 0x17E7 JUMP JUMPDEST SWAP4 POP DUP4 PUSH1 0x20 DUP3 MUL DUP6 ADD PUSH2 0x191B DUP6 PUSH2 0x17F8 JUMP JUMPDEST DUP1 PUSH1 0x0 JUMPDEST DUP6 DUP2 LT ISZERO PUSH2 0x1957 JUMPI DUP5 DUP5 SUB DUP10 MSTORE DUP2 MLOAD PUSH2 0x1938 DUP6 DUP3 PUSH2 0x18D3 JUMP JUMPDEST SWAP5 POP PUSH2 0x1943 DUP4 PUSH2 0x18E7 JUMP JUMPDEST SWAP3 POP PUSH1 0x20 DUP11 ADD SWAP10 POP POP PUSH1 0x1 DUP2 ADD SWAP1 POP PUSH2 0x191F JUMP JUMPDEST POP DUP3 SWAP8 POP DUP8 SWAP6 POP POP POP POP POP POP SWAP3 SWAP2 POP POP JUMP JUMPDEST PUSH1 0x0 PUSH1 0x20 DUP3 ADD SWAP1 POP DUP2 DUP2 SUB PUSH1 0x0 DUP4 ADD MSTORE PUSH2 0x1983 DUP2 DUP5 PUSH2 0x18F4 JUMP JUMPDEST SWAP1 POP SWAP3 SWAP2 POP POP JUMP JUMPDEST PUSH1 0x0 PUSH1 0xC0 DUP3 ADD SWAP1 POP PUSH2 0x19A0 PUSH1 0x0 DUP4 ADD DUP10 PUSH2 0x145A JUMP JUMPDEST PUSH2 0x19AD PUSH1 0x20 DUP4 ADD DUP9 PUSH2 0x132F JUMP JUMPDEST DUP2 DUP2 SUB PUSH1 0x40 DUP4 ADD MSTORE PUSH2 0x19BF DUP2 DUP8 PUSH2 0x16EC JUMP JUMPDEST SWAP1 POP PUSH2 0x19CE PUSH1 0x60 DUP4 ADD DUP7 PUSH2 0x145A JUMP JUMPDEST PUSH2 0x19DB PUSH1 0x80 DUP4 ADD DUP6 PUSH2 0x1725 JUMP JUMPDEST PUSH2 0x19E8 PUSH1 0xA0 DUP4 ADD DUP5 PUSH2 0x145A JUMP JUMPDEST SWAP8 SWAP7 POP POP POP POP POP POP POP JUMP JUMPDEST PUSH32 0x5265636F726420646F6573206E6F742065786973740000000000000000000000 PUSH1 0x0 DUP3 ADD MSTORE POP JUMP JUMPDEST PUSH1 0x0 PUSH2 0x1A29 PUSH1 0x15 DUP4 PUSH2 0x16B1 JUMP JUMPDEST SWAP2 POP PUSH2 0x1A34 DUP3 PUSH2 0x19F3 JUMP JUMPDEST PUSH1 0x20 DUP3 ADD SWAP1 POP SWAP2 SWAP1 POP JUMP JUMPDEST PUSH1 0x0 PUSH1 0x20 DUP3 ADD SWAP1 POP DUP2 DUP2 SUB PUSH1 0x0 DUP4 ADD MSTORE PUSH2 0x1A58 DUP2 PUSH2 0x1A1C JUMP JUMPDEST SWAP1 POP SWAP2 SWAP1 POP JUMP JUMPDEST PUSH32 0x4E487B7100000000000000000000000000000000000000000000000000000000 PUSH1 0x0 MSTORE PUSH1 0x11 PUSH1 0x4 MSTORE PUSH1 0x24 PUSH1 0x0 REVERT JUMPDEST PUSH1 0x0 PUSH2 0x1A99 DUP3 PUSH2 0x13F7 JUMP JUMPDEST SWAP2 POP PUSH2 0x1AA4 DUP4 PUSH2 0x13F7 JUMP JUMPDEST SWAP3 POP DUP3 DUP3 ADD SWAP1 POP DUP1 DUP3 GT ISZERO PUSH2 0x1ABC JUMPI PUSH2 0x1ABB PUSH2 0x1A5F JUMP JUMPDEST JUMPDEST SWAP3 SWAP2 POP POP JUMP JUMPDEST PUSH32 0x4E487B7100000000000000000000000000000000000000000000000000000000 PUSH1 0x0 MSTORE PUSH1 0x22 PUSH1 0x4 MSTORE PUSH1 0x24 PUSH1 0x0 REVERT JUMPDEST PUSH1 0x0 PUSH1 0x2 DUP3 DIV SWAP1 POP PUSH1 0x1 DUP3 AND DUP1 PUSH2 0x1B09 JUMPI PUSH1 0x7F DUP3 AND SWAP2 POP JUMPDEST PUSH1 0x20 DUP3 LT DUP2 SUB PUSH2 0x1B1C JUMPI PUSH2 0x1B1B PUSH2 0x1AC2 JUMP JUMPDEST JUMPDEST POP SWAP2 SWAP1 POP JUMP JUMPDEST PUSH1 0x0 DUP2 SWAP1 POP DUP2 PUSH1 0x0 MSTORE PUSH1 0x20 PUSH1 0x0 KECCAK256 SWAP1 POP SWAP2 SWAP1 POP JUMP JUMPDEST PUSH1 0x0 PUSH1 0x20 PUSH1 0x1F DUP4 ADD DIV SWAP1 POP SWAP2 SWAP1 POP JUMP JUMPDEST PUSH1 0x0 DUP3 DUP3 SHL SWAP1 POP SWAP3 SWAP2 POP POP JUMP JUMPDEST PUSH1 0x0 PUSH1 0x8 DUP4 MUL PUSH2 0x1B84 PUSH32 0xFFFFFFFFFFFFFFFFFFFFFFFFFFFFFFFFFFFFFFFFFFFFFFFFFFFFFFFFFFFFFFFF DUP3 PUSH2 0x1B47 JUMP JUMPDEST PUSH2 0x1B8E DUP7 DUP4 PUSH2 0x1B47 JUMP JUMPDEST SWAP6 POP DUP1 NOT DUP5 AND SWAP4 POP DUP1 DUP7 AND DUP5 OR SWAP3 POP POP POP SWAP4 SWAP3 POP POP POP JUMP JUMPDEST PUSH1 0x0 DUP2 SWAP1 POP SWAP2 SWAP1 POP JUMP JUMPDEST PUSH1 0x0 PUSH2 0x1BCB PUSH2 0x1BC6 PUSH2 0x1BC1 DUP5 PUSH2 0x13F7 JUMP JUMPDEST PUSH2 0x1BA6 JUMP JUMPDEST PUSH2 0x13F7 JUMP JUMPDEST SWAP1 POP SWAP2 SWAP1 POP JUMP JUMPDEST PUSH1 0x0 DUP2 SWAP1 POP SWAP2 SWAP1 POP JUMP JUMPDEST PUSH2 0x1BE5 DUP4 PUSH2 0x1BB0 JUMP JUMPDEST PUSH2 0x1BF9 PUSH2 0x1BF1 DUP3 PUSH2 0x1BD2 JUMP JUMPDEST DUP5 DUP5 SLOAD PUSH2 0x1B54 JUMP JUMPDEST DUP3 SSTORE POP POP POP POP JUMP JUMPDEST PUSH1 0x0 SWAP1 JUMP JUMPDEST PUSH2 0x1C0E PUSH2 0x1C01 JUMP JUMPDEST PUSH2 0x1C19 DUP2 DUP5 DUP5 PUSH2 0x1BDC JUMP JUMPDEST POP POP POP JUMP JUMPDEST JUMPDEST DUP2 DUP2 LT ISZERO PUSH2 0x1C3D JUMPI PUSH2 0x1C32 PUSH1 0x0 DUP3 PUSH2 0x1C06 JUMP JUMPDEST PUSH1 0x1 DUP2 ADD SWAP1 POP PUSH2 0x1C1F JUMP JUMPDEST POP POP JUMP JUMPDEST PUSH1 0x1F DUP3 GT ISZERO PUSH2 0x1C82 JUMPI PUSH2 0x1C53 DUP2 PUSH2 0x1B22 JUMP JUMPDEST PUSH2 0x1C5C DUP5 PUSH2 0x1B37 JUMP JUMPDEST DUP2 ADD PUSH1 0x20 DUP6 LT ISZERO PUSH2 0x1C6B JUMPI DUP2 SWAP1 POP JUMPDEST PUSH2 0x1C7F PUSH2 0x1C77 DUP6 PUSH2 0x1B37 JUMP JUMPDEST DUP4 ADD DUP3 PUSH2 0x1C1E JUMP JUMPDEST POP POP JUMPDEST POP POP POP JUMP JUMPDEST PUSH1 0x0 DUP3 DUP3 SHR SWAP1 POP SWAP3 SWAP2 POP POP JUMP JUMPDEST PUSH1 0x0 PUSH2 0x1CA5 PUSH1 0x0 NOT DUP5 PUSH1 0x8 MUL PUSH2 0x1C87 JUMP JUMPDEST NOT DUP1 DUP4 AND SWAP2 POP POP SWAP3 SWAP2 POP POP JUMP JUMPDEST PUSH1 0x0 PUSH2 0x1CBE DUP4 DUP4 PUSH2 0x1C94 JUMP JUMPDEST SWAP2 POP DUP3 PUSH1 0x2 MUL DUP3 OR SWAP1 POP SWAP3 SWAP2 POP POP JUMP JUMPDEST PUSH2 0x1CD7 DUP3 PUSH2 0x16A6 JUMP JUMPDEST PUSH8 0xFFFFFFFFFFFFFFFF DUP2 GT ISZERO PUSH2 0x1CF0 JUMPI PUSH2 0x1CEF PUSH2 0x149F JUMP JUMPDEST JUMPDEST PUSH2 0x1CFA DUP3 SLOAD PUSH2 0x1AF1 JUMP JUMPDEST PUSH2 0x1D05 DUP3 DUP3 DUP6 PUSH2 0x1C41 JUMP JUMPDEST PUSH1 0x0 PUSH1 0x20 SWAP1 POP PUSH1 0x1F DUP4 GT PUSH1 0x1 DUP2 EQ PUSH2 0x1D38 JUMPI PUSH1 0x0 DUP5 ISZERO PUSH2 0x1D26 JUMPI DUP3 DUP8 ADD MLOAD SWAP1 POP JUMPDEST PUSH2 0x1D30 DUP6 DUP3 PUSH2 0x1CB2 JUMP JUMPDEST DUP7 SSTORE POP PUSH2 0x1D98 JUMP JUMPDEST PUSH1 0x1F NOT DUP5 AND PUSH2 0x1D46 DUP7 PUSH2 0x1B22 JUMP JUMPDEST PUSH1 0x0 JUMPDEST DUP3 DUP2 LT ISZERO PUSH2 0x1D6E JUMPI DUP5 DUP10 ADD MLOAD DUP3 SSTORE PUSH1 0x1 DUP3 ADD SWAP2 POP PUSH1 0x20 DUP6 ADD SWAP5 POP PUSH1 0x20 DUP2 ADD SWAP1 POP PUSH2 0x1D49 JUMP JUMPDEST DUP7 DUP4 LT ISZERO PUSH2 0x1D8B JUMPI DUP5 DUP10 ADD MLOAD PUSH2 0x1D87 PUSH1 0x1F DUP10 AND DUP3 PUSH2 0x1C94 JUMP JUMPDEST DUP4 SSTORE POP JUMPDEST PUSH1 0x1 PUSH1 0x2 DUP9 MUL ADD DUP9 SSTORE POP POP POP JUMPDEST POP POP POP POP POP POP JUMP JUMPDEST PUSH1 0x0 PUSH1 0x20 DUP3 ADD SWAP1 POP DUP2 DUP2 SUB PUSH1 0x0 DUP4 ADD MSTORE PUSH2 0x1DBA DUP2 DUP5 PUSH2 0x16EC JUMP JUMPDEST SWAP1 POP SWAP3 SWAP2 POP POP JUMP JUMPDEST PUSH1 0x0 PUSH1 0x40 DUP3 ADD SWAP1 POP PUSH2 0x1DD7 PUSH1 0x0 DUP4 ADD DUP6 PUSH2 0x1725 JUMP JUMPDEST PUSH2 0x1DE4 PUSH1 0x20 DUP4 ADD DUP5 PUSH2 0x132F JUMP JUMPDEST SWAP4 SWAP3 POP POP POP JUMP INVALID LOG2 PUSH5 0x6970667358 0x22 SLT KECCAK256 0xC4 EXTCODECOPY 0xDB DUP2 PUSH21 0x86EE9AC890D9DF28A0EC50C07CA909B00F8BBF38A1 EXTCODESIZE PUSH7 0xCCEB809E64736F PUSH13 0x634300081C0033000000000000 "},"methodIdentifiers":{"AUDITOR_ROLE()":"6e1d616e","CITIZEN_ROLE()":"2b9e1d70","DEFAULT_ADMIN_ROLE()":"a217fddf","GOV_AGENCY_ROLE()":"4d320c31","addGovAgency(address)":"5843296e","auditFindings(uint256,uint256)":"5ca26de1","getAuditCount(uint256)":"347c19cd","getAudits(uint256)":"66e1d6af","getRecordBasic(uint256)":"76e2f16a","getRoleAdmin(bytes32)":"248a9ca3","getSpendingCount()":"656a42be","grantRole(bytes32,address)":"2f2ff15d","hasRole(bytes32,address)":"91d14854","recordCount()":"900407bc","renounceRole(bytes32,address)":"36568abe","revokeRole(bytes32,address)":"d547741f","spendingRecords(uint256)":"bac5d8f9","submitAudit(uint256,string)":"66cf3930","submitSpendingRecord(bytes32,string,uint256)":"487819db","supportsInterface(bytes4)":"01ffc9a7"}}}}}