{"contracts/GovSpendingLedger.sol":{"GovSpendingLedger":{"abi":[{"inputs":[],"stateMutability":"nonpayable","type":"constructor"},{"inputs":[],"name":"AccessControlBadConfirmation","type":"error"},{"inputs":[{"internalType":"address","name":"account","type":"address"},{"internalType":"bytes32","name":"neededRole","type":"bytes32"}],"name":"AccessControlUnauthorizedAccount","type":"error"},{"anonymous":false,"inputs":[{"indexed":true,"internalType":"uint256","name":"recordId","type":"uint256"},{"indexed":true,"internalType":"address","name":"auditor","type":"address"},{"indexed":false,"internalType":"string","name":"notes","type":"string"}],"name":"AuditSubmitted","type":"event"},{"anonymous":false,"inputs":[{"indexed":true,"internalType":"uint256","name":"recordId","type":"uint256"},{"indexed":true,"internalType":"address","name":"submittedBy","type":"address"},{"indexed":false,"internalType":"bytes32","name":"documentHash","type":"bytes32"}],"name":"RecordSubmitted","type":"event"},{"anonymous":false,"inputs":[{"indexed":true,"internalType":"bytes32","name":"role","type":"bytes32"},{"indexed":true,"internalType":"bytes32","name":"previousAdminRole","type":"bytes32"},{"indexed":true,"internalType":"bytes32","name":"newAdminRole","type":"bytes32"}],"name":"RoleAdminChanged","type":"event"},{"anonymous":false,"inputs":[{"indexed":true,"internalType":"bytes32","name":"role","type":"bytes32"},{"indexed":true,"internalType":"address","name":"account","type":"address"},{"indexed":true,"internalType":"address","name":"sender","type":"address"}],"name":"RoleGranted","type":"event"},{"anonymous":false,"inputs":[{"indexed":true,"internalType":"bytes32","name":"role","type":"bytes32"},{"indexed":true,"internalType":"address","name":"account","type":"address"},{"indexed":true,"internalType":"address","name":"sender","type":"address"}],"name":"RoleRevoked","type":"event"},{"inputs":[],"name":"AUDITOR_ROLE","outputs":[{"internalType":"bytes32","name":"","type":"bytes32"}],"stateMutability":"view","type":"function"},{"inputs":[],"name":"CITIZEN_ROLE","outputs":[{"internalType":"bytes32","name":"","type":"bytes32"}],"stateMutability":"view","type":"function"},{"inputs":[],"name":"DEFAULT_ADMIN_ROLE","outputs":[{"internalType":"bytes32","name":"","type":"bytes32"}],"stateMutability":"view","type":"function"},{"inputs":[],"name":"GOV_AGENCY_ROLE","outputs":[{"internalType":"bytes32","name":"","type":"bytes32"}],"stateMutability":"view","type":"function"},{"inputs":[{"internalType":"address","name":"account","type":"address"}],"name":"addGovAgency","outputs":[],"stateMutability":"nonpayable","type":"function"},{"inputs":[{"internalType":"uint256","name":"","type":"uint256"},{"internalType":"uint256","name":"","type":"uint256"}],"name":"auditFindings","outputs":[{"internalType":"uint256","name":"recordId","type":"uint256"},{"internalType":"string","name":"notes","type":"string"},{"internalType":"address","name":"auditor","type":"address"},{"internalType":"uint256","name":"timestamp","type":"uint256"}],"stateMutability":"view","type":"function"},{"inputs":[{"internalType":"uint256","name":"recordId","type":"uint256"}],"name":"getAuditCount","outputs":[{"internalType":"uint256","name":"","type":"uint256"}],"stateMutability":"view","type":"function"},{"inputs":[{"internalType":"uint256","name":"recordId","type":"uint256"}],"name":"getAudits","outputs":[{"components":[{"internalType":"uint256","name":"recordId","type":"uint256"},{"internalType":"string","name":"notes","type":"string"},{"internalType":"address","name":"auditor","type":"address"},{"internalType":"uint256","name":"timestamp","type":"uint256"}],"internalType":"struct GovSpendingLedger.AuditFinding[]","name":"","type":"tuple[]"}],"stateMutability":"view","type":"function"},{"inputs":[{"internalType":"uint256","name":"recordId","type":"uint256"}],"name":"getRecord","outputs":[{"components":[{"internalType":"uint256","name":"recordId","type":"uint256"},{"internalType":"bytes32","name":"documentHash","type":"bytes32"},{"internalType":"string","name":"recordType","type":"string"},{"internalType":"uint256","name":"amount","type":"uint256"},{"internalType":"address","name":"submittedBy","type":"address"},{"internalType":"uint256","name":"timestamp","type":"uint256"}],"internalType":"struct GovSpendingLedger.SpendingRecord","name":"","type":"tuple"}],"stateMutability":"view","type":"function"},{"inputs":[{"internalType":"bytes32","name":"role","type":"bytes32"}],"name":"getRoleAdmin","outputs":[{"internalType":"bytes32","name":"","type":"bytes32"}],"stateMutability":"view","type":"function"},{"inputs":[],"name":"getSpendingCount","outputs":[{"internalType":"uint256","name":"","type":"uint256"}],"stateMutability":"view","type":"function"},{"inputs":[{"internalType":"bytes32","name":"role","type":"bytes32"},{"internalType":"address","name":"account","type":"address"}],"name":"grantRole","outputs":[],"stateMutability":"nonpayable","type":"function"},{"inputs":[{"internalType":"bytes32","name":"role","type":"bytes32"},{"internalType":"address","name":"account","type":"address"}],"name":"hasRole","outputs":[{"internalType":"bool","name":"","type":"bool"}],"stateMutability":"view","type":"function"},{"inputs":[],"name":"recordCount","outputs":[{"internalType":"uint256","name":"","type":"uint256"}],"stateMutability":"view","type":"function"},{"inputs":[{"internalType":"bytes32","name":"role","type":"bytes32"},{"internalType":"address","name":"callerConfirmation","type":"address"}],"name":"renounceRole","outputs":[],"stateMutability":"nonpayable","type":"function"},{"inputs":[{"internalType":"bytes32","name":"role","type":"bytes32"},{"internalType":"address","name":"account","type":"address"}],"name":"revokeRole","outputs":[],"stateMutability":"nonpayable","type":"function"},{"inputs":[{"internalType":"uint256","name":"","type":"uint256"}],"name":"spendingRecords","outputs":[{"internalType":"uint256","name":"recordId","type":"uint256"},{"internalType":"bytes32","name":"documentHash","type":"bytes32"},{"internalType":"string","name":"recordType","type":"string"},{"internalType":"uint256","name":"amount","type":"uint256"},{"internalType":"address","name":"submittedBy","type":"address"},{"internalType":"uint256","name":"timestamp","type":"uint256"}],"stateMutability":"view","type":"function"},{"inputs":[{"internalType":"uint256","name":"recordId","type":"uint256"},{"internalType":"string","name":"notes","type":"string"}],"name":"submitAudit","outputs":[],"stateMutability":"nonpayable","type":"function"},{"inputs":[{"internalType":"bytes32","name":"documentHash","type":"bytes32"},{"internalType":"string","name":"recordType","type":"string"},{"internalType":"uint256","name":"amount","type":"uint256"}],"name":"submitSpendingRecord","outputs":[],"stateMutability":"nonpayable","type":"function"},{"inputs":[{"internalType":"bytes4","name":"interfaceId","type":"bytes4"}],"name":"supportsInterface","outputs":[{"internalType":"bool","name":"","type":"bool"}],"stateMutability":"view","type":"function"}],"evm":{"bytecode":{"linkReferences":{},"object":"6080604052600060025534801561001557600080fd5b506100296000801b3361002f60201b60201c565b5061019e565b6000610041838361012c60201b60201c565b61012157600160008085815260200190815260200160002060000160008473ffffffffffffffffffffffffffffffffffffffff1673ffffffffffffffffffffffffffffffffffffffff16815260200190815260200160002060006101000a81548160ff0219169083151502179055506100be61019660201b60201c565b73ffffffffffffffffffffffffffffffffffffffff168273ffffffffffffffffffffffffffffffffffffffff16847f2f8788117e7eff1d82e926ec794901d17c78024a50270940304540a733656f0d60405160405180910390a460019050610126565b600090505b92915050565b600080600084815260200190815260200160002060000160008373ffffffffffffffffffffffffffffffffffffffff1673ffffffffffffffffffffffffffffffffffffffff16815260200190815260200160002060009054906101000a900460ff16905092915050565b600033905090565b611f44806101ad6000396000f3fe608060405234801561001057600080fd5b506004361061012c5760003560e01c80635ca26de1116100ad578063900407bc11610071578063900407bc1461035857806391d1485414610376578063a217fddf146103a6578063bac5d8f9146103c4578063d547741f146103f95761012c565b80635ca26de11461029d578063656a42be146102d057806366cf3930146102ee57806366e1d6af1461030a5780636e1d616e1461033a5761012c565b8063347c19cd116100f4578063347c19cd146101fb57806336568abe1461022b578063487819db146102475780634d320c31146102635780635843296e146102815761012c565b806301ffc9a71461013157806303e9e60914610161578063248a9ca3146101915780632b9e1d70146101c15780632f2ff15d146101df575b600080fd5b61014b600480360381019061014691906112d2565b610415565b604051610158919061131a565b60405180910390f35b61017b6004803603810190610176919061136b565b61048f565b604051610188919061151a565b60405180910390f35b6101ab60048036038101906101a69190611568565b61061d565b6040516101b891906115a4565b60405180910390f35b6101c961063c565b6040516101d691906115a4565b60405180910390f35b6101f960048036038101906101f491906115eb565b610660565b005b6102156004803603810190610210919061136b565b610682565b604051610222919061163a565b60405180910390f35b610245600480360381019061024091906115eb565b6106f2565b005b610261600480360381019061025c919061178a565b61076d565b005b61026b6108ea565b60405161027891906115a4565b60405180910390f35b61029b600480360381019061029691906117f9565b61090e565b005b6102b760048036038101906102b29190611826565b610949565b6040516102c794939291906118bf565b60405180910390f35b6102d8610a3e565b6040516102e5919061163a565b60405180910390f35b6103086004803603810190610303919061190b565b610a48565b005b610324600480360381019061031f919061136b565b610bfd565b6040516103319190611a8c565b60405180910390f35b610342610dbc565b60405161034f91906115a4565b60405180910390f35b610360610de0565b60405161036d919061163a565b60405180910390f35b610390600480360381019061038b91906115eb565b610de6565b60405161039d919061131a565b60405180910390f35b6103ae610e50565b6040516103bb91906115a4565b60405180910390f35b6103de60048036038101906103d9919061136b565b610e57565b6040516103f096959493929190611aae565b60405180910390f35b610413600480360381019061040e91906115eb565b610f3b565b005b60007f7965db0b000000000000000000000000000000000000000000000000000000007bffffffffffffffffffffffffffffffffffffffffffffffffffffffff1916827bffffffffffffffffffffffffffffffffffffffffffffffffffffffff19161480610488575061048782610f5d565b5b9050919050565b610497611217565b6000821180156104a957506002548211155b6104e8576040517f08c379a00000000000000000000000000000000000000000000000000000000081526004016104df90611b62565b60405180910390fd5b600160008381526020019081526020016000206040518060c0016040529081600082015481526020016001820154815260200160028201805461052a90611bb1565b80601f016020809104026020016040519081016040528092919081815260200182805461055690611bb1565b80156105a35780601f10610578576101008083540402835291602001916105a3565b820191906000526020600020905b81548152906001019060200180831161058657829003601f168201915b50505050508152602001600382015481526020016004820160009054906101000a900473ffffffffffffffffffffffffffffffffffffffff1673ffffffffffffffffffffffffffffffffffffffff1673ffffffffffffffffffffffffffffffffffffffff1681526020016005820154815250509050919050565b6000806000838152602001908152602001600020600101549050919050565b7f8f1426173eb922d2001706a308dabfa96e3c06475230fb5111184f70a4b5776d81565b6106698261061d565b61067281610fc7565b61067c8383610fdb565b50505050565b6000808211801561069557506002548211155b6106d4576040517f08c379a00000000000000000000000000000000000000000000000000000000081526004016106cb90611b62565b60405180910390fd5b60036000838152602001908152602001600020805490509050919050565b6106fa6110cc565b73ffffffffffffffffffffffffffffffffffffffff168173ffffffffffffffffffffffffffffffffffffffff161461075e576040517f6697b23200000000000000000000000000000000000000000000000000000000815260040160405180910390fd5b61076882826110d4565b505050565b7f94ac8bf7c2c0d570b676d8037eaa0516224e8bca85d85e9465db2088d225fcab61079781610fc7565b6001600260008282546107aa9190611c11565b925050819055506040518060c0016040528060025481526020018581526020018481526020018381526020013373ffffffffffffffffffffffffffffffffffffffff16815260200142815250600160006002548152602001908152602001600020600082015181600001556020820151816001015560408201518160020190816108349190611df1565b506060820151816003015560808201518160040160006101000a81548173ffffffffffffffffffffffffffffffffffffffff021916908373ffffffffffffffffffffffffffffffffffffffff16021790555060a082015181600501559050503373ffffffffffffffffffffffffffffffffffffffff166002547fb47aefd0fcf9ea22919b53c3e42140e5fbcfed253f5aa6dc225cb4fa19152784866040516108dc91906115a4565b60405180910390a350505050565b7f94ac8bf7c2c0d570b676d8037eaa0516224e8bca85d85e9465db2088d225fcab81565b6000801b61091b81610fc7565b6109457f94ac8bf7c2c0d570b676d8037eaa0516224e8bca85d85e9465db2088d225fcab83610660565b5050565b6003602052816000526040600020818154811061096557600080fd5b90600052602060002090600402016000915091505080600001549080600101805461098f90611bb1565b80601f01602080910402602001604051908101604052809291908181526020018280546109bb90611bb1565b8015610a085780601f106109dd57610100808354040283529160200191610a08565b820191906000526020600020905b8154815290600101906020018083116109eb57829003601f168201915b5050505050908060020160009054906101000a900473ffffffffffffffffffffffffffffffffffffffff16908060030154905084565b6000600254905090565b7f59a1c48e5837ad7a7f3dcedcbe129bf3249ec4fbf651fd4f5e2600ead39fe2f5610a7281610fc7565b600083118015610a8457506002548311155b610ac3576040517f08c379a0000000000000000000000000000000000000000000000000000000008152600401610aba90611b62565b60405180910390fd5b6003600084815260200190815260200160002060405180608001604052808581526020018481526020013373ffffffffffffffffffffffffffffffffffffffff168152602001428152509080600181540180825580915050600190039060005260206000209060040201600090919091909150600082015181600001556020820151816001019081610b559190611df1565b5060408201518160020160006101000a81548173ffffffffffffffffffffffffffffffffffffffff021916908373ffffffffffffffffffffffffffffffffffffffff1602179055506060820151816003015550503373ffffffffffffffffffffffffffffffffffffffff16837fae05e28e072a893738dd5e5fe7b7de2434bbf70c0da8be431ca7f522a583dee484604051610bf09190611ec3565b60405180910390a3505050565b6060600082118015610c1157506002548211155b610c50576040517f08c379a0000000000000000000000000000000000000000000000000000000008152600401610c4790611b62565b60405180910390fd5b60036000838152602001908152602001600020805480602002602001604051908101604052809291908181526020016000905b82821015610db1578382906000526020600020906004020160405180608001604052908160008201548152602001600182018054610cc090611bb1565b80601f0160208091040260200160405190810160405280929190818152602001828054610cec90611bb1565b8015610d395780601f10610d0e57610100808354040283529160200191610d39565b820191906000526020600020905b815481529060010190602001808311610d1c57829003601f168201915b505050505081526020016002820160009054906101000a900473ffffffffffffffffffffffffffffffffffffffff1673ffffffffffffffffffffffffffffffffffffffff1673ffffffffffffffffffffffffffffffffffffffff16815260200160038201548152505081526020019060010190610c83565b505050509050919050565b7f59a1c48e5837ad7a7f3dcedcbe129bf3249ec4fbf651fd4f5e2600ead39fe2f581565b60025481565b600080600084815260200190815260200160002060000160008373ffffffffffffffffffffffffffffffffffffffff1673ffffffffffffffffffffffffffffffffffffffff16815260200190815260200160002060009054906101000a900460ff16905092915050565b6000801b81565b6001602052806000526040600020600091509050806000015490806001015490806002018054610e8690611bb1565b80601f0160208091040260200160405190810160405280929190818152602001828054610eb290611bb1565b8015610eff5780601f10610ed457610100808354040283529160200191610eff565b820191906000526020600020905b815481529060010190602001808311610ee257829003601f168201915b5050505050908060030154908060040160009054906101000a900473ffffffffffffffffffffffffffffffffffffffff16908060050154905086565b610f448261061d565b610f4d81610fc7565b610f5783836110d4565b50505050565b60007f01ffc9a7000000000000000000000000000000000000000000000000000000007bffffffffffffffffffffffffffffffffffffffffffffffffffffffff1916827bffffffffffffffffffffffffffffffffffffffffffffffffffffffff1916149050919050565b610fd881610fd36110cc565b6111c6565b50565b6000610fe78383610de6565b6110c157600160008085815260200190815260200160002060000160008473ffffffffffffffffffffffffffffffffffffffff1673ffffffffffffffffffffffffffffffffffffffff16815260200190815260200160002060006101000a81548160ff02191690831515021790555061105e6110cc565b73ffffffffffffffffffffffffffffffffffffffff168273ffffffffffffffffffffffffffffffffffffffff16847f2f8788117e7eff1d82e926ec794901d17c78024a50270940304540a733656f0d60405160405180910390a4600190506110c6565b600090505b92915050565b600033905090565b60006110e08383610de6565b156111bb57600080600085815260200190815260200160002060000160008473ffffffffffffffffffffffffffffffffffffffff1673ffffffffffffffffffffffffffffffffffffffff16815260200190815260200160002060006101000a81548160ff0219169083151502179055506111586110cc565b73ffffffffffffffffffffffffffffffffffffffff168273ffffffffffffffffffffffffffffffffffffffff16847ff6391f5c32d9c69d2a47ea670b442974b53935d1edc7fd64eb21e047a839171b60405160405180910390a4600190506111c0565b600090505b92915050565b6111d08282610de6565b6112135780826040517fe2517d3f00000000000000000000000000000000000000000000000000000000815260040161120a929190611ee5565b60405180910390fd5b5050565b6040518060c0016040528060008152602001600080191681526020016060815260200160008152602001600073ffffffffffffffffffffffffffffffffffffffff168152602001600081525090565b6000604051905090565b600080fd5b600080fd5b60007fffffffff0000000000000000000000000000000000000000000000000000000082169050919050565b6112af8161127a565b81146112ba57600080fd5b50565b6000813590506112cc816112a6565b92915050565b6000602082840312156112e8576112e7611270565b5b60006112f6848285016112bd565b91505092915050565b60008115159050919050565b611314816112ff565b82525050565b600060208201905061132f600083018461130b565b92915050565b6000819050919050565b61134881611335565b811461135357600080fd5b50565b6000813590506113658161133f565b92915050565b60006020828403121561138157611380611270565b5b600061138f84828501611356565b91505092915050565b6113a181611335565b82525050565b6000819050919050565b6113ba816113a7565b82525050565b600081519050919050565b600082825260208201905092915050565b60005b838110156113fa5780820151818401526020810190506113df565b60008484015250505050565b6000601f19601f8301169050919050565b6000611422826113c0565b61142c81856113cb565b935061143c8185602086016113dc565b61144581611406565b840191505092915050565b600073ffffffffffffffffffffffffffffffffffffffff82169050919050565b600061147b82611450565b9050919050565b61148b81611470565b82525050565b600060c0830160008301516114a96000860182611398565b5060208301516114bc60208601826113b1565b50604083015184820360408601526114d48282611417565b91505060608301516114e96060860182611398565b5060808301516114fc6080860182611482565b5060a083015161150f60a0860182611398565b508091505092915050565b600060208201905081810360008301526115348184611491565b905092915050565b611545816113a7565b811461155057600080fd5b50565b6000813590506115628161153c565b92915050565b60006020828403121561157e5761157d611270565b5b600061158c84828501611553565b91505092915050565b61159e816113a7565b82525050565b60006020820190506115b96000830184611595565b92915050565b6115c881611470565b81146115d357600080fd5b50565b6000813590506115e5816115bf565b92915050565b6000806040838503121561160257611601611270565b5b600061161085828601611553565b9250506020611621858286016115d6565b9150509250929050565b61163481611335565b82525050565b600060208201905061164f600083018461162b565b92915050565b600080fd5b600080fd5b7f4e487b7100000000000000000000000000000000000000000000000000000000600052604160045260246000fd5b61169782611406565b810181811067ffffffffffffffff821117156116b6576116b561165f565b5b80604052505050565b60006116c9611266565b90506116d5828261168e565b919050565b600067ffffffffffffffff8211156116f5576116f461165f565b5b6116fe82611406565b9050602081019050919050565b82818337600083830152505050565b600061172d611728846116da565b6116bf565b9050828152602081018484840111156117495761174861165a565b5b61175484828561170b565b509392505050565b600082601f83011261177157611770611655565b5b813561178184826020860161171a565b91505092915050565b6000806000606084860312156117a3576117a2611270565b5b60006117b186828701611553565b935050602084013567ffffffffffffffff8111156117d2576117d1611275565b5b6117de8682870161175c565b92505060406117ef86828701611356565b9150509250925092565b60006020828403121561180f5761180e611270565b5b600061181d848285016115d6565b91505092915050565b6000806040838503121561183d5761183c611270565b5b600061184b85828601611356565b925050602061185c85828601611356565b9150509250929050565b600082825260208201905092915050565b6000611882826113c0565b61188c8185611866565b935061189c8185602086016113dc565b6118a581611406565b840191505092915050565b6118b981611470565b82525050565b60006080820190506118d4600083018761162b565b81810360208301526118e68186611877565b90506118f560408301856118b0565b611902606083018461162b565b95945050505050565b6000806040838503121561192257611921611270565b5b600061193085828601611356565b925050602083013567ffffffffffffffff81111561195157611950611275565b5b61195d8582860161175c565b9150509250929050565b600081519050919050565b600082825260208201905092915050565b6000819050602082019050919050565b60006080830160008301516119ab6000860182611398565b50602083015184820360208601526119c38282611417565b91505060408301516119d86040860182611482565b5060608301516119eb6060860182611398565b508091505092915050565b6000611a028383611993565b905092915050565b6000602082019050919050565b6000611a2282611967565b611a2c8185611972565b935083602082028501611a3e85611983565b8060005b85811015611a7a5784840389528151611a5b85826119f6565b9450611a6683611a0a565b925060208a01995050600181019050611a42565b50829750879550505050505092915050565b60006020820190508181036000830152611aa68184611a17565b905092915050565b600060c082019050611ac3600083018961162b565b611ad06020830188611595565b8181036040830152611ae28187611877565b9050611af1606083018661162b565b611afe60808301856118b0565b611b0b60a083018461162b565b979650505050505050565b7f5265636f726420646f6573206e6f742065786973740000000000000000000000600082015250565b6000611b4c601583611866565b9150611b5782611b16565b602082019050919050565b60006020820190508181036000830152611b7b81611b3f565b9050919050565b7f4e487b7100000000000000000000000000000000000000000000000000000000600052602260045260246000fd5b60006002820490506001821680611bc957607f821691505b602082108103611bdc57611bdb611b82565b5b50919050565b7f4e487b7100000000000000000000000000000000000000000000000000000000600052601160045260246000fd5b6000611c1c82611335565b9150611c2783611335565b9250828201905080821115611c3f57611c3e611be2565b5b92915050565b60008190508160005260206000209050919050565b60006020601f8301049050919050565b600082821b905092915050565b600060088302611ca77fffffffffffffffffffffffffffffffffffffffffffffffffffffffffffffffff82611c6a565b611cb18683611c6a565b95508019841693508086168417925050509392505050565b6000819050919050565b6000611cee611ce9611ce484611335565b611cc9565b611335565b9050919050565b6000819050919050565b611d0883611cd3565b611d1c611d1482611cf5565b848454611c77565b825550505050565b600090565b611d31611d24565b611d3c818484611cff565b505050565b5b81811015611d6057611d55600082611d29565b600181019050611d42565b5050565b601f821115611da557611d7681611c45565b611d7f84611c5a565b81016020851015611d8e578190505b611da2611d9a85611c5a565b830182611d41565b50505b505050565b600082821c905092915050565b6000611dc860001984600802611daa565b1980831691505092915050565b6000611de18383611db7565b9150826002028217905092915050565b611dfa826113c0565b67ffffffffffffffff811115611e1357611e1261165f565b5b611e1d8254611bb1565b611e28828285611d64565b600060209050601f831160018114611e5b5760008415611e49578287015190505b611e538582611dd5565b865550611ebb565b601f198416611e6986611c45565b60005b82811015611e9157848901518255600182019150602085019450602081019050611e6c565b86831015611eae5784890151611eaa601f891682611db7565b8355505b6001600288020188555050505b505050505050565b60006020820190508181036000830152611edd8184611877565b905092915050565b6000604082019050611efa60008301856118b0565b611f076020830184611595565b939250505056fea2646970667358221220d13a42cbad4a3083c5b5a88e4aff48de4fd086df3f80aa4f7c7ab51794680fac64736f6c634300081c0033","opcodes":"PUSH1 0x80 PUSH1 0x40 MSTORE PUSH1 0x0 PUSH1 0x2 SSTORE CALLVALUE DUP1 ISZERO PUSH2 0x15 JUMPI PUSH1 0x0 DUP1 REVERT JUMPDEST POP PUSH2 0x29 PUSH1 0x0 DUP1 SHL CALLER PUSH2 0x2F PUSH1 0x20 SHL PUSH1 0x20 SHR JUMP JUMPDEST POP PUSH2 0x19E JUMP JUMPDEST PUSH1 0x0 PUSH2 0x41 DUP4 DUP4 PUSH2 0x12C PUSH1 0x20 SHL PUSH1 0x20 SHR JUMP JUMPDEST PUSH2 0x121 JUMPI PUSH1 0x1 PUSH1 0x0 DUP1 DUP6 DUP2 MSTORE PUSH1 0x20 ADD SWAP1 DUP2 MSTORE PUSH1 0x20 ADD PUSH1 0x0 KECCAK256 PUSH1 0x0 ADD PUSH1 0x0 DUP5 PUSH20 0xFFFFFFFFFFFFFFFFFFFFFFFFFFFFFFFFFFFFFFFF AND PUSH20 0xFFFFFFFFFFFFFFFFFFFFFFFFFFFFFFFFFFFFFFFF AND DUP2 MSTORE PUSH1 0x20 ADD SWAP1 DUP2 MSTORE PUSH1 0x20 ADD PUSH1 0x0 KECCAK256 PUSH1 0x0 PUSH2 0x100 EXP DUP2 SLOAD DUP2 PUSH1 0xFF MUL NOT AND SWAP1 DUP4 ISZERO ISZERO MUL OR SWAP1 SSTORE POP PUSH2 0xBE PUSH2 0x196 PUSH1 0x20 SHL PUSH1 0x20 SHR JUMP JUMPDEST PUSH20 0xFFFFFFFFFFFFFFFFFFFFFFFFFFFFFFFFFFFFFFFF AND DUP3 PUSH20 0xFFFFFFFFFFFFFFFFFFFFFFFFFFFFFFFFFFFFFFFF AND DUP5 PUSH32 0x2F8788117E7EFF1D82E926EC794901D17C78024A50270940304540A733656F0D PUSH1 0x40 MLOAD PUSH1 0x40 MLOAD DUP1 SWAP2 SUB SWAP1 LOG4 PUSH1 0x1 SWAP1 POP PUSH2 0x126 JUMP JUMPDEST PUSH1 0x0 SWAP1 POP JUMPDEST SWAP3 SWAP2 POP POP JUMP JUMPDEST PUSH1 0x0 DUP1 PUSH1 0x0 DUP5 DUP2 MSTORE PUSH1 0x20 ADD SWAP1 DUP2 MSTORE PUSH1 0x20 ADD PUSH1 0x0 KECCAK256 PUSH1 0x0 ADD PUSH1 0x0 DUP4 PUSH20 0xFFFFFFFFFFFFFFFFFFFFFFFFFFFFFFFFFFFFFFFF AND PUSH20 0xFFFFFFFFFFFFFFFFFFFFFFFFFFFFFFFFFFFFFFFF AND DUP2 MSTORE PUSH1 0x20 ADD SWAP1 DUP2 MSTORE PUSH1 0x20 ADD PUSH1 0x0 KECCAK256 PUSH1 0x0 SWAP1 SLOAD SWAP1 PUSH2 0x100 EXP SWAP1 DIV PUSH1 0xFF AND SWAP1 POP SWAP3 SWAP2 POP POP JUMP JUMPDEST PUSH1 0x0 CALLER SWAP1 POP SWAP1 JUMP JUMPDEST PUSH2 0x1F44 DUP1 PUSH2 0x1AD PUSH1 0x0 CODECOPY PUSH1 0x0 RETURN INVALID PUSH1 0x80 PUSH1 0x40 MSTORE CALLVALUE DUP1 ISZERO PUSH2 0x10 JUMPI PUSH1 0x0 DUP1 REVERT JUMPDEST POP PUSH1 0x4 CALLDATASIZE LT PUSH2 0x12C JUMPI PUSH1 0x0 CALLDATALOAD PUSH1 0xE0 SHR DUP1 PUSH4 0x5CA26DE1 GT PUSH2 0xAD JUMPI DUP1 PUSH4 0x900407BC GT PUSH2 0x71 JUMPI DUP1 PUSH4 0x900407BC EQ PUSH2 0x358 JUMPI DUP1 PUSH4 0x91D14854 EQ PUSH2 0x376 JUMPI DUP1 PUSH4 0xA217FDDF EQ PUSH2 0x3A6 JUMPI DUP1 PUSH4 0xBAC5D8F9 EQ PUSH2 0x3C4 JUMPI DUP1 PUSH4 0xD547741F EQ PUSH2 0x3F9 JUMPI PUSH2 0x12C JUMP JUMPDEST DUP1 PUSH4 0x5CA26DE1 EQ PUSH2 0x29D JUMPI DUP1 PUSH4 0x656A42BE EQ PUSH2 0x2D0 JUMPI DUP1 PUSH4 0x66CF3930 EQ PUSH2 0x2EE JUMPI DUP1 PUSH4 0x66E1D6AF EQ PUSH2 0x30A JUMPI DUP1 PUSH4 0x6E1D616E EQ PUSH2 0x33A JUMPI PUSH2 0x12C JUMP JUMPDEST DUP1 PUSH4 0x347C19CD GT PUSH2 0xF4 JUMPI DUP1 PUSH4 0x347C19CD EQ PUSH2 0x1FB JUMPI DUP1 PUSH4 0x36568ABE EQ PUSH2 0x22B JUMPI DUP1 PUSH4 0x487819DB EQ PUSH2 0x247 JUMPI DUP1 PUSH4 0x4D320C31 EQ PUSH2 0x263 JUMPI DUP1 PUSH4 0x5843296E EQ PUSH2 0x281 JUMPI PUSH2 0x12C JUMP JUMPDEST DUP1 PUSH4 0x1FFC9A7 EQ PUSH2 0x131 JUMPI DUP1 PUSH4 0x3E9E609 EQ PUSH2 0x161 JUMPI DUP1 PUSH4 0x248A9CA3 EQ PUSH2 0x191 JUMPI DUP1 PUSH4 0x2B9E1D70 EQ PUSH2 0x1C1 JUMPI DUP1 PUSH4 0x2F2FF15D EQ PUSH2 0x1DF JUMPI JUMPDEST PUSH1 0x0 DUP1 REVERT JUMPDEST PUSH2 0x14B PUSH1 0x4 DUP1 CALLDATASIZE SUB DUP2 ADD SWAP1 PUSH2 0x146 SWAP2 SWAP1 PUSH2 0x12D2 JUMP JUMPDEST PUSH2 0x415 JUMP JUMPDEST PUSH1 0x40 MLOAD PUSH2 0x158 SWAP2 SWAP1 PUSH2 0x131A JUMP JUMPDEST PUSH1 0x40 MLOAD DUP1 SWAP2 SUB SWAP1 RETURN JUMPDEST PUSH2 0x17B PUSH1 0x4 DUP1 CALLDATASIZE SUB DUP2 ADD SWAP1 PUSH2 0x176 SWAP2 SWAP1 PUSH2 0x136B JUMP JUMPDEST PUSH2 0x48F JUMP JUMPDEST PUSH1 0x40 MLOAD PUSH2 0x188 SWAP2 SWAP1 PUSH2 0x151A JUMP JUMPDEST PUSH1 0x40 MLOAD DUP1 SWAP2 SUB SWAP1 RETURN JUMPDEST PUSH2 0x1AB PUSH1 0x4 DUP1 CALLDATASIZE SUB DUP2 ADD SWAP1 PUSH2 0x1A6 SWAP2 SWAP1 PUSH2 0x1568 JUMP JUMPDEST PUSH2 0x61D JUMP JUMPDEST PUSH1 0x40 MLOAD PUSH2 0x1B8 SWAP2 SWAP1 PUSH2 0x15A4 JUMP JUMPDEST PUSH1 0x40 MLOAD DUP1 SWAP2 SUB SWAP1 RETURN JUMPDEST PUSH2 0x1C9 PUSH2 0x63C JUMP JUMPDEST PUSH1 0x40 MLOAD PUSH2 0x1D6 SWAP2 SWAP1 PUSH2 0x15A4 JUMP JUMPDEST PUSH1 0x40 MLOAD DUP1 SWAP2 SUB SWAP1 RETURN JUMPDEST PUSH2 0x1F9 PUSH1 0x4 DUP1 CALLDATASIZE SUB DUP2 ADD SWAP1 PUSH2 0x1F4 SWAP2 SWAP1 PUSH2 0x15EB JUMP JUMPDEST PUSH2 0x660 JUMP JUMPDEST STOP JUMPDEST PUSH2 0x215 PUSH1 0x4 DUP1 CALLDATASIZE SUB DUP2 ADD SWAP1 PUSH2 0x210 SWAP2 SWAP1 PUSH2 0x136B JUMP JUMPDEST PUSH2 0x682 JUMP JUMPDEST PUSH1 0x40 MLOAD PUSH2 0x222 SWAP2 SWAP1 PUSH2 0x163A JUMP JUMPDEST PUSH1 0x40 MLOAD DUP1 SWAP2 SUB SWAP1 RETURN JUMPDEST PUSH2 0x245 PUSH1 0x4 DUP1 CALLDATASIZE SUB DUP2 ADD SWAP1 PUSH2 0x240 SWAP2 SWAP1 PUSH2 0x15EB JUMP JUMPDEST PUSH2 0x6F2 JUMP JUMPDEST STOP JUMPDEST PUSH2 0x261 PUSH1 0x4 DUP1 CALLDATASIZE SUB DUP2 ADD SWAP1 PUSH2 0x25C SWAP2 SWAP1 PUSH2 0x178A JUMP JUMPDEST PUSH2 0x76D JUMP JUMPDEST STOP JUMPDEST PUSH2 0x26B PUSH2 0x8EA JUMP JUMPDEST PUSH1 0x40 MLOAD PUSH2 0x278 SWAP2 SWAP1 PUSH2 0x15A4 JUMP JUMPDEST PUSH1 0x40 MLOAD DUP1 SWAP2 SUB SWAP1 RETURN JUMPDEST PUSH2 0x29B PUSH1 0x4 DUP1 CALLDATASIZE SUB DUP2 ADD SWAP1 PUSH2 0x296 SWAP2 SWAP1 PUSH2 0x17F9 JUMP JUMPDEST PUSH2 0x90E JUMP JUMPDEST STOP JUMPDEST PUSH2 0x2B7 PUSH1 0x4 DUP1 CALLDATASIZE SUB DUP2 ADD SWAP1 PUSH2 0x2B2 SWAP2 SWAP1 PUSH2 0x1826 JUMP JUMPDEST PUSH2 0x949 JUMP JUMPDEST PUSH1 0x40 MLOAD PUSH2 0x2C7 SWAP5 SWAP4 SWAP3 SWAP2 SWAP1 PUSH2 0x18BF JUMP JUMPDEST PUSH1 0x40 MLOAD DUP1 SWAP2 SUB SWAP1 RETURN JUMPDEST PUSH2 0x2D8 PUSH2 0xA3E JUMP JUMPDEST PUSH1 0x40 MLOAD PUSH2 0x2E5 SWAP2 SWAP1 PUSH2 0x163A JUMP JUMPDEST PUSH1 0x40 MLOAD DUP1 SWAP2 SUB SWAP1 RETURN JUMPDEST PUSH2 0x308 PUSH1 0x4 DUP1 CALLDATASIZE SUB DUP2 ADD SWAP1 PUSH2 0x303 SWAP2 SWAP1 PUSH2 0x190B JUMP JUMPDEST PUSH2 0xA48 JUMP JUMPDEST STOP JUMPDEST PUSH2 0x324 PUSH1 0x4 DUP1 CALLDATASIZE SUB DUP2 ADD SWAP1 PUSH2 0x31F SWAP2 SWAP1 PUSH2 0x136B JUMP JUMPDEST PUSH2 0xBFD JUMP JUMPDEST PUSH1 0x40 MLOAD PUSH2 0x331 SWAP2 SWAP1 PUSH2 0x1A8C JUMP JUMPDEST PUSH1 0x40 MLOAD DUP1 SWAP2 SUB SWAP1 RETURN JUMPDEST PUSH2 0x342 PUSH2 0xDBC JUMP JUMPDEST PUSH1 0x40 MLOAD PUSH2 0x34F SWAP2 SWAP1 PUSH2 0x15A4 JUMP JUMPDEST PUSH1 0x40 MLOAD DUP1 SWAP2 SUB SWAP1 RETURN JUMPDEST PUSH2 0x360 PUSH2 0xDE0 JUMP JUMPDEST PUSH1 0x40 MLOAD PUSH2 0x36D SWAP2 SWAP1 PUSH2 0x163A JUMP JUMPDEST PUSH1 0x40 MLOAD DUP1 SWAP2 SUB SWAP1 RETURN JUMPDEST PUSH2 0x390 PUSH1 0x4 DUP1 CALLDATASIZE SUB DUP2 ADD SWAP1 PUSH2 0x38B SWAP2 SWAP1 PUSH2 0x15EB JUMP JUMPDEST PUSH2 0xDE6 JUMP JUMPDEST PUSH1 0x40 MLOAD PUSH2 0x39D SWAP2 SWAP1 PUSH2 0x131A JUMP JUMPDEST PUSH1 0x40 MLOAD DUP1 SWAP2 SUB SWAP1 RETURN JUMPDEST PUSH2 0x3AE PUSH2 0xE50 JUMP JUMPDEST PUSH1 0x40 MLOAD PUSH2 0x3BB SWAP2 SWAP1 PUSH2 0x15A4 JUMP JUMPDEST PUSH1 0x40 MLOAD DUP1 SWAP2 SUB SWAP1 RETURN JUMPDEST PUSH2 0x3DE PUSH1 0x4 DUP1 CALLDATASIZE SUB DUP2 ADD SWAP1 PUSH2 0x3D9 SWAP2 SWAP1 PUSH2 0x136B JUMP JUMPDEST PUSH2 0xE57 JUMP JUMPDEST PUSH1 0x40 MLOAD PUSH2 0x3F0 SWAP7 SWAP6 SWAP5 SWAP4 SWAP3 SWAP2 SWAP1 PUSH2 0x1AAE JUMP JUMPDEST PUSH1 0x40 MLOAD DUP1 SWAP2 SUB SWAP1 RETURN JUMPDEST PUSH2 0x413 PUSH1 0x4 DUP1 CALLDATASIZE SUB DUP2 ADD SWAP1 PUSH2 0x40E SWAP2 SWAP1 PUSH2 0x15EB JUMP JUMPDEST PUSH2 0xF3B JUMP JUMPDEST STOP JUMPDEST PUSH1 0x0 PUSH32 0x7965DB0B00000000000000000000000000000000000000000000000000000000 PUSH28 0xFFFFFFFFFFFFFFFFFFFFFFFFFFFFFFFFFFFFFFFFFFFFFFFFFFFFFFFF NOT AND DUP3 PUSH28 0xFFFFFFFFFFFFFFFFFFFFFFFFFFFFFFFFFFFFFFFFFFFFFFFFFFFFFFFF NOT AND EQ DUP1 PUSH2 0x488 JUMPI POP PUSH2 0x487 DUP3 PUSH2 0xF5D JUMP JUMPDEST JUMPDEST SWAP1 POP SWAP2 SWAP1 POP JUMP JUMPDEST PUSH2 0x497 PUSH2 0x1217 JUMP JUMPDEST PUSH1 0x0 DUP3 GT DUP1 ISZERO PUSH2 0x4A9 JUMPI POP PUSH1 0x2 SLOAD DUP3 GT ISZERO JUMPDEST PUSH2 0x4E8 JUMPI PUSH1 0x40 MLOAD PUSH32 0x8C379A000000000000000000000000000000000000000000000000000000000 DUP2 MSTORE PUSH1 0x4 ADD PUSH2 0x4DF SWAP1 PUSH2 0x1B62 JUMP JUMPDEST PUSH1 0x40 MLOAD DUP1 SWAP2 SUB SWAP1 REVERT JUMPDEST PUSH1 0x1 PUSH1 0x0 DUP4 DUP2 MSTORE PUSH1 0x20 ADD SWAP1 DUP2 MSTORE PUSH1 0x20 ADD PUSH1 0x0 KECCAK256 PUSH1 0x40 MLOAD DUP1 PUSH1 0xC0 ADD PUSH1 0x40 MSTORE SWAP1 DUP2 PUSH1 0x0 DUP3 ADD SLOAD DUP2 MSTORE PUSH1 0x20 ADD PUSH1 0x1 DUP3 ADD SLOAD DUP2 MSTORE PUSH1 0x20 ADD PUSH1 0x2 DUP3 ADD DUP1 SLOAD PUSH2 0x52A SWAP1 PUSH2 0x1BB1 JUMP JUMPDEST DUP1 PUSH1 0x1F ADD PUSH1 0x20 DUP1 SWAP2 DIV MUL PUSH1 0x20 ADD PUSH1 0x40 MLOAD SWAP1 DUP2 ADD PUSH1 0x40 MSTORE DUP1 SWAP3 SWAP2 SWAP1 DUP2 DUP2 MSTORE PUSH1 0x20 ADD DUP3 DUP1 SLOAD PUSH2 0x556 SWAP1 PUSH2 0x1BB1 JUMP JUMPDEST DUP1 ISZERO PUSH2 0x5A3 JUMPI DUP1 PUSH1 0x1F LT PUSH2 0x578 JUMPI PUSH2 0x100 DUP1 DUP4 SLOAD DIV MUL DUP4 MSTORE SWAP2 PUSH1 0x20 ADD SWAP2 PUSH2 0x5A3 JUMP JUMPDEST DUP3 ADD SWAP2 SWAP1 PUSH1 0x0 MSTORE PUSH1 0x20 PUSH1 0x0 KECCAK256 SWAP1 JUMPDEST DUP2 SLOAD DUP2 MSTORE SWAP1 PUSH1 0x1 ADD SWAP1 PUSH1 0x20 ADD DUP1 DUP4 GT PUSH2 0x586 JUMPI DUP3 SWAP1 SUB PUSH1 0x1F AND DUP3 ADD SWAP2 JUMPDEST POP POP POP POP POP DUP2 MSTORE PUSH1 0x20 ADD PUSH1 0x3 DUP3 ADD SLOAD DUP2 MSTORE PUSH1 0x20 ADD PUSH1 0x4 DUP3 ADD PUSH1 0x0 SWAP1 SLOAD SWAP1 PUSH2 0x100 EXP SWAP1 DIV PUSH20 0xFFFFFFFFFFFFFFFFFFFFFFFFFFFFFFFFFFFFFFFF AND PUSH20 0xFFFFFFFFFFFFFFFFFFFFFFFFFFFFFFFFFFFFFFFF AND PUSH20 0xFFFFFFFFFFFFFFFFFFFFFFFFFFFFFFFFFFFFFFFF AND DUP2 MSTORE PUSH1 0x20 ADD PUSH1 0x5 DUP3 ADD SLOAD DUP2 MSTORE POP POP SWAP1 POP SWAP2 SWAP1 POP JUMP JUMPDEST PUSH1 0x0 DUP1 PUSH1 0x0 DUP4 DUP2 MSTORE PUSH1 0x20 ADD SWAP1 DUP2 MSTORE PUSH1 0x20 ADD PUSH1 0x0 KECCAK256 PUSH1 0x1 ADD SLOAD SWAP1 POP SWAP2 SWAP1 POP JUMP JUMPDEST PUSH32 0x8F1426173EB922D2001706A308DABFA96E3C06475230FB5111184F70A4B5776D DUP2 JUMP JUMPDEST PUSH2 0x669 DUP3 PUSH2 0x61D JUMP JUMPDEST PUSH2 0x672 DUP2 PUSH2 0xFC7 JUMP JUMPDEST PUSH2 0x67C DUP4 DUP4 PUSH2 0xFDB JUMP JUMPDEST POP POP POP POP JUMP JUMPDEST PUSH1 0x0 DUP1 DUP3 GT DUP1 ISZERO PUSH2 0x695 JUMPI POP PUSH1 0x2 SLOAD DUP3 GT ISZERO JUMPDEST PUSH2 0x6D4 JUMPI PUSH1 0x40 MLOAD PUSH32 0x8C379A000000000000000000000000000000000000000000000000000000000 DUP2 MSTORE PUSH1 0x4 ADD PUSH2 0x6CB SWAP1 PUSH2 0x1B62 JUMP JUMPDEST PUSH1 0x40 MLOAD DUP1 SWAP2 SUB SWAP1 REVERT JUMPDEST PUSH1 0x3 PUSH1 0x0 DUP4 DUP2 MSTORE PUSH1 0x20 ADD SWAP1 DUP2 MSTORE PUSH1 0x20 ADD PUSH1 0x0 KECCAK256 DUP1 SLOAD SWAP1 POP SWAP1 POP SWAP2 SWAP1 POP JUMP JUMPDEST PUSH2 0x6FA PUSH2 0x10CC JUMP JUMPDEST PUSH20 0xFFFFFFFFFFFFFFFFFFFFFFFFFFFFFFFFFFFFFFFF AND DUP2 PUSH20 0xFFFFFFFFFFFFFFFFFFFFFFFFFFFFFFFFFFFFFFFF AND EQ PUSH2 0x75E JUMPI PUSH1 0x40 MLOAD PUSH32 0x6697B23200000000000000000000000000000000000000000000000000000000 DUP2 MSTORE PUSH1 0x4 ADD PUSH1 0x40 MLOAD DUP1 SWAP2 SUB SWAP1 REVERT JUMPDEST PUSH2 0x768 DUP3 DUP3 PUSH2 0x10D4 JUMP JUMPDEST POP POP POP JUMP JUMPDEST PUSH32 0x94AC8BF7C2C0D570B676D8037EAA0516224E8BCA85D85E9465DB2088D225FCAB PUSH2 0x797 DUP2 PUSH2 0xFC7 JUMP JUMPDEST PUSH1 0x1 PUSH1 0x2 PUSH1 0x0 DUP3 DUP3 SLOAD PUSH2 0x7AA SWAP2 SWAP1 PUSH2 0x1C11 JUMP JUMPDEST SWAP3 POP POP DUP2 SWAP1 SSTORE POP PUSH1 0x40 MLOAD DUP1 PUSH1 0xC0 ADD PUSH1 0x40 MSTORE DUP1 PUSH1 0x2 SLOAD DUP2 MSTORE PUSH1 0x20 ADD DUP6 DUP2 MSTORE PUSH1 0x20 ADD DUP5 DUP2 MSTORE PUSH1 0x20 ADD DUP4 DUP2 MSTORE PUSH1 0x20 ADD CALLER PUSH20 0xFFFFFFFFFFFFFFFFFFFFFFFFFFFFFFFFFFFFFFFF AND DUP2 MSTORE PUSH1 0x20 ADD TIMESTAMP DUP2 MSTORE POP PUSH1 0x1 PUSH1 0x0 PUSH1 0x2 SLOAD DUP2 MSTORE PUSH1 0x20 ADD SWAP1 DUP2 MSTORE PUSH1 0x20 ADD PUSH1 0x0 KECCAK256 PUSH1 0x0 DUP3 ADD MLOAD DUP2 PUSH1 0x0 ADD SSTORE PUSH1 0x20 DUP3 ADD MLOAD DUP2 PUSH1 0x1 ADD SSTORE PUSH1 0x40 DUP3 ADD MLOAD DUP2 PUSH1 0x2 ADD SWAP1 DUP2 PUSH2 0x834 SWAP2 SWAP1 PUSH2 0x1DF1 JUMP JUMPDEST POP PUSH1 0x60 DUP3 ADD MLOAD DUP2 PUSH1 0x3 ADD SSTORE PUSH1 0x80 DUP3 ADD MLOAD DUP2 PUSH1 0x4 ADD PUSH1 0x0 PUSH2 0x100 EXP DUP2 SLOAD DUP2 PUSH20 0xFFFFFFFFFFFFFFFFFFFFFFFFFFFFFFFFFFFFFFFF MUL NOT AND SWAP1 DUP4 PUSH20 0xFFFFFFFFFFFFFFFFFFFFFFFFFFFFFFFFFFFFFFFF AND MUL OR SWAP1 SSTORE POP PUSH1 0xA0 DUP3 ADD MLOAD DUP2 PUSH1 0x5 ADD SSTORE SWAP1 POP POP CALLER PUSH20 0xFFFFFFFFFFFFFFFFFFFFFFFFFFFFFFFFFFFFFFFF AND PUSH1 0x2 SLOAD PUSH32 0xB47AEFD0FCF9EA22919B53C3E42140E5FBCFED253F5AA6DC225CB4FA19152784 DUP7 PUSH1 0x40 MLOAD PUSH2 0x8DC SWAP2 SWAP1 PUSH2 0x15A4 JUMP JUMPDEST PUSH1 0x40 MLOAD DUP1 SWAP2 SUB SWAP1 LOG3 POP POP POP POP JUMP JUMPDEST PUSH32 0x94AC8BF7C2C0D570B676D8037EAA0516224E8BCA85D85E9465DB2088D225FCAB DUP2 JUMP JUMPDEST PUSH1 0x0 DUP1 SHL PUSH2 0x91B DUP2 PUSH2 0xFC7 JUMP JUMPDEST PUSH2 0x945 PUSH32 0x94AC8BF7C2C0D570B676D8037EAA0516224E8BCA85D85E9465DB2088D225FCAB DUP4 PUSH2 0x660 JUMP JUMPDEST POP POP JUMP JUMPDEST PUSH1 0x3 PUSH1 0x20 MSTORE DUP2 PUSH1 0x0 MSTORE PUSH1 0x40 PUSH1 0x0 KECCAK256 DUP2 DUP2 SLOAD DUP2 LT PUSH2 0x965 JUMPI PUSH1 0x0 DUP1 REVERT JUMPDEST SWAP1 PUSH1 0x0 MSTORE PUSH1 0x20 PUSH1 0x0 KECCAK256 SWAP1 PUSH1 0x4 MUL ADD PUSH1 0x0 SWAP2 POP SWAP2 POP POP DUP1 PUSH1 0x0 ADD SLOAD SWAP1 DUP1 PUSH1 0x1 ADD DUP1 SLOAD PUSH2 0x98F SWAP1 PUSH2 0x1BB1 JUMP JUMPDEST DUP1 PUSH1 0x1F ADD PUSH1 0x20 DUP1 SWAP2 DIV MUL PUSH1 0x20 ADD PUSH1 0x40 MLOAD SWAP1 DUP2 ADD PUSH1 0x40 MSTORE DUP1 SWAP3 SWAP2 SWAP1 DUP2 DUP2 MSTORE PUSH1 0x20 ADD DUP3 DUP1 SLOAD PUSH2 0x9BB SWAP1 PUSH2 0x1BB1 JUMP JUMPDEST DUP1 ISZERO PUSH2 0xA08 JUMPI DUP1 PUSH1 0x1F LT PUSH2 0x9DD JUMPI PUSH2 0x100 DUP1 DUP4 SLOAD DIV MUL DUP4 MSTORE SWAP2 PUSH1 0x20 ADD SWAP2 PUSH2 0xA08 JUMP JUMPDEST DUP3 ADD SWAP2 SWAP1 PUSH1 0x0 MSTORE PUSH1 0x20 PUSH1 0x0 KECCAK256 SWAP1 JUMPDEST DUP2 SLOAD DUP2 MSTORE SWAP1 PUSH1 0x1 ADD SWAP1 PUSH1 0x20 ADD DUP1 DUP4 GT PUSH2 0x9EB JUMPI DUP3 SWAP1 SUB PUSH1 0x1F AND DUP3 ADD SWAP2 JUMPDEST POP POP POP POP POP SWAP1 DUP1 PUSH1 0x2 ADD PUSH1 0x0 SWAP1 SLOAD SWAP1 PUSH2 0x100 EXP SWAP1 DIV PUSH20 0xFFFFFFFFFFFFFFFFFFFFFFFFFFFFFFFFFFFFFFFF AND SWAP1 DUP1 PUSH1 0x3 ADD SLOAD SWAP1 POP DUP5 JUMP JUMPDEST PUSH1 0x0 PUSH1 0x2 SLOAD SWAP1 POP SWAP1 JUMP JUMPDEST PUSH32 0x59A1C48E5837AD7A7F3DCEDCBE129BF3249EC4FBF651FD4F5E2600EAD39FE2F5 PUSH2 0xA72 DUP2 PUSH2 0xFC7 JUMP JUMPDEST PUSH1 0x0 DUP4 GT DUP1 ISZERO PUSH2 0xA84 JUMPI POP PUSH1 0x2 SLOAD DUP4 GT ISZERO JUMPDEST PUSH2 0xAC3 JUMPI PUSH1 0x40 MLOAD PUSH32 0x8C379A000000000000000000000000000000000000000000000000000000000 DUP2 MSTORE PUSH1 0x4 ADD PUSH2 0xABA SWAP1 PUSH2 0x1B62 JUMP JUMPDEST PUSH1 0x40 MLOAD DUP1 SWAP2 SUB SWAP1 REVERT JUMPDEST PUSH1 0x3 PUSH1 0x0 DUP5 DUP2 MSTORE PUSH1 0x20 ADD SWAP1 DUP2 MSTORE PUSH1 0x20 ADD PUSH1 0x0 KECCAK256 PUSH1 0x40 MLOAD DUP1 PUSH1 0x80 ADD PUSH1 0x40 MSTORE DUP1 DUP6 DUP2 MSTORE PUSH1 0x20 ADD DUP5 DUP2 MSTORE PUSH1 0x20 ADD CALLER PUSH20 0xFFFFFFFFFFFFFFFFFFFFFFFFFFFFFFFFFFFFFFFF AND DUP2 MSTORE PUSH1 0x20 ADD TIMESTAMP DUP2 MSTORE POP SWAP1 DUP1 PUSH1 0x1 DUP2 SLOAD ADD DUP1 DUP3 SSTORE DUP1 SWAP2 POP POP PUSH1 0x1 SWAP1 SUB SWAP1 PUSH1 0x0 MSTORE PUSH1 0x20 PUSH1 0x0 KECCAK256 SWAP1 PUSH1 0x4 MUL ADD PUSH1 0x0 SWAP1 SWAP2 SWAP1 SWAP2 SWAP1 SWAP2 POP PUSH1 0x0 DUP3 ADD MLOAD DUP2 PUSH1 0x0 ADD SSTORE PUSH1 0x20 DUP3 ADD MLOAD DUP2 PUSH1 0x1 ADD SWAP1 DUP2 PUSH2 0xB55 SWAP2 SWAP1 PUSH2 0x1DF1 JUMP JUMPDEST POP PUSH1 0x40 DUP3 ADD MLOAD DUP2 PUSH1 0x2 ADD PUSH1 0x0 PUSH2 0x100 EXP DUP2 SLOAD DUP2 PUSH20 0xFFFFFFFFFFFFFFFFFFFFFFFFFFFFFFFFFFFFFFFF MUL NOT AND SWAP1 DUP4 PUSH20 0xFFFFFFFFFFFFFFFFFFFFFFFFFFFFFFFFFFFFFFFF AND MUL OR SWAP1 SSTORE POP PUSH1 0x60 DUP3 ADD MLOAD DUP2 PUSH1 0x3 ADD SSTORE POP POP CALLER PUSH20 0xFFFFFFFFFFFFFFFFFFFFFFFFFFFFFFFFFFFFFFFF AND DUP4 PUSH32 0xAE05E28E072A893738DD5E5FE7B7DE2434BBF70C0DA8BE431CA7F522A583DEE4 DUP5 PUSH1 0x40 MLOAD PUSH2 0xBF0 SWAP2 SWAP1 PUSH2 0x1EC3 JUMP JUMPDEST PUSH1 0x40 MLOAD DUP1 SWAP2 SUB SWAP1 LOG3 POP POP POP JUMP JUMPDEST PUSH1 0x60 PUSH1 0x0 DUP3 GT DUP1 ISZERO PUSH2 0xC11 JUMPI POP PUSH1 0x2 SLOAD DUP3 GT ISZERO JUMPDEST PUSH2 0xC50 JUMPI PUSH1 0x40 MLOAD PUSH32 0x8C379A000000000000000000000000000000000000000000000000000000000 DUP2 MSTORE PUSH1 0x4 ADD PUSH2 0xC47 SWAP1 PUSH2 0x1B62 JUMP JUMPDEST PUSH1 0x40 MLOAD DUP1 SWAP2 SUB SWAP1 REVERT JUMPDEST PUSH1 0x3 PUSH1 0x0 DUP4 DUP2 MSTORE PUSH1 0x20 ADD SWAP1 DUP2 MSTORE PUSH1 0x20 ADD PUSH1 0x0 KECCAK256 DUP1 SLOAD DUP1 PUSH1 0x20 MUL PUSH1 0x20 ADD PUSH1 0x40 MLOAD SWAP1 DUP2 ADD PUSH1 0x40 MSTORE DUP1 SWAP3 SWAP2 SWAP1 DUP2 DUP2 MSTORE PUSH1 0x20 ADD PUSH1 0x0 SWAP1 JUMPDEST DUP3 DUP3 LT ISZERO PUSH2 0xDB1 JUMPI DUP4 DUP3 SWAP1 PUSH1 0x0 MSTORE PUSH1 0x20 PUSH1 0x0 KECCAK256 SWAP1 PUSH1 0x4 MUL ADD PUSH1 0x40 MLOAD DUP1 PUSH1 0x80 ADD PUSH1 0x40 MSTORE SWAP1 DUP2 PUSH1 0x0 DUP3 ADD SLOAD DUP2 MSTORE PUSH1 0x20 ADD PUSH1 0x1 DUP3 ADD DUP1 SLOAD PUSH2 0xCC0 SWAP1 PUSH2 0x1BB1 JUMP JUMPDEST DUP1 PUSH1 0x1F ADD PUSH1 0x20 DUP1 SWAP2 DIV MUL PUSH1 0x20 ADD PUSH1 0x40 MLOAD SWAP1 DUP2 ADD PUSH1 0x40 MSTORE DUP1 SWAP3 SWAP2 SWAP1 DUP2 DUP2 MSTORE PUSH1 0x20 ADD DUP3 DUP1 SLOAD PUSH2 0xCEC SWAP1 PUSH2 0x1BB1 JUMP JUMPDEST DUP1 ISZERO PUSH2 0xD39 JUMPI DUP1 PUSH1 0x1F LT PUSH2 0xD0E JUMPI PUSH2 0x100 DUP1 DUP4 SLOAD DIV MUL DUP4 MSTORE SWAP2 PUSH1 0x20 ADD SWAP2 PUSH2 0xD39 JUMP JUMPDEST DUP3 ADD SWAP2 SWAP1 PUSH1 0x0 MSTORE PUSH1 0x20 PUSH1 0x0 KECCAK256 SWAP1 JUMPDEST DUP2 SLOAD DUP2 MSTORE SWAP1 PUSH1 0x1 ADD SWAP1 PUSH1 0x20 ADD DUP1 DUP4 GT PUSH2 0xD1C JUMPI DUP3 SWAP1 SUB PUSH1 0x1F AND DUP3 ADD SWAP2 JUMPDEST POP POP POP POP POP DUP2 MSTORE PUSH1 0x20 ADD PUSH1 0x2 DUP3 ADD PUSH1 0x0 SWAP1 SLOAD SWAP1 PUSH2 0x100 EXP SWAP1 DIV PUSH20 0xFFFFFFFFFFFFFFFFFFFFFFFFFFFFFFFFFFFFFFFF AND PUSH20 0xFFFFFFFFFFFFFFFFFFFFFFFFFFFFFFFFFFFFFFFF AND PUSH20 0xFFFFFFFFFFFFFFFFFFFFFFFFFFFFFFFFFFFFFFFF AND DUP2 MSTORE PUSH1 0x20 ADD PUSH1 0x3 DUP3 ADD SLOAD DUP2 MSTORE POP POP DUP2 MSTORE PUSH1 0x20 ADD SWAP1 PUSH1 0x1 ADD SWAP1 PUSH2 0xC83 JUMP JUMPDEST POP POP POP POP SWAP1 POP SWAP2 SWAP1 POP JUMP JUMPDEST PUSH32 0x59A1C48E5837AD7A7F3DCEDCBE129BF3249EC4FBF651FD4F5E2600EAD39FE2F5 DUP2 JUMP JUMPDEST PUSH1 0x2 SLOAD DUP2 JUMP JUMPDEST PUSH1 0x0 DUP1 PUSH1 0x0 DUP5 DUP2 MSTORE PUSH1 0x20 ADD SWAP1 DUP2 MSTORE PUSH1 0x20 ADD PUSH1 0x0 KECCAK256 PUSH1 0x0 ADD PUSH1 0x0 DUP4 PUSH20 0xFFFFFFFFFFFFFFFFFFFFFFFFFFFFFFFFFFFFFFFF AND PUSH20 0xFFFFFFFFFFFFFFFFFFFFFFFFFFFFFFFFFFFFFFFF AND DUP2 MSTORE PUSH1 0x20 ADD SWAP1 DUP2 MSTORE PUSH1 0x20 ADD PUSH1 0x0 KECCAK256 PUSH1 0x0 SWAP1 SLOAD SWAP1 PUSH2 0x100 EXP SWAP1 DIV PUSH1 0xFF AND SWAP1 POP SWAP3 SWAP2 POP POP JUMP JUMPDEST PUSH1 0x0 DUP1 SHL DUP2 JUMP JUMPDEST PUSH1 0x1 PUSH1 0x20 MSTORE DUP1 PUSH1 0x0 MSTORE PUSH1 0x40 PUSH1 0x0 KECCAK256 PUSH1 0x0 SWAP2 POP SWAP1 POP DUP1 PUSH1 0x0 ADD SLOAD SWAP1 DUP1 PUSH1 0x1 ADD SLOAD SWAP1 DUP1 PUSH1 0x2 ADD DUP1 SLOAD PUSH2 0xE86 SWAP1 PUSH2 0x1BB1 JUMP JUMPDEST DUP1 PUSH1 0x1F ADD PUSH1 0x20 DUP1 SWAP2 DIV MUL PUSH1 0x20 ADD PUSH1 0x40 MLOAD SWAP1 DUP2 ADD PUSH1 0x40 MSTORE DUP1 SWAP3 SWAP2 SWAP1 DUP2 DUP2 MSTORE PUSH1 0x20 ADD DUP3 DUP1 SLOAD PUSH2 0xEB2 SWAP1 PUSH2 0x1BB1 JUMP JUMPDEST DUP1 ISZERO PUSH2 0xEFF JUMPI DUP1 PUSH1 0x1F LT PUSH2 0xED4 JUMPI PUSH2 0x100 DUP1 DUP4 SLOAD DIV MUL DUP4 MSTORE SWAP2 PUSH1 0x20 ADD SWAP2 PUSH2 0xEFF JUMP JUMPDEST DUP3 ADD SWAP2 SWAP1 PUSH1 0x0 MSTORE PUSH1 0x20 PUSH1 0x0 KECCAK256 SWAP1 JUMPDEST DUP2 SLOAD DUP2 MSTORE SWAP1 PUSH1 0x1 ADD SWAP1 PUSH1 0x20 ADD DUP1 DUP4 GT PUSH2 0xEE2 JUMPI DUP3 SWAP1 SUB PUSH1 0x1F AND DUP3 ADD SWAP2 JUMPDEST POP POP POP POP POP SWAP1 DUP1 PUSH1 0x3 ADD SLOAD SWAP1 DUP1 PUSH1 0x4 ADD PUSH1 0x0 SWAP1 SLOAD SWAP1 PUSH2 0x100 EXP SWAP1 DIV PUSH20 0xFFFFFFFFFFFFFFFFFFFFFFFFFFFFFFFFFFFFFFFF AND SWAP1 DUP1 PUSH1 0x5 ADD SLOAD SWAP1 POP DUP7 JUMP JUMPDEST PUSH2 0xF44 DUP3 PUSH2 0x61D JUMP JUMPDEST PUSH2 0xF4D DUP2 PUSH2 0xFC7 JUMP JUMPDEST PUSH2 0xF57 DUP4 DUP4 PUSH2 0x10D4 JUMP JUMPDEST POP POP POP POP JUMP JUMPDEST PUSH1 0x0 PUSH32 0x1FFC9A700000000000000000000000000000000000000000000000000000000 PUSH28 0xFFFFFFFFFFFFFFFFFFFFFFFFFFFFFFFFFFFFFFFFFFFFFFFFFFFFFFFF NOT AND DUP3 PUSH28 0xFFFFFFFFFFFFFFFFFFFFFFFFFFFFFFFFFFFFFFFFFFFFFFFFFFFFFFFF NOT AND EQ SWAP1 POP SWAP2 SWAP1 POP JUMP JUMPDEST PUSH2 0xFD8 DUP2 PUSH2 0xFD3 PUSH2 0x10CC JUMP JUMPDEST PUSH2 0x11C6 JUMP JUMPDEST POP JUMP JUMPDEST PUSH1 0x0 PUSH2 0xFE7 DUP4 DUP4 PUSH2 0xDE6 JUMP JUMPDEST PUSH2 0x10C1 JUMPI PUSH1 0x1 PUSH1 0x0 DUP1 DUP6 DUP2 MSTORE PUSH1 0x20 ADD SWAP1 DUP2 MSTORE PUSH1 0x20 ADD PUSH1 0x0 KECCAK256 PUSH1 0x0 ADD PUSH1 0x0 DUP5 PUSH20 0xFFFFFFFFFFFFFFFFFFFFFFFFFFFFFFFFFFFFFFFF AND PUSH20 0xFFFFFFFFFFFFFFFFFFFFFFFFFFFFFFFFFFFFFFFF AND DUP2 MSTORE PUSH1 0x20 ADD SWAP1 DUP2 MSTORE PUSH1 0x20 ADD PUSH1 0x0 KECCAK256 PUSH1 0x0 PUSH2 0x100 EXP DUP2 SLOAD DUP2 PUSH1 0xFF MUL NOT AND SWAP1 DUP4 ISZERO ISZERO MUL OR SWAP1 SSTORE POP PUSH2 0x105E PUSH2 0x10CC JUMP JUMPDEST PUSH20 0xFFFFFFFFFFFFFFFFFFFFFFFFFFFFFFFFFFFFFFFF AND DUP3 PUSH20 0xFFFFFFFFFFFFFFFFFFFFFFFFFFFFFFFFFFFFFFFF AND DUP5 PUSH32 0x2F8788117E7EFF1D82E926EC794901D17C78024A50270940304540A733656F0D PUSH1 0x40 MLOAD PUSH1 0x40 MLOAD DUP1 SWAP2 SUB SWAP1 LOG4 PUSH1 0x1 SWAP1 POP PUSH2 0x10C6 JUMP JUMPDEST PUSH1 0x0 SWAP1 POP JUMPDEST SWAP3 SWAP2 POP POP JUMP JUMPDEST PUSH1 0x0 CALLER SWAP1 POP SWAP1 JUMP JUMPDEST PUSH1 0x0 PUSH2 0x10E0 DUP4 DUP4 PUSH2 0xDE6 JUMP JUMPDEST ISZERO PUSH2 0x11BB JUMPI PUSH1 0x0 DUP1 PUSH1 0x0 DUP6 DUP2 MSTORE PUSH1 0x20 ADD SWAP1 DUP2 MSTORE PUSH1 0x20 ADD PUSH1 0x0 KECCAK256 PUSH1 0x0 ADD PUSH1 0x0 DUP5 PUSH20 0xFFFFFFFFFFFFFFFFFFFFFFFFFFFFFFFFFFFFFFFF AND PUSH20 0xFFFFFFFFFFFFFFFFFFFFFFFFFFFFFFFFFFFFFFFF AND DUP2 MSTORE PUSH1 0x20 ADD SWAP1 DUP2 MSTORE PUSH1 0x20 ADD PUSH1 0x0 KECCAK256 PUSH1 0x0 PUSH2 0x100 EXP DUP2 SLOAD DUP2 PUSH1 0xFF MUL NOT AND SWAP1 DUP4 ISZERO ISZERO MUL OR SWAP1 SSTORE POP PUSH2 0x1158 PUSH2 0x10CC JUMP JUMPDEST PUSH20 0xFFFFFFFFFFFFFFFFFFFFFFFFFFFFFFFFFFFFFFFF AND DUP3 PUSH20 0xFFFFFFFFFFFFFFFFFFFFFFFFFFFFFFFFFFFFFFFF AND DUP5 PUSH32 0xF6391F5C32D9C69D2A47EA670B442974B53935D1EDC7FD64EB21E047A839171B PUSH1 0x40 MLOAD PUSH1 0x40 MLOAD DUP1 SWAP2 SUB SWAP1 LOG4 PUSH1 0x1 SWAP1 POP PUSH2 0x11C0 JUMP JUMPDEST PUSH1 0x0 SWAP1 POP JUMPDEST SWAP3 SWAP2 POP POP JUMP JUMPDEST PUSH2 0x11D0 DUP3 DUP3 PUSH2 0xDE6 JUMP JUMPDEST PUSH2 0x1213 JUMPI DUP1 DUP3 PUSH1 0x40 MLOAD PUSH32 0xE2517D3F00000000000000000000000000000000000000000000000000000000 DUP2 MSTORE PUSH1 0x4 ADD PUSH2 0x120A SWAP3 SWAP2 SWAP1 PUSH2 0x1EE5 JUMP JUMPDEST PUSH1 0x40 MLOAD DUP1 SWAP2 SUB SWAP1 REVERT JUMPDEST POP POP JUMP JUMPDEST PUSH1 0x40 MLOAD DUP1 PUSH1 0xC0 ADD PUSH1 0x40 MSTORE DUP1 PUSH1 0x0 DUP2 MSTORE PUSH1 0x20 ADD PUSH1 0x0 DUP1 NOT AND DUP2 MSTORE PUSH1 0x20 ADD PUSH1 0x60 DUP2 MSTORE PUSH1 0x20 ADD PUSH1 0x0 DUP2 MSTORE PUSH1 0x20 ADD PUSH1 0x0 PUSH20 0xFFFFFFFFFFFFFFFFFFFFFFFFFFFFFFFFFFFFFFFF AND DUP2 MSTORE PUSH1 0x20 ADD PUSH1 0x0 DUP2 MSTORE POP SWAP1 JUMP JUMPDEST PUSH1 0x0 PUSH1 0x40 MLOAD SWAP1 POP SWAP1 JUMP JUMPDEST PUSH1 0x0 DUP1 REVERT JUMPDEST PUSH1 0x0 DUP1 REVERT JUMPDEST PUSH1 0x0 PUSH32 0xFFFFFFFF00000000000000000000000000000000000000000000000000000000 DUP3 AND SWAP1 POP SWAP2 SWAP1 POP JUMP JUMPDEST PUSH2 0x12AF DUP2 PUSH2 0x127A JUMP JUMPDEST DUP2 EQ PUSH2 0x12BA JUMPI PUSH1 0x0 DUP1 REVERT JUMPDEST POP JUMP JUMPDEST PUSH1 0x0 DUP2 CALLDATALOAD SWAP1 POP PUSH2 0x12CC DUP2 PUSH2 0x12A6 JUMP JUMPDEST SWAP3 SWAP2 POP POP JUMP JUMPDEST PUSH1 0x0 PUSH1 0x20 DUP3 DUP5 SUB SLT ISZERO PUSH2 0x12E8 JUMPI PUSH2 0x12E7 PUSH2 0x1270 JUMP JUMPDEST JUMPDEST PUSH1 0x0 PUSH2 0x12F6 DUP5 DUP3 DUP6 ADD PUSH2 0x12BD JUMP JUMPDEST SWAP2 POP POP SWAP3 SWAP2 POP POP JUMP JUMPDEST PUSH1 0x0 DUP2 ISZERO ISZERO SWAP1 POP SWAP2 SWAP1 POP JUMP JUMPDEST PUSH2 0x1314 DUP2 PUSH2 0x12FF JUMP JUMPDEST DUP3 MSTORE POP POP JUMP JUMPDEST PUSH1 0x0 PUSH1 0x20 DUP3 ADD SWAP1 POP PUSH2 0x132F PUSH1 0x0 DUP4 ADD DUP5 PUSH2 0x130B JUMP JUMPDEST SWAP3 SWAP2 POP POP JUMP JUMPDEST PUSH1 0x0 DUP2 SWAP1 POP SWAP2 SWAP1 POP JUMP JUMPDEST PUSH2 0x1348 DUP2 PUSH2 0x1335 JUMP JUMPDEST DUP2 EQ PUSH2 0x1353 JUMPI PUSH1 0x0 DUP1 REVERT JUMPDEST POP JUMP JUMPDEST PUSH1 0x0 DUP2 CALLDATALOAD SWAP1 POP PUSH2 0x1365 DUP2 PUSH2 0x133F JUMP JUMPDEST SWAP3 SWAP2 POP POP JUMP JUMPDEST PUSH1 0x0 PUSH1 0x20 DUP3 DUP5 SUB SLT ISZERO PUSH2 0x1381 JUMPI PUSH2 0x1380 PUSH2 0x1270 JUMP JUMPDEST JUMPDEST PUSH1 0x0 PUSH2 0x138F DUP5 DUP3 DUP6 ADD PUSH2 0x1356 JUMP JUMPDEST SWAP2 POP POP SWAP3 SWAP2 POP POP JUMP JUMPDEST PUSH2 0x13A1 DUP2 PUSH2 0x1335 JUMP JUMPDEST DUP3 MSTORE POP POP JUMP JUMPDEST PUSH1 0x0 DUP2 SWAP1 POP SWAP2 SWAP1 POP JUMP JUMPDEST PUSH2 0x13BA DUP2 PUSH2 0x13A7 JUMP JUMPDEST DUP3 MSTORE POP POP JUMP JUMPDEST PUSH1 0x0 DUP2 MLOAD SWAP1 POP SWAP2 SWAP1 POP JUMP JUMPDEST PUSH1 0x0 DUP3 DUP3 MSTORE PUSH1 0x20 DUP3 ADD SWAP1 POP SWAP3 SWAP2 POP POP JUMP JUMPDEST PUSH1 0x0 JUMPDEST DUP4 DUP2 LT ISZERO PUSH2 0x13FA JUMPI DUP1 DUP3 ADD MLOAD DUP2 DUP5 ADD MSTORE PUSH1 0x20 DUP2 ADD SWAP1 POP PUSH2 0x13DF JUMP JUMPDEST PUSH1 0x0 DUP5 DUP5 ADD MSTORE POP POP POP POP JUMP JUMPDEST PUSH1 0x0 PUSH1 0x1F NOT PUSH1 0x1F DUP4 ADD AND SWAP1 POP SWAP2 SWAP1 POP JUMP JUMPDEST PUSH1 0x0 PUSH2 0x1422 DUP3 PUSH2 0x13C0 JUMP JUMPDEST PUSH2 0x142C DUP2 DUP6 PUSH2 0x13CB JUMP JUMPDEST SWAP4 POP PUSH2 0x143C DUP2 DUP6 PUSH1 0x20 DUP7 ADD PUSH2 0x13DC JUMP JUMPDEST PUSH2 0x1445 DUP2 PUSH2 0x1406 JUMP JUMPDEST DUP5 ADD SWAP2 POP POP SWAP3 SWAP2 POP POP JUMP JUMPDEST PUSH1 0x0 PUSH20 0xFFFFFFFFFFFFFFFFFFFFFFFFFFFFFFFFFFFFFFFF DUP3 AND SWAP1 POP SWAP2 SWAP1 POP JUMP JUMPDEST PUSH1 0x0 PUSH2 0x147B DUP3 PUSH2 0x1450 JUMP JUMPDEST SWAP1 POP SWAP2 SWAP1 POP JUMP JUMPDEST PUSH2 0x148B DUP2 PUSH2 0x1470 JUMP JUMPDEST DUP3 MSTORE POP POP JUMP JUMPDEST PUSH1 0x0 PUSH1 0xC0 DUP4 ADD PUSH1 0x0 DUP4 ADD MLOAD PUSH2 0x14A9 PUSH1 0x0 DUP7 ADD DUP3 PUSH2 0x1398 JUMP JUMPDEST POP PUSH1 0x20 DUP4 ADD MLOAD PUSH2 0x14BC PUSH1 0x20 DUP7 ADD DUP3 PUSH2 0x13B1 JUMP JUMPDEST POP PUSH1 0x40 DUP4 ADD MLOAD DUP5 DUP3 SUB PUSH1 0x40 DUP7 ADD MSTORE PUSH2 0x14D4 DUP3 DUP3 PUSH2 0x1417 JUMP JUMPDEST SWAP2 POP POP PUSH1 0x60 DUP4 ADD MLOAD PUSH2 0x14E9 PUSH1 0x60 DUP7 ADD DUP3 PUSH2 0x1398 JUMP JUMPDEST POP PUSH1 0x80 DUP4 ADD MLOAD PUSH2 0x14FC PUSH1 0x80 DUP7 ADD DUP3 PUSH2 0x1482 JUMP JUMPDEST POP PUSH1 0xA0 DUP4 ADD MLOAD PUSH2 0x150F PUSH1 0xA0 DUP7 ADD DUP3 PUSH2 0x1398 JUMP JUMPDEST POP DUP1 SWAP2 POP POP SWAP3 SWAP2 POP POP JUMP JUMPDEST PUSH1 0x0 PUSH1 0x20 DUP3 ADD SWAP1 POP DUP2 DUP2 SUB PUSH1 0x0 DUP4 ADD MSTORE PUSH2 0x1534 DUP2 DUP5 PUSH2 0x1491 JUMP JUMPDEST SWAP1 POP SWAP3 SWAP2 POP POP JUMP JUMPDEST PUSH2 0x1545 DUP2 PUSH2 0x13A7 JUMP JUMPDEST DUP2 EQ PUSH2 0x1550 JUMPI PUSH1 0x0 DUP1 REVERT JUMPDEST POP JUMP JUMPDEST PUSH1 0x0 DUP2 CALLDATALOAD SWAP1 POP PUSH2 0x1562 DUP2 PUSH2 0x153C JUMP JUMPDEST SWAP3 SWAP2 POP POP JUMP JUMPDEST PUSH1 0x0 PUSH1 0x20 DUP3 DUP5 SUB SLT ISZERO PUSH2 0x157E JUMPI PUSH2 0x157D PUSH2 0x1270 JUMP JUMPDEST JUMPDEST PUSH1 0x0 PUSH2 0x158C DUP5 DUP3 DUP6 ADD PUSH2 0x1553 JUMP JUMPDEST SWAP2 POP POP SWAP3 SWAP2 POP POP JUMP JUMPDEST PUSH2 0x159E DUP2 PUSH2 0x13A7 JUMP JUMPDEST DUP3 MSTORE POP POP JUMP JUMPDEST PUSH1 0x0 PUSH1 0x20 DUP3 ADD SWAP1 POP PUSH2 0x15B9 PUSH1 0x0 DUP4 ADD DUP5 PUSH2 0x1595 JUMP JUMPDEST SWAP3 SWAP2 POP POP JUMP JUMPDEST PUSH2 0x15C8 DUP2 PUSH2 0x1470 JUMP JUMPDEST DUP2 EQ PUSH2 0x15D3 JUMPI PUSH1 0x0 DUP1 REVERT JUMPDEST POP JUMP JUMPDEST PUSH1 0x0 DUP2 CALLDATALOAD SWAP1 POP PUSH2 0x15E5 DUP2 PUSH2 0x15BF JUMP JUMPDEST SWAP3 SWAP2 POP POP JUMP JUMPDEST PUSH1 0x0 DUP1 PUSH1 0x40 DUP4 DUP6 SUB SLT ISZERO PUSH2 0x1602 JUMPI PUSH2 0x1601 PUSH2 0x1270 JUMP JUMPDEST JUMPDEST PUSH1 0x0 PUSH2 0x1610 DUP6 DUP3 DUP7 ADD PUSH2 0x1553 JUMP JUMPDEST SWAP3 POP POP PUSH1 0x20 PUSH2 0x1621 DUP6 DUP3 DUP7 ADD PUSH2 0x15D6 JUMP JUMPDEST SWAP2 POP POP SWAP3 POP SWAP3 SWAP1 POP JUMP JUMPDEST PUSH2 0x1634 DUP2 PUSH2 0x1335 JUMP JUMPDEST DUP3 MSTORE POP POP JUMP JUMPDEST PUSH1 0x0 PUSH1 0x20 DUP3 ADD SWAP1 POP PUSH2 0x164F PUSH1 0x0 DUP4 ADD DUP5 PUSH2 0x162B JUMP JUMPDEST SWAP3 SWAP2 POP POP JUMP JUMPDEST PUSH1 0x0 DUP1 REVERT JUMPDEST PUSH1 0x0 DUP1 REVERT JUMPDEST PUSH32 0x4E487B7100000000000000000000000000000000000000000000000000000000 PUSH1 0x0 MSTORE PUSH1 0x41 PUSH1 0x4 MSTORE PUSH1 0x24 PUSH1 0x0 REVERT JUMPDEST PUSH2 0x1697 DUP3 PUSH2 0x1406 JUMP JUMPDEST DUP2 ADD DUP2 DUP2 LT PUSH8 0xFFFFFFFFFFFFFFFF DUP3 GT OR ISZERO PUSH2 0x16B6 JUMPI PUSH2 0x16B5 PUSH2 0x165F JUMP JUMPDEST JUMPDEST DUP1 PUSH1 0x40 MSTORE POP POP POP JUMP JUMPDEST PUSH1 0x0 PUSH2 0x16C9 PUSH2 0x1266 JUMP JUMPDEST SWAP1 POP PUSH2 0x16D5 DUP3 DUP3 PUSH2 0x168E JUMP JUMPDEST SWAP2 SWAP1 POP JUMP JUMPDEST PUSH1 0x0 PUSH8 0xFFFFFFFFFFFFFFFF DUP3 GT ISZERO PUSH2 0x16F5 JUMPI PUSH2 0x16F4 PUSH2 0x165F JUMP JUMPDEST JUMPDEST PUSH2 0x16FE DUP3 PUSH2 0x1406 JUMP JUMPDEST SWAP1 POP PUSH1 0x20 DUP2 ADD SWAP1 POP SWAP2 SWAP1 POP JUMP JUMPDEST DUP3 DUP2 DUP4 CALLDATACOPY PUSH1 0x0 DUP4 DUP4 ADD MSTORE POP POP POP JUMP JUMPDEST PUSH1 0x0 PUSH2 0x172D PUSH2 0x1728 DUP5 PUSH2 0x16DA JUMP JUMPDEST PUSH2 0x16BF JUMP JUMPDEST SWAP1 POP DUP3 DUP2 MSTORE PUSH1 0x20 DUP2 ADD DUP5 DUP5 DUP5 ADD GT ISZERO PUSH2 0x1749 JUMPI PUSH2 0x1748 PUSH2 0x165A JUMP JUMPDEST JUMPDEST PUSH2 0x1754 DUP5 DUP3 DUP6 PUSH2 0x170B JUMP JUMPDEST POP SWAP4 SWAP3 POP POP POP JUMP JUMPDEST PUSH1 0x0 DUP3 PUSH1 0x1F DUP4 ADD SLT PUSH2 0x1771 JUMPI PUSH2 0x1770 PUSH2 0x1655 JUMP JUMPDEST JUMPDEST DUP2 CALLDATALOAD PUSH2 0x1781 DUP5 DUP3 PUSH1 0x20 DUP7 ADD PUSH2 0x171A JUMP JUMPDEST SWAP2 POP POP SWAP3 SWAP2 POP POP JUMP JUMPDEST PUSH1 0x0 DUP1 PUSH1 0x0 PUSH1 0x60 DUP5 DUP7 SUB SLT ISZERO PUSH2 0x17A3 JUMPI PUSH2 0x17A2 PUSH2 0x1270 JUMP JUMPDEST JUMPDEST PUSH1 0x0 PUSH2 0x17B1 DUP7 DUP3 DUP8 ADD PUSH2 0x1553 JUMP JUMPDEST SWAP4 POP POP PUSH1 0x20 DUP5 ADD CALLDATALOAD PUSH8 0xFFFFFFFFFFFFFFFF DUP2 GT ISZERO PUSH2 0x17D2 JUMPI PUSH2 0x17D1 PUSH2 0x1275 JUMP JUMPDEST JUMPDEST PUSH2 0x17DE DUP7 DUP3 DUP8 ADD PUSH2 0x175C JUMP JUMPDEST SWAP3 POP POP PUSH1 0x40 PUSH2 0x17EF DUP7 DUP3 DUP8 ADD PUSH2 0x1356 JUMP JUMPDEST SWAP2 POP POP SWAP3 POP SWAP3 POP SWAP3 JUMP JUMPDEST PUSH1 0x0 PUSH1 0x20 DUP3 DUP5 SUB SLT ISZERO PUSH2 0x180F JUMPI PUSH2 0x180E PUSH2 0x1270 JUMP JUMPDEST JUMPDEST PUSH1 0x0 PUSH2 0x181D DUP5 DUP3 DUP6 ADD PUSH2 0x15D6 JUMP JUMPDEST SWAP2 POP POP SWAP3 SWAP2 POP POP JUMP JUMPDEST PUSH1 0x0 DUP1 PUSH1 0x40 DUP4 DUP6 SUB SLT ISZERO PUSH2 0x183D JUMPI PUSH2 0x183C PUSH2 0x1270 JUMP JUMPDEST JUMPDEST PUSH1 0x0 PUSH2 0x184B DUP6 DUP3 DUP7 ADD PUSH2 0x1356 JUMP JUMPDEST SWAP3 POP POP PUSH1 0x20 PUSH2 0x185C DUP6 DUP3 DUP7 ADD PUSH2 0x1356 JUMP JUMPDEST SWAP2 POP POP SWAP3 POP SWAP3 SWAP1 POP JUMP JUMPDEST PUSH1 0x0 DUP3 DUP3 MSTORE PUSH1 0x20 DUP3 ADD SWAP1 POP SWAP3 SWAP2 POP POP JUMP JUMPDEST PUSH1 0x0 PUSH2 0x1882 DUP3 PUSH2 0x13C0 JUMP JUMPDEST PUSH2 0x188C DUP2 DUP6 PUSH2 0x1866 JUMP JUMPDEST SWAP4 POP PUSH2 0x189C DUP2 DUP6 PUSH1 0x20 DUP7 ADD PUSH2 0x13DC JUMP JUMPDEST PUSH2 0x18A5 DUP2 PUSH2 0x1406 JUMP JUMPDEST DUP5 ADD SWAP2 POP POP SWAP3 SWAP2 POP POP JUMP JUMPDEST PUSH2 0x18B9 DUP2 PUSH2 0x1470 JUMP JUMPDEST DUP3 MSTORE POP POP JUMP JUMPDEST PUSH1 0x0 PUSH1 0x80 DUP3 ADD SWAP1 POP PUSH2 0x18D4 PUSH1 0x0 DUP4 ADD DUP8 PUSH2 0x162B JUMP JUMPDEST DUP2 DUP2 SUB PUSH1 0x20 DUP4 ADD MSTORE PUSH2 0x18E6 DUP2 DUP7 PUSH2 0x1877 JUMP JUMPDEST SWAP1 POP PUSH2 0x18F5 PUSH1 0x40 DUP4 ADD DUP6 PUSH2 0x18B0 JUMP JUMPDEST PUSH2 0x1902 PUSH1 0x60 DUP4 ADD DUP5 PUSH2 0x162B JUMP JUMPDEST SWAP6 SWAP5 POP POP POP POP POP JUMP JUMPDEST PUSH1 0x0 DUP1 PUSH1 0x40 DUP4 DUP6 SUB SLT ISZERO PUSH2 0x1922 JUMPI PUSH2 0x1921 PUSH2 0x1270 JUMP JUMPDEST JUMPDEST PUSH1 0x0 PUSH2 0x1930 DUP6 DUP3 DUP7 ADD PUSH2 0x1356 JUMP JUMPDEST SWAP3 POP POP PUSH1 0x20 DUP4 ADD CALLDATALOAD PUSH8 0xFFFFFFFFFFFFFFFF DUP2 GT ISZERO PUSH2 0x1951 JUMPI PUSH2 0x1950 PUSH2 0x1275 JUMP JUMPDEST JUMPDEST PUSH2 0x195D DUP6 DUP3 DUP7 ADD PUSH2 0x175C JUMP JUMPDEST SWAP2 POP POP SWAP3 POP SWAP3 SWAP1 POP JUMP JUMPDEST PUSH1 0x0 DUP2 MLOAD SWAP1 POP SWAP2 SWAP1 POP JUMP JUMPDEST PUSH1 0x0 DUP3 DUP3 MSTORE PUSH1 0x20 DUP3 ADD SWAP1 POP SWAP3 SWAP2 POP POP JUMP JUMPDEST PUSH1 0x0 DUP2 SWAP1 POP PUSH1 0x20 DUP3 ADD SWAP1 POP SWAP2 SWAP1 POP JUMP JUMPDEST PUSH1 0x0 PUSH1 0x80 DUP4 ADD PUSH1 0x0 DUP4 ADD MLOAD PUSH2 0x19AB PUSH1 0x0 DUP7 ADD DUP3 PUSH2 0x1398 JUMP JUMPDEST POP PUSH1 0x20 DUP4 ADD MLOAD DUP5 DUP3 SUB PUSH1 0x20 DUP7 ADD MSTORE PUSH2 0x19C3 DUP3 DUP3 PUSH2 0x1417 JUMP JUMPDEST SWAP2 POP POP PUSH1 0x40 DUP4 ADD MLOAD PUSH2 0x19D8 PUSH1 0x40 DUP7 ADD DUP3 PUSH2 0x1482 JUMP JUMPDEST POP PUSH1 0x60 DUP4 ADD MLOAD PUSH2 0x19EB PUSH1 0x60 DUP7 ADD DUP3 PUSH2 0x1398 JUMP JUMPDEST POP DUP1 SWAP2 POP POP SWAP3 SWAP2 POP POP JUMP JUMPDEST PUSH1 0x0 PUSH2 0x1A02 DUP4 DUP4 PUSH2 0x1993 JUMP JUMPDEST SWAP1 POP SWAP3 SWAP2 POP POP JUMP JUMPDEST PUSH1 0x0 PUSH1 0x20 DUP3 ADD SWAP1 POP SWAP2 SWAP1 POP JUMP JUMPDEST PUSH1 0x0 PUSH2 0x1A22 DUP3 PUSH2 0x1967 JUMP JUMPDEST PUSH2 0x1A2C DUP2 DUP6 PUSH2 0x1972 JUMP JUMPDEST SWAP4 POP DUP4 PUSH1 0x20 DUP3 MUL DUP6 ADD PUSH2 0x1A3E DUP6 PUSH2 0x1983 JUMP JUMPDEST DUP1 PUSH1 0x0 JUMPDEST DUP6 DUP2 LT ISZERO PUSH2 0x1A7A JUMPI DUP5 DUP5 SUB DUP10 MSTORE DUP2 MLOAD PUSH2 0x1A5B DUP6 DUP3 PUSH2 0x19F6 JUMP JUMPDEST SWAP5 POP PUSH2 0x1A66 DUP4 PUSH2 0x1A0A JUMP JUMPDEST SWAP3 POP PUSH1 0x20 DUP11 ADD SWAP10 POP POP PUSH1 0x1 DUP2 ADD SWAP1 POP PUSH2 0x1A42 JUMP JUMPDEST POP DUP3 SWAP8 POP DUP8 SWAP6 POP POP POP POP POP POP SWAP3 SWAP2 POP POP JUMP JUMPDEST PUSH1 0x0 PUSH1 0x20 DUP3 ADD SWAP1 POP DUP2 DUP2 SUB PUSH1 0x0 DUP4 ADD MSTORE PUSH2 0x1AA6 DUP2 DUP5 PUSH2 0x1A17 JUMP JUMPDEST SWAP1 POP SWAP3 SWAP2 POP POP JUMP JUMPDEST PUSH1 0x0 PUSH1 0xC0 DUP3 ADD SWAP1 POP PUSH2 0x1AC3 PUSH1 0x0 DUP4 ADD DUP10 PUSH2 0x162B JUMP JUMPDEST PUSH2 0x1AD0 PUSH1 0x20 DUP4 ADD DUP9 PUSH2 0x1595 JUMP JUMPDEST DUP2 DUP2 SUB PUSH1 0x40 DUP4 ADD MSTORE PUSH2 0x1AE2 DUP2 DUP8 PUSH2 0x1877 JUMP JUMPDEST SWAP1 POP PUSH2 0x1AF1 PUSH1 0x60 DUP4 ADD DUP7 PUSH2 0x162B JUMP JUMPDEST PUSH2 0x1AFE PUSH1 0x80 DUP4 ADD DUP6 PUSH2 0x18B0 JUMP JUMPDEST PUSH2 0x1B0B PUSH1 0xA0 DUP4 ADD DUP5 PUSH2 0x162B JUMP JUMPDEST SWAP8 SWAP7 POP POP POP POP POP POP POP JUMP JUMPDEST PUSH32 0x5265636F726420646F6573206E6F742065786973740000000000000000000000 PUSH1 0x0 DUP3 ADD MSTORE POP JUMP JUMPDEST PUSH1 0x0 PUSH2 0x1B4C PUSH1 0x15 DUP4 PUSH2 0x1866 JUMP JUMPDEST SWAP2 POP PUSH2 0x1B57 DUP3 PUSH2 0x1B16 JUMP JUMPDEST PUSH1 0x20 DUP3 ADD SWAP1 POP SWAP2 SWAP1 POP JUMP JUMPDEST PUSH1 0x0 PUSH1 0x20 DUP3 ADD SWAP1 POP DUP2 DUP2 SUB PUSH1 0x0 DUP4 ADD MSTORE PUSH2 0x1B7B DUP2 PUSH2 0x1B3F JUMP JUMPDEST SWAP1 POP SWAP2 SWAP1 POP JUMP JUMPDEST PUSH32 0x4E487B7100000000000000000000000000000000000000000000000000000000 PUSH1 0x0 MSTORE PUSH1 0x22 PUSH1 0x4 MSTORE PUSH1 0x24 PUSH1 0x0 REVERT JUMPDEST PUSH1 0x0 PUSH1 0x2 DUP3 DIV SWAP1 POP PUSH1 0x1 DUP3 AND DUP1 PUSH2 0x1BC9 JUMPI PUSH1 0x7F DUP3 AND SWAP2 POP JUMPDEST PUSH1 0x20 DUP3 LT DUP2 SUB PUSH2 0x1BDC JUMPI PUSH2 0x1BDB PUSH2 0x1B82 JUMP JUMPDEST JUMPDEST POP SWAP2 SWAP1 POP JUMP JUMPDEST PUSH32 0x4E487B7100000000000000000000000000000000000000000000000000000000 PUSH1 0x0 MSTORE PUSH1 0x11 PUSH1 0x4 MSTORE PUSH1 0x24 PUSH1 0x0 REVERT JUMPDEST PUSH1 0x0 PUSH2 0x1C1C DUP3 PUSH2 0x1335 JUMP JUMPDEST SWAP2 POP PUSH2 0x1C27 DUP4 PUSH2 0x1335 JUMP JUMPDEST SWAP3 POP DUP3 DUP3 ADD SWAP1 POP DUP1 DUP3 GT ISZERO PUSH2 0x1C3F JUMPI PUSH2 0x1C3E PUSH2 0x1BE2 JUMP JUMPDEST JUMPDEST SWAP3 SWAP2 POP POP JUMP JUMPDEST PUSH1 0x0 DUP2 SWAP1 POP DUP2 PUSH1 0x0 MSTORE PUSH1 0x20 PUSH1 0x0 KECCAK256 SWAP1 POP SWAP2 SWAP1 POP JUMP JUMPDEST PUSH1 0x0 PUSH1 0x20 PUSH1 0x1F DUP4 ADD DIV SWAP1 POP SWAP2 SWAP1 POP JUMP JUMPDEST PUSH1 0x0 DUP3 DUP3 SHL SWAP1 POP SWAP3 SWAP2 POP POP JUMP JUMPDEST PUSH1 0x0 PUSH1 0x8 DUP4 MUL PUSH2 0x1CA7 PUSH32 0xFFFFFFFFFFFFFFFFFFFFFFFFFFFFFFFFFFFFFFFFFFFFFFFFFFFFFFFFFFFFFFFF DUP3 PUSH2 0x1C6A JUMP JUMPDEST PUSH2 0x1CB1 DUP7 DUP4 PUSH2 0x1C6A JUMP JUMPDEST SWAP6 POP DUP1 NOT DUP5 AND SWAP4 POP DUP1 DUP7 AND DUP5 OR SWAP3 POP POP POP SWAP4 SWAP3 POP POP POP JUMP JUMPDEST PUSH1 0x0 DUP2 SWAP1 POP SWAP2 SWAP1 POP JUMP JUMPDEST PUSH1 0x0 PUSH2 0x1CEE PUSH2 0x1CE9 PUSH2 0x1CE4 DUP5 PUSH2 0x1335 JUMP JUMPDEST PUSH2 0x1CC9 JUMP JUMPDEST PUSH2 0x1335 JUMP JUMPDEST SWAP1 POP SWAP2 SWAP1 POP JUMP JUMPDEST PUSH1 0x0 DUP2 SWAP1 POP SWAP2 SWAP1 POP JUMP JUMPDEST PUSH2 0x1D08 DUP4 PUSH2 0x1CD3 JUMP JUMPDEST PUSH2 0x1D1C PUSH2 0x1D14 DUP3 PUSH2 0x1CF5 JUMP JUMPDEST DUP5 DUP5 SLOAD PUSH2 0x1C77 JUMP JUMPDEST DUP3 SSTORE POP POP POP POP JUMP JUMPDEST PUSH1 0x0 SWAP1 JUMP JUMPDEST PUSH2 0x1D31 PUSH2 0x1D24 JUMP JUMPDEST PUSH2 0x1D3C DUP2 DUP5 DUP5 PUSH2 0x1CFF JUMP JUMPDEST POP POP POP JUMP JUMPDEST JUMPDEST DUP2 DUP2 LT ISZERO PUSH2 0x1D60 JUMPI PUSH2 0x1D55 PUSH1 0x0 DUP3 PUSH2 0x1D29 JUMP JUMPDEST PUSH1 0x1 DUP2 ADD SWAP1 POP PUSH2 0x1D42 JUMP JUMPDEST POP POP JUMP JUMPDEST PUSH1 0x1F DUP3 GT ISZERO PUSH2 0x1DA5 JUMPI PUSH2 0x1D76 DUP2 PUSH2 0x1C45 JUMP JUMPDEST PUSH2 0x1D7F DUP5 PUSH2 0x1C5A JUMP JUMPDEST DUP2 ADD PUSH1 0x20 DUP6 LT ISZERO PUSH2 0x1D8E JUMPI DUP2 SWAP1 POP JUMPDEST PUSH2 0x1DA2 PUSH2 0x1D9A DUP6 PUSH2 0x1C5A JUMP JUMPDEST DUP4 ADD DUP3 PUSH2 0x1D41 JUMP JUMPDEST POP POP JUMPDEST POP POP POP JUMP JUMPDEST PUSH1 0x0 DUP3 DUP3 SHR SWAP1 POP SWAP3 SWAP2 POP POP JUMP JUMPDEST PUSH1 0x0 PUSH2 0x1DC8 PUSH1 0x0 NOT DUP5 PUSH1 0x8 MUL PUSH2 0x1DAA JUMP JUMPDEST NOT DUP1 DUP4 AND SWAP2 POP POP SWAP3 SWAP2 POP POP JUMP JUMPDEST PUSH1 0x0 PUSH2 0x1DE1 DUP4 DUP4 PUSH2 0x1DB7 JUMP JUMPDEST SWAP2 POP DUP3 PUSH1 0x2 MUL DUP3 OR SWAP1 POP SWAP3 SWAP2 POP POP JUMP JUMPDEST PUSH2 0x1DFA DUP3 PUSH2 0x13C0 JUMP JUMPDEST PUSH8 0xFFFFFFFFFFFFFFFF DUP2 GT ISZERO PUSH2 0x1E13 JUMPI PUSH2 0x1E12 PUSH2 0x165F JUMP JUMPDEST JUMPDEST PUSH2 0x1E1D DUP3 SLOAD PUSH2 0x1BB1 JUMP JUMPDEST PUSH2 0x1E28 DUP3 DUP3 DUP6 PUSH2 0x1D64 JUMP JUMPDEST PUSH1 0x0 PUSH1 0x20 SWAP1 POP PUSH1 0x1F DUP4 GT PUSH1 0x1 DUP2 EQ PUSH2 0x1E5B JUMPI PUSH1 0x0 DUP5 ISZERO PUSH2 0x1E49 JUMPI DUP3 DUP8 ADD MLOAD SWAP1 POP JUMPDEST PUSH2 0x1E53 DUP6 DUP3 PUSH2 0x1DD5 JUMP JUMPDEST DUP7 SSTORE POP PUSH2 0x1EBB JUMP JUMPDEST PUSH1 0x1F NOT DUP5 AND PUSH2 0x1E69 DUP7 PUSH2 0x1C45 JUMP JUMPDEST PUSH1 0x0 JUMPDEST DUP3 DUP2 LT ISZERO PUSH2 0x1E91 JUMPI DUP5 DUP10 ADD MLOAD DUP3 SSTORE PUSH1 0x1 DUP3 ADD SWAP2 POP PUSH1 0x20 DUP6 ADD SWAP5 POP PUSH1 0x20 DUP2 ADD SWAP1 POP PUSH2 0x1E6C JUMP JUMPDEST DUP7 DUP4 LT ISZERO PUSH2 0x1EAE JUMPI DUP5 DUP10 ADD MLOAD PUSH2 0x1EAA PUSH1 0x1F DUP10 AND DUP3 PUSH2 0x1DB7 JUMP JUMPDEST DUP4 SSTORE POP JUMPDEST PUSH1 0x1 PUSH1 0x2 DUP9 MUL ADD DUP9 SSTORE POP POP POP JUMPDEST POP POP POP POP POP POP JUMP JUMPDEST PUSH1 0x0 PUSH1 0x20 DUP3 ADD SWAP1 POP DUP2 DUP2 SUB PUSH1 0x0 DUP4 ADD MSTORE PUSH2 0x1EDD DUP2 DUP5 PUSH2 0x1877 JUMP JUMPDEST SWAP1 POP SWAP3 SWAP2 POP POP JUMP JUMPDEST PUSH1 0x0 PUSH1 0x40 DUP3 ADD SWAP1 POP PUSH2 0x1EFA PUSH1 0x0 DUP4 ADD DUP6 PUSH2 0x18B0 JUMP JUMPDEST PUSH2 0x1F07 PUSH1 0x20 DUP4 ADD DUP5 PUSH2 0x1595 JUMP JUMPDEST SWAP4 SWAP3 POP POP POP JUMP INVALID LOG2 PUSH5 0x6970667358 0x22 SLT KECCAK256 0xD1 GASPRICE TIMESTAMP 0xCB 0xAD BLOBBASEFEE ADDRESS DUP4 0xC5 0xB5 0xA8 DUP15 BLOBBASEFEE SELFDESTRUCT BASEFEE 0xDE 0x4F 0xD0 DUP7 0xDF EXTCODEHASH DUP1 0xAA 0x4F PUSH29 0x7AB51794680FAC64736F6C634300081C00330000000000000000000000 "},"methodIdentifiers":{"AUDITOR_ROLE()":"6e1d616e","CITIZEN_ROLE()":"2b9e1d70","DEFAULT_ADMIN_ROLE()":"a217fddf","GOV_AGENCY_ROLE()":"4d320c31","addGovAgency(address)":"5843296e","auditFindings(uint256,uint256)":"5ca26de1","getAuditCount(uint256)":"347c19cd","getAudits(uint256)":"66e1d6af","getRecord(uint256)":"03e9e609","getRoleAdmin(bytes32)":"248a9ca3","getSpendingCount()":"656a42be","grantRole(bytes32,address)":"2f2ff15d","hasRole(bytes32,address)":"91d14854","recordCount()":"900407bc","renounceRole(bytes32,address)":"36568abe","revokeRole(bytes32,address)":"d547741f","spendingRecords(uint256)":"bac5d8f9","submitAudit(uint256,string)":"66cf3930","submitSpendingRecord(bytes32,string,uint256)":"487819db","supportsInterface(bytes4)":"01ffc9a7"}}}}}