{"contracts/GovSpendingLedger.sol":{"GovSpendingLedger":{"abi":[{"inputs":[],"stateMutability":"nonpayable","type":"constructor"},{"inputs":[],"name":"AccessControlBadConfirmation","type":"error"},{"inputs":[{"internalType":"address","name":"account","type":"address"},{"internalType":"bytes32","name":"neededRole","type":"bytes32"}],"name":"AccessControlUnauthorizedAccount","type":"error"},{"anonymous":false,"inputs":[{"indexed":true,"internalType":"uint256","name":"recordId","type":"uint256"},{"indexed":true,"internalType":"address","name":"auditor","type":"address"},{"indexed":false,"internalType":"bytes32","name":"documentHash","type":"bytes32"},{"indexed":false,"internalType":"enum GovSpendingLedger.AuditResult","name":"result","type":"uint8"}],"name":"AuditSubmitted","type":"event"},{"anonymous":false,"inputs":[{"indexed":true,"internalType":"uint256","name":"recordId","type":"uint256"},{"indexed":true,"internalType":"address","name":"submittedBy","type":"address"},{"indexed":false,"internalType":"bytes32","name":"documentHash","type":"bytes32"}],"name":"RecordSubmitted","type":"event"},{"anonymous":false,"inputs":[{"indexed":true,"internalType":"bytes32","name":"role","type":"bytes32"},{"indexed":true,"internalType":"bytes32","name":"previousAdminRole","type":"bytes32"},{"indexed":true,"internalType":"bytes32","name":"newAdminRole","type":"bytes32"}],"name":"RoleAdminChanged","type":"event"},{"anonymous":false,"inputs":[{"indexed":true,"internalType":"bytes32","name":"role","type":"bytes32"},{"indexed":true,"internalType":"address","name":"account","type":"address"},{"indexed":true,"internalType":"address","name":"sender","type":"address"}],"name":"RoleGranted","type":"event"},{"anonymous":false,"inputs":[{"indexed":true,"internalType":"bytes32","name":"role","type":"bytes32"},{"indexed":true,"internalType":"address","name":"account","type":"address"},{"indexed":true,"internalType":"address","name":"sender","type":"address"}],"name":"RoleRevoked","type":"event"},{"inputs":[],"name":"AUDITOR_ROLE","outputs":[{"internalType":"bytes32","name":"","type":"bytes32"}],"stateMutability":"view","type":"function"},{"inputs":[],"name":"CITIZEN_ROLE","outputs":[{"internalType":"bytes32","name":"","type":"bytes32"}],"stateMutability":"view","type":"function"},{"inputs":[],"name":"DEFAULT_ADMIN_ROLE","outputs":[{"internalType":"bytes32","name":"","type":"bytes32"}],"stateMutability":"view","type":"function"},{"inputs":[],"name":"GOV_AGENCY_ROLE","outputs":[{"internalType":"bytes32","name":"","type":"bytes32"}],"stateMutability":"view","type":"function"},{"inputs":[{"internalType":"address","name":"account","type":"address"}],"name":"addAuditor","outputs":[],"stateMutability":"nonpayable","type":"function"},{"inputs":[{"internalType":"address","name":"account","type":"address"}],"name":"addGovAgency","outputs":[],"stateMutability":"nonpayable","type":"function"},{"inputs":[{"internalType":"uint256","name":"","type":"uint256"},{"internalType":"uint256","name":"","type":"uint256"}],"name":"auditFindings","outputs":[{"internalType":"uint256","name":"recordId","type":"uint256"},{"internalType":"bytes32","name":"documentHash","type":"bytes32"},{"internalType":"enum GovSpendingLedger.AuditResult","name":"result","type":"uint8"},{"internalType":"address","name":"auditor","type":"address"},{"internalType":"uint256","name":"timestamp","type":"uint256"}],"stateMutability":"view","type":"function"},{"inputs":[{"internalType":"uint256","name":"recordId","type":"uint256"}],"name":"getAuditCount","outputs":[{"internalType":"uint256","name":"","type":"uint256"}],"stateMutability":"view","type":"function"},{"inputs":[{"internalType":"uint256","name":"recordId","type":"uint256"}],"name":"getAudits","outputs":[{"internalType":"uint256[]","name":"recordIds","type":"uint256[]"},{"internalType":"bytes32[]","name":"docHashes","type":"bytes32[]"},{"internalType":"enum GovSpendingLedger.AuditResult[]","name":"results","type":"uint8[]"},{"internalType":"address[]","name":"auditors","type":"address[]"},{"internalType":"uint256[]","name":"timestamps","type":"uint256[]"}],"stateMutability":"view","type":"function"},{"inputs":[{"internalType":"uint256","name":"recordId","type":"uint256"}],"name":"getRecordBasic","outputs":[{"internalType":"uint256","name":"","type":"uint256"},{"internalType":"bytes32","name":"","type":"bytes32"},{"internalType":"string","name":"","type":"string"},{"internalType":"address","name":"","type":"address"},{"internalType":"uint256","name":"","type":"uint256"}],"stateMutability":"view","type":"function"},{"inputs":[{"internalType":"bytes32","name":"role","type":"bytes32"}],"name":"getRoleAdmin","outputs":[{"internalType":"bytes32","name":"","type":"bytes32"}],"stateMutability":"view","type":"function"},{"inputs":[],"name":"getSpendingCount","outputs":[{"internalType":"uint256","name":"","type":"uint256"}],"stateMutability":"view","type":"function"},{"inputs":[{"internalType":"bytes32","name":"role","type":"bytes32"},{"internalType":"address","name":"account","type":"address"}],"name":"grantRole","outputs":[],"stateMutability":"nonpayable","type":"function"},{"inputs":[{"internalType":"bytes32","name":"role","type":"bytes32"},{"internalType":"address","name":"account","type":"address"}],"name":"hasRole","outputs":[{"internalType":"bool","name":"","type":"bool"}],"stateMutability":"view","type":"function"},{"inputs":[],"name":"recordCount","outputs":[{"internalType":"uint256","name":"","type":"uint256"}],"stateMutability":"view","type":"function"},{"inputs":[{"internalType":"bytes32","name":"role","type":"bytes32"},{"internalType":"address","name":"callerConfirmation","type":"address"}],"name":"renounceRole","outputs":[],"stateMutability":"nonpayable","type":"function"},{"inputs":[{"internalType":"bytes32","name":"role","type":"bytes32"},{"internalType":"address","name":"account","type":"address"}],"name":"revokeRole","outputs":[],"stateMutability":"nonpayable","type":"function"},{"inputs":[{"internalType":"uint256","name":"","type":"uint256"}],"name":"spendingRecords","outputs":[{"internalType":"uint256","name":"recordId","type":"uint256"},{"internalType":"bytes32","name":"documentHash","type":"bytes32"},{"internalType":"string","name":"recordType","type":"string"},{"internalType":"address","name":"submittedBy","type":"address"},{"internalType":"uint256","name":"timestamp","type":"uint256"}],"stateMutability":"view","type":"function"},{"inputs":[{"internalType":"uint256","name":"recordId","type":"uint256"},{"internalType":"bytes32","name":"documentHash","type":"bytes32"},{"internalType":"enum GovSpendingLedger.AuditResult","name":"result","type":"uint8"}],"name":"submitAudit","outputs":[],"stateMutability":"nonpayable","type":"function"},{"inputs":[{"internalType":"bytes32","name":"documentHash","type":"bytes32"},{"internalType":"string","name":"recordType","type":"string"}],"name":"submitSpendingRecord","outputs":[],"stateMutability":"nonpayable","type":"function"},{"inputs":[{"internalType":"bytes4","name":"interfaceId","type":"bytes4"}],"name":"supportsInterface","outputs":[{"internalType":"bool","name":"","type":"bool"}],"stateMutability":"view","type":"function"}],"evm":{"bytecode":{"linkReferences":{},"object":"6080604052600060025534801561001557600080fd5b506100296000801b3361002f60201b60201c565b5061019e565b6000610041838361012c60201b60201c565b61012157600160008085815260200190815260200160002060000160008473ffffffffffffffffffffffffffffffffffffffff1673ffffffffffffffffffffffffffffffffffffffff16815260200190815260200160002060006101000a81548160ff0219169083151502179055506100be61019660201b60201c565b73ffffffffffffffffffffffffffffffffffffffff168273ffffffffffffffffffffffffffffffffffffffff16847f2f8788117e7eff1d82e926ec794901d17c78024a50270940304540a733656f0d60405160405180910390a460019050610126565b600090505b92915050565b600080600084815260200190815260200160002060000160008373ffffffffffffffffffffffffffffffffffffffff1673ffffffffffffffffffffffffffffffffffffffff16815260200190815260200160002060009054906101000a900460ff16905092915050565b600033905090565b612376806101ad6000396000f3fe608060405234801561001057600080fd5b50600436106101375760003560e01c80635ca26de1116100b8578063900407bc1161007c578063900407bc1461036c57806391d148541461038a578063a217fddf146103ba578063bac5d8f9146103d8578063d547741f1461040c578063e429cef11461042857610137565b80635ca26de114610294578063656a42be146102c857806366e1d6af146102e65780636e1d616e1461031a57806376e2f16a1461033857610137565b8063347c19cd116100ff578063347c19cd146101f257806336568abe146102225780634d320c311461023e5780634f369e3f1461025c5780635843296e1461027857610137565b806301ffc9a71461013c578063248a9ca31461016c5780632b9e1d701461019c5780632ebf8b63146101ba5780632f2ff15d146101d6575b600080fd5b61015660048036038101906101519190611550565b610444565b6040516101639190611598565b60405180910390f35b610186600480360381019061018191906115e9565b6104be565b6040516101939190611625565b60405180910390f35b6101a46104dd565b6040516101b19190611625565b60405180910390f35b6101d460048036038101906101cf919061169b565b610501565b005b6101f060048036038101906101eb919061174c565b6106f5565b005b61020c6004803603810190610207919061178c565b610717565b60405161021991906117c8565b60405180910390f35b61023c6004803603810190610237919061174c565b610787565b005b610246610802565b6040516102539190611625565b60405180910390f35b61027660048036038101906102719190611929565b610826565b005b610292600480360381019061028d9190611985565b610992565b005b6102ae60048036038101906102a991906119b2565b6109cd565b6040516102bf959493929190611a78565b60405180910390f35b6102d0610a4d565b6040516102dd91906117c8565b60405180910390f35b61030060048036038101906102fb919061178c565b610a57565b604051610311959493929190611dc3565b60405180910390f35b610322610ef7565b60405161032f9190611625565b60405180910390f35b610352600480360381019061034d919061178c565b610f1b565b604051610363959493929190611eb8565b60405180910390f35b610374611078565b60405161038191906117c8565b60405180910390f35b6103a4600480360381019061039f919061174c565b61107e565b6040516103b19190611598565b60405180910390f35b6103c26110e8565b6040516103cf9190611625565b60405180910390f35b6103f260048036038101906103ed919061178c565b6110ef565b604051610403959493929190611eb8565b60405180910390f35b6104266004803603810190610421919061174c565b6111cd565b005b610442600480360381019061043d9190611985565b6111ef565b005b60007f7965db0b000000000000000000000000000000000000000000000000000000007bffffffffffffffffffffffffffffffffffffffffffffffffffffffff1916827bffffffffffffffffffffffffffffffffffffffffffffffffffffffff191614806104b757506104b68261122a565b5b9050919050565b6000806000838152602001908152602001600020600101549050919050565b7f8f1426173eb922d2001706a308dabfa96e3c06475230fb5111184f70a4b5776d81565b7f59a1c48e5837ad7a7f3dcedcbe129bf3249ec4fbf651fd4f5e2600ead39fe2f561052b81611294565b60008411801561053d57506002548411155b61057c576040517f08c379a000000000000000000000000000000000000000000000000000000000815260040161057390611f5e565b60405180910390fd5b600360008581526020019081526020016000206040518060a001604052808681526020018581526020018460028111156105b9576105b86119f2565b5b81526020013373ffffffffffffffffffffffffffffffffffffffff168152602001428152509080600181540180825580915050600190039060005260206000209060040201600090919091909150600082015181600001556020820151816001015560408201518160020160006101000a81548160ff02191690836002811115610646576106456119f2565b5b021790555060608201518160020160016101000a81548173ffffffffffffffffffffffffffffffffffffffff021916908373ffffffffffffffffffffffffffffffffffffffff1602179055506080820151816003015550503373ffffffffffffffffffffffffffffffffffffffff16847f767a22557e298699103cac1a0225dad53bdef76110a6a5c01a0154a2854a271185856040516106e7929190611f7e565b60405180910390a350505050565b6106fe826104be565b61070781611294565b61071183836112a8565b50505050565b6000808211801561072a57506002548211155b610769576040517f08c379a000000000000000000000000000000000000000000000000000000000815260040161076090611f5e565b60405180910390fd5b60036000838152602001908152602001600020805490509050919050565b61078f611399565b73ffffffffffffffffffffffffffffffffffffffff168173ffffffffffffffffffffffffffffffffffffffff16146107f3576040517f6697b23200000000000000000000000000000000000000000000000000000000815260040160405180910390fd5b6107fd82826113a1565b505050565b7f94ac8bf7c2c0d570b676d8037eaa0516224e8bca85d85e9465db2088d225fcab81565b7f94ac8bf7c2c0d570b676d8037eaa0516224e8bca85d85e9465db2088d225fcab61085081611294565b6001600260008282546108639190611fd6565b925050819055506040518060a0016040528060025481526020018481526020018381526020013373ffffffffffffffffffffffffffffffffffffffff16815260200142815250600160006002548152602001908152602001600020600082015181600001556020820151816001015560408201518160020190816108e79190612216565b5060608201518160030160006101000a81548173ffffffffffffffffffffffffffffffffffffffff021916908373ffffffffffffffffffffffffffffffffffffffff160217905550608082015181600401559050503373ffffffffffffffffffffffffffffffffffffffff166002547fb47aefd0fcf9ea22919b53c3e42140e5fbcfed253f5aa6dc225cb4fa19152784856040516109859190611625565b60405180910390a3505050565b6000801b61099f81611294565b6109c97f94ac8bf7c2c0d570b676d8037eaa0516224e8bca85d85e9465db2088d225fcab836106f5565b5050565b600360205281600052604060002081815481106109e957600080fd5b9060005260206000209060040201600091509150508060000154908060010154908060020160009054906101000a900460ff16908060020160019054906101000a900473ffffffffffffffffffffffffffffffffffffffff16908060030154905085565b6000600254905090565b6060806060806060600086118015610a7157506002548611155b610ab0576040517f08c379a0000000000000000000000000000000000000000000000000000000008152600401610aa790611f5e565b60405180910390fd5b600060036000888152602001908152602001600020805480602002602001604051908101604052809291908181526020016000905b82821015610bc657838290600052602060002090600402016040518060a001604052908160008201548152602001600182015481526020016002820160009054906101000a900460ff166002811115610b4157610b406119f2565b5b6002811115610b5357610b526119f2565b5b81526020016002820160019054906101000a900473ffffffffffffffffffffffffffffffffffffffff1673ffffffffffffffffffffffffffffffffffffffff1673ffffffffffffffffffffffffffffffffffffffff16815260200160038201548152505081526020019060010190610ae5565b5050505090506000815190508067ffffffffffffffff811115610bec57610beb6117fe565b5b604051908082528060200260200182016040528015610c1a5781602001602082028036833780820191505090505b5096508067ffffffffffffffff811115610c3757610c366117fe565b5b604051908082528060200260200182016040528015610c655781602001602082028036833780820191505090505b5095508067ffffffffffffffff811115610c8257610c816117fe565b5b604051908082528060200260200182016040528015610cb05781602001602082028036833780820191505090505b5094508067ffffffffffffffff811115610ccd57610ccc6117fe565b5b604051908082528060200260200182016040528015610cfb5781602001602082028036833780820191505090505b5093508067ffffffffffffffff811115610d1857610d176117fe565b5b604051908082528060200260200182016040528015610d465781602001602082028036833780820191505090505b50925060005b81811015610eeb57828181518110610d6757610d666122e8565b5b602002602001015160000151888281518110610d8657610d856122e8565b5b602002602001018181525050828181518110610da557610da46122e8565b5b602002602001015160200151878281518110610dc457610dc36122e8565b5b602002602001018181525050828181518110610de357610de26122e8565b5b602002602001015160400151868281518110610e0257610e016122e8565b5b60200260200101906002811115610e1c57610e1b6119f2565b5b90816002811115610e3057610e2f6119f2565b5b81525050828181518110610e4757610e466122e8565b5b602002602001015160600151858281518110610e6657610e656122e8565b5b602002602001019073ffffffffffffffffffffffffffffffffffffffff16908173ffffffffffffffffffffffffffffffffffffffff1681525050828181518110610eb357610eb26122e8565b5b602002602001015160800151848281518110610ed257610ed16122e8565b5b6020026020010181815250508080600101915050610d4c565b50505091939590929450565b7f59a1c48e5837ad7a7f3dcedcbe129bf3249ec4fbf651fd4f5e2600ead39fe2f581565b60008060606000806000600160008881526020019081526020016000206040518060a00160405290816000820154815260200160018201548152602001600282018054610f6790612039565b80601f0160208091040260200160405190810160405280929190818152602001828054610f9390612039565b8015610fe05780601f10610fb557610100808354040283529160200191610fe0565b820191906000526020600020905b815481529060010190602001808311610fc357829003601f168201915b505050505081526020016003820160009054906101000a900473ffffffffffffffffffffffffffffffffffffffff1673ffffffffffffffffffffffffffffffffffffffff1673ffffffffffffffffffffffffffffffffffffffff168152602001600482015481525050905080600001518160200151826040015183606001518460800151955095509550955095505091939590929450565b60025481565b600080600084815260200190815260200160002060000160008373ffffffffffffffffffffffffffffffffffffffff1673ffffffffffffffffffffffffffffffffffffffff16815260200190815260200160002060009054906101000a900460ff16905092915050565b6000801b81565b600160205280600052604060002060009150905080600001549080600101549080600201805461111e90612039565b80601f016020809104026020016040519081016040528092919081815260200182805461114a90612039565b80156111975780601f1061116c57610100808354040283529160200191611197565b820191906000526020600020905b81548152906001019060200180831161117a57829003601f168201915b5050505050908060030160009054906101000a900473ffffffffffffffffffffffffffffffffffffffff16908060040154905085565b6111d6826104be565b6111df81611294565b6111e983836113a1565b50505050565b6000801b6111fc81611294565b6112267f59a1c48e5837ad7a7f3dcedcbe129bf3249ec4fbf651fd4f5e2600ead39fe2f5836106f5565b5050565b60007f01ffc9a7000000000000000000000000000000000000000000000000000000007bffffffffffffffffffffffffffffffffffffffffffffffffffffffff1916827bffffffffffffffffffffffffffffffffffffffffffffffffffffffff1916149050919050565b6112a5816112a0611399565b611493565b50565b60006112b4838361107e565b61138e57600160008085815260200190815260200160002060000160008473ffffffffffffffffffffffffffffffffffffffff1673ffffffffffffffffffffffffffffffffffffffff16815260200190815260200160002060006101000a81548160ff02191690831515021790555061132b611399565b73ffffffffffffffffffffffffffffffffffffffff168273ffffffffffffffffffffffffffffffffffffffff16847f2f8788117e7eff1d82e926ec794901d17c78024a50270940304540a733656f0d60405160405180910390a460019050611393565b600090505b92915050565b600033905090565b60006113ad838361107e565b1561148857600080600085815260200190815260200160002060000160008473ffffffffffffffffffffffffffffffffffffffff1673ffffffffffffffffffffffffffffffffffffffff16815260200190815260200160002060006101000a81548160ff021916908315150217905550611425611399565b73ffffffffffffffffffffffffffffffffffffffff168273ffffffffffffffffffffffffffffffffffffffff16847ff6391f5c32d9c69d2a47ea670b442974b53935d1edc7fd64eb21e047a839171b60405160405180910390a46001905061148d565b600090505b92915050565b61149d828261107e565b6114e05780826040517fe2517d3f0000000000000000000000000000000000000000000000000000000081526004016114d7929190612317565b60405180910390fd5b5050565b6000604051905090565b600080fd5b600080fd5b60007fffffffff0000000000000000000000000000000000000000000000000000000082169050919050565b61152d816114f8565b811461153857600080fd5b50565b60008135905061154a81611524565b92915050565b600060208284031215611566576115656114ee565b5b60006115748482850161153b565b91505092915050565b60008115159050919050565b6115928161157d565b82525050565b60006020820190506115ad6000830184611589565b92915050565b6000819050919050565b6115c6816115b3565b81146115d157600080fd5b50565b6000813590506115e3816115bd565b92915050565b6000602082840312156115ff576115fe6114ee565b5b600061160d848285016115d4565b91505092915050565b61161f816115b3565b82525050565b600060208201905061163a6000830184611616565b92915050565b6000819050919050565b61165381611640565b811461165e57600080fd5b50565b6000813590506116708161164a565b92915050565b6003811061168357600080fd5b50565b60008135905061169581611676565b92915050565b6000806000606084860312156116b4576116b36114ee565b5b60006116c286828701611661565b93505060206116d3868287016115d4565b92505060406116e486828701611686565b9150509250925092565b600073ffffffffffffffffffffffffffffffffffffffff82169050919050565b6000611719826116ee565b9050919050565b6117298161170e565b811461173457600080fd5b50565b60008135905061174681611720565b92915050565b60008060408385031215611763576117626114ee565b5b6000611771858286016115d4565b925050602061178285828601611737565b9150509250929050565b6000602082840312156117a2576117a16114ee565b5b60006117b084828501611661565b91505092915050565b6117c281611640565b82525050565b60006020820190506117dd60008301846117b9565b92915050565b600080fd5b600080fd5b6000601f19601f8301169050919050565b7f4e487b7100000000000000000000000000000000000000000000000000000000600052604160045260246000fd5b611836826117ed565b810181811067ffffffffffffffff82111715611855576118546117fe565b5b80604052505050565b60006118686114e4565b9050611874828261182d565b919050565b600067ffffffffffffffff821115611894576118936117fe565b5b61189d826117ed565b9050602081019050919050565b82818337600083830152505050565b60006118cc6118c784611879565b61185e565b9050828152602081018484840111156118e8576118e76117e8565b5b6118f38482856118aa565b509392505050565b600082601f8301126119105761190f6117e3565b5b81356119208482602086016118b9565b91505092915050565b600080604083850312156119405761193f6114ee565b5b600061194e858286016115d4565b925050602083013567ffffffffffffffff81111561196f5761196e6114f3565b5b61197b858286016118fb565b9150509250929050565b60006020828403121561199b5761199a6114ee565b5b60006119a984828501611737565b91505092915050565b600080604083850312156119c9576119c86114ee565b5b60006119d785828601611661565b92505060206119e885828601611661565b9150509250929050565b7f4e487b7100000000000000000000000000000000000000000000000000000000600052602160045260246000fd5b60038110611a3257611a316119f2565b5b50565b6000819050611a4382611a21565b919050565b6000611a5382611a35565b9050919050565b611a6381611a48565b82525050565b611a728161170e565b82525050565b600060a082019050611a8d60008301886117b9565b611a9a6020830187611616565b611aa76040830186611a5a565b611ab46060830185611a69565b611ac160808301846117b9565b9695505050505050565b600081519050919050565b600082825260208201905092915050565b6000819050602082019050919050565b611b0081611640565b82525050565b6000611b128383611af7565b60208301905092915050565b6000602082019050919050565b6000611b3682611acb565b611b408185611ad6565b9350611b4b83611ae7565b8060005b83811015611b7c578151611b638882611b06565b9750611b6e83611b1e565b925050600181019050611b4f565b5085935050505092915050565b600081519050919050565b600082825260208201905092915050565b6000819050602082019050919050565b611bbe816115b3565b82525050565b6000611bd08383611bb5565b60208301905092915050565b6000602082019050919050565b6000611bf482611b89565b611bfe8185611b94565b9350611c0983611ba5565b8060005b83811015611c3a578151611c218882611bc4565b9750611c2c83611bdc565b925050600181019050611c0d565b5085935050505092915050565b600081519050919050565b600082825260208201905092915050565b6000819050602082019050919050565b611c7c81611a48565b82525050565b6000611c8e8383611c73565b60208301905092915050565b6000602082019050919050565b6000611cb282611c47565b611cbc8185611c52565b9350611cc783611c63565b8060005b83811015611cf8578151611cdf8882611c82565b9750611cea83611c9a565b925050600181019050611ccb565b5085935050505092915050565b600081519050919050565b600082825260208201905092915050565b6000819050602082019050919050565b611d3a8161170e565b82525050565b6000611d4c8383611d31565b60208301905092915050565b6000602082019050919050565b6000611d7082611d05565b611d7a8185611d10565b9350611d8583611d21565b8060005b83811015611db6578151611d9d8882611d40565b9750611da883611d58565b925050600181019050611d89565b5085935050505092915050565b600060a0820190508181036000830152611ddd8188611b2b565b90508181036020830152611df18187611be9565b90508181036040830152611e058186611ca7565b90508181036060830152611e198185611d65565b90508181036080830152611e2d8184611b2b565b90509695505050505050565b600081519050919050565b600082825260208201905092915050565b60005b83811015611e73578082015181840152602081019050611e58565b60008484015250505050565b6000611e8a82611e39565b611e948185611e44565b9350611ea4818560208601611e55565b611ead816117ed565b840191505092915050565b600060a082019050611ecd60008301886117b9565b611eda6020830187611616565b8181036040830152611eec8186611e7f565b9050611efb6060830185611a69565b611f0860808301846117b9565b9695505050505050565b7f5265636f726420646f6573206e6f742065786973740000000000000000000000600082015250565b6000611f48601583611e44565b9150611f5382611f12565b602082019050919050565b60006020820190508181036000830152611f7781611f3b565b9050919050565b6000604082019050611f936000830185611616565b611fa06020830184611a5a565b9392505050565b7f4e487b7100000000000000000000000000000000000000000000000000000000600052601160045260246000fd5b6000611fe182611640565b9150611fec83611640565b925082820190508082111561200457612003611fa7565b5b92915050565b7f4e487b7100000000000000000000000000000000000000000000000000000000600052602260045260246000fd5b6000600282049050600182168061205157607f821691505b6020821081036120645761206361200a565b5b50919050565b60008190508160005260206000209050919050565b60006020601f8301049050919050565b600082821b905092915050565b6000600883026120cc7fffffffffffffffffffffffffffffffffffffffffffffffffffffffffffffffff8261208f565b6120d6868361208f565b95508019841693508086168417925050509392505050565b6000819050919050565b600061211361210e61210984611640565b6120ee565b611640565b9050919050565b6000819050919050565b61212d836120f8565b6121416121398261211a565b84845461209c565b825550505050565b600090565b612156612149565b612161818484612124565b505050565b5b818110156121855761217a60008261214e565b600181019050612167565b5050565b601f8211156121ca5761219b8161206a565b6121a48461207f565b810160208510156121b3578190505b6121c76121bf8561207f565b830182612166565b50505b505050565b600082821c905092915050565b60006121ed600019846008026121cf565b1980831691505092915050565b600061220683836121dc565b9150826002028217905092915050565b61221f82611e39565b67ffffffffffffffff811115612238576122376117fe565b5b6122428254612039565b61224d828285612189565b600060209050601f831160018114612280576000841561226e578287015190505b61227885826121fa565b8655506122e0565b601f19841661228e8661206a565b60005b828110156122b657848901518255600182019150602085019450602081019050612291565b868310156122d357848901516122cf601f8916826121dc565b8355505b6001600288020188555050505b505050505050565b7f4e487b7100000000000000000000000000000000000000000000000000000000600052603260045260246000fd5b600060408201905061232c6000830185611a69565b6123396020830184611616565b939250505056fea2646970667358221220efdf95952b165481489d83a498b3a0344aa39402c947e84a30c8d665ff30c21c64736f6c634300081c0033","opcodes":"PUSH1 0x80 PUSH1 0x40 MSTORE PUSH1 0x0 PUSH1 0x2 SSTORE CALLVALUE DUP1 ISZERO PUSH2 0x15 JUMPI PUSH1 0x0 DUP1 REVERT JUMPDEST POP PUSH2 0x29 PUSH1 0x0 DUP1 SHL CALLER PUSH2 0x2F PUSH1 0x20 SHL PUSH1 0x20 SHR JUMP JUMPDEST POP PUSH2 0x19E JUMP JUMPDEST PUSH1 0x0 PUSH2 0x41 DUP4 DUP4 PUSH2 0x12C PUSH1 0x20 SHL PUSH1 0x20 SHR JUMP JUMPDEST PUSH2 0x121 JUMPI PUSH1 0x1 PUSH1 0x0 DUP1 DUP6 DUP2 MSTORE PUSH1 0x20 ADD SWAP1 DUP2 MSTORE PUSH1 0x20 ADD PUSH1 0x0 KECCAK256 PUSH1 0x0 ADD PUSH1 0x0 DUP5 PUSH20 0xFFFFFFFFFFFFFFFFFFFFFFFFFFFFFFFFFFFFFFFF AND PUSH20 0xFFFFFFFFFFFFFFFFFFFFFFFFFFFFFFFFFFFFFFFF AND DUP2 MSTORE PUSH1 0x20 ADD SWAP1 DUP2 MSTORE PUSH1 0x20 ADD PUSH1 0x0 KECCAK256 PUSH1 0x0 PUSH2 0x100 EXP DUP2 SLOAD DUP2 PUSH1 0xFF MUL NOT AND SWAP1 DUP4 ISZERO ISZERO MUL OR SWAP1 SSTORE POP PUSH2 0xBE PUSH2 0x196 PUSH1 0x20 SHL PUSH1 0x20 SHR JUMP JUMPDEST PUSH20 0xFFFFFFFFFFFFFFFFFFFFFFFFFFFFFFFFFFFFFFFF AND DUP3 PUSH20 0xFFFFFFFFFFFFFFFFFFFFFFFFFFFFFFFFFFFFFFFF AND DUP5 PUSH32 0x2F8788117E7EFF1D82E926EC794901D17C78024A50270940304540A733656F0D PUSH1 0x40 MLOAD PUSH1 0x40 MLOAD DUP1 SWAP2 SUB SWAP1 LOG4 PUSH1 0x1 SWAP1 POP PUSH2 0x126 JUMP JUMPDEST PUSH1 0x0 SWAP1 POP JUMPDEST SWAP3 SWAP2 POP POP JUMP JUMPDEST PUSH1 0x0 DUP1 PUSH1 0x0 DUP5 DUP2 MSTORE PUSH1 0x20 ADD SWAP1 DUP2 MSTORE PUSH1 0x20 ADD PUSH1 0x0 KECCAK256 PUSH1 0x0 ADD PUSH1 0x0 DUP4 PUSH20 0xFFFFFFFFFFFFFFFFFFFFFFFFFFFFFFFFFFFFFFFF AND PUSH20 0xFFFFFFFFFFFFFFFFFFFFFFFFFFFFFFFFFFFFFFFF AND DUP2 MSTORE PUSH1 0x20 ADD SWAP1 DUP2 MSTORE PUSH1 0x20 ADD PUSH1 0x0 KECCAK256 PUSH1 0x0 SWAP1 SLOAD SWAP1 PUSH2 0x100 EXP SWAP1 DIV PUSH1 0xFF AND SWAP1 POP SWAP3 SWAP2 POP POP JUMP JUMPDEST PUSH1 0x0 CALLER SWAP1 POP SWAP1 JUMP JUMPDEST PUSH2 0x2376 DUP1 PUSH2 0x1AD PUSH1 0x0 CODECOPY PUSH1 0x0 RETURN INVALID PUSH1 0x80 PUSH1 0x40 MSTORE CALLVALUE DUP1 ISZERO PUSH2 0x10 JUMPI PUSH1 0x0 DUP1 REVERT JUMPDEST POP PUSH1 0x4 CALLDATASIZE LT PUSH2 0x137 JUMPI PUSH1 0x0 CALLDATALOAD PUSH1 0xE0 SHR DUP1 PUSH4 0x5CA26DE1 GT PUSH2 0xB8 JUMPI DUP1 PUSH4 0x900407BC GT PUSH2 0x7C JUMPI DUP1 PUSH4 0x900407BC EQ PUSH2 0x36C JUMPI DUP1 PUSH4 0x91D14854 EQ PUSH2 0x38A JUMPI DUP1 PUSH4 0xA217FDDF EQ PUSH2 0x3BA JUMPI DUP1 PUSH4 0xBAC5D8F9 EQ PUSH2 0x3D8 JUMPI DUP1 PUSH4 0xD547741F EQ PUSH2 0x40C JUMPI DUP1 PUSH4 0xE429CEF1 EQ PUSH2 0x428 JUMPI PUSH2 0x137 JUMP JUMPDEST DUP1 PUSH4 0x5CA26DE1 EQ PUSH2 0x294 JUMPI DUP1 PUSH4 0x656A42BE EQ PUSH2 0x2C8 JUMPI DUP1 PUSH4 0x66E1D6AF EQ PUSH2 0x2E6 JUMPI DUP1 PUSH4 0x6E1D616E EQ PUSH2 0x31A JUMPI DUP1 PUSH4 0x76E2F16A EQ PUSH2 0x338 JUMPI PUSH2 0x137 JUMP JUMPDEST DUP1 PUSH4 0x347C19CD GT PUSH2 0xFF JUMPI DUP1 PUSH4 0x347C19CD EQ PUSH2 0x1F2 JUMPI DUP1 PUSH4 0x36568ABE EQ PUSH2 0x222 JUMPI DUP1 PUSH4 0x4D320C31 EQ PUSH2 0x23E JUMPI DUP1 PUSH4 0x4F369E3F EQ PUSH2 0x25C JUMPI DUP1 PUSH4 0x5843296E EQ PUSH2 0x278 JUMPI PUSH2 0x137 JUMP JUMPDEST DUP1 PUSH4 0x1FFC9A7 EQ PUSH2 0x13C JUMPI DUP1 PUSH4 0x248A9CA3 EQ PUSH2 0x16C JUMPI DUP1 PUSH4 0x2B9E1D70 EQ PUSH2 0x19C JUMPI DUP1 PUSH4 0x2EBF8B63 EQ PUSH2 0x1BA JUMPI DUP1 PUSH4 0x2F2FF15D EQ PUSH2 0x1D6 JUMPI JUMPDEST PUSH1 0x0 DUP1 REVERT JUMPDEST PUSH2 0x156 PUSH1 0x4 DUP1 CALLDATASIZE SUB DUP2 ADD SWAP1 PUSH2 0x151 SWAP2 SWAP1 PUSH2 0x1550 JUMP JUMPDEST PUSH2 0x444 JUMP JUMPDEST PUSH1 0x40 MLOAD PUSH2 0x163 SWAP2 SWAP1 PUSH2 0x1598 JUMP JUMPDEST PUSH1 0x40 MLOAD DUP1 SWAP2 SUB SWAP1 RETURN JUMPDEST PUSH2 0x186 PUSH1 0x4 DUP1 CALLDATASIZE SUB DUP2 ADD SWAP1 PUSH2 0x181 SWAP2 SWAP1 PUSH2 0x15E9 JUMP JUMPDEST PUSH2 0x4BE JUMP JUMPDEST PUSH1 0x40 MLOAD PUSH2 0x193 SWAP2 SWAP1 PUSH2 0x1625 JUMP JUMPDEST PUSH1 0x40 MLOAD DUP1 SWAP2 SUB SWAP1 RETURN JUMPDEST PUSH2 0x1A4 PUSH2 0x4DD JUMP JUMPDEST PUSH1 0x40 MLOAD PUSH2 0x1B1 SWAP2 SWAP1 PUSH2 0x1625 JUMP JUMPDEST PUSH1 0x40 MLOAD DUP1 SWAP2 SUB SWAP1 RETURN JUMPDEST PUSH2 0x1D4 PUSH1 0x4 DUP1 CALLDATASIZE SUB DUP2 ADD SWAP1 PUSH2 0x1CF SWAP2 SWAP1 PUSH2 0x169B JUMP JUMPDEST PUSH2 0x501 JUMP JUMPDEST STOP JUMPDEST PUSH2 0x1F0 PUSH1 0x4 DUP1 CALLDATASIZE SUB DUP2 ADD SWAP1 PUSH2 0x1EB SWAP2 SWAP1 PUSH2 0x174C JUMP JUMPDEST PUSH2 0x6F5 JUMP JUMPDEST STOP JUMPDEST PUSH2 0x20C PUSH1 0x4 DUP1 CALLDATASIZE SUB DUP2 ADD SWAP1 PUSH2 0x207 SWAP2 SWAP1 PUSH2 0x178C JUMP JUMPDEST PUSH2 0x717 JUMP JUMPDEST PUSH1 0x40 MLOAD PUSH2 0x219 SWAP2 SWAP1 PUSH2 0x17C8 JUMP JUMPDEST PUSH1 0x40 MLOAD DUP1 SWAP2 SUB SWAP1 RETURN JUMPDEST PUSH2 0x23C PUSH1 0x4 DUP1 CALLDATASIZE SUB DUP2 ADD SWAP1 PUSH2 0x237 SWAP2 SWAP1 PUSH2 0x174C JUMP JUMPDEST PUSH2 0x787 JUMP JUMPDEST STOP JUMPDEST PUSH2 0x246 PUSH2 0x802 JUMP JUMPDEST PUSH1 0x40 MLOAD PUSH2 0x253 SWAP2 SWAP1 PUSH2 0x1625 JUMP JUMPDEST PUSH1 0x40 MLOAD DUP1 SWAP2 SUB SWAP1 RETURN JUMPDEST PUSH2 0x276 PUSH1 0x4 DUP1 CALLDATASIZE SUB DUP2 ADD SWAP1 PUSH2 0x271 SWAP2 SWAP1 PUSH2 0x1929 JUMP JUMPDEST PUSH2 0x826 JUMP JUMPDEST STOP JUMPDEST PUSH2 0x292 PUSH1 0x4 DUP1 CALLDATASIZE SUB DUP2 ADD SWAP1 PUSH2 0x28D SWAP2 SWAP1 PUSH2 0x1985 JUMP JUMPDEST PUSH2 0x992 JUMP JUMPDEST STOP JUMPDEST PUSH2 0x2AE PUSH1 0x4 DUP1 CALLDATASIZE SUB DUP2 ADD SWAP1 PUSH2 0x2A9 SWAP2 SWAP1 PUSH2 0x19B2 JUMP JUMPDEST PUSH2 0x9CD JUMP JUMPDEST PUSH1 0x40 MLOAD PUSH2 0x2BF SWAP6 SWAP5 SWAP4 SWAP3 SWAP2 SWAP1 PUSH2 0x1A78 JUMP JUMPDEST PUSH1 0x40 MLOAD DUP1 SWAP2 SUB SWAP1 RETURN JUMPDEST PUSH2 0x2D0 PUSH2 0xA4D JUMP JUMPDEST PUSH1 0x40 MLOAD PUSH2 0x2DD SWAP2 SWAP1 PUSH2 0x17C8 JUMP JUMPDEST PUSH1 0x40 MLOAD DUP1 SWAP2 SUB SWAP1 RETURN JUMPDEST PUSH2 0x300 PUSH1 0x4 DUP1 CALLDATASIZE SUB DUP2 ADD SWAP1 PUSH2 0x2FB SWAP2 SWAP1 PUSH2 0x178C JUMP JUMPDEST PUSH2 0xA57 JUMP JUMPDEST PUSH1 0x40 MLOAD PUSH2 0x311 SWAP6 SWAP5 SWAP4 SWAP3 SWAP2 SWAP1 PUSH2 0x1DC3 JUMP JUMPDEST PUSH1 0x40 MLOAD DUP1 SWAP2 SUB SWAP1 RETURN JUMPDEST PUSH2 0x322 PUSH2 0xEF7 JUMP JUMPDEST PUSH1 0x40 MLOAD PUSH2 0x32F SWAP2 SWAP1 PUSH2 0x1625 JUMP JUMPDEST PUSH1 0x40 MLOAD DUP1 SWAP2 SUB SWAP1 RETURN JUMPDEST PUSH2 0x352 PUSH1 0x4 DUP1 CALLDATASIZE SUB DUP2 ADD SWAP1 PUSH2 0x34D SWAP2 SWAP1 PUSH2 0x178C JUMP JUMPDEST PUSH2 0xF1B JUMP JUMPDEST PUSH1 0x40 MLOAD PUSH2 0x363 SWAP6 SWAP5 SWAP4 SWAP3 SWAP2 SWAP1 PUSH2 0x1EB8 JUMP JUMPDEST PUSH1 0x40 MLOAD DUP1 SWAP2 SUB SWAP1 RETURN JUMPDEST PUSH2 0x374 PUSH2 0x1078 JUMP JUMPDEST PUSH1 0x40 MLOAD PUSH2 0x381 SWAP2 SWAP1 PUSH2 0x17C8 JUMP JUMPDEST PUSH1 0x40 MLOAD DUP1 SWAP2 SUB SWAP1 RETURN JUMPDEST PUSH2 0x3A4 PUSH1 0x4 DUP1 CALLDATASIZE SUB DUP2 ADD SWAP1 PUSH2 0x39F SWAP2 SWAP1 PUSH2 0x174C JUMP JUMPDEST PUSH2 0x107E JUMP JUMPDEST PUSH1 0x40 MLOAD PUSH2 0x3B1 SWAP2 SWAP1 PUSH2 0x1598 JUMP JUMPDEST PUSH1 0x40 MLOAD DUP1 SWAP2 SUB SWAP1 RETURN JUMPDEST PUSH2 0x3C2 PUSH2 0x10E8 JUMP JUMPDEST PUSH1 0x40 MLOAD PUSH2 0x3CF SWAP2 SWAP1 PUSH2 0x1625 JUMP JUMPDEST PUSH1 0x40 MLOAD DUP1 SWAP2 SUB SWAP1 RETURN JUMPDEST PUSH2 0x3F2 PUSH1 0x4 DUP1 CALLDATASIZE SUB DUP2 ADD SWAP1 PUSH2 0x3ED SWAP2 SWAP1 PUSH2 0x178C JUMP JUMPDEST PUSH2 0x10EF JUMP JUMPDEST PUSH1 0x40 MLOAD PUSH2 0x403 SWAP6 SWAP5 SWAP4 SWAP3 SWAP2 SWAP1 PUSH2 0x1EB8 JUMP JUMPDEST PUSH1 0x40 MLOAD DUP1 SWAP2 SUB SWAP1 RETURN JUMPDEST PUSH2 0x426 PUSH1 0x4 DUP1 CALLDATASIZE SUB DUP2 ADD SWAP1 PUSH2 0x421 SWAP2 SWAP1 PUSH2 0x174C JUMP JUMPDEST PUSH2 0x11CD JUMP JUMPDEST STOP JUMPDEST PUSH2 0x442 PUSH1 0x4 DUP1 CALLDATASIZE SUB DUP2 ADD SWAP1 PUSH2 0x43D SWAP2 SWAP1 PUSH2 0x1985 JUMP JUMPDEST PUSH2 0x11EF JUMP JUMPDEST STOP JUMPDEST PUSH1 0x0 PUSH32 0x7965DB0B00000000000000000000000000000000000000000000000000000000 PUSH28 0xFFFFFFFFFFFFFFFFFFFFFFFFFFFFFFFFFFFFFFFFFFFFFFFFFFFFFFFF NOT AND DUP3 PUSH28 0xFFFFFFFFFFFFFFFFFFFFFFFFFFFFFFFFFFFFFFFFFFFFFFFFFFFFFFFF NOT AND EQ DUP1 PUSH2 0x4B7 JUMPI POP PUSH2 0x4B6 DUP3 PUSH2 0x122A JUMP JUMPDEST JUMPDEST SWAP1 POP SWAP2 SWAP1 POP JUMP JUMPDEST PUSH1 0x0 DUP1 PUSH1 0x0 DUP4 DUP2 MSTORE PUSH1 0x20 ADD SWAP1 DUP2 MSTORE PUSH1 0x20 ADD PUSH1 0x0 KECCAK256 PUSH1 0x1 ADD SLOAD SWAP1 POP SWAP2 SWAP1 POP JUMP JUMPDEST PUSH32 0x8F1426173EB922D2001706A308DABFA96E3C06475230FB5111184F70A4B5776D DUP2 JUMP JUMPDEST PUSH32 0x59A1C48E5837AD7A7F3DCEDCBE129BF3249EC4FBF651FD4F5E2600EAD39FE2F5 PUSH2 0x52B DUP2 PUSH2 0x1294 JUMP JUMPDEST PUSH1 0x0 DUP5 GT DUP1 ISZERO PUSH2 0x53D JUMPI POP PUSH1 0x2 SLOAD DUP5 GT ISZERO JUMPDEST PUSH2 0x57C JUMPI PUSH1 0x40 MLOAD PUSH32 0x8C379A000000000000000000000000000000000000000000000000000000000 DUP2 MSTORE PUSH1 0x4 ADD PUSH2 0x573 SWAP1 PUSH2 0x1F5E JUMP JUMPDEST PUSH1 0x40 MLOAD DUP1 SWAP2 SUB SWAP1 REVERT JUMPDEST PUSH1 0x3 PUSH1 0x0 DUP6 DUP2 MSTORE PUSH1 0x20 ADD SWAP1 DUP2 MSTORE PUSH1 0x20 ADD PUSH1 0x0 KECCAK256 PUSH1 0x40 MLOAD DUP1 PUSH1 0xA0 ADD PUSH1 0x40 MSTORE DUP1 DUP7 DUP2 MSTORE PUSH1 0x20 ADD DUP6 DUP2 MSTORE PUSH1 0x20 ADD DUP5 PUSH1 0x2 DUP2 GT ISZERO PUSH2 0x5B9 JUMPI PUSH2 0x5B8 PUSH2 0x19F2 JUMP JUMPDEST JUMPDEST DUP2 MSTORE PUSH1 0x20 ADD CALLER PUSH20 0xFFFFFFFFFFFFFFFFFFFFFFFFFFFFFFFFFFFFFFFF AND DUP2 MSTORE PUSH1 0x20 ADD TIMESTAMP DUP2 MSTORE POP SWAP1 DUP1 PUSH1 0x1 DUP2 SLOAD ADD DUP1 DUP3 SSTORE DUP1 SWAP2 POP POP PUSH1 0x1 SWAP1 SUB SWAP1 PUSH1 0x0 MSTORE PUSH1 0x20 PUSH1 0x0 KECCAK256 SWAP1 PUSH1 0x4 MUL ADD PUSH1 0x0 SWAP1 SWAP2 SWAP1 SWAP2 SWAP1 SWAP2 POP PUSH1 0x0 DUP3 ADD MLOAD DUP2 PUSH1 0x0 ADD SSTORE PUSH1 0x20 DUP3 ADD MLOAD DUP2 PUSH1 0x1 ADD SSTORE PUSH1 0x40 DUP3 ADD MLOAD DUP2 PUSH1 0x2 ADD PUSH1 0x0 PUSH2 0x100 EXP DUP2 SLOAD DUP2 PUSH1 0xFF MUL NOT AND SWAP1 DUP4 PUSH1 0x2 DUP2 GT ISZERO PUSH2 0x646 JUMPI PUSH2 0x645 PUSH2 0x19F2 JUMP JUMPDEST JUMPDEST MUL OR SWAP1 SSTORE POP PUSH1 0x60 DUP3 ADD MLOAD DUP2 PUSH1 0x2 ADD PUSH1 0x1 PUSH2 0x100 EXP DUP2 SLOAD DUP2 PUSH20 0xFFFFFFFFFFFFFFFFFFFFFFFFFFFFFFFFFFFFFFFF MUL NOT AND SWAP1 DUP4 PUSH20 0xFFFFFFFFFFFFFFFFFFFFFFFFFFFFFFFFFFFFFFFF AND MUL OR SWAP1 SSTORE POP PUSH1 0x80 DUP3 ADD MLOAD DUP2 PUSH1 0x3 ADD SSTORE POP POP CALLER PUSH20 0xFFFFFFFFFFFFFFFFFFFFFFFFFFFFFFFFFFFFFFFF AND DUP5 PUSH32 0x767A22557E298699103CAC1A0225DAD53BDEF76110A6A5C01A0154A2854A2711 DUP6 DUP6 PUSH1 0x40 MLOAD PUSH2 0x6E7 SWAP3 SWAP2 SWAP1 PUSH2 0x1F7E JUMP JUMPDEST PUSH1 0x40 MLOAD DUP1 SWAP2 SUB SWAP1 LOG3 POP POP POP POP JUMP JUMPDEST PUSH2 0x6FE DUP3 PUSH2 0x4BE JUMP JUMPDEST PUSH2 0x707 DUP2 PUSH2 0x1294 JUMP JUMPDEST PUSH2 0x711 DUP4 DUP4 PUSH2 0x12A8 JUMP JUMPDEST POP POP POP POP JUMP JUMPDEST PUSH1 0x0 DUP1 DUP3 GT DUP1 ISZERO PUSH2 0x72A JUMPI POP PUSH1 0x2 SLOAD DUP3 GT ISZERO JUMPDEST PUSH2 0x769 JUMPI PUSH1 0x40 MLOAD PUSH32 0x8C379A000000000000000000000000000000000000000000000000000000000 DUP2 MSTORE PUSH1 0x4 ADD PUSH2 0x760 SWAP1 PUSH2 0x1F5E JUMP JUMPDEST PUSH1 0x40 MLOAD DUP1 SWAP2 SUB SWAP1 REVERT JUMPDEST PUSH1 0x3 PUSH1 0x0 DUP4 DUP2 MSTORE PUSH1 0x20 ADD SWAP1 DUP2 MSTORE PUSH1 0x20 ADD PUSH1 0x0 KECCAK256 DUP1 SLOAD SWAP1 POP SWAP1 POP SWAP2 SWAP1 POP JUMP JUMPDEST PUSH2 0x78F PUSH2 0x1399 JUMP JUMPDEST PUSH20 0xFFFFFFFFFFFFFFFFFFFFFFFFFFFFFFFFFFFFFFFF AND DUP2 PUSH20 0xFFFFFFFFFFFFFFFFFFFFFFFFFFFFFFFFFFFFFFFF AND EQ PUSH2 0x7F3 JUMPI PUSH1 0x40 MLOAD PUSH32 0x6697B23200000000000000000000000000000000000000000000000000000000 DUP2 MSTORE PUSH1 0x4 ADD PUSH1 0x40 MLOAD DUP1 SWAP2 SUB SWAP1 REVERT JUMPDEST PUSH2 0x7FD DUP3 DUP3 PUSH2 0x13A1 JUMP JUMPDEST POP POP POP JUMP JUMPDEST PUSH32 0x94AC8BF7C2C0D570B676D8037EAA0516224E8BCA85D85E9465DB2088D225FCAB DUP2 JUMP JUMPDEST PUSH32 0x94AC8BF7C2C0D570B676D8037EAA0516224E8BCA85D85E9465DB2088D225FCAB PUSH2 0x850 DUP2 PUSH2 0x1294 JUMP JUMPDEST PUSH1 0x1 PUSH1 0x2 PUSH1 0x0 DUP3 DUP3 SLOAD PUSH2 0x863 SWAP2 SWAP1 PUSH2 0x1FD6 JUMP JUMPDEST SWAP3 POP POP DUP2 SWAP1 SSTORE POP PUSH1 0x40 MLOAD DUP1 PUSH1 0xA0 ADD PUSH1 0x40 MSTORE DUP1 PUSH1 0x2 SLOAD DUP2 MSTORE PUSH1 0x20 ADD DUP5 DUP2 MSTORE PUSH1 0x20 ADD DUP4 DUP2 MSTORE PUSH1 0x20 ADD CALLER PUSH20 0xFFFFFFFFFFFFFFFFFFFFFFFFFFFFFFFFFFFFFFFF AND DUP2 MSTORE PUSH1 0x20 ADD TIMESTAMP DUP2 MSTORE POP PUSH1 0x1 PUSH1 0x0 PUSH1 0x2 SLOAD DUP2 MSTORE PUSH1 0x20 ADD SWAP1 DUP2 MSTORE PUSH1 0x20 ADD PUSH1 0x0 KECCAK256 PUSH1 0x0 DUP3 ADD MLOAD DUP2 PUSH1 0x0 ADD SSTORE PUSH1 0x20 DUP3 ADD MLOAD DUP2 PUSH1 0x1 ADD SSTORE PUSH1 0x40 DUP3 ADD MLOAD DUP2 PUSH1 0x2 ADD SWAP1 DUP2 PUSH2 0x8E7 SWAP2 SWAP1 PUSH2 0x2216 JUMP JUMPDEST POP PUSH1 0x60 DUP3 ADD MLOAD DUP2 PUSH1 0x3 ADD PUSH1 0x0 PUSH2 0x100 EXP DUP2 SLOAD DUP2 PUSH20 0xFFFFFFFFFFFFFFFFFFFFFFFFFFFFFFFFFFFFFFFF MUL NOT AND SWAP1 DUP4 PUSH20 0xFFFFFFFFFFFFFFFFFFFFFFFFFFFFFFFFFFFFFFFF AND MUL OR SWAP1 SSTORE POP PUSH1 0x80 DUP3 ADD MLOAD DUP2 PUSH1 0x4 ADD SSTORE SWAP1 POP POP CALLER PUSH20 0xFFFFFFFFFFFFFFFFFFFFFFFFFFFFFFFFFFFFFFFF AND PUSH1 0x2 SLOAD PUSH32 0xB47AEFD0FCF9EA22919B53C3E42140E5FBCFED253F5AA6DC225CB4FA19152784 DUP6 PUSH1 0x40 MLOAD PUSH2 0x985 SWAP2 SWAP1 PUSH2 0x1625 JUMP JUMPDEST PUSH1 0x40 MLOAD DUP1 SWAP2 SUB SWAP1 LOG3 POP POP POP JUMP JUMPDEST PUSH1 0x0 DUP1 SHL PUSH2 0x99F DUP2 PUSH2 0x1294 JUMP JUMPDEST PUSH2 0x9C9 PUSH32 0x94AC8BF7C2C0D570B676D8037EAA0516224E8BCA85D85E9465DB2088D225FCAB DUP4 PUSH2 0x6F5 JUMP JUMPDEST POP POP JUMP JUMPDEST PUSH1 0x3 PUSH1 0x20 MSTORE DUP2 PUSH1 0x0 MSTORE PUSH1 0x40 PUSH1 0x0 KECCAK256 DUP2 DUP2 SLOAD DUP2 LT PUSH2 0x9E9 JUMPI PUSH1 0x0 DUP1 REVERT JUMPDEST SWAP1 PUSH1 0x0 MSTORE PUSH1 0x20 PUSH1 0x0 KECCAK256 SWAP1 PUSH1 0x4 MUL ADD PUSH1 0x0 SWAP2 POP SWAP2 POP POP DUP1 PUSH1 0x0 ADD SLOAD SWAP1 DUP1 PUSH1 0x1 ADD SLOAD SWAP1 DUP1 PUSH1 0x2 ADD PUSH1 0x0 SWAP1 SLOAD SWAP1 PUSH2 0x100 EXP SWAP1 DIV PUSH1 0xFF AND SWAP1 DUP1 PUSH1 0x2 ADD PUSH1 0x1 SWAP1 SLOAD SWAP1 PUSH2 0x100 EXP SWAP1 DIV PUSH20 0xFFFFFFFFFFFFFFFFFFFFFFFFFFFFFFFFFFFFFFFF AND SWAP1 DUP1 PUSH1 0x3 ADD SLOAD SWAP1 POP DUP6 JUMP JUMPDEST PUSH1 0x0 PUSH1 0x2 SLOAD SWAP1 POP SWAP1 JUMP JUMPDEST PUSH1 0x60 DUP1 PUSH1 0x60 DUP1 PUSH1 0x60 PUSH1 0x0 DUP7 GT DUP1 ISZERO PUSH2 0xA71 JUMPI POP PUSH1 0x2 SLOAD DUP7 GT ISZERO JUMPDEST PUSH2 0xAB0 JUMPI PUSH1 0x40 MLOAD PUSH32 0x8C379A000000000000000000000000000000000000000000000000000000000 DUP2 MSTORE PUSH1 0x4 ADD PUSH2 0xAA7 SWAP1 PUSH2 0x1F5E JUMP JUMPDEST PUSH1 0x40 MLOAD DUP1 SWAP2 SUB SWAP1 REVERT JUMPDEST PUSH1 0x0 PUSH1 0x3 PUSH1 0x0 DUP9 DUP2 MSTORE PUSH1 0x20 ADD SWAP1 DUP2 MSTORE PUSH1 0x20 ADD PUSH1 0x0 KECCAK256 DUP1 SLOAD DUP1 PUSH1 0x20 MUL PUSH1 0x20 ADD PUSH1 0x40 MLOAD SWAP1 DUP2 ADD PUSH1 0x40 MSTORE DUP1 SWAP3 SWAP2 SWAP1 DUP2 DUP2 MSTORE PUSH1 0x20 ADD PUSH1 0x0 SWAP1 JUMPDEST DUP3 DUP3 LT ISZERO PUSH2 0xBC6 JUMPI DUP4 DUP3 SWAP1 PUSH1 0x0 MSTORE PUSH1 0x20 PUSH1 0x0 KECCAK256 SWAP1 PUSH1 0x4 MUL ADD PUSH1 0x40 MLOAD DUP1 PUSH1 0xA0 ADD PUSH1 0x40 MSTORE SWAP1 DUP2 PUSH1 0x0 DUP3 ADD SLOAD DUP2 MSTORE PUSH1 0x20 ADD PUSH1 0x1 DUP3 ADD SLOAD DUP2 MSTORE PUSH1 0x20 ADD PUSH1 0x2 DUP3 ADD PUSH1 0x0 SWAP1 SLOAD SWAP1 PUSH2 0x100 EXP SWAP1 DIV PUSH1 0xFF AND PUSH1 0x2 DUP2 GT ISZERO PUSH2 0xB41 JUMPI PUSH2 0xB40 PUSH2 0x19F2 JUMP JUMPDEST JUMPDEST PUSH1 0x2 DUP2 GT ISZERO PUSH2 0xB53 JUMPI PUSH2 0xB52 PUSH2 0x19F2 JUMP JUMPDEST JUMPDEST DUP2 MSTORE PUSH1 0x20 ADD PUSH1 0x2 DUP3 ADD PUSH1 0x1 SWAP1 SLOAD SWAP1 PUSH2 0x100 EXP SWAP1 DIV PUSH20 0xFFFFFFFFFFFFFFFFFFFFFFFFFFFFFFFFFFFFFFFF AND PUSH20 0xFFFFFFFFFFFFFFFFFFFFFFFFFFFFFFFFFFFFFFFF AND PUSH20 0xFFFFFFFFFFFFFFFFFFFFFFFFFFFFFFFFFFFFFFFF AND DUP2 MSTORE PUSH1 0x20 ADD PUSH1 0x3 DUP3 ADD SLOAD DUP2 MSTORE POP POP DUP2 MSTORE PUSH1 0x20 ADD SWAP1 PUSH1 0x1 ADD SWAP1 PUSH2 0xAE5 JUMP JUMPDEST POP POP POP POP SWAP1 POP PUSH1 0x0 DUP2 MLOAD SWAP1 POP DUP1 PUSH8 0xFFFFFFFFFFFFFFFF DUP2 GT ISZERO PUSH2 0xBEC JUMPI PUSH2 0xBEB PUSH2 0x17FE JUMP JUMPDEST JUMPDEST PUSH1 0x40 MLOAD SWAP1 DUP1 DUP3 MSTORE DUP1 PUSH1 0x20 MUL PUSH1 0x20 ADD DUP3 ADD PUSH1 0x40 MSTORE DUP1 ISZERO PUSH2 0xC1A JUMPI DUP2 PUSH1 0x20 ADD PUSH1 0x20 DUP3 MUL DUP1 CALLDATASIZE DUP4 CALLDATACOPY DUP1 DUP3 ADD SWAP2 POP POP SWAP1 POP JUMPDEST POP SWAP7 POP DUP1 PUSH8 0xFFFFFFFFFFFFFFFF DUP2 GT ISZERO PUSH2 0xC37 JUMPI PUSH2 0xC36 PUSH2 0x17FE JUMP JUMPDEST JUMPDEST PUSH1 0x40 MLOAD SWAP1 DUP1 DUP3 MSTORE DUP1 PUSH1 0x20 MUL PUSH1 0x20 ADD DUP3 ADD PUSH1 0x40 MSTORE DUP1 ISZERO PUSH2 0xC65 JUMPI DUP2 PUSH1 0x20 ADD PUSH1 0x20 DUP3 MUL DUP1 CALLDATASIZE DUP4 CALLDATACOPY DUP1 DUP3 ADD SWAP2 POP POP SWAP1 POP JUMPDEST POP SWAP6 POP DUP1 PUSH8 0xFFFFFFFFFFFFFFFF DUP2 GT ISZERO PUSH2 0xC82 JUMPI PUSH2 0xC81 PUSH2 0x17FE JUMP JUMPDEST JUMPDEST PUSH1 0x40 MLOAD SWAP1 DUP1 DUP3 MSTORE DUP1 PUSH1 0x20 MUL PUSH1 0x20 ADD DUP3 ADD PUSH1 0x40 MSTORE DUP1 ISZERO PUSH2 0xCB0 JUMPI DUP2 PUSH1 0x20 ADD PUSH1 0x20 DUP3 MUL DUP1 CALLDATASIZE DUP4 CALLDATACOPY DUP1 DUP3 ADD SWAP2 POP POP SWAP1 POP JUMPDEST POP SWAP5 POP DUP1 PUSH8 0xFFFFFFFFFFFFFFFF DUP2 GT ISZERO PUSH2 0xCCD JUMPI PUSH2 0xCCC PUSH2 0x17FE JUMP JUMPDEST JUMPDEST PUSH1 0x40 MLOAD SWAP1 DUP1 DUP3 MSTORE DUP1 PUSH1 0x20 MUL PUSH1 0x20 ADD DUP3 ADD PUSH1 0x40 MSTORE DUP1 ISZERO PUSH2 0xCFB JUMPI DUP2 PUSH1 0x20 ADD PUSH1 0x20 DUP3 MUL DUP1 CALLDATASIZE DUP4 CALLDATACOPY DUP1 DUP3 ADD SWAP2 POP POP SWAP1 POP JUMPDEST POP SWAP4 POP DUP1 PUSH8 0xFFFFFFFFFFFFFFFF DUP2 GT ISZERO PUSH2 0xD18 JUMPI PUSH2 0xD17 PUSH2 0x17FE JUMP JUMPDEST JUMPDEST PUSH1 0x40 MLOAD SWAP1 DUP1 DUP3 MSTORE DUP1 PUSH1 0x20 MUL PUSH1 0x20 ADD DUP3 ADD PUSH1 0x40 MSTORE DUP1 ISZERO PUSH2 0xD46 JUMPI DUP2 PUSH1 0x20 ADD PUSH1 0x20 DUP3 MUL DUP1 CALLDATASIZE DUP4 CALLDATACOPY DUP1 DUP3 ADD SWAP2 POP POP SWAP1 POP JUMPDEST POP SWAP3 POP PUSH1 0x0 JUMPDEST DUP2 DUP2 LT ISZERO PUSH2 0xEEB JUMPI DUP3 DUP2 DUP2 MLOAD DUP2 LT PUSH2 0xD67 JUMPI PUSH2 0xD66 PUSH2 0x22E8 JUMP JUMPDEST JUMPDEST PUSH1 0x20 MUL PUSH1 0x20 ADD ADD MLOAD PUSH1 0x0 ADD MLOAD DUP9 DUP3 DUP2 MLOAD DUP2 LT PUSH2 0xD86 JUMPI PUSH2 0xD85 PUSH2 0x22E8 JUMP JUMPDEST JUMPDEST PUSH1 0x20 MUL PUSH1 0x20 ADD ADD DUP2 DUP2 MSTORE POP POP DUP3 DUP2 DUP2 MLOAD DUP2 LT PUSH2 0xDA5 JUMPI PUSH2 0xDA4 PUSH2 0x22E8 JUMP JUMPDEST JUMPDEST PUSH1 0x20 MUL PUSH1 0x20 ADD ADD MLOAD PUSH1 0x20 ADD MLOAD DUP8 DUP3 DUP2 MLOAD DUP2 LT PUSH2 0xDC4 JUMPI PUSH2 0xDC3 PUSH2 0x22E8 JUMP JUMPDEST JUMPDEST PUSH1 0x20 MUL PUSH1 0x20 ADD ADD DUP2 DUP2 MSTORE POP POP DUP3 DUP2 DUP2 MLOAD DUP2 LT PUSH2 0xDE3 JUMPI PUSH2 0xDE2 PUSH2 0x22E8 JUMP JUMPDEST JUMPDEST PUSH1 0x20 MUL PUSH1 0x20 ADD ADD MLOAD PUSH1 0x40 ADD MLOAD DUP7 DUP3 DUP2 MLOAD DUP2 LT PUSH2 0xE02 JUMPI PUSH2 0xE01 PUSH2 0x22E8 JUMP JUMPDEST JUMPDEST PUSH1 0x20 MUL PUSH1 0x20 ADD ADD SWAP1 PUSH1 0x2 DUP2 GT ISZERO PUSH2 0xE1C JUMPI PUSH2 0xE1B PUSH2 0x19F2 JUMP JUMPDEST JUMPDEST SWAP1 DUP2 PUSH1 0x2 DUP2 GT ISZERO PUSH2 0xE30 JUMPI PUSH2 0xE2F PUSH2 0x19F2 JUMP JUMPDEST JUMPDEST DUP2 MSTORE POP POP DUP3 DUP2 DUP2 MLOAD DUP2 LT PUSH2 0xE47 JUMPI PUSH2 0xE46 PUSH2 0x22E8 JUMP JUMPDEST JUMPDEST PUSH1 0x20 MUL PUSH1 0x20 ADD ADD MLOAD PUSH1 0x60 ADD MLOAD DUP6 DUP3 DUP2 MLOAD DUP2 LT PUSH2 0xE66 JUMPI PUSH2 0xE65 PUSH2 0x22E8 JUMP JUMPDEST JUMPDEST PUSH1 0x20 MUL PUSH1 0x20 ADD ADD SWAP1 PUSH20 0xFFFFFFFFFFFFFFFFFFFFFFFFFFFFFFFFFFFFFFFF AND SWAP1 DUP2 PUSH20 0xFFFFFFFFFFFFFFFFFFFFFFFFFFFFFFFFFFFFFFFF AND DUP2 MSTORE POP POP DUP3 DUP2 DUP2 MLOAD DUP2 LT PUSH2 0xEB3 JUMPI PUSH2 0xEB2 PUSH2 0x22E8 JUMP JUMPDEST JUMPDEST PUSH1 0x20 MUL PUSH1 0x20 ADD ADD MLOAD PUSH1 0x80 ADD MLOAD DUP5 DUP3 DUP2 MLOAD DUP2 LT PUSH2 0xED2 JUMPI PUSH2 0xED1 PUSH2 0x22E8 JUMP JUMPDEST JUMPDEST PUSH1 0x20 MUL PUSH1 0x20 ADD ADD DUP2 DUP2 MSTORE POP POP DUP1 DUP1 PUSH1 0x1 ADD SWAP2 POP POP PUSH2 0xD4C JUMP JUMPDEST POP POP POP SWAP2 SWAP4 SWAP6 SWAP1 SWAP3 SWAP5 POP JUMP JUMPDEST PUSH32 0x59A1C48E5837AD7A7F3DCEDCBE129BF3249EC4FBF651FD4F5E2600EAD39FE2F5 DUP2 JUMP JUMPDEST PUSH1 0x0 DUP1 PUSH1 0x60 PUSH1 0x0 DUP1 PUSH1 0x0 PUSH1 0x1 PUSH1 0x0 DUP9 DUP2 MSTORE PUSH1 0x20 ADD SWAP1 DUP2 MSTORE PUSH1 0x20 ADD PUSH1 0x0 KECCAK256 PUSH1 0x40 MLOAD DUP1 PUSH1 0xA0 ADD PUSH1 0x40 MSTORE SWAP1 DUP2 PUSH1 0x0 DUP3 ADD SLOAD DUP2 MSTORE PUSH1 0x20 ADD PUSH1 0x1 DUP3 ADD SLOAD DUP2 MSTORE PUSH1 0x20 ADD PUSH1 0x2 DUP3 ADD DUP1 SLOAD PUSH2 0xF67 SWAP1 PUSH2 0x2039 JUMP JUMPDEST DUP1 PUSH1 0x1F ADD PUSH1 0x20 DUP1 SWAP2 DIV MUL PUSH1 0x20 ADD PUSH1 0x40 MLOAD SWAP1 DUP2 ADD PUSH1 0x40 MSTORE DUP1 SWAP3 SWAP2 SWAP1 DUP2 DUP2 MSTORE PUSH1 0x20 ADD DUP3 DUP1 SLOAD PUSH2 0xF93 SWAP1 PUSH2 0x2039 JUMP JUMPDEST DUP1 ISZERO PUSH2 0xFE0 JUMPI DUP1 PUSH1 0x1F LT PUSH2 0xFB5 JUMPI PUSH2 0x100 DUP1 DUP4 SLOAD DIV MUL DUP4 MSTORE SWAP2 PUSH1 0x20 ADD SWAP2 PUSH2 0xFE0 JUMP JUMPDEST DUP3 ADD SWAP2 SWAP1 PUSH1 0x0 MSTORE PUSH1 0x20 PUSH1 0x0 KECCAK256 SWAP1 JUMPDEST DUP2 SLOAD DUP2 MSTORE SWAP1 PUSH1 0x1 ADD SWAP1 PUSH1 0x20 ADD DUP1 DUP4 GT PUSH2 0xFC3 JUMPI DUP3 SWAP1 SUB PUSH1 0x1F AND DUP3 ADD SWAP2 JUMPDEST POP POP POP POP POP DUP2 MSTORE PUSH1 0x20 ADD PUSH1 0x3 DUP3 ADD PUSH1 0x0 SWAP1 SLOAD SWAP1 PUSH2 0x100 EXP SWAP1 DIV PUSH20 0xFFFFFFFFFFFFFFFFFFFFFFFFFFFFFFFFFFFFFFFF AND PUSH20 0xFFFFFFFFFFFFFFFFFFFFFFFFFFFFFFFFFFFFFFFF AND PUSH20 0xFFFFFFFFFFFFFFFFFFFFFFFFFFFFFFFFFFFFFFFF AND DUP2 MSTORE PUSH1 0x20 ADD PUSH1 0x4 DUP3 ADD SLOAD DUP2 MSTORE POP POP SWAP1 POP DUP1 PUSH1 0x0 ADD MLOAD DUP2 PUSH1 0x20 ADD MLOAD DUP3 PUSH1 0x40 ADD MLOAD DUP4 PUSH1 0x60 ADD MLOAD DUP5 PUSH1 0x80 ADD MLOAD SWAP6 POP SWAP6 POP SWAP6 POP SWAP6 POP SWAP6 POP POP SWAP2 SWAP4 SWAP6 SWAP1 SWAP3 SWAP5 POP JUMP JUMPDEST PUSH1 0x2 SLOAD DUP2 JUMP JUMPDEST PUSH1 0x0 DUP1 PUSH1 0x0 DUP5 DUP2 MSTORE PUSH1 0x20 ADD SWAP1 DUP2 MSTORE PUSH1 0x20 ADD PUSH1 0x0 KECCAK256 PUSH1 0x0 ADD PUSH1 0x0 DUP4 PUSH20 0xFFFFFFFFFFFFFFFFFFFFFFFFFFFFFFFFFFFFFFFF AND PUSH20 0xFFFFFFFFFFFFFFFFFFFFFFFFFFFFFFFFFFFFFFFF AND DUP2 MSTORE PUSH1 0x20 ADD SWAP1 DUP2 MSTORE PUSH1 0x20 ADD PUSH1 0x0 KECCAK256 PUSH1 0x0 SWAP1 SLOAD SWAP1 PUSH2 0x100 EXP SWAP1 DIV PUSH1 0xFF AND SWAP1 POP SWAP3 SWAP2 POP POP JUMP JUMPDEST PUSH1 0x0 DUP1 SHL DUP2 JUMP JUMPDEST PUSH1 0x1 PUSH1 0x20 MSTORE DUP1 PUSH1 0x0 MSTORE PUSH1 0x40 PUSH1 0x0 KECCAK256 PUSH1 0x0 SWAP2 POP SWAP1 POP DUP1 PUSH1 0x0 ADD SLOAD SWAP1 DUP1 PUSH1 0x1 ADD SLOAD SWAP1 DUP1 PUSH1 0x2 ADD DUP1 SLOAD PUSH2 0x111E SWAP1 PUSH2 0x2039 JUMP JUMPDEST DUP1 PUSH1 0x1F ADD PUSH1 0x20 DUP1 SWAP2 DIV MUL PUSH1 0x20 ADD PUSH1 0x40 MLOAD SWAP1 DUP2 ADD PUSH1 0x40 MSTORE DUP1 SWAP3 SWAP2 SWAP1 DUP2 DUP2 MSTORE PUSH1 0x20 ADD DUP3 DUP1 SLOAD PUSH2 0x114A SWAP1 PUSH2 0x2039 JUMP JUMPDEST DUP1 ISZERO PUSH2 0x1197 JUMPI DUP1 PUSH1 0x1F LT PUSH2 0x116C JUMPI PUSH2 0x100 DUP1 DUP4 SLOAD DIV MUL DUP4 MSTORE SWAP2 PUSH1 0x20 ADD SWAP2 PUSH2 0x1197 JUMP JUMPDEST DUP3 ADD SWAP2 SWAP1 PUSH1 0x0 MSTORE PUSH1 0x20 PUSH1 0x0 KECCAK256 SWAP1 JUMPDEST DUP2 SLOAD DUP2 MSTORE SWAP1 PUSH1 0x1 ADD SWAP1 PUSH1 0x20 ADD DUP1 DUP4 GT PUSH2 0x117A JUMPI DUP3 SWAP1 SUB PUSH1 0x1F AND DUP3 ADD SWAP2 JUMPDEST POP POP POP POP POP SWAP1 DUP1 PUSH1 0x3 ADD PUSH1 0x0 SWAP1 SLOAD SWAP1 PUSH2 0x100 EXP SWAP1 DIV PUSH20 0xFFFFFFFFFFFFFFFFFFFFFFFFFFFFFFFFFFFFFFFF AND SWAP1 DUP1 PUSH1 0x4 ADD SLOAD SWAP1 POP DUP6 JUMP JUMPDEST PUSH2 0x11D6 DUP3 PUSH2 0x4BE JUMP JUMPDEST PUSH2 0x11DF DUP2 PUSH2 0x1294 JUMP JUMPDEST PUSH2 0x11E9 DUP4 DUP4 PUSH2 0x13A1 JUMP JUMPDEST POP POP POP POP JUMP JUMPDEST PUSH1 0x0 DUP1 SHL PUSH2 0x11FC DUP2 PUSH2 0x1294 JUMP JUMPDEST PUSH2 0x1226 PUSH32 0x59A1C48E5837AD7A7F3DCEDCBE129BF3249EC4FBF651FD4F5E2600EAD39FE2F5 DUP4 PUSH2 0x6F5 JUMP JUMPDEST POP POP JUMP JUMPDEST PUSH1 0x0 PUSH32 0x1FFC9A700000000000000000000000000000000000000000000000000000000 PUSH28 0xFFFFFFFFFFFFFFFFFFFFFFFFFFFFFFFFFFFFFFFFFFFFFFFFFFFFFFFF NOT AND DUP3 PUSH28 0xFFFFFFFFFFFFFFFFFFFFFFFFFFFFFFFFFFFFFFFFFFFFFFFFFFFFFFFF NOT AND EQ SWAP1 POP SWAP2 SWAP1 POP JUMP JUMPDEST PUSH2 0x12A5 DUP2 PUSH2 0x12A0 PUSH2 0x1399 JUMP JUMPDEST PUSH2 0x1493 JUMP JUMPDEST POP JUMP JUMPDEST PUSH1 0x0 PUSH2 0x12B4 DUP4 DUP4 PUSH2 0x107E JUMP JUMPDEST PUSH2 0x138E JUMPI PUSH1 0x1 PUSH1 0x0 DUP1 DUP6 DUP2 MSTORE PUSH1 0x20 ADD SWAP1 DUP2 MSTORE PUSH1 0x20 ADD PUSH1 0x0 KECCAK256 PUSH1 0x0 ADD PUSH1 0x0 DUP5 PUSH20 0xFFFFFFFFFFFFFFFFFFFFFFFFFFFFFFFFFFFFFFFF AND PUSH20 0xFFFFFFFFFFFFFFFFFFFFFFFFFFFFFFFFFFFFFFFF AND DUP2 MSTORE PUSH1 0x20 ADD SWAP1 DUP2 MSTORE PUSH1 0x20 ADD PUSH1 0x0 KECCAK256 PUSH1 0x0 PUSH2 0x100 EXP DUP2 SLOAD DUP2 PUSH1 0xFF MUL NOT AND SWAP1 DUP4 ISZERO ISZERO MUL OR SWAP1 SSTORE POP PUSH2 0x132B PUSH2 0x1399 JUMP JUMPDEST PUSH20 0xFFFFFFFFFFFFFFFFFFFFFFFFFFFFFFFFFFFFFFFF AND DUP3 PUSH20 0xFFFFFFFFFFFFFFFFFFFFFFFFFFFFFFFFFFFFFFFF AND DUP5 PUSH32 0x2F8788117E7EFF1D82E926EC794901D17C78024A50270940304540A733656F0D PUSH1 0x40 MLOAD PUSH1 0x40 MLOAD DUP1 SWAP2 SUB SWAP1 LOG4 PUSH1 0x1 SWAP1 POP PUSH2 0x1393 JUMP JUMPDEST PUSH1 0x0 SWAP1 POP JUMPDEST SWAP3 SWAP2 POP POP JUMP JUMPDEST PUSH1 0x0 CALLER SWAP1 POP SWAP1 JUMP JUMPDEST PUSH1 0x0 PUSH2 0x13AD DUP4 DUP4 PUSH2 0x107E JUMP JUMPDEST ISZERO PUSH2 0x1488 JUMPI PUSH1 0x0 DUP1 PUSH1 0x0 DUP6 DUP2 MSTORE PUSH1 0x20 ADD SWAP1 DUP2 MSTORE PUSH1 0x20 ADD PUSH1 0x0 KECCAK256 PUSH1 0x0 ADD PUSH1 0x0 DUP5 PUSH20 0xFFFFFFFFFFFFFFFFFFFFFFFFFFFFFFFFFFFFFFFF AND PUSH20 0xFFFFFFFFFFFFFFFFFFFFFFFFFFFFFFFFFFFFFFFF AND DUP2 MSTORE PUSH1 0x20 ADD SWAP1 DUP2 MSTORE PUSH1 0x20 ADD PUSH1 0x0 KECCAK256 PUSH1 0x0 PUSH2 0x100 EXP DUP2 SLOAD DUP2 PUSH1 0xFF MUL NOT AND SWAP1 DUP4 ISZERO ISZERO MUL OR SWAP1 SSTORE POP PUSH2 0x1425 PUSH2 0x1399 JUMP JUMPDEST PUSH20 0xFFFFFFFFFFFFFFFFFFFFFFFFFFFFFFFFFFFFFFFF AND DUP3 PUSH20 0xFFFFFFFFFFFFFFFFFFFFFFFFFFFFFFFFFFFFFFFF AND DUP5 PUSH32 0xF6391F5C32D9C69D2A47EA670B442974B53935D1EDC7FD64EB21E047A839171B PUSH1 0x40 MLOAD PUSH1 0x40 MLOAD DUP1 SWAP2 SUB SWAP1 LOG4 PUSH1 0x1 SWAP1 POP PUSH2 0x148D JUMP JUMPDEST PUSH1 0x0 SWAP1 POP JUMPDEST SWAP3 SWAP2 POP POP JUMP JUMPDEST PUSH2 0x149D DUP3 DUP3 PUSH2 0x107E JUMP JUMPDEST PUSH2 0x14E0 JUMPI DUP1 DUP3 PUSH1 0x40 MLOAD PUSH32 0xE2517D3F00000000000000000000000000000000000000000000000000000000 DUP2 MSTORE PUSH1 0x4 ADD PUSH2 0x14D7 SWAP3 SWAP2 SWAP1 PUSH2 0x2317 JUMP JUMPDEST PUSH1 0x40 MLOAD DUP1 SWAP2 SUB SWAP1 REVERT JUMPDEST POP POP JUMP JUMPDEST PUSH1 0x0 PUSH1 0x40 MLOAD SWAP1 POP SWAP1 JUMP JUMPDEST PUSH1 0x0 DUP1 REVERT JUMPDEST PUSH1 0x0 DUP1 REVERT JUMPDEST PUSH1 0x0 PUSH32 0xFFFFFFFF00000000000000000000000000000000000000000000000000000000 DUP3 AND SWAP1 POP SWAP2 SWAP1 POP JUMP JUMPDEST PUSH2 0x152D DUP2 PUSH2 0x14F8 JUMP JUMPDEST DUP2 EQ PUSH2 0x1538 JUMPI PUSH1 0x0 DUP1 REVERT JUMPDEST POP JUMP JUMPDEST PUSH1 0x0 DUP2 CALLDATALOAD SWAP1 POP PUSH2 0x154A DUP2 PUSH2 0x1524 JUMP JUMPDEST SWAP3 SWAP2 POP POP JUMP JUMPDEST PUSH1 0x0 PUSH1 0x20 DUP3 DUP5 SUB SLT ISZERO PUSH2 0x1566 JUMPI PUSH2 0x1565 PUSH2 0x14EE JUMP JUMPDEST JUMPDEST PUSH1 0x0 PUSH2 0x1574 DUP5 DUP3 DUP6 ADD PUSH2 0x153B JUMP JUMPDEST SWAP2 POP POP SWAP3 SWAP2 POP POP JUMP JUMPDEST PUSH1 0x0 DUP2 ISZERO ISZERO SWAP1 POP SWAP2 SWAP1 POP JUMP JUMPDEST PUSH2 0x1592 DUP2 PUSH2 0x157D JUMP JUMPDEST DUP3 MSTORE POP POP JUMP JUMPDEST PUSH1 0x0 PUSH1 0x20 DUP3 ADD SWAP1 POP PUSH2 0x15AD PUSH1 0x0 DUP4 ADD DUP5 PUSH2 0x1589 JUMP JUMPDEST SWAP3 SWAP2 POP POP JUMP JUMPDEST PUSH1 0x0 DUP2 SWAP1 POP SWAP2 SWAP1 POP JUMP JUMPDEST PUSH2 0x15C6 DUP2 PUSH2 0x15B3 JUMP JUMPDEST DUP2 EQ PUSH2 0x15D1 JUMPI PUSH1 0x0 DUP1 REVERT JUMPDEST POP JUMP JUMPDEST PUSH1 0x0 DUP2 CALLDATALOAD SWAP1 POP PUSH2 0x15E3 DUP2 PUSH2 0x15BD JUMP JUMPDEST SWAP3 SWAP2 POP POP JUMP JUMPDEST PUSH1 0x0 PUSH1 0x20 DUP3 DUP5 SUB SLT ISZERO PUSH2 0x15FF JUMPI PUSH2 0x15FE PUSH2 0x14EE JUMP JUMPDEST JUMPDEST PUSH1 0x0 PUSH2 0x160D DUP5 DUP3 DUP6 ADD PUSH2 0x15D4 JUMP JUMPDEST SWAP2 POP POP SWAP3 SWAP2 POP POP JUMP JUMPDEST PUSH2 0x161F DUP2 PUSH2 0x15B3 JUMP JUMPDEST DUP3 MSTORE POP POP JUMP JUMPDEST PUSH1 0x0 PUSH1 0x20 DUP3 ADD SWAP1 POP PUSH2 0x163A PUSH1 0x0 DUP4 ADD DUP5 PUSH2 0x1616 JUMP JUMPDEST SWAP3 SWAP2 POP POP JUMP JUMPDEST PUSH1 0x0 DUP2 SWAP1 POP SWAP2 SWAP1 POP JUMP JUMPDEST PUSH2 0x1653 DUP2 PUSH2 0x1640 JUMP JUMPDEST DUP2 EQ PUSH2 0x165E JUMPI PUSH1 0x0 DUP1 REVERT JUMPDEST POP JUMP JUMPDEST PUSH1 0x0 DUP2 CALLDATALOAD SWAP1 POP PUSH2 0x1670 DUP2 PUSH2 0x164A JUMP JUMPDEST SWAP3 SWAP2 POP POP JUMP JUMPDEST PUSH1 0x3 DUP2 LT PUSH2 0x1683 JUMPI PUSH1 0x0 DUP1 REVERT JUMPDEST POP JUMP JUMPDEST PUSH1 0x0 DUP2 CALLDATALOAD SWAP1 POP PUSH2 0x1695 DUP2 PUSH2 0x1676 JUMP JUMPDEST SWAP3 SWAP2 POP POP JUMP JUMPDEST PUSH1 0x0 DUP1 PUSH1 0x0 PUSH1 0x60 DUP5 DUP7 SUB SLT ISZERO PUSH2 0x16B4 JUMPI PUSH2 0x16B3 PUSH2 0x14EE JUMP JUMPDEST JUMPDEST PUSH1 0x0 PUSH2 0x16C2 DUP7 DUP3 DUP8 ADD PUSH2 0x1661 JUMP JUMPDEST SWAP4 POP POP PUSH1 0x20 PUSH2 0x16D3 DUP7 DUP3 DUP8 ADD PUSH2 0x15D4 JUMP JUMPDEST SWAP3 POP POP PUSH1 0x40 PUSH2 0x16E4 DUP7 DUP3 DUP8 ADD PUSH2 0x1686 JUMP JUMPDEST SWAP2 POP POP SWAP3 POP SWAP3 POP SWAP3 JUMP JUMPDEST PUSH1 0x0 PUSH20 0xFFFFFFFFFFFFFFFFFFFFFFFFFFFFFFFFFFFFFFFF DUP3 AND SWAP1 POP SWAP2 SWAP1 POP JUMP JUMPDEST PUSH1 0x0 PUSH2 0x1719 DUP3 PUSH2 0x16EE JUMP JUMPDEST SWAP1 POP SWAP2 SWAP1 POP JUMP JUMPDEST PUSH2 0x1729 DUP2 PUSH2 0x170E JUMP JUMPDEST DUP2 EQ PUSH2 0x1734 JUMPI PUSH1 0x0 DUP1 REVERT JUMPDEST POP JUMP JUMPDEST PUSH1 0x0 DUP2 CALLDATALOAD SWAP1 POP PUSH2 0x1746 DUP2 PUSH2 0x1720 JUMP JUMPDEST SWAP3 SWAP2 POP POP JUMP JUMPDEST PUSH1 0x0 DUP1 PUSH1 0x40 DUP4 DUP6 SUB SLT ISZERO PUSH2 0x1763 JUMPI PUSH2 0x1762 PUSH2 0x14EE JUMP JUMPDEST JUMPDEST PUSH1 0x0 PUSH2 0x1771 DUP6 DUP3 DUP7 ADD PUSH2 0x15D4 JUMP JUMPDEST SWAP3 POP POP PUSH1 0x20 PUSH2 0x1782 DUP6 DUP3 DUP7 ADD PUSH2 0x1737 JUMP JUMPDEST SWAP2 POP POP SWAP3 POP SWAP3 SWAP1 POP JUMP JUMPDEST PUSH1 0x0 PUSH1 0x20 DUP3 DUP5 SUB SLT ISZERO PUSH2 0x17A2 JUMPI PUSH2 0x17A1 PUSH2 0x14EE JUMP JUMPDEST JUMPDEST PUSH1 0x0 PUSH2 0x17B0 DUP5 DUP3 DUP6 ADD PUSH2 0x1661 JUMP JUMPDEST SWAP2 POP POP SWAP3 SWAP2 POP POP JUMP JUMPDEST PUSH2 0x17C2 DUP2 PUSH2 0x1640 JUMP JUMPDEST DUP3 MSTORE POP POP JUMP JUMPDEST PUSH1 0x0 PUSH1 0x20 DUP3 ADD SWAP1 POP PUSH2 0x17DD PUSH1 0x0 DUP4 ADD DUP5 PUSH2 0x17B9 JUMP JUMPDEST SWAP3 SWAP2 POP POP JUMP JUMPDEST PUSH1 0x0 DUP1 REVERT JUMPDEST PUSH1 0x0 DUP1 REVERT JUMPDEST PUSH1 0x0 PUSH1 0x1F NOT PUSH1 0x1F DUP4 ADD AND SWAP1 POP SWAP2 SWAP1 POP JUMP JUMPDEST PUSH32 0x4E487B7100000000000000000000000000000000000000000000000000000000 PUSH1 0x0 MSTORE PUSH1 0x41 PUSH1 0x4 MSTORE PUSH1 0x24 PUSH1 0x0 REVERT JUMPDEST PUSH2 0x1836 DUP3 PUSH2 0x17ED JUMP JUMPDEST DUP2 ADD DUP2 DUP2 LT PUSH8 0xFFFFFFFFFFFFFFFF DUP3 GT OR ISZERO PUSH2 0x1855 JUMPI PUSH2 0x1854 PUSH2 0x17FE JUMP JUMPDEST JUMPDEST DUP1 PUSH1 0x40 MSTORE POP POP POP JUMP JUMPDEST PUSH1 0x0 PUSH2 0x1868 PUSH2 0x14E4 JUMP JUMPDEST SWAP1 POP PUSH2 0x1874 DUP3 DUP3 PUSH2 0x182D JUMP JUMPDEST SWAP2 SWAP1 POP JUMP JUMPDEST PUSH1 0x0 PUSH8 0xFFFFFFFFFFFFFFFF DUP3 GT ISZERO PUSH2 0x1894 JUMPI PUSH2 0x1893 PUSH2 0x17FE JUMP JUMPDEST JUMPDEST PUSH2 0x189D DUP3 PUSH2 0x17ED JUMP JUMPDEST SWAP1 POP PUSH1 0x20 DUP2 ADD SWAP1 POP SWAP2 SWAP1 POP JUMP JUMPDEST DUP3 DUP2 DUP4 CALLDATACOPY PUSH1 0x0 DUP4 DUP4 ADD MSTORE POP POP POP JUMP JUMPDEST PUSH1 0x0 PUSH2 0x18CC PUSH2 0x18C7 DUP5 PUSH2 0x1879 JUMP JUMPDEST PUSH2 0x185E JUMP JUMPDEST SWAP1 POP DUP3 DUP2 MSTORE PUSH1 0x20 DUP2 ADD DUP5 DUP5 DUP5 ADD GT ISZERO PUSH2 0x18E8 JUMPI PUSH2 0x18E7 PUSH2 0x17E8 JUMP JUMPDEST JUMPDEST PUSH2 0x18F3 DUP5 DUP3 DUP6 PUSH2 0x18AA JUMP JUMPDEST POP SWAP4 SWAP3 POP POP POP JUMP JUMPDEST PUSH1 0x0 DUP3 PUSH1 0x1F DUP4 ADD SLT PUSH2 0x1910 JUMPI PUSH2 0x190F PUSH2 0x17E3 JUMP JUMPDEST JUMPDEST DUP2 CALLDATALOAD PUSH2 0x1920 DUP5 DUP3 PUSH1 0x20 DUP7 ADD PUSH2 0x18B9 JUMP JUMPDEST SWAP2 POP POP SWAP3 SWAP2 POP POP JUMP JUMPDEST PUSH1 0x0 DUP1 PUSH1 0x40 DUP4 DUP6 SUB SLT ISZERO PUSH2 0x1940 JUMPI PUSH2 0x193F PUSH2 0x14EE JUMP JUMPDEST JUMPDEST PUSH1 0x0 PUSH2 0x194E DUP6 DUP3 DUP7 ADD PUSH2 0x15D4 JUMP JUMPDEST SWAP3 POP POP PUSH1 0x20 DUP4 ADD CALLDATALOAD PUSH8 0xFFFFFFFFFFFFFFFF DUP2 GT ISZERO PUSH2 0x196F JUMPI PUSH2 0x196E PUSH2 0x14F3 JUMP JUMPDEST JUMPDEST PUSH2 0x197B DUP6 DUP3 DUP7 ADD PUSH2 0x18FB JUMP JUMPDEST SWAP2 POP POP SWAP3 POP SWAP3 SWAP1 POP JUMP JUMPDEST PUSH1 0x0 PUSH1 0x20 DUP3 DUP5 SUB SLT ISZERO PUSH2 0x199B JUMPI PUSH2 0x199A PUSH2 0x14EE JUMP JUMPDEST JUMPDEST PUSH1 0x0 PUSH2 0x19A9 DUP5 DUP3 DUP6 ADD PUSH2 0x1737 JUMP JUMPDEST SWAP2 POP POP SWAP3 SWAP2 POP POP JUMP JUMPDEST PUSH1 0x0 DUP1 PUSH1 0x40 DUP4 DUP6 SUB SLT ISZERO PUSH2 0x19C9 JUMPI PUSH2 0x19C8 PUSH2 0x14EE JUMP JUMPDEST JUMPDEST PUSH1 0x0 PUSH2 0x19D7 DUP6 DUP3 DUP7 ADD PUSH2 0x1661 JUMP JUMPDEST SWAP3 POP POP PUSH1 0x20 PUSH2 0x19E8 DUP6 DUP3 DUP7 ADD PUSH2 0x1661 JUMP JUMPDEST SWAP2 POP POP SWAP3 POP SWAP3 SWAP1 POP JUMP JUMPDEST PUSH32 0x4E487B7100000000000000000000000000000000000000000000000000000000 PUSH1 0x0 MSTORE PUSH1 0x21 PUSH1 0x4 MSTORE PUSH1 0x24 PUSH1 0x0 REVERT JUMPDEST PUSH1 0x3 DUP2 LT PUSH2 0x1A32 JUMPI PUSH2 0x1A31 PUSH2 0x19F2 JUMP JUMPDEST JUMPDEST POP JUMP JUMPDEST PUSH1 0x0 DUP2 SWAP1 POP PUSH2 0x1A43 DUP3 PUSH2 0x1A21 JUMP JUMPDEST SWAP2 SWAP1 POP JUMP JUMPDEST PUSH1 0x0 PUSH2 0x1A53 DUP3 PUSH2 0x1A35 JUMP JUMPDEST SWAP1 POP SWAP2 SWAP1 POP JUMP JUMPDEST PUSH2 0x1A63 DUP2 PUSH2 0x1A48 JUMP JUMPDEST DUP3 MSTORE POP POP JUMP JUMPDEST PUSH2 0x1A72 DUP2 PUSH2 0x170E JUMP JUMPDEST DUP3 MSTORE POP POP JUMP JUMPDEST PUSH1 0x0 PUSH1 0xA0 DUP3 ADD SWAP1 POP PUSH2 0x1A8D PUSH1 0x0 DUP4 ADD DUP9 PUSH2 0x17B9 JUMP JUMPDEST PUSH2 0x1A9A PUSH1 0x20 DUP4 ADD DUP8 PUSH2 0x1616 JUMP JUMPDEST PUSH2 0x1AA7 PUSH1 0x40 DUP4 ADD DUP7 PUSH2 0x1A5A JUMP JUMPDEST PUSH2 0x1AB4 PUSH1 0x60 DUP4 ADD DUP6 PUSH2 0x1A69 JUMP JUMPDEST PUSH2 0x1AC1 PUSH1 0x80 DUP4 ADD DUP5 PUSH2 0x17B9 JUMP JUMPDEST SWAP7 SWAP6 POP POP POP POP POP POP JUMP JUMPDEST PUSH1 0x0 DUP2 MLOAD SWAP1 POP SWAP2 SWAP1 POP JUMP JUMPDEST PUSH1 0x0 DUP3 DUP3 MSTORE PUSH1 0x20 DUP3 ADD SWAP1 POP SWAP3 SWAP2 POP POP JUMP JUMPDEST PUSH1 0x0 DUP2 SWAP1 POP PUSH1 0x20 DUP3 ADD SWAP1 POP SWAP2 SWAP1 POP JUMP JUMPDEST PUSH2 0x1B00 DUP2 PUSH2 0x1640 JUMP JUMPDEST DUP3 MSTORE POP POP JUMP JUMPDEST PUSH1 0x0 PUSH2 0x1B12 DUP4 DUP4 PUSH2 0x1AF7 JUMP JUMPDEST PUSH1 0x20 DUP4 ADD SWAP1 POP SWAP3 SWAP2 POP POP JUMP JUMPDEST PUSH1 0x0 PUSH1 0x20 DUP3 ADD SWAP1 POP SWAP2 SWAP1 POP JUMP JUMPDEST PUSH1 0x0 PUSH2 0x1B36 DUP3 PUSH2 0x1ACB JUMP JUMPDEST PUSH2 0x1B40 DUP2 DUP6 PUSH2 0x1AD6 JUMP JUMPDEST SWAP4 POP PUSH2 0x1B4B DUP4 PUSH2 0x1AE7 JUMP JUMPDEST DUP1 PUSH1 0x0 JUMPDEST DUP4 DUP2 LT ISZERO PUSH2 0x1B7C JUMPI DUP2 MLOAD PUSH2 0x1B63 DUP9 DUP3 PUSH2 0x1B06 JUMP JUMPDEST SWAP8 POP PUSH2 0x1B6E DUP4 PUSH2 0x1B1E JUMP JUMPDEST SWAP3 POP POP PUSH1 0x1 DUP2 ADD SWAP1 POP PUSH2 0x1B4F JUMP JUMPDEST POP DUP6 SWAP4 POP POP POP POP SWAP3 SWAP2 POP POP JUMP JUMPDEST PUSH1 0x0 DUP2 MLOAD SWAP1 POP SWAP2 SWAP1 POP JUMP JUMPDEST PUSH1 0x0 DUP3 DUP3 MSTORE PUSH1 0x20 DUP3 ADD SWAP1 POP SWAP3 SWAP2 POP POP JUMP JUMPDEST PUSH1 0x0 DUP2 SWAP1 POP PUSH1 0x20 DUP3 ADD SWAP1 POP SWAP2 SWAP1 POP JUMP JUMPDEST PUSH2 0x1BBE DUP2 PUSH2 0x15B3 JUMP JUMPDEST DUP3 MSTORE POP POP JUMP JUMPDEST PUSH1 0x0 PUSH2 0x1BD0 DUP4 DUP4 PUSH2 0x1BB5 JUMP JUMPDEST PUSH1 0x20 DUP4 ADD SWAP1 POP SWAP3 SWAP2 POP POP JUMP JUMPDEST PUSH1 0x0 PUSH1 0x20 DUP3 ADD SWAP1 POP SWAP2 SWAP1 POP JUMP JUMPDEST PUSH1 0x0 PUSH2 0x1BF4 DUP3 PUSH2 0x1B89 JUMP JUMPDEST PUSH2 0x1BFE DUP2 DUP6 PUSH2 0x1B94 JUMP JUMPDEST SWAP4 POP PUSH2 0x1C09 DUP4 PUSH2 0x1BA5 JUMP JUMPDEST DUP1 PUSH1 0x0 JUMPDEST DUP4 DUP2 LT ISZERO PUSH2 0x1C3A JUMPI DUP2 MLOAD PUSH2 0x1C21 DUP9 DUP3 PUSH2 0x1BC4 JUMP JUMPDEST SWAP8 POP PUSH2 0x1C2C DUP4 PUSH2 0x1BDC JUMP JUMPDEST SWAP3 POP POP PUSH1 0x1 DUP2 ADD SWAP1 POP PUSH2 0x1C0D JUMP JUMPDEST POP DUP6 SWAP4 POP POP POP POP SWAP3 SWAP2 POP POP JUMP JUMPDEST PUSH1 0x0 DUP2 MLOAD SWAP1 POP SWAP2 SWAP1 POP JUMP JUMPDEST PUSH1 0x0 DUP3 DUP3 MSTORE PUSH1 0x20 DUP3 ADD SWAP1 POP SWAP3 SWAP2 POP POP JUMP JUMPDEST PUSH1 0x0 DUP2 SWAP1 POP PUSH1 0x20 DUP3 ADD SWAP1 POP SWAP2 SWAP1 POP JUMP JUMPDEST PUSH2 0x1C7C DUP2 PUSH2 0x1A48 JUMP JUMPDEST DUP3 MSTORE POP POP JUMP JUMPDEST PUSH1 0x0 PUSH2 0x1C8E DUP4 DUP4 PUSH2 0x1C73 JUMP JUMPDEST PUSH1 0x20 DUP4 ADD SWAP1 POP SWAP3 SWAP2 POP POP JUMP JUMPDEST PUSH1 0x0 PUSH1 0x20 DUP3 ADD SWAP1 POP SWAP2 SWAP1 POP JUMP JUMPDEST PUSH1 0x0 PUSH2 0x1CB2 DUP3 PUSH2 0x1C47 JUMP JUMPDEST PUSH2 0x1CBC DUP2 DUP6 PUSH2 0x1C52 JUMP JUMPDEST SWAP4 POP PUSH2 0x1CC7 DUP4 PUSH2 0x1C63 JUMP JUMPDEST DUP1 PUSH1 0x0 JUMPDEST DUP4 DUP2 LT ISZERO PUSH2 0x1CF8 JUMPI DUP2 MLOAD PUSH2 0x1CDF DUP9 DUP3 PUSH2 0x1C82 JUMP JUMPDEST SWAP8 POP PUSH2 0x1CEA DUP4 PUSH2 0x1C9A JUMP JUMPDEST SWAP3 POP POP PUSH1 0x1 DUP2 ADD SWAP1 POP PUSH2 0x1CCB JUMP JUMPDEST POP DUP6 SWAP4 POP POP POP POP SWAP3 SWAP2 POP POP JUMP JUMPDEST PUSH1 0x0 DUP2 MLOAD SWAP1 POP SWAP2 SWAP1 POP JUMP JUMPDEST PUSH1 0x0 DUP3 DUP3 MSTORE PUSH1 0x20 DUP3 ADD SWAP1 POP SWAP3 SWAP2 POP POP JUMP JUMPDEST PUSH1 0x0 DUP2 SWAP1 POP PUSH1 0x20 DUP3 ADD SWAP1 POP SWAP2 SWAP1 POP JUMP JUMPDEST PUSH2 0x1D3A DUP2 PUSH2 0x170E JUMP JUMPDEST DUP3 MSTORE POP POP JUMP JUMPDEST PUSH1 0x0 PUSH2 0x1D4C DUP4 DUP4 PUSH2 0x1D31 JUMP JUMPDEST PUSH1 0x20 DUP4 ADD SWAP1 POP SWAP3 SWAP2 POP POP JUMP JUMPDEST PUSH1 0x0 PUSH1 0x20 DUP3 ADD SWAP1 POP SWAP2 SWAP1 POP JUMP JUMPDEST PUSH1 0x0 PUSH2 0x1D70 DUP3 PUSH2 0x1D05 JUMP JUMPDEST PUSH2 0x1D7A DUP2 DUP6 PUSH2 0x1D10 JUMP JUMPDEST SWAP4 POP PUSH2 0x1D85 DUP4 PUSH2 0x1D21 JUMP JUMPDEST DUP1 PUSH1 0x0 JUMPDEST DUP4 DUP2 LT ISZERO PUSH2 0x1DB6 JUMPI DUP2 MLOAD PUSH2 0x1D9D DUP9 DUP3 PUSH2 0x1D40 JUMP JUMPDEST SWAP8 POP PUSH2 0x1DA8 DUP4 PUSH2 0x1D58 JUMP JUMPDEST SWAP3 POP POP PUSH1 0x1 DUP2 ADD SWAP1 POP PUSH2 0x1D89 JUMP JUMPDEST POP DUP6 SWAP4 POP POP POP POP SWAP3 SWAP2 POP POP JUMP JUMPDEST PUSH1 0x0 PUSH1 0xA0 DUP3 ADD SWAP1 POP DUP2 DUP2 SUB PUSH1 0x0 DUP4 ADD MSTORE PUSH2 0x1DDD DUP2 DUP9 PUSH2 0x1B2B JUMP JUMPDEST SWAP1 POP DUP2 DUP2 SUB PUSH1 0x20 DUP4 ADD MSTORE PUSH2 0x1DF1 DUP2 DUP8 PUSH2 0x1BE9 JUMP JUMPDEST SWAP1 POP DUP2 DUP2 SUB PUSH1 0x40 DUP4 ADD MSTORE PUSH2 0x1E05 DUP2 DUP7 PUSH2 0x1CA7 JUMP JUMPDEST SWAP1 POP DUP2 DUP2 SUB PUSH1 0x60 DUP4 ADD MSTORE PUSH2 0x1E19 DUP2 DUP6 PUSH2 0x1D65 JUMP JUMPDEST SWAP1 POP DUP2 DUP2 SUB PUSH1 0x80 DUP4 ADD MSTORE PUSH2 0x1E2D DUP2 DUP5 PUSH2 0x1B2B JUMP JUMPDEST SWAP1 POP SWAP7 SWAP6 POP POP POP POP POP POP JUMP JUMPDEST PUSH1 0x0 DUP2 MLOAD SWAP1 POP SWAP2 SWAP1 POP JUMP JUMPDEST PUSH1 0x0 DUP3 DUP3 MSTORE PUSH1 0x20 DUP3 ADD SWAP1 POP SWAP3 SWAP2 POP POP JUMP JUMPDEST PUSH1 0x0 JUMPDEST DUP4 DUP2 LT ISZERO PUSH2 0x1E73 JUMPI DUP1 DUP3 ADD MLOAD DUP2 DUP5 ADD MSTORE PUSH1 0x20 DUP2 ADD SWAP1 POP PUSH2 0x1E58 JUMP JUMPDEST PUSH1 0x0 DUP5 DUP5 ADD MSTORE POP POP POP POP JUMP JUMPDEST PUSH1 0x0 PUSH2 0x1E8A DUP3 PUSH2 0x1E39 JUMP JUMPDEST PUSH2 0x1E94 DUP2 DUP6 PUSH2 0x1E44 JUMP JUMPDEST SWAP4 POP PUSH2 0x1EA4 DUP2 DUP6 PUSH1 0x20 DUP7 ADD PUSH2 0x1E55 JUMP JUMPDEST PUSH2 0x1EAD DUP2 PUSH2 0x17ED JUMP JUMPDEST DUP5 ADD SWAP2 POP POP SWAP3 SWAP2 POP POP JUMP JUMPDEST PUSH1 0x0 PUSH1 0xA0 DUP3 ADD SWAP1 POP PUSH2 0x1ECD PUSH1 0x0 DUP4 ADD DUP9 PUSH2 0x17B9 JUMP JUMPDEST PUSH2 0x1EDA PUSH1 0x20 DUP4 ADD DUP8 PUSH2 0x1616 JUMP JUMPDEST DUP2 DUP2 SUB PUSH1 0x40 DUP4 ADD MSTORE PUSH2 0x1EEC DUP2 DUP7 PUSH2 0x1E7F JUMP JUMPDEST SWAP1 POP PUSH2 0x1EFB PUSH1 0x60 DUP4 ADD DUP6 PUSH2 0x1A69 JUMP JUMPDEST PUSH2 0x1F08 PUSH1 0x80 DUP4 ADD DUP5 PUSH2 0x17B9 JUMP JUMPDEST SWAP7 SWAP6 POP POP POP POP POP POP JUMP JUMPDEST PUSH32 0x5265636F726420646F6573206E6F742065786973740000000000000000000000 PUSH1 0x0 DUP3 ADD MSTORE POP JUMP JUMPDEST PUSH1 0x0 PUSH2 0x1F48 PUSH1 0x15 DUP4 PUSH2 0x1E44 JUMP JUMPDEST SWAP2 POP PUSH2 0x1F53 DUP3 PUSH2 0x1F12 JUMP JUMPDEST PUSH1 0x20 DUP3 ADD SWAP1 POP SWAP2 SWAP1 POP JUMP JUMPDEST PUSH1 0x0 PUSH1 0x20 DUP3 ADD SWAP1 POP DUP2 DUP2 SUB PUSH1 0x0 DUP4 ADD MSTORE PUSH2 0x1F77 DUP2 PUSH2 0x1F3B JUMP JUMPDEST SWAP1 POP SWAP2 SWAP1 POP JUMP JUMPDEST PUSH1 0x0 PUSH1 0x40 DUP3 ADD SWAP1 POP PUSH2 0x1F93 PUSH1 0x0 DUP4 ADD DUP6 PUSH2 0x1616 JUMP JUMPDEST PUSH2 0x1FA0 PUSH1 0x20 DUP4 ADD DUP5 PUSH2 0x1A5A JUMP JUMPDEST SWAP4 SWAP3 POP POP POP JUMP JUMPDEST PUSH32 0x4E487B7100000000000000000000000000000000000000000000000000000000 PUSH1 0x0 MSTORE PUSH1 0x11 PUSH1 0x4 MSTORE PUSH1 0x24 PUSH1 0x0 REVERT JUMPDEST PUSH1 0x0 PUSH2 0x1FE1 DUP3 PUSH2 0x1640 JUMP JUMPDEST SWAP2 POP PUSH2 0x1FEC DUP4 PUSH2 0x1640 JUMP JUMPDEST SWAP3 POP DUP3 DUP3 ADD SWAP1 POP DUP1 DUP3 GT ISZERO PUSH2 0x2004 JUMPI PUSH2 0x2003 PUSH2 0x1FA7 JUMP JUMPDEST JUMPDEST SWAP3 SWAP2 POP POP JUMP JUMPDEST PUSH32 0x4E487B7100000000000000000000000000000000000000000000000000000000 PUSH1 0x0 MSTORE PUSH1 0x22 PUSH1 0x4 MSTORE PUSH1 0x24 PUSH1 0x0 REVERT JUMPDEST PUSH1 0x0 PUSH1 0x2 DUP3 DIV SWAP1 POP PUSH1 0x1 DUP3 AND DUP1 PUSH2 0x2051 JUMPI PUSH1 0x7F DUP3 AND SWAP2 POP JUMPDEST PUSH1 0x20 DUP3 LT DUP2 SUB PUSH2 0x2064 JUMPI PUSH2 0x2063 PUSH2 0x200A JUMP JUMPDEST JUMPDEST POP SWAP2 SWAP1 POP JUMP JUMPDEST PUSH1 0x0 DUP2 SWAP1 POP DUP2 PUSH1 0x0 MSTORE PUSH1 0x20 PUSH1 0x0 KECCAK256 SWAP1 POP SWAP2 SWAP1 POP JUMP JUMPDEST PUSH1 0x0 PUSH1 0x20 PUSH1 0x1F DUP4 ADD DIV SWAP1 POP SWAP2 SWAP1 POP JUMP JUMPDEST PUSH1 0x0 DUP3 DUP3 SHL SWAP1 POP SWAP3 SWAP2 POP POP JUMP JUMPDEST PUSH1 0x0 PUSH1 0x8 DUP4 MUL PUSH2 0x20CC PUSH32 0xFFFFFFFFFFFFFFFFFFFFFFFFFFFFFFFFFFFFFFFFFFFFFFFFFFFFFFFFFFFFFFFF DUP3 PUSH2 0x208F JUMP JUMPDEST PUSH2 0x20D6 DUP7 DUP4 PUSH2 0x208F JUMP JUMPDEST SWAP6 POP DUP1 NOT DUP5 AND SWAP4 POP DUP1 DUP7 AND DUP5 OR SWAP3 POP POP POP SWAP4 SWAP3 POP POP POP JUMP JUMPDEST PUSH1 0x0 DUP2 SWAP1 POP SWAP2 SWAP1 POP JUMP JUMPDEST PUSH1 0x0 PUSH2 0x2113 PUSH2 0x210E PUSH2 0x2109 DUP5 PUSH2 0x1640 JUMP JUMPDEST PUSH2 0x20EE JUMP JUMPDEST PUSH2 0x1640 JUMP JUMPDEST SWAP1 POP SWAP2 SWAP1 POP JUMP JUMPDEST PUSH1 0x0 DUP2 SWAP1 POP SWAP2 SWAP1 POP JUMP JUMPDEST PUSH2 0x212D DUP4 PUSH2 0x20F8 JUMP JUMPDEST PUSH2 0x2141 PUSH2 0x2139 DUP3 PUSH2 0x211A JUMP JUMPDEST DUP5 DUP5 SLOAD PUSH2 0x209C JUMP JUMPDEST DUP3 SSTORE POP POP POP POP JUMP JUMPDEST PUSH1 0x0 SWAP1 JUMP JUMPDEST PUSH2 0x2156 PUSH2 0x2149 JUMP JUMPDEST PUSH2 0x2161 DUP2 DUP5 DUP5 PUSH2 0x2124 JUMP JUMPDEST POP POP POP JUMP JUMPDEST JUMPDEST DUP2 DUP2 LT ISZERO PUSH2 0x2185 JUMPI PUSH2 0x217A PUSH1 0x0 DUP3 PUSH2 0x214E JUMP JUMPDEST PUSH1 0x1 DUP2 ADD SWAP1 POP PUSH2 0x2167 JUMP JUMPDEST POP POP JUMP JUMPDEST PUSH1 0x1F DUP3 GT ISZERO PUSH2 0x21CA JUMPI PUSH2 0x219B DUP2 PUSH2 0x206A JUMP JUMPDEST PUSH2 0x21A4 DUP5 PUSH2 0x207F JUMP JUMPDEST DUP2 ADD PUSH1 0x20 DUP6 LT ISZERO PUSH2 0x21B3 JUMPI DUP2 SWAP1 POP JUMPDEST PUSH2 0x21C7 PUSH2 0x21BF DUP6 PUSH2 0x207F JUMP JUMPDEST DUP4 ADD DUP3 PUSH2 0x2166 JUMP JUMPDEST POP POP JUMPDEST POP POP POP JUMP JUMPDEST PUSH1 0x0 DUP3 DUP3 SHR SWAP1 POP SWAP3 SWAP2 POP POP JUMP JUMPDEST PUSH1 0x0 PUSH2 0x21ED PUSH1 0x0 NOT DUP5 PUSH1 0x8 MUL PUSH2 0x21CF JUMP JUMPDEST NOT DUP1 DUP4 AND SWAP2 POP POP SWAP3 SWAP2 POP POP JUMP JUMPDEST PUSH1 0x0 PUSH2 0x2206 DUP4 DUP4 PUSH2 0x21DC JUMP JUMPDEST SWAP2 POP DUP3 PUSH1 0x2 MUL DUP3 OR SWAP1 POP SWAP3 SWAP2 POP POP JUMP JUMPDEST PUSH2 0x221F DUP3 PUSH2 0x1E39 JUMP JUMPDEST PUSH8 0xFFFFFFFFFFFFFFFF DUP2 GT ISZERO PUSH2 0x2238 JUMPI PUSH2 0x2237 PUSH2 0x17FE JUMP JUMPDEST JUMPDEST PUSH2 0x2242 DUP3 SLOAD PUSH2 0x2039 JUMP JUMPDEST PUSH2 0x224D DUP3 DUP3 DUP6 PUSH2 0x2189 JUMP JUMPDEST PUSH1 0x0 PUSH1 0x20 SWAP1 POP PUSH1 0x1F DUP4 GT PUSH1 0x1 DUP2 EQ PUSH2 0x2280 JUMPI PUSH1 0x0 DUP5 ISZERO PUSH2 0x226E JUMPI DUP3 DUP8 ADD MLOAD SWAP1 POP JUMPDEST PUSH2 0x2278 DUP6 DUP3 PUSH2 0x21FA JUMP JUMPDEST DUP7 SSTORE POP PUSH2 0x22E0 JUMP JUMPDEST PUSH1 0x1F NOT DUP5 AND PUSH2 0x228E DUP7 PUSH2 0x206A JUMP JUMPDEST PUSH1 0x0 JUMPDEST DUP3 DUP2 LT ISZERO PUSH2 0x22B6 JUMPI DUP5 DUP10 ADD MLOAD DUP3 SSTORE PUSH1 0x1 DUP3 ADD SWAP2 POP PUSH1 0x20 DUP6 ADD SWAP5 POP PUSH1 0x20 DUP2 ADD SWAP1 POP PUSH2 0x2291 JUMP JUMPDEST DUP7 DUP4 LT ISZERO PUSH2 0x22D3 JUMPI DUP5 DUP10 ADD MLOAD PUSH2 0x22CF PUSH1 0x1F DUP10 AND DUP3 PUSH2 0x21DC JUMP JUMPDEST DUP4 SSTORE POP JUMPDEST PUSH1 0x1 PUSH1 0x2 DUP9 MUL ADD DUP9 SSTORE POP POP POP JUMPDEST POP POP POP POP POP POP JUMP JUMPDEST PUSH32 0x4E487B7100000000000000000000000000000000000000000000000000000000 PUSH1 0x0 MSTORE PUSH1 0x32 PUSH1 0x4 MSTORE PUSH1 0x24 PUSH1 0x0 REVERT JUMPDEST PUSH1 0x0 PUSH1 0x40 DUP3 ADD SWAP1 POP PUSH2 0x232C PUSH1 0x0 DUP4 ADD DUP6 PUSH2 0x1A69 JUMP JUMPDEST PUSH2 0x2339 PUSH1 0x20 DUP4 ADD DUP5 PUSH2 0x1616 JUMP JUMPDEST SWAP4 SWAP3 POP POP POP JUMP INVALID LOG2 PUSH5 0x6970667358 0x22 SLT KECCAK256 0xEF 0xDF SWAP6 SWAP6 0x2B AND SLOAD DUP2 BASEFEE SWAP14 DUP4 LOG4 SWAP9 0xB3 LOG0 CALLVALUE BLOBBASEFEE LOG3 SWAP5 MUL 0xC9 SELFBALANCE 0xE8 BLOBBASEFEE ADDRESS 0xC8 0xD6 PUSH6 0xFF30C21C6473 PUSH16 0x6C634300081C00330000000000000000 "},"methodIdentifiers":{"AUDITOR_ROLE()":"6e1d616e","CITIZEN_ROLE()":"2b9e1d70","DEFAULT_ADMIN_ROLE()":"a217fddf","GOV_AGENCY_ROLE()":"4d320c31","addAuditor(address)":"e429cef1","addGovAgency(address)":"5843296e","auditFindings(uint256,uint256)":"5ca26de1","getAuditCount(uint256)":"347c19cd","getAudits(uint256)":"66e1d6af","getRecordBasic(uint256)":"76e2f16a","getRoleAdmin(bytes32)":"248a9ca3","getSpendingCount()":"656a42be","grantRole(bytes32,address)":"2f2ff15d","hasRole(bytes32,address)":"91d14854","recordCount()":"900407bc","renounceRole(bytes32,address)":"36568abe","revokeRole(bytes32,address)":"d547741f","spendingRecords(uint256)":"bac5d8f9","submitAudit(uint256,bytes32,uint8)":"2ebf8b63","submitSpendingRecord(bytes32,string)":"4f369e3f","supportsInterface(bytes4)":"01ffc9a7"}}}}}