{
  "_format": "hh-sol-artifact-1",
  "contractName": "GovSpendingLedger",
  "sourceName": "contracts/GovSpendingLedger.sol",
  "abi": [
    {
      "inputs": [],
      "stateMutability": "nonpayable",
      "type": "constructor"
    },
    {
      "inputs": [],
      "name": "AccessControlBadConfirmation",
      "type": "error"
    },
    {
      "inputs": [
        {
          "internalType": "address",
          "name": "account",
          "type": "address"
        },
        {
          "internalType": "bytes32",
          "name": "neededRole",
          "type": "bytes32"
        }
      ],
      "name": "AccessControlUnauthorizedAccount",
      "type": "error"
    },
    {
      "anonymous": false,
      "inputs": [
        {
          "indexed": true,
          "internalType": "uint256",
          "name": "recordId",
          "type": "uint256"
        },
        {
          "indexed": true,
          "internalType": "address",
          "name": "auditor",
          "type": "address"
        },
        {
          "indexed": false,
          "internalType": "bytes32",
          "name": "documenHash",
          "type": "bytes32"
        }
      ],
      "name": "AuditSubmitted",
      "type": "event"
    },
    {
      "anonymous": false,
      "inputs": [
        {
          "indexed": true,
          "internalType": "uint256",
          "name": "recordId",
          "type": "uint256"
        },
        {
          "indexed": true,
          "internalType": "address",
          "name": "submittedBy",
          "type": "address"
        },
        {
          "indexed": false,
          "internalType": "bytes32",
          "name": "documentHash",
          "type": "bytes32"
        }
      ],
      "name": "RecordSubmitted",
      "type": "event"
    },
    {
      "anonymous": false,
      "inputs": [
        {
          "indexed": true,
          "internalType": "bytes32",
          "name": "role",
          "type": "bytes32"
        },
        {
          "indexed": true,
          "internalType": "bytes32",
          "name": "previousAdminRole",
          "type": "bytes32"
        },
        {
          "indexed": true,
          "internalType": "bytes32",
          "name": "newAdminRole",
          "type": "bytes32"
        }
      ],
      "name": "RoleAdminChanged",
      "type": "event"
    },
    {
      "anonymous": false,
      "inputs": [
        {
          "indexed": true,
          "internalType": "bytes32",
          "name": "role",
          "type": "bytes32"
        },
        {
          "indexed": true,
          "internalType": "address",
          "name": "account",
          "type": "address"
        },
        {
          "indexed": true,
          "internalType": "address",
          "name": "sender",
          "type": "address"
        }
      ],
      "name": "RoleGranted",
      "type": "event"
    },
    {
      "anonymous": false,
      "inputs": [
        {
          "indexed": true,
          "internalType": "bytes32",
          "name": "role",
          "type": "bytes32"
        },
        {
          "indexed": true,
          "internalType": "address",
          "name": "account",
          "type": "address"
        },
        {
          "indexed": true,
          "internalType": "address",
          "name": "sender",
          "type": "address"
        }
      ],
      "name": "RoleRevoked",
      "type": "event"
    },
    {
      "inputs": [],
      "name": "AUDITOR_ROLE",
      "outputs": [
        {
          "internalType": "bytes32",
          "name": "",
          "type": "bytes32"
        }
      ],
      "stateMutability": "view",
      "type": "function"
    },
    {
      "inputs": [],
      "name": "CITIZEN_ROLE",
      "outputs": [
        {
          "internalType": "bytes32",
          "name": "",
          "type": "bytes32"
        }
      ],
      "stateMutability": "view",
      "type": "function"
    },
    {
      "inputs": [],
      "name": "DEFAULT_ADMIN_ROLE",
      "outputs": [
        {
          "internalType": "bytes32",
          "name": "",
          "type": "bytes32"
        }
      ],
      "stateMutability": "view",
      "type": "function"
    },
    {
      "inputs": [],
      "name": "GOV_AGENCY_ROLE",
      "outputs": [
        {
          "internalType": "bytes32",
          "name": "",
          "type": "bytes32"
        }
      ],
      "stateMutability": "view",
      "type": "function"
    },
    {
      "inputs": [
        {
          "internalType": "address",
          "name": "account",
          "type": "address"
        }
      ],
      "name": "addAuditor",
      "outputs": [],
      "stateMutability": "nonpayable",
      "type": "function"
    },
    {
      "inputs": [
        {
          "internalType": "address",
          "name": "account",
          "type": "address"
        }
      ],
      "name": "addGovAgency",
      "outputs": [],
      "stateMutability": "nonpayable",
      "type": "function"
    },
    {
      "inputs": [
        {
          "internalType": "uint256",
          "name": "",
          "type": "uint256"
        },
        {
          "internalType": "uint256",
          "name": "",
          "type": "uint256"
        }
      ],
      "name": "auditFindings",
      "outputs": [
        {
          "internalType": "uint256",
          "name": "recordId",
          "type": "uint256"
        },
        {
          "internalType": "bytes32",
          "name": "documentHash",
          "type": "bytes32"
        },
        {
          "internalType": "enum GovSpendingLedger.AuditResult",
          "name": "result",
          "type": "uint8"
        },
        {
          "internalType": "address",
          "name": "auditor",
          "type": "address"
        },
        {
          "internalType": "uint256",
          "name": "timestamp",
          "type": "uint256"
        }
      ],
      "stateMutability": "view",
      "type": "function"
    },
    {
      "inputs": [
        {
          "internalType": "uint256",
          "name": "recordId",
          "type": "uint256"
        }
      ],
      "name": "getAuditCount",
      "outputs": [
        {
          "internalType": "uint256",
          "name": "",
          "type": "uint256"
        }
      ],
      "stateMutability": "view",
      "type": "function"
    },
    {
      "inputs": [
        {
          "internalType": "uint256",
          "name": "recordId",
          "type": "uint256"
        }
      ],
      "name": "getAudits",
      "outputs": [
        {
          "components": [
            {
              "internalType": "uint256",
              "name": "recordId",
              "type": "uint256"
            },
            {
              "internalType": "bytes32",
              "name": "documentHash",
              "type": "bytes32"
            },
            {
              "internalType": "enum GovSpendingLedger.AuditResult",
              "name": "result",
              "type": "uint8"
            },
            {
              "internalType": "address",
              "name": "auditor",
              "type": "address"
            },
            {
              "internalType": "uint256",
              "name": "timestamp",
              "type": "uint256"
            }
          ],
          "internalType": "struct GovSpendingLedger.AuditFinding[]",
          "name": "",
          "type": "tuple[]"
        }
      ],
      "stateMutability": "view",
      "type": "function"
    },
    {
      "inputs": [
        {
          "internalType": "uint256",
          "name": "recordId",
          "type": "uint256"
        }
      ],
      "name": "getRecordBasic",
      "outputs": [
        {
          "internalType": "uint256",
          "name": "",
          "type": "uint256"
        },
        {
          "internalType": "bytes32",
          "name": "",
          "type": "bytes32"
        },
        {
          "internalType": "string",
          "name": "",
          "type": "string"
        },
        {
          "internalType": "address",
          "name": "",
          "type": "address"
        },
        {
          "internalType": "uint256",
          "name": "",
          "type": "uint256"
        }
      ],
      "stateMutability": "view",
      "type": "function"
    },
    {
      "inputs": [
        {
          "internalType": "bytes32",
          "name": "role",
          "type": "bytes32"
        }
      ],
      "name": "getRoleAdmin",
      "outputs": [
        {
          "internalType": "bytes32",
          "name": "",
          "type": "bytes32"
        }
      ],
      "stateMutability": "view",
      "type": "function"
    },
    {
      "inputs": [],
      "name": "getSpendingCount",
      "outputs": [
        {
          "internalType": "uint256",
          "name": "",
          "type": "uint256"
        }
      ],
      "stateMutability": "view",
      "type": "function"
    },
    {
      "inputs": [
        {
          "internalType": "bytes32",
          "name": "role",
          "type": "bytes32"
        },
        {
          "internalType": "address",
          "name": "account",
          "type": "address"
        }
      ],
      "name": "grantRole",
      "outputs": [],
      "stateMutability": "nonpayable",
      "type": "function"
    },
    {
      "inputs": [
        {
          "internalType": "bytes32",
          "name": "role",
          "type": "bytes32"
        },
        {
          "internalType": "address",
          "name": "account",
          "type": "address"
        }
      ],
      "name": "hasRole",
      "outputs": [
        {
          "internalType": "bool",
          "name": "",
          "type": "bool"
        }
      ],
      "stateMutability": "view",
      "type": "function"
    },
    {
      "inputs": [],
      "name": "recordCount",
      "outputs": [
        {
          "internalType": "uint256",
          "name": "",
          "type": "uint256"
        }
      ],
      "stateMutability": "view",
      "type": "function"
    },
    {
      "inputs": [
        {
          "internalType": "bytes32",
          "name": "role",
          "type": "bytes32"
        },
        {
          "internalType": "address",
          "name": "callerConfirmation",
          "type": "address"
        }
      ],
      "name": "renounceRole",
      "outputs": [],
      "stateMutability": "nonpayable",
      "type": "function"
    },
    {
      "inputs": [
        {
          "internalType": "bytes32",
          "name": "role",
          "type": "bytes32"
        },
        {
          "internalType": "address",
          "name": "account",
          "type": "address"
        }
      ],
      "name": "revokeRole",
      "outputs": [],
      "stateMutability": "nonpayable",
      "type": "function"
    },
    {
      "inputs": [
        {
          "internalType": "uint256",
          "name": "",
          "type": "uint256"
        }
      ],
      "name": "spendingRecords",
      "outputs": [
        {
          "internalType": "uint256",
          "name": "recordId",
          "type": "uint256"
        },
        {
          "internalType": "bytes32",
          "name": "documentHash",
          "type": "bytes32"
        },
        {
          "internalType": "string",
          "name": "recordType",
          "type": "string"
        },
        {
          "internalType": "address",
          "name": "submittedBy",
          "type": "address"
        },
        {
          "internalType": "uint256",
          "name": "timestamp",
          "type": "uint256"
        }
      ],
      "stateMutability": "view",
      "type": "function"
    },
    {
      "inputs": [
        {
          "internalType": "uint256",
          "name": "recordId",
          "type": "uint256"
        },
        {
          "internalType": "bytes32",
          "name": "documentHash",
          "type": "bytes32"
        },
        {
          "internalType": "enum GovSpendingLedger.AuditResult",
          "name": "result",
          "type": "uint8"
        }
      ],
      "name": "submitAudit",
      "outputs": [],
      "stateMutability": "nonpayable",
      "type": "function"
    },
    {
      "inputs": [
        {
          "internalType": "bytes32",
          "name": "documentHash",
          "type": "bytes32"
        },
        {
          "internalType": "string",
          "name": "recordType",
          "type": "string"
        }
      ],
      "name": "submitSpendingRecord",
      "outputs": [],
      "stateMutability": "nonpayable",
      "type": "function"
    },
    {
      "inputs": [
        {
          "internalType": "bytes4",
          "name": "interfaceId",
          "type": "bytes4"
        }
      ],
      "name": "supportsInterface",
      "outputs": [
        {
          "internalType": "bool",
          "name": "",
          "type": "bool"
        }
      ],
      "stateMutability": "view",
      "type": "function"
    }
  ],
  "bytecode": "0x6080604052600060025534801561001557600080fd5b506100296000801b3361002f60201b60201c565b5061019e565b6000610041838361012c60201b60201c565b61012157600160008085815260200190815260200160002060000160008473ffffffffffffffffffffffffffffffffffffffff1673ffffffffffffffffffffffffffffffffffffffff16815260200190815260200160002060006101000a81548160ff0219169083151502179055506100be61019660201b60201c565b73ffffffffffffffffffffffffffffffffffffffff168273ffffffffffffffffffffffffffffffffffffffff16847f2f8788117e7eff1d82e926ec794901d17c78024a50270940304540a733656f0d60405160405180910390a460019050610126565b600090505b92915050565b600080600084815260200190815260200160002060000160008373ffffffffffffffffffffffffffffffffffffffff1673ffffffffffffffffffffffffffffffffffffffff16815260200190815260200160002060009054906101000a900460ff16905092915050565b600033905090565b611df1806101ad6000396000f3fe608060405234801561001057600080fd5b50600436106101375760003560e01c80635ca26de1116100b8578063900407bc1161007c578063900407bc1461036857806391d1485414610386578063a217fddf146103b6578063bac5d8f9146103d4578063d547741f14610408578063e429cef11461042457610137565b80635ca26de114610294578063656a42be146102c857806366e1d6af146102e65780636e1d616e1461031657806376e2f16a1461033457610137565b8063347c19cd116100ff578063347c19cd146101f257806336568abe146102225780634d320c311461023e5780634f369e3f1461025c5780635843296e1461027857610137565b806301ffc9a71461013c578063248a9ca31461016c5780632b9e1d701461019c5780632ebf8b63146101ba5780632f2ff15d146101d6575b600080fd5b6101566004803603810190610151919061121c565b610440565b6040516101639190611264565b60405180910390f35b610186600480360381019061018191906112b5565b6104ba565b60405161019391906112f1565b60405180910390f35b6101a46104d9565b6040516101b191906112f1565b60405180910390f35b6101d460048036038101906101cf9190611367565b6104fd565b005b6101f060048036038101906101eb9190611418565b6106ef565b005b61020c60048036038101906102079190611458565b610711565b6040516102199190611494565b60405180910390f35b61023c60048036038101906102379190611418565b610781565b005b6102466107fc565b60405161025391906112f1565b60405180910390f35b610276600480360381019061027191906115f5565b610820565b005b610292600480360381019061028d9190611651565b61098c565b005b6102ae60048036038101906102a9919061167e565b6109c7565b6040516102bf959493929190611744565b60405180910390f35b6102d0610a47565b6040516102dd9190611494565b60405180910390f35b61030060048036038101906102fb9190611458565b610a51565b60405161030d91906118ea565b60405180910390f35b61031e610bc3565b60405161032b91906112f1565b60405180910390f35b61034e60048036038101906103499190611458565b610be7565b60405161035f95949392919061198b565b60405180910390f35b610370610d44565b60405161037d9190611494565b60405180910390f35b6103a0600480360381019061039b9190611418565b610d4a565b6040516103ad9190611264565b60405180910390f35b6103be610db4565b6040516103cb91906112f1565b60405180910390f35b6103ee60048036038101906103e99190611458565b610dbb565b6040516103ff95949392919061198b565b60405180910390f35b610422600480360381019061041d9190611418565b610e99565b005b61043e60048036038101906104399190611651565b610ebb565b005b60007f7965db0b000000000000000000000000000000000000000000000000000000007bffffffffffffffffffffffffffffffffffffffffffffffffffffffff1916827bffffffffffffffffffffffffffffffffffffffffffffffffffffffff191614806104b357506104b282610ef6565b5b9050919050565b6000806000838152602001908152602001600020600101549050919050565b7f8f1426173eb922d2001706a308dabfa96e3c06475230fb5111184f70a4b5776d81565b7f59a1c48e5837ad7a7f3dcedcbe129bf3249ec4fbf651fd4f5e2600ead39fe2f561052781610f60565b60008411801561053957506002548411155b610578576040517f08c379a000000000000000000000000000000000000000000000000000000000815260040161056f90611a31565b60405180910390fd5b600360008581526020019081526020016000206040518060a001604052808681526020018581526020018460028111156105b5576105b46116be565b5b81526020013373ffffffffffffffffffffffffffffffffffffffff168152602001428152509080600181540180825580915050600190039060005260206000209060040201600090919091909150600082015181600001556020820151816001015560408201518160020160006101000a81548160ff02191690836002811115610642576106416116be565b5b021790555060608201518160020160016101000a81548173ffffffffffffffffffffffffffffffffffffffff021916908373ffffffffffffffffffffffffffffffffffffffff1602179055506080820151816003015550503373ffffffffffffffffffffffffffffffffffffffff16847fd4eae47e4eca54a2e42e0962e63a29016c23344404411ea1b300e60a5f9b8728856040516106e191906112f1565b60405180910390a350505050565b6106f8826104ba565b61070181610f60565b61070b8383610f74565b50505050565b6000808211801561072457506002548211155b610763576040517f08c379a000000000000000000000000000000000000000000000000000000000815260040161075a90611a31565b60405180910390fd5b60036000838152602001908152602001600020805490509050919050565b610789611065565b73ffffffffffffffffffffffffffffffffffffffff168173ffffffffffffffffffffffffffffffffffffffff16146107ed576040517f6697b23200000000000000000000000000000000000000000000000000000000815260040160405180910390fd5b6107f7828261106d565b505050565b7f94ac8bf7c2c0d570b676d8037eaa0516224e8bca85d85e9465db2088d225fcab81565b7f94ac8bf7c2c0d570b676d8037eaa0516224e8bca85d85e9465db2088d225fcab61084a81610f60565b60016002600082825461085d9190611a80565b925050819055506040518060a0016040528060025481526020018481526020018381526020013373ffffffffffffffffffffffffffffffffffffffff16815260200142815250600160006002548152602001908152602001600020600082015181600001556020820151816001015560408201518160020190816108e19190611cc0565b5060608201518160030160006101000a81548173ffffffffffffffffffffffffffffffffffffffff021916908373ffffffffffffffffffffffffffffffffffffffff160217905550608082015181600401559050503373ffffffffffffffffffffffffffffffffffffffff166002547fb47aefd0fcf9ea22919b53c3e42140e5fbcfed253f5aa6dc225cb4fa191527848560405161097f91906112f1565b60405180910390a3505050565b6000801b61099981610f60565b6109c37f94ac8bf7c2c0d570b676d8037eaa0516224e8bca85d85e9465db2088d225fcab836106ef565b5050565b600360205281600052604060002081815481106109e357600080fd5b9060005260206000209060040201600091509150508060000154908060010154908060020160009054906101000a900460ff16908060020160019054906101000a900473ffffffffffffffffffffffffffffffffffffffff16908060030154905085565b6000600254905090565b6060600082118015610a6557506002548211155b610aa4576040517f08c379a0000000000000000000000000000000000000000000000000000000008152600401610a9b90611a31565b60405180910390fd5b60036000838152602001908152602001600020805480602002602001604051908101604052809291908181526020016000905b82821015610bb857838290600052602060002090600402016040518060a001604052908160008201548152602001600182015481526020016002820160009054906101000a900460ff166002811115610b3357610b326116be565b5b6002811115610b4557610b446116be565b5b81526020016002820160019054906101000a900473ffffffffffffffffffffffffffffffffffffffff1673ffffffffffffffffffffffffffffffffffffffff1673ffffffffffffffffffffffffffffffffffffffff16815260200160038201548152505081526020019060010190610ad7565b505050509050919050565b7f59a1c48e5837ad7a7f3dcedcbe129bf3249ec4fbf651fd4f5e2600ead39fe2f581565b60008060606000806000600160008881526020019081526020016000206040518060a00160405290816000820154815260200160018201548152602001600282018054610c3390611ae3565b80601f0160208091040260200160405190810160405280929190818152602001828054610c5f90611ae3565b8015610cac5780601f10610c8157610100808354040283529160200191610cac565b820191906000526020600020905b815481529060010190602001808311610c8f57829003601f168201915b505050505081526020016003820160009054906101000a900473ffffffffffffffffffffffffffffffffffffffff1673ffffffffffffffffffffffffffffffffffffffff1673ffffffffffffffffffffffffffffffffffffffff168152602001600482015481525050905080600001518160200151826040015183606001518460800151955095509550955095505091939590929450565b60025481565b600080600084815260200190815260200160002060000160008373ffffffffffffffffffffffffffffffffffffffff1673ffffffffffffffffffffffffffffffffffffffff16815260200190815260200160002060009054906101000a900460ff16905092915050565b6000801b81565b6001602052806000526040600020600091509050806000015490806001015490806002018054610dea90611ae3565b80601f0160208091040260200160405190810160405280929190818152602001828054610e1690611ae3565b8015610e635780601f10610e3857610100808354040283529160200191610e63565b820191906000526020600020905b815481529060010190602001808311610e4657829003601f168201915b5050505050908060030160009054906101000a900473ffffffffffffffffffffffffffffffffffffffff16908060040154905085565b610ea2826104ba565b610eab81610f60565b610eb5838361106d565b50505050565b6000801b610ec881610f60565b610ef27f59a1c48e5837ad7a7f3dcedcbe129bf3249ec4fbf651fd4f5e2600ead39fe2f5836106ef565b5050565b60007f01ffc9a7000000000000000000000000000000000000000000000000000000007bffffffffffffffffffffffffffffffffffffffffffffffffffffffff1916827bffffffffffffffffffffffffffffffffffffffffffffffffffffffff1916149050919050565b610f7181610f6c611065565b61115f565b50565b6000610f808383610d4a565b61105a57600160008085815260200190815260200160002060000160008473ffffffffffffffffffffffffffffffffffffffff1673ffffffffffffffffffffffffffffffffffffffff16815260200190815260200160002060006101000a81548160ff021916908315150217905550610ff7611065565b73ffffffffffffffffffffffffffffffffffffffff168273ffffffffffffffffffffffffffffffffffffffff16847f2f8788117e7eff1d82e926ec794901d17c78024a50270940304540a733656f0d60405160405180910390a46001905061105f565b600090505b92915050565b600033905090565b60006110798383610d4a565b1561115457600080600085815260200190815260200160002060000160008473ffffffffffffffffffffffffffffffffffffffff1673ffffffffffffffffffffffffffffffffffffffff16815260200190815260200160002060006101000a81548160ff0219169083151502179055506110f1611065565b73ffffffffffffffffffffffffffffffffffffffff168273ffffffffffffffffffffffffffffffffffffffff16847ff6391f5c32d9c69d2a47ea670b442974b53935d1edc7fd64eb21e047a839171b60405160405180910390a460019050611159565b600090505b92915050565b6111698282610d4a565b6111ac5780826040517fe2517d3f0000000000000000000000000000000000000000000000000000000081526004016111a3929190611d92565b60405180910390fd5b5050565b6000604051905090565b600080fd5b600080fd5b60007fffffffff0000000000000000000000000000000000000000000000000000000082169050919050565b6111f9816111c4565b811461120457600080fd5b50565b600081359050611216816111f0565b92915050565b600060208284031215611232576112316111ba565b5b600061124084828501611207565b91505092915050565b60008115159050919050565b61125e81611249565b82525050565b60006020820190506112796000830184611255565b92915050565b6000819050919050565b6112928161127f565b811461129d57600080fd5b50565b6000813590506112af81611289565b92915050565b6000602082840312156112cb576112ca6111ba565b5b60006112d9848285016112a0565b91505092915050565b6112eb8161127f565b82525050565b600060208201905061130660008301846112e2565b92915050565b6000819050919050565b61131f8161130c565b811461132a57600080fd5b50565b60008135905061133c81611316565b92915050565b6003811061134f57600080fd5b50565b60008135905061136181611342565b92915050565b6000806000606084860312156113805761137f6111ba565b5b600061138e8682870161132d565b935050602061139f868287016112a0565b92505060406113b086828701611352565b9150509250925092565b600073ffffffffffffffffffffffffffffffffffffffff82169050919050565b60006113e5826113ba565b9050919050565b6113f5816113da565b811461140057600080fd5b50565b600081359050611412816113ec565b92915050565b6000806040838503121561142f5761142e6111ba565b5b600061143d858286016112a0565b925050602061144e85828601611403565b9150509250929050565b60006020828403121561146e5761146d6111ba565b5b600061147c8482850161132d565b91505092915050565b61148e8161130c565b82525050565b60006020820190506114a96000830184611485565b92915050565b600080fd5b600080fd5b6000601f19601f8301169050919050565b7f4e487b7100000000000000000000000000000000000000000000000000000000600052604160045260246000fd5b611502826114b9565b810181811067ffffffffffffffff82111715611521576115206114ca565b5b80604052505050565b60006115346111b0565b905061154082826114f9565b919050565b600067ffffffffffffffff8211156115605761155f6114ca565b5b611569826114b9565b9050602081019050919050565b82818337600083830152505050565b600061159861159384611545565b61152a565b9050828152602081018484840111156115b4576115b36114b4565b5b6115bf848285611576565b509392505050565b600082601f8301126115dc576115db6114af565b5b81356115ec848260208601611585565b91505092915050565b6000806040838503121561160c5761160b6111ba565b5b600061161a858286016112a0565b925050602083013567ffffffffffffffff81111561163b5761163a6111bf565b5b611647858286016115c7565b9150509250929050565b600060208284031215611667576116666111ba565b5b600061167584828501611403565b91505092915050565b60008060408385031215611695576116946111ba565b5b60006116a38582860161132d565b92505060206116b48582860161132d565b9150509250929050565b7f4e487b7100000000000000000000000000000000000000000000000000000000600052602160045260246000fd5b600381106116fe576116fd6116be565b5b50565b600081905061170f826116ed565b919050565b600061171f82611701565b9050919050565b61172f81611714565b82525050565b61173e816113da565b82525050565b600060a0820190506117596000830188611485565b61176660208301876112e2565b6117736040830186611726565b6117806060830185611735565b61178d6080830184611485565b9695505050505050565b600081519050919050565b600082825260208201905092915050565b6000819050602082019050919050565b6117cc8161130c565b82525050565b6117db8161127f565b82525050565b6117ea81611714565b82525050565b6117f9816113da565b82525050565b60a08201600082015161181560008501826117c3565b50602082015161182860208501826117d2565b50604082015161183b60408501826117e1565b50606082015161184e60608501826117f0565b50608082015161186160808501826117c3565b50505050565b600061187383836117ff565b60a08301905092915050565b6000602082019050919050565b600061189782611797565b6118a181856117a2565b93506118ac836117b3565b8060005b838110156118dd5781516118c48882611867565b97506118cf8361187f565b9250506001810190506118b0565b5085935050505092915050565b60006020820190508181036000830152611904818461188c565b905092915050565b600081519050919050565b600082825260208201905092915050565b60005b8381101561194657808201518184015260208101905061192b565b60008484015250505050565b600061195d8261190c565b6119678185611917565b9350611977818560208601611928565b611980816114b9565b840191505092915050565b600060a0820190506119a06000830188611485565b6119ad60208301876112e2565b81810360408301526119bf8186611952565b90506119ce6060830185611735565b6119db6080830184611485565b9695505050505050565b7f5265636f726420646f6573206e6f742065786973740000000000000000000000600082015250565b6000611a1b601583611917565b9150611a26826119e5565b602082019050919050565b60006020820190508181036000830152611a4a81611a0e565b9050919050565b7f4e487b7100000000000000000000000000000000000000000000000000000000600052601160045260246000fd5b6000611a8b8261130c565b9150611a968361130c565b9250828201905080821115611aae57611aad611a51565b5b92915050565b7f4e487b7100000000000000000000000000000000000000000000000000000000600052602260045260246000fd5b60006002820490506001821680611afb57607f821691505b602082108103611b0e57611b0d611ab4565b5b50919050565b60008190508160005260206000209050919050565b60006020601f8301049050919050565b600082821b905092915050565b600060088302611b767fffffffffffffffffffffffffffffffffffffffffffffffffffffffffffffffff82611b39565b611b808683611b39565b95508019841693508086168417925050509392505050565b6000819050919050565b6000611bbd611bb8611bb38461130c565b611b98565b61130c565b9050919050565b6000819050919050565b611bd783611ba2565b611beb611be382611bc4565b848454611b46565b825550505050565b600090565b611c00611bf3565b611c0b818484611bce565b505050565b5b81811015611c2f57611c24600082611bf8565b600181019050611c11565b5050565b601f821115611c7457611c4581611b14565b611c4e84611b29565b81016020851015611c5d578190505b611c71611c6985611b29565b830182611c10565b50505b505050565b600082821c905092915050565b6000611c9760001984600802611c79565b1980831691505092915050565b6000611cb08383611c86565b9150826002028217905092915050565b611cc98261190c565b67ffffffffffffffff811115611ce257611ce16114ca565b5b611cec8254611ae3565b611cf7828285611c33565b600060209050601f831160018114611d2a5760008415611d18578287015190505b611d228582611ca4565b865550611d8a565b601f198416611d3886611b14565b60005b82811015611d6057848901518255600182019150602085019450602081019050611d3b565b86831015611d7d5784890151611d79601f891682611c86565b8355505b6001600288020188555050505b505050505050565b6000604082019050611da76000830185611735565b611db460208301846112e2565b939250505056fea264697066735822122025b9df6f26b75621ab346b32c7618783b1cb9f4d5aa5097e7743767e5f3307b964736f6c634300081c0033",
  "linkReferences": {},
  "deployedLinkReferences": {}
}