{
  "_format": "hh-sol-artifact-1",
  "contractName": "GovSpendingLedger",
  "sourceName": "contracts/GovSpendingLedger.sol",
  "abi": [
    {
      "inputs": [],
      "stateMutability": "nonpayable",
      "type": "constructor"
    },
    {
      "inputs": [],
      "name": "AccessControlBadConfirmation",
      "type": "error"
    },
    {
      "inputs": [
        {
          "internalType": "address",
          "name": "account",
          "type": "address"
        },
        {
          "internalType": "bytes32",
          "name": "neededRole",
          "type": "bytes32"
        }
      ],
      "name": "AccessControlUnauthorizedAccount",
      "type": "error"
    },
    {
      "anonymous": false,
      "inputs": [
        {
          "indexed": true,
          "internalType": "uint256",
          "name": "recordId",
          "type": "uint256"
        },
        {
          "indexed": true,
          "internalType": "address",
          "name": "auditor",
          "type": "address"
        },
        {
          "indexed": false,
          "internalType": "string",
          "name": "notes",
          "type": "string"
        }
      ],
      "name": "AuditSubmitted",
      "type": "event"
    },
    {
      "anonymous": false,
      "inputs": [
        {
          "indexed": true,
          "internalType": "uint256",
          "name": "recordId",
          "type": "uint256"
        },
        {
          "indexed": true,
          "internalType": "address",
          "name": "submittedBy",
          "type": "address"
        },
        {
          "indexed": false,
          "internalType": "bytes32",
          "name": "documentHash",
          "type": "bytes32"
        }
      ],
      "name": "RecordSubmitted",
      "type": "event"
    },
    {
      "anonymous": false,
      "inputs": [
        {
          "indexed": true,
          "internalType": "bytes32",
          "name": "role",
          "type": "bytes32"
        },
        {
          "indexed": true,
          "internalType": "bytes32",
          "name": "previousAdminRole",
          "type": "bytes32"
        },
        {
          "indexed": true,
          "internalType": "bytes32",
          "name": "newAdminRole",
          "type": "bytes32"
        }
      ],
      "name": "RoleAdminChanged",
      "type": "event"
    },
    {
      "anonymous": false,
      "inputs": [
        {
          "indexed": true,
          "internalType": "bytes32",
          "name": "role",
          "type": "bytes32"
        },
        {
          "indexed": true,
          "internalType": "address",
          "name": "account",
          "type": "address"
        },
        {
          "indexed": true,
          "internalType": "address",
          "name": "sender",
          "type": "address"
        }
      ],
      "name": "RoleGranted",
      "type": "event"
    },
    {
      "anonymous": false,
      "inputs": [
        {
          "indexed": true,
          "internalType": "bytes32",
          "name": "role",
          "type": "bytes32"
        },
        {
          "indexed": true,
          "internalType": "address",
          "name": "account",
          "type": "address"
        },
        {
          "indexed": true,
          "internalType": "address",
          "name": "sender",
          "type": "address"
        }
      ],
      "name": "RoleRevoked",
      "type": "event"
    },
    {
      "inputs": [],
      "name": "AUDITOR_ROLE",
      "outputs": [
        {
          "internalType": "bytes32",
          "name": "",
          "type": "bytes32"
        }
      ],
      "stateMutability": "view",
      "type": "function"
    },
    {
      "inputs": [],
      "name": "CITIZEN_ROLE",
      "outputs": [
        {
          "internalType": "bytes32",
          "name": "",
          "type": "bytes32"
        }
      ],
      "stateMutability": "view",
      "type": "function"
    },
    {
      "inputs": [],
      "name": "DEFAULT_ADMIN_ROLE",
      "outputs": [
        {
          "internalType": "bytes32",
          "name": "",
          "type": "bytes32"
        }
      ],
      "stateMutability": "view",
      "type": "function"
    },
    {
      "inputs": [],
      "name": "GOV_AGENCY_ROLE",
      "outputs": [
        {
          "internalType": "bytes32",
          "name": "",
          "type": "bytes32"
        }
      ],
      "stateMutability": "view",
      "type": "function"
    },
    {
      "inputs": [
        {
          "internalType": "address",
          "name": "account",
          "type": "address"
        }
      ],
      "name": "addGovAgency",
      "outputs": [],
      "stateMutability": "nonpayable",
      "type": "function"
    },
    {
      "inputs": [
        {
          "internalType": "uint256",
          "name": "",
          "type": "uint256"
        },
        {
          "internalType": "uint256",
          "name": "",
          "type": "uint256"
        }
      ],
      "name": "auditFindings",
      "outputs": [
        {
          "internalType": "uint256",
          "name": "recordId",
          "type": "uint256"
        },
        {
          "internalType": "string",
          "name": "notes",
          "type": "string"
        },
        {
          "internalType": "address",
          "name": "auditor",
          "type": "address"
        },
        {
          "internalType": "uint256",
          "name": "timestamp",
          "type": "uint256"
        }
      ],
      "stateMutability": "view",
      "type": "function"
    },
    {
      "inputs": [
        {
          "internalType": "uint256",
          "name": "recordId",
          "type": "uint256"
        }
      ],
      "name": "getAuditCount",
      "outputs": [
        {
          "internalType": "uint256",
          "name": "",
          "type": "uint256"
        }
      ],
      "stateMutability": "view",
      "type": "function"
    },
    {
      "inputs": [
        {
          "internalType": "uint256",
          "name": "recordId",
          "type": "uint256"
        }
      ],
      "name": "getAudits",
      "outputs": [
        {
          "components": [
            {
              "internalType": "uint256",
              "name": "recordId",
              "type": "uint256"
            },
            {
              "internalType": "string",
              "name": "notes",
              "type": "string"
            },
            {
              "internalType": "address",
              "name": "auditor",
              "type": "address"
            },
            {
              "internalType": "uint256",
              "name": "timestamp",
              "type": "uint256"
            }
          ],
          "internalType": "struct GovSpendingLedger.AuditFinding[]",
          "name": "",
          "type": "tuple[]"
        }
      ],
      "stateMutability": "view",
      "type": "function"
    },
    {
      "inputs": [
        {
          "internalType": "uint256",
          "name": "recordId",
          "type": "uint256"
        }
      ],
      "name": "getRecord",
      "outputs": [
        {
          "components": [
            {
              "internalType": "uint256",
              "name": "recordId",
              "type": "uint256"
            },
            {
              "internalType": "bytes32",
              "name": "documentHash",
              "type": "bytes32"
            },
            {
              "internalType": "string",
              "name": "recordType",
              "type": "string"
            },
            {
              "internalType": "uint256",
              "name": "amount",
              "type": "uint256"
            },
            {
              "internalType": "address",
              "name": "submittedBy",
              "type": "address"
            },
            {
              "internalType": "uint256",
              "name": "timestamp",
              "type": "uint256"
            }
          ],
          "internalType": "struct GovSpendingLedger.SpendingRecord",
          "name": "",
          "type": "tuple"
        }
      ],
      "stateMutability": "view",
      "type": "function"
    },
    {
      "inputs": [
        {
          "internalType": "bytes32",
          "name": "role",
          "type": "bytes32"
        }
      ],
      "name": "getRoleAdmin",
      "outputs": [
        {
          "internalType": "bytes32",
          "name": "",
          "type": "bytes32"
        }
      ],
      "stateMutability": "view",
      "type": "function"
    },
    {
      "inputs": [],
      "name": "getSpendingCount",
      "outputs": [
        {
          "internalType": "uint256",
          "name": "",
          "type": "uint256"
        }
      ],
      "stateMutability": "view",
      "type": "function"
    },
    {
      "inputs": [
        {
          "internalType": "bytes32",
          "name": "role",
          "type": "bytes32"
        },
        {
          "internalType": "address",
          "name": "account",
          "type": "address"
        }
      ],
      "name": "grantRole",
      "outputs": [],
      "stateMutability": "nonpayable",
      "type": "function"
    },
    {
      "inputs": [
        {
          "internalType": "bytes32",
          "name": "role",
          "type": "bytes32"
        },
        {
          "internalType": "address",
          "name": "account",
          "type": "address"
        }
      ],
      "name": "hasRole",
      "outputs": [
        {
          "internalType": "bool",
          "name": "",
          "type": "bool"
        }
      ],
      "stateMutability": "view",
      "type": "function"
    },
    {
      "inputs": [],
      "name": "recordCount",
      "outputs": [
        {
          "internalType": "uint256",
          "name": "",
          "type": "uint256"
        }
      ],
      "stateMutability": "view",
      "type": "function"
    },
    {
      "inputs": [
        {
          "internalType": "bytes32",
          "name": "role",
          "type": "bytes32"
        },
        {
          "internalType": "address",
          "name": "callerConfirmation",
          "type": "address"
        }
      ],
      "name": "renounceRole",
      "outputs": [],
      "stateMutability": "nonpayable",
      "type": "function"
    },
    {
      "inputs": [
        {
          "internalType": "bytes32",
          "name": "role",
          "type": "bytes32"
        },
        {
          "internalType": "address",
          "name": "account",
          "type": "address"
        }
      ],
      "name": "revokeRole",
      "outputs": [],
      "stateMutability": "nonpayable",
      "type": "function"
    },
    {
      "inputs": [
        {
          "internalType": "uint256",
          "name": "",
          "type": "uint256"
        }
      ],
      "name": "spendingRecords",
      "outputs": [
        {
          "internalType": "uint256",
          "name": "recordId",
          "type": "uint256"
        },
        {
          "internalType": "bytes32",
          "name": "documentHash",
          "type": "bytes32"
        },
        {
          "internalType": "string",
          "name": "recordType",
          "type": "string"
        },
        {
          "internalType": "uint256",
          "name": "amount",
          "type": "uint256"
        },
        {
          "internalType": "address",
          "name": "submittedBy",
          "type": "address"
        },
        {
          "internalType": "uint256",
          "name": "timestamp",
          "type": "uint256"
        }
      ],
      "stateMutability": "view",
      "type": "function"
    },
    {
      "inputs": [
        {
          "internalType": "uint256",
          "name": "recordId",
          "type": "uint256"
        },
        {
          "internalType": "string",
          "name": "notes",
          "type": "string"
        }
      ],
      "name": "submitAudit",
      "outputs": [],
      "stateMutability": "nonpayable",
      "type": "function"
    },
    {
      "inputs": [
        {
          "internalType": "bytes32",
          "name": "documentHash",
          "type": "bytes32"
        },
        {
          "internalType": "string",
          "name": "recordType",
          "type": "string"
        },
        {
          "internalType": "uint256",
          "name": "amount",
          "type": "uint256"
        }
      ],
      "name": "submitSpendingRecord",
      "outputs": [],
      "stateMutability": "nonpayable",
      "type": "function"
    },
    {
      "inputs": [
        {
          "internalType": "bytes4",
          "name": "interfaceId",
          "type": "bytes4"
        }
      ],
      "name": "supportsInterface",
      "outputs": [
        {
          "internalType": "bool",
          "name": "",
          "type": "bool"
        }
      ],
      "stateMutability": "view",
      "type": "function"
    }
  ],
  "bytecode": "0x6080604052600060025534801561001557600080fd5b506100296000801b3361002f60201b60201c565b5061019e565b6000610041838361012c60201b60201c565b61012157600160008085815260200190815260200160002060000160008473ffffffffffffffffffffffffffffffffffffffff1673ffffffffffffffffffffffffffffffffffffffff16815260200190815260200160002060006101000a81548160ff0219169083151502179055506100be61019660201b60201c565b73ffffffffffffffffffffffffffffffffffffffff168273ffffffffffffffffffffffffffffffffffffffff16847f2f8788117e7eff1d82e926ec794901d17c78024a50270940304540a733656f0d60405160405180910390a460019050610126565b600090505b92915050565b600080600084815260200190815260200160002060000160008373ffffffffffffffffffffffffffffffffffffffff1673ffffffffffffffffffffffffffffffffffffffff16815260200190815260200160002060009054906101000a900460ff16905092915050565b600033905090565b611f44806101ad6000396000f3fe608060405234801561001057600080fd5b506004361061012c5760003560e01c80635ca26de1116100ad578063900407bc11610071578063900407bc1461035857806391d1485414610376578063a217fddf146103a6578063bac5d8f9146103c4578063d547741f146103f95761012c565b80635ca26de11461029d578063656a42be146102d057806366cf3930146102ee57806366e1d6af1461030a5780636e1d616e1461033a5761012c565b8063347c19cd116100f4578063347c19cd146101fb57806336568abe1461022b578063487819db146102475780634d320c31146102635780635843296e146102815761012c565b806301ffc9a71461013157806303e9e60914610161578063248a9ca3146101915780632b9e1d70146101c15780632f2ff15d146101df575b600080fd5b61014b600480360381019061014691906112d2565b610415565b604051610158919061131a565b60405180910390f35b61017b6004803603810190610176919061136b565b61048f565b604051610188919061151a565b60405180910390f35b6101ab60048036038101906101a69190611568565b61061d565b6040516101b891906115a4565b60405180910390f35b6101c961063c565b6040516101d691906115a4565b60405180910390f35b6101f960048036038101906101f491906115eb565b610660565b005b6102156004803603810190610210919061136b565b610682565b604051610222919061163a565b60405180910390f35b610245600480360381019061024091906115eb565b6106f2565b005b610261600480360381019061025c919061178a565b61076d565b005b61026b6108ea565b60405161027891906115a4565b60405180910390f35b61029b600480360381019061029691906117f9565b61090e565b005b6102b760048036038101906102b29190611826565b610949565b6040516102c794939291906118bf565b60405180910390f35b6102d8610a3e565b6040516102e5919061163a565b60405180910390f35b6103086004803603810190610303919061190b565b610a48565b005b610324600480360381019061031f919061136b565b610bfd565b6040516103319190611a8c565b60405180910390f35b610342610dbc565b60405161034f91906115a4565b60405180910390f35b610360610de0565b60405161036d919061163a565b60405180910390f35b610390600480360381019061038b91906115eb565b610de6565b60405161039d919061131a565b60405180910390f35b6103ae610e50565b6040516103bb91906115a4565b60405180910390f35b6103de60048036038101906103d9919061136b565b610e57565b6040516103f096959493929190611aae565b60405180910390f35b610413600480360381019061040e91906115eb565b610f3b565b005b60007f7965db0b000000000000000000000000000000000000000000000000000000007bffffffffffffffffffffffffffffffffffffffffffffffffffffffff1916827bffffffffffffffffffffffffffffffffffffffffffffffffffffffff19161480610488575061048782610f5d565b5b9050919050565b610497611217565b6000821180156104a957506002548211155b6104e8576040517f08c379a00000000000000000000000000000000000000000000000000000000081526004016104df90611b62565b60405180910390fd5b600160008381526020019081526020016000206040518060c0016040529081600082015481526020016001820154815260200160028201805461052a90611bb1565b80601f016020809104026020016040519081016040528092919081815260200182805461055690611bb1565b80156105a35780601f10610578576101008083540402835291602001916105a3565b820191906000526020600020905b81548152906001019060200180831161058657829003601f168201915b50505050508152602001600382015481526020016004820160009054906101000a900473ffffffffffffffffffffffffffffffffffffffff1673ffffffffffffffffffffffffffffffffffffffff1673ffffffffffffffffffffffffffffffffffffffff1681526020016005820154815250509050919050565b6000806000838152602001908152602001600020600101549050919050565b7f8f1426173eb922d2001706a308dabfa96e3c06475230fb5111184f70a4b5776d81565b6106698261061d565b61067281610fc7565b61067c8383610fdb565b50505050565b6000808211801561069557506002548211155b6106d4576040517f08c379a00000000000000000000000000000000000000000000000000000000081526004016106cb90611b62565b60405180910390fd5b60036000838152602001908152602001600020805490509050919050565b6106fa6110cc565b73ffffffffffffffffffffffffffffffffffffffff168173ffffffffffffffffffffffffffffffffffffffff161461075e576040517f6697b23200000000000000000000000000000000000000000000000000000000815260040160405180910390fd5b61076882826110d4565b505050565b7f94ac8bf7c2c0d570b676d8037eaa0516224e8bca85d85e9465db2088d225fcab61079781610fc7565b6001600260008282546107aa9190611c11565b925050819055506040518060c0016040528060025481526020018581526020018481526020018381526020013373ffffffffffffffffffffffffffffffffffffffff16815260200142815250600160006002548152602001908152602001600020600082015181600001556020820151816001015560408201518160020190816108349190611df1565b506060820151816003015560808201518160040160006101000a81548173ffffffffffffffffffffffffffffffffffffffff021916908373ffffffffffffffffffffffffffffffffffffffff16021790555060a082015181600501559050503373ffffffffffffffffffffffffffffffffffffffff166002547fb47aefd0fcf9ea22919b53c3e42140e5fbcfed253f5aa6dc225cb4fa19152784866040516108dc91906115a4565b60405180910390a350505050565b7f94ac8bf7c2c0d570b676d8037eaa0516224e8bca85d85e9465db2088d225fcab81565b6000801b61091b81610fc7565b6109457f94ac8bf7c2c0d570b676d8037eaa0516224e8bca85d85e9465db2088d225fcab83610660565b5050565b6003602052816000526040600020818154811061096557600080fd5b90600052602060002090600402016000915091505080600001549080600101805461098f90611bb1565b80601f01602080910402602001604051908101604052809291908181526020018280546109bb90611bb1565b8015610a085780601f106109dd57610100808354040283529160200191610a08565b820191906000526020600020905b8154815290600101906020018083116109eb57829003601f168201915b5050505050908060020160009054906101000a900473ffffffffffffffffffffffffffffffffffffffff16908060030154905084565b6000600254905090565b7f59a1c48e5837ad7a7f3dcedcbe129bf3249ec4fbf651fd4f5e2600ead39fe2f5610a7281610fc7565b600083118015610a8457506002548311155b610ac3576040517f08c379a0000000000000000000000000000000000000000000000000000000008152600401610aba90611b62565b60405180910390fd5b6003600084815260200190815260200160002060405180608001604052808581526020018481526020013373ffffffffffffffffffffffffffffffffffffffff168152602001428152509080600181540180825580915050600190039060005260206000209060040201600090919091909150600082015181600001556020820151816001019081610b559190611df1565b5060408201518160020160006101000a81548173ffffffffffffffffffffffffffffffffffffffff021916908373ffffffffffffffffffffffffffffffffffffffff1602179055506060820151816003015550503373ffffffffffffffffffffffffffffffffffffffff16837fae05e28e072a893738dd5e5fe7b7de2434bbf70c0da8be431ca7f522a583dee484604051610bf09190611ec3565b60405180910390a3505050565b6060600082118015610c1157506002548211155b610c50576040517f08c379a0000000000000000000000000000000000000000000000000000000008152600401610c4790611b62565b60405180910390fd5b60036000838152602001908152602001600020805480602002602001604051908101604052809291908181526020016000905b82821015610db1578382906000526020600020906004020160405180608001604052908160008201548152602001600182018054610cc090611bb1565b80601f0160208091040260200160405190810160405280929190818152602001828054610cec90611bb1565b8015610d395780601f10610d0e57610100808354040283529160200191610d39565b820191906000526020600020905b815481529060010190602001808311610d1c57829003601f168201915b505050505081526020016002820160009054906101000a900473ffffffffffffffffffffffffffffffffffffffff1673ffffffffffffffffffffffffffffffffffffffff1673ffffffffffffffffffffffffffffffffffffffff16815260200160038201548152505081526020019060010190610c83565b505050509050919050565b7f59a1c48e5837ad7a7f3dcedcbe129bf3249ec4fbf651fd4f5e2600ead39fe2f581565b60025481565b600080600084815260200190815260200160002060000160008373ffffffffffffffffffffffffffffffffffffffff1673ffffffffffffffffffffffffffffffffffffffff16815260200190815260200160002060009054906101000a900460ff16905092915050565b6000801b81565b6001602052806000526040600020600091509050806000015490806001015490806002018054610e8690611bb1565b80601f0160208091040260200160405190810160405280929190818152602001828054610eb290611bb1565b8015610eff5780601f10610ed457610100808354040283529160200191610eff565b820191906000526020600020905b815481529060010190602001808311610ee257829003601f168201915b5050505050908060030154908060040160009054906101000a900473ffffffffffffffffffffffffffffffffffffffff16908060050154905086565b610f448261061d565b610f4d81610fc7565b610f5783836110d4565b50505050565b60007f01ffc9a7000000000000000000000000000000000000000000000000000000007bffffffffffffffffffffffffffffffffffffffffffffffffffffffff1916827bffffffffffffffffffffffffffffffffffffffffffffffffffffffff1916149050919050565b610fd881610fd36110cc565b6111c6565b50565b6000610fe78383610de6565b6110c157600160008085815260200190815260200160002060000160008473ffffffffffffffffffffffffffffffffffffffff1673ffffffffffffffffffffffffffffffffffffffff16815260200190815260200160002060006101000a81548160ff02191690831515021790555061105e6110cc565b73ffffffffffffffffffffffffffffffffffffffff168273ffffffffffffffffffffffffffffffffffffffff16847f2f8788117e7eff1d82e926ec794901d17c78024a50270940304540a733656f0d60405160405180910390a4600190506110c6565b600090505b92915050565b600033905090565b60006110e08383610de6565b156111bb57600080600085815260200190815260200160002060000160008473ffffffffffffffffffffffffffffffffffffffff1673ffffffffffffffffffffffffffffffffffffffff16815260200190815260200160002060006101000a81548160ff0219169083151502179055506111586110cc565b73ffffffffffffffffffffffffffffffffffffffff168273ffffffffffffffffffffffffffffffffffffffff16847ff6391f5c32d9c69d2a47ea670b442974b53935d1edc7fd64eb21e047a839171b60405160405180910390a4600190506111c0565b600090505b92915050565b6111d08282610de6565b6112135780826040517fe2517d3f00000000000000000000000000000000000000000000000000000000815260040161120a929190611ee5565b60405180910390fd5b5050565b6040518060c0016040528060008152602001600080191681526020016060815260200160008152602001600073ffffffffffffffffffffffffffffffffffffffff168152602001600081525090565b6000604051905090565b600080fd5b600080fd5b60007fffffffff0000000000000000000000000000000000000000000000000000000082169050919050565b6112af8161127a565b81146112ba57600080fd5b50565b6000813590506112cc816112a6565b92915050565b6000602082840312156112e8576112e7611270565b5b60006112f6848285016112bd565b91505092915050565b60008115159050919050565b611314816112ff565b82525050565b600060208201905061132f600083018461130b565b92915050565b6000819050919050565b61134881611335565b811461135357600080fd5b50565b6000813590506113658161133f565b92915050565b60006020828403121561138157611380611270565b5b600061138f84828501611356565b91505092915050565b6113a181611335565b82525050565b6000819050919050565b6113ba816113a7565b82525050565b600081519050919050565b600082825260208201905092915050565b60005b838110156113fa5780820151818401526020810190506113df565b60008484015250505050565b6000601f19601f8301169050919050565b6000611422826113c0565b61142c81856113cb565b935061143c8185602086016113dc565b61144581611406565b840191505092915050565b600073ffffffffffffffffffffffffffffffffffffffff82169050919050565b600061147b82611450565b9050919050565b61148b81611470565b82525050565b600060c0830160008301516114a96000860182611398565b5060208301516114bc60208601826113b1565b50604083015184820360408601526114d48282611417565b91505060608301516114e96060860182611398565b5060808301516114fc6080860182611482565b5060a083015161150f60a0860182611398565b508091505092915050565b600060208201905081810360008301526115348184611491565b905092915050565b611545816113a7565b811461155057600080fd5b50565b6000813590506115628161153c565b92915050565b60006020828403121561157e5761157d611270565b5b600061158c84828501611553565b91505092915050565b61159e816113a7565b82525050565b60006020820190506115b96000830184611595565b92915050565b6115c881611470565b81146115d357600080fd5b50565b6000813590506115e5816115bf565b92915050565b6000806040838503121561160257611601611270565b5b600061161085828601611553565b9250506020611621858286016115d6565b9150509250929050565b61163481611335565b82525050565b600060208201905061164f600083018461162b565b92915050565b600080fd5b600080fd5b7f4e487b7100000000000000000000000000000000000000000000000000000000600052604160045260246000fd5b61169782611406565b810181811067ffffffffffffffff821117156116b6576116b561165f565b5b80604052505050565b60006116c9611266565b90506116d5828261168e565b919050565b600067ffffffffffffffff8211156116f5576116f461165f565b5b6116fe82611406565b9050602081019050919050565b82818337600083830152505050565b600061172d611728846116da565b6116bf565b9050828152602081018484840111156117495761174861165a565b5b61175484828561170b565b509392505050565b600082601f83011261177157611770611655565b5b813561178184826020860161171a565b91505092915050565b6000806000606084860312156117a3576117a2611270565b5b60006117b186828701611553565b935050602084013567ffffffffffffffff8111156117d2576117d1611275565b5b6117de8682870161175c565b92505060406117ef86828701611356565b9150509250925092565b60006020828403121561180f5761180e611270565b5b600061181d848285016115d6565b91505092915050565b6000806040838503121561183d5761183c611270565b5b600061184b85828601611356565b925050602061185c85828601611356565b9150509250929050565b600082825260208201905092915050565b6000611882826113c0565b61188c8185611866565b935061189c8185602086016113dc565b6118a581611406565b840191505092915050565b6118b981611470565b82525050565b60006080820190506118d4600083018761162b565b81810360208301526118e68186611877565b90506118f560408301856118b0565b611902606083018461162b565b95945050505050565b6000806040838503121561192257611921611270565b5b600061193085828601611356565b925050602083013567ffffffffffffffff81111561195157611950611275565b5b61195d8582860161175c565b9150509250929050565b600081519050919050565b600082825260208201905092915050565b6000819050602082019050919050565b60006080830160008301516119ab6000860182611398565b50602083015184820360208601526119c38282611417565b91505060408301516119d86040860182611482565b5060608301516119eb6060860182611398565b508091505092915050565b6000611a028383611993565b905092915050565b6000602082019050919050565b6000611a2282611967565b611a2c8185611972565b935083602082028501611a3e85611983565b8060005b85811015611a7a5784840389528151611a5b85826119f6565b9450611a6683611a0a565b925060208a01995050600181019050611a42565b50829750879550505050505092915050565b60006020820190508181036000830152611aa68184611a17565b905092915050565b600060c082019050611ac3600083018961162b565b611ad06020830188611595565b8181036040830152611ae28187611877565b9050611af1606083018661162b565b611afe60808301856118b0565b611b0b60a083018461162b565b979650505050505050565b7f5265636f726420646f6573206e6f742065786973740000000000000000000000600082015250565b6000611b4c601583611866565b9150611b5782611b16565b602082019050919050565b60006020820190508181036000830152611b7b81611b3f565b9050919050565b7f4e487b7100000000000000000000000000000000000000000000000000000000600052602260045260246000fd5b60006002820490506001821680611bc957607f821691505b602082108103611bdc57611bdb611b82565b5b50919050565b7f4e487b7100000000000000000000000000000000000000000000000000000000600052601160045260246000fd5b6000611c1c82611335565b9150611c2783611335565b9250828201905080821115611c3f57611c3e611be2565b5b92915050565b60008190508160005260206000209050919050565b60006020601f8301049050919050565b600082821b905092915050565b600060088302611ca77fffffffffffffffffffffffffffffffffffffffffffffffffffffffffffffffff82611c6a565b611cb18683611c6a565b95508019841693508086168417925050509392505050565b6000819050919050565b6000611cee611ce9611ce484611335565b611cc9565b611335565b9050919050565b6000819050919050565b611d0883611cd3565b611d1c611d1482611cf5565b848454611c77565b825550505050565b600090565b611d31611d24565b611d3c818484611cff565b505050565b5b81811015611d6057611d55600082611d29565b600181019050611d42565b5050565b601f821115611da557611d7681611c45565b611d7f84611c5a565b81016020851015611d8e578190505b611da2611d9a85611c5a565b830182611d41565b50505b505050565b600082821c905092915050565b6000611dc860001984600802611daa565b1980831691505092915050565b6000611de18383611db7565b9150826002028217905092915050565b611dfa826113c0565b67ffffffffffffffff811115611e1357611e1261165f565b5b611e1d8254611bb1565b611e28828285611d64565b600060209050601f831160018114611e5b5760008415611e49578287015190505b611e538582611dd5565b865550611ebb565b601f198416611e6986611c45565b60005b82811015611e9157848901518255600182019150602085019450602081019050611e6c565b86831015611eae5784890151611eaa601f891682611db7565b8355505b6001600288020188555050505b505050505050565b60006020820190508181036000830152611edd8184611877565b905092915050565b6000604082019050611efa60008301856118b0565b611f076020830184611595565b939250505056fea2646970667358221220d13a42cbad4a3083c5b5a88e4aff48de4fd086df3f80aa4f7c7ab51794680fac64736f6c634300081c0033",
  "linkReferences": {},
  "deployedLinkReferences": {}
}