{
  "_format": "hh-sol-artifact-1",
  "contractName": "GovSpendingLedger",
  "sourceName": "contracts/GovSpendingLedger.sol",
  "abi": [
    {
      "inputs": [],
      "stateMutability": "nonpayable",
      "type": "constructor"
    },
    {
      "inputs": [],
      "name": "AccessControlBadConfirmation",
      "type": "error"
    },
    {
      "inputs": [
        {
          "internalType": "address",
          "name": "account",
          "type": "address"
        },
        {
          "internalType": "bytes32",
          "name": "neededRole",
          "type": "bytes32"
        }
      ],
      "name": "AccessControlUnauthorizedAccount",
      "type": "error"
    },
    {
      "anonymous": false,
      "inputs": [
        {
          "indexed": true,
          "internalType": "uint256",
          "name": "recordId",
          "type": "uint256"
        },
        {
          "indexed": true,
          "internalType": "address",
          "name": "auditor",
          "type": "address"
        },
        {
          "indexed": false,
          "internalType": "bytes32",
          "name": "documentHash",
          "type": "bytes32"
        },
        {
          "indexed": false,
          "internalType": "enum GovSpendingLedger.AuditResult",
          "name": "result",
          "type": "uint8"
        }
      ],
      "name": "AuditSubmitted",
      "type": "event"
    },
    {
      "anonymous": false,
      "inputs": [
        {
          "indexed": true,
          "internalType": "uint256",
          "name": "recordId",
          "type": "uint256"
        },
        {
          "indexed": true,
          "internalType": "address",
          "name": "submittedBy",
          "type": "address"
        },
        {
          "indexed": false,
          "internalType": "bytes32",
          "name": "documentHash",
          "type": "bytes32"
        }
      ],
      "name": "RecordSubmitted",
      "type": "event"
    },
    {
      "anonymous": false,
      "inputs": [
        {
          "indexed": true,
          "internalType": "bytes32",
          "name": "role",
          "type": "bytes32"
        },
        {
          "indexed": true,
          "internalType": "bytes32",
          "name": "previousAdminRole",
          "type": "bytes32"
        },
        {
          "indexed": true,
          "internalType": "bytes32",
          "name": "newAdminRole",
          "type": "bytes32"
        }
      ],
      "name": "RoleAdminChanged",
      "type": "event"
    },
    {
      "anonymous": false,
      "inputs": [
        {
          "indexed": true,
          "internalType": "bytes32",
          "name": "role",
          "type": "bytes32"
        },
        {
          "indexed": true,
          "internalType": "address",
          "name": "account",
          "type": "address"
        },
        {
          "indexed": true,
          "internalType": "address",
          "name": "sender",
          "type": "address"
        }
      ],
      "name": "RoleGranted",
      "type": "event"
    },
    {
      "anonymous": false,
      "inputs": [
        {
          "indexed": true,
          "internalType": "bytes32",
          "name": "role",
          "type": "bytes32"
        },
        {
          "indexed": true,
          "internalType": "address",
          "name": "account",
          "type": "address"
        },
        {
          "indexed": true,
          "internalType": "address",
          "name": "sender",
          "type": "address"
        }
      ],
      "name": "RoleRevoked",
      "type": "event"
    },
    {
      "inputs": [],
      "name": "AUDITOR_ROLE",
      "outputs": [
        {
          "internalType": "bytes32",
          "name": "",
          "type": "bytes32"
        }
      ],
      "stateMutability": "view",
      "type": "function"
    },
    {
      "inputs": [],
      "name": "CITIZEN_ROLE",
      "outputs": [
        {
          "internalType": "bytes32",
          "name": "",
          "type": "bytes32"
        }
      ],
      "stateMutability": "view",
      "type": "function"
    },
    {
      "inputs": [],
      "name": "DEFAULT_ADMIN_ROLE",
      "outputs": [
        {
          "internalType": "bytes32",
          "name": "",
          "type": "bytes32"
        }
      ],
      "stateMutability": "view",
      "type": "function"
    },
    {
      "inputs": [],
      "name": "GOV_AGENCY_ROLE",
      "outputs": [
        {
          "internalType": "bytes32",
          "name": "",
          "type": "bytes32"
        }
      ],
      "stateMutability": "view",
      "type": "function"
    },
    {
      "inputs": [
        {
          "internalType": "address",
          "name": "account",
          "type": "address"
        }
      ],
      "name": "addAuditor",
      "outputs": [],
      "stateMutability": "nonpayable",
      "type": "function"
    },
    {
      "inputs": [
        {
          "internalType": "address",
          "name": "account",
          "type": "address"
        }
      ],
      "name": "addGovAgency",
      "outputs": [],
      "stateMutability": "nonpayable",
      "type": "function"
    },
    {
      "inputs": [
        {
          "internalType": "uint256",
          "name": "",
          "type": "uint256"
        },
        {
          "internalType": "uint256",
          "name": "",
          "type": "uint256"
        }
      ],
      "name": "auditFindings",
      "outputs": [
        {
          "internalType": "uint256",
          "name": "recordId",
          "type": "uint256"
        },
        {
          "internalType": "bytes32",
          "name": "documentHash",
          "type": "bytes32"
        },
        {
          "internalType": "enum GovSpendingLedger.AuditResult",
          "name": "result",
          "type": "uint8"
        },
        {
          "internalType": "address",
          "name": "auditor",
          "type": "address"
        },
        {
          "internalType": "uint256",
          "name": "timestamp",
          "type": "uint256"
        }
      ],
      "stateMutability": "view",
      "type": "function"
    },
    {
      "inputs": [
        {
          "internalType": "uint256",
          "name": "recordId",
          "type": "uint256"
        }
      ],
      "name": "getAuditCount",
      "outputs": [
        {
          "internalType": "uint256",
          "name": "",
          "type": "uint256"
        }
      ],
      "stateMutability": "view",
      "type": "function"
    },
    {
      "inputs": [
        {
          "internalType": "uint256",
          "name": "recordId",
          "type": "uint256"
        }
      ],
      "name": "getAudits",
      "outputs": [
        {
          "internalType": "uint256[]",
          "name": "recordIds",
          "type": "uint256[]"
        },
        {
          "internalType": "bytes32[]",
          "name": "docHashes",
          "type": "bytes32[]"
        },
        {
          "internalType": "enum GovSpendingLedger.AuditResult[]",
          "name": "results",
          "type": "uint8[]"
        },
        {
          "internalType": "address[]",
          "name": "auditors",
          "type": "address[]"
        },
        {
          "internalType": "uint256[]",
          "name": "timestamps",
          "type": "uint256[]"
        }
      ],
      "stateMutability": "view",
      "type": "function"
    },
    {
      "inputs": [
        {
          "internalType": "uint256",
          "name": "recordId",
          "type": "uint256"
        }
      ],
      "name": "getRecordBasic",
      "outputs": [
        {
          "internalType": "uint256",
          "name": "",
          "type": "uint256"
        },
        {
          "internalType": "bytes32",
          "name": "",
          "type": "bytes32"
        },
        {
          "internalType": "string",
          "name": "",
          "type": "string"
        },
        {
          "internalType": "address",
          "name": "",
          "type": "address"
        },
        {
          "internalType": "uint256",
          "name": "",
          "type": "uint256"
        }
      ],
      "stateMutability": "view",
      "type": "function"
    },
    {
      "inputs": [
        {
          "internalType": "bytes32",
          "name": "role",
          "type": "bytes32"
        }
      ],
      "name": "getRoleAdmin",
      "outputs": [
        {
          "internalType": "bytes32",
          "name": "",
          "type": "bytes32"
        }
      ],
      "stateMutability": "view",
      "type": "function"
    },
    {
      "inputs": [],
      "name": "getSpendingCount",
      "outputs": [
        {
          "internalType": "uint256",
          "name": "",
          "type": "uint256"
        }
      ],
      "stateMutability": "view",
      "type": "function"
    },
    {
      "inputs": [
        {
          "internalType": "bytes32",
          "name": "role",
          "type": "bytes32"
        },
        {
          "internalType": "address",
          "name": "account",
          "type": "address"
        }
      ],
      "name": "grantRole",
      "outputs": [],
      "stateMutability": "nonpayable",
      "type": "function"
    },
    {
      "inputs": [
        {
          "internalType": "bytes32",
          "name": "role",
          "type": "bytes32"
        },
        {
          "internalType": "address",
          "name": "account",
          "type": "address"
        }
      ],
      "name": "hasRole",
      "outputs": [
        {
          "internalType": "bool",
          "name": "",
          "type": "bool"
        }
      ],
      "stateMutability": "view",
      "type": "function"
    },
    {
      "inputs": [],
      "name": "recordCount",
      "outputs": [
        {
          "internalType": "uint256",
          "name": "",
          "type": "uint256"
        }
      ],
      "stateMutability": "view",
      "type": "function"
    },
    {
      "inputs": [
        {
          "internalType": "bytes32",
          "name": "role",
          "type": "bytes32"
        },
        {
          "internalType": "address",
          "name": "callerConfirmation",
          "type": "address"
        }
      ],
      "name": "renounceRole",
      "outputs": [],
      "stateMutability": "nonpayable",
      "type": "function"
    },
    {
      "inputs": [
        {
          "internalType": "bytes32",
          "name": "role",
          "type": "bytes32"
        },
        {
          "internalType": "address",
          "name": "account",
          "type": "address"
        }
      ],
      "name": "revokeRole",
      "outputs": [],
      "stateMutability": "nonpayable",
      "type": "function"
    },
    {
      "inputs": [
        {
          "internalType": "uint256",
          "name": "",
          "type": "uint256"
        }
      ],
      "name": "spendingRecords",
      "outputs": [
        {
          "internalType": "uint256",
          "name": "recordId",
          "type": "uint256"
        },
        {
          "internalType": "bytes32",
          "name": "documentHash",
          "type": "bytes32"
        },
        {
          "internalType": "string",
          "name": "recordType",
          "type": "string"
        },
        {
          "internalType": "address",
          "name": "submittedBy",
          "type": "address"
        },
        {
          "internalType": "uint256",
          "name": "timestamp",
          "type": "uint256"
        }
      ],
      "stateMutability": "view",
      "type": "function"
    },
    {
      "inputs": [
        {
          "internalType": "uint256",
          "name": "recordId",
          "type": "uint256"
        },
        {
          "internalType": "bytes32",
          "name": "documentHash",
          "type": "bytes32"
        },
        {
          "internalType": "enum GovSpendingLedger.AuditResult",
          "name": "result",
          "type": "uint8"
        }
      ],
      "name": "submitAudit",
      "outputs": [],
      "stateMutability": "nonpayable",
      "type": "function"
    },
    {
      "inputs": [
        {
          "internalType": "bytes32",
          "name": "documentHash",
          "type": "bytes32"
        },
        {
          "internalType": "string",
          "name": "recordType",
          "type": "string"
        }
      ],
      "name": "submitSpendingRecord",
      "outputs": [],
      "stateMutability": "nonpayable",
      "type": "function"
    },
    {
      "inputs": [
        {
          "internalType": "bytes4",
          "name": "interfaceId",
          "type": "bytes4"
        }
      ],
      "name": "supportsInterface",
      "outputs": [
        {
          "internalType": "bool",
          "name": "",
          "type": "bool"
        }
      ],
      "stateMutability": "view",
      "type": "function"
    }
  ],
  "bytecode": "0x6080604052600060025534801561001557600080fd5b506100296000801b3361002f60201b60201c565b5061019e565b6000610041838361012c60201b60201c565b61012157600160008085815260200190815260200160002060000160008473ffffffffffffffffffffffffffffffffffffffff1673ffffffffffffffffffffffffffffffffffffffff16815260200190815260200160002060006101000a81548160ff0219169083151502179055506100be61019660201b60201c565b73ffffffffffffffffffffffffffffffffffffffff168273ffffffffffffffffffffffffffffffffffffffff16847f2f8788117e7eff1d82e926ec794901d17c78024a50270940304540a733656f0d60405160405180910390a460019050610126565b600090505b92915050565b600080600084815260200190815260200160002060000160008373ffffffffffffffffffffffffffffffffffffffff1673ffffffffffffffffffffffffffffffffffffffff16815260200190815260200160002060009054906101000a900460ff16905092915050565b600033905090565b612376806101ad6000396000f3fe608060405234801561001057600080fd5b50600436106101375760003560e01c80635ca26de1116100b8578063900407bc1161007c578063900407bc1461036c57806391d148541461038a578063a217fddf146103ba578063bac5d8f9146103d8578063d547741f1461040c578063e429cef11461042857610137565b80635ca26de114610294578063656a42be146102c857806366e1d6af146102e65780636e1d616e1461031a57806376e2f16a1461033857610137565b8063347c19cd116100ff578063347c19cd146101f257806336568abe146102225780634d320c311461023e5780634f369e3f1461025c5780635843296e1461027857610137565b806301ffc9a71461013c578063248a9ca31461016c5780632b9e1d701461019c5780632ebf8b63146101ba5780632f2ff15d146101d6575b600080fd5b61015660048036038101906101519190611550565b610444565b6040516101639190611598565b60405180910390f35b610186600480360381019061018191906115e9565b6104be565b6040516101939190611625565b60405180910390f35b6101a46104dd565b6040516101b19190611625565b60405180910390f35b6101d460048036038101906101cf919061169b565b610501565b005b6101f060048036038101906101eb919061174c565b6106f5565b005b61020c6004803603810190610207919061178c565b610717565b60405161021991906117c8565b60405180910390f35b61023c6004803603810190610237919061174c565b610787565b005b610246610802565b6040516102539190611625565b60405180910390f35b61027660048036038101906102719190611929565b610826565b005b610292600480360381019061028d9190611985565b610992565b005b6102ae60048036038101906102a991906119b2565b6109cd565b6040516102bf959493929190611a78565b60405180910390f35b6102d0610a4d565b6040516102dd91906117c8565b60405180910390f35b61030060048036038101906102fb919061178c565b610a57565b604051610311959493929190611dc3565b60405180910390f35b610322610ef7565b60405161032f9190611625565b60405180910390f35b610352600480360381019061034d919061178c565b610f1b565b604051610363959493929190611eb8565b60405180910390f35b610374611078565b60405161038191906117c8565b60405180910390f35b6103a4600480360381019061039f919061174c565b61107e565b6040516103b19190611598565b60405180910390f35b6103c26110e8565b6040516103cf9190611625565b60405180910390f35b6103f260048036038101906103ed919061178c565b6110ef565b604051610403959493929190611eb8565b60405180910390f35b6104266004803603810190610421919061174c565b6111cd565b005b610442600480360381019061043d9190611985565b6111ef565b005b60007f7965db0b000000000000000000000000000000000000000000000000000000007bffffffffffffffffffffffffffffffffffffffffffffffffffffffff1916827bffffffffffffffffffffffffffffffffffffffffffffffffffffffff191614806104b757506104b68261122a565b5b9050919050565b6000806000838152602001908152602001600020600101549050919050565b7f8f1426173eb922d2001706a308dabfa96e3c06475230fb5111184f70a4b5776d81565b7f59a1c48e5837ad7a7f3dcedcbe129bf3249ec4fbf651fd4f5e2600ead39fe2f561052b81611294565b60008411801561053d57506002548411155b61057c576040517f08c379a000000000000000000000000000000000000000000000000000000000815260040161057390611f5e565b60405180910390fd5b600360008581526020019081526020016000206040518060a001604052808681526020018581526020018460028111156105b9576105b86119f2565b5b81526020013373ffffffffffffffffffffffffffffffffffffffff168152602001428152509080600181540180825580915050600190039060005260206000209060040201600090919091909150600082015181600001556020820151816001015560408201518160020160006101000a81548160ff02191690836002811115610646576106456119f2565b5b021790555060608201518160020160016101000a81548173ffffffffffffffffffffffffffffffffffffffff021916908373ffffffffffffffffffffffffffffffffffffffff1602179055506080820151816003015550503373ffffffffffffffffffffffffffffffffffffffff16847f767a22557e298699103cac1a0225dad53bdef76110a6a5c01a0154a2854a271185856040516106e7929190611f7e565b60405180910390a350505050565b6106fe826104be565b61070781611294565b61071183836112a8565b50505050565b6000808211801561072a57506002548211155b610769576040517f08c379a000000000000000000000000000000000000000000000000000000000815260040161076090611f5e565b60405180910390fd5b60036000838152602001908152602001600020805490509050919050565b61078f611399565b73ffffffffffffffffffffffffffffffffffffffff168173ffffffffffffffffffffffffffffffffffffffff16146107f3576040517f6697b23200000000000000000000000000000000000000000000000000000000815260040160405180910390fd5b6107fd82826113a1565b505050565b7f94ac8bf7c2c0d570b676d8037eaa0516224e8bca85d85e9465db2088d225fcab81565b7f94ac8bf7c2c0d570b676d8037eaa0516224e8bca85d85e9465db2088d225fcab61085081611294565b6001600260008282546108639190611fd6565b925050819055506040518060a0016040528060025481526020018481526020018381526020013373ffffffffffffffffffffffffffffffffffffffff16815260200142815250600160006002548152602001908152602001600020600082015181600001556020820151816001015560408201518160020190816108e79190612216565b5060608201518160030160006101000a81548173ffffffffffffffffffffffffffffffffffffffff021916908373ffffffffffffffffffffffffffffffffffffffff160217905550608082015181600401559050503373ffffffffffffffffffffffffffffffffffffffff166002547fb47aefd0fcf9ea22919b53c3e42140e5fbcfed253f5aa6dc225cb4fa19152784856040516109859190611625565b60405180910390a3505050565b6000801b61099f81611294565b6109c97f94ac8bf7c2c0d570b676d8037eaa0516224e8bca85d85e9465db2088d225fcab836106f5565b5050565b600360205281600052604060002081815481106109e957600080fd5b9060005260206000209060040201600091509150508060000154908060010154908060020160009054906101000a900460ff16908060020160019054906101000a900473ffffffffffffffffffffffffffffffffffffffff16908060030154905085565b6000600254905090565b6060806060806060600086118015610a7157506002548611155b610ab0576040517f08c379a0000000000000000000000000000000000000000000000000000000008152600401610aa790611f5e565b60405180910390fd5b600060036000888152602001908152602001600020805480602002602001604051908101604052809291908181526020016000905b82821015610bc657838290600052602060002090600402016040518060a001604052908160008201548152602001600182015481526020016002820160009054906101000a900460ff166002811115610b4157610b406119f2565b5b6002811115610b5357610b526119f2565b5b81526020016002820160019054906101000a900473ffffffffffffffffffffffffffffffffffffffff1673ffffffffffffffffffffffffffffffffffffffff1673ffffffffffffffffffffffffffffffffffffffff16815260200160038201548152505081526020019060010190610ae5565b5050505090506000815190508067ffffffffffffffff811115610bec57610beb6117fe565b5b604051908082528060200260200182016040528015610c1a5781602001602082028036833780820191505090505b5096508067ffffffffffffffff811115610c3757610c366117fe565b5b604051908082528060200260200182016040528015610c655781602001602082028036833780820191505090505b5095508067ffffffffffffffff811115610c8257610c816117fe565b5b604051908082528060200260200182016040528015610cb05781602001602082028036833780820191505090505b5094508067ffffffffffffffff811115610ccd57610ccc6117fe565b5b604051908082528060200260200182016040528015610cfb5781602001602082028036833780820191505090505b5093508067ffffffffffffffff811115610d1857610d176117fe565b5b604051908082528060200260200182016040528015610d465781602001602082028036833780820191505090505b50925060005b81811015610eeb57828181518110610d6757610d666122e8565b5b602002602001015160000151888281518110610d8657610d856122e8565b5b602002602001018181525050828181518110610da557610da46122e8565b5b602002602001015160200151878281518110610dc457610dc36122e8565b5b602002602001018181525050828181518110610de357610de26122e8565b5b602002602001015160400151868281518110610e0257610e016122e8565b5b60200260200101906002811115610e1c57610e1b6119f2565b5b90816002811115610e3057610e2f6119f2565b5b81525050828181518110610e4757610e466122e8565b5b602002602001015160600151858281518110610e6657610e656122e8565b5b602002602001019073ffffffffffffffffffffffffffffffffffffffff16908173ffffffffffffffffffffffffffffffffffffffff1681525050828181518110610eb357610eb26122e8565b5b602002602001015160800151848281518110610ed257610ed16122e8565b5b6020026020010181815250508080600101915050610d4c565b50505091939590929450565b7f59a1c48e5837ad7a7f3dcedcbe129bf3249ec4fbf651fd4f5e2600ead39fe2f581565b60008060606000806000600160008881526020019081526020016000206040518060a00160405290816000820154815260200160018201548152602001600282018054610f6790612039565b80601f0160208091040260200160405190810160405280929190818152602001828054610f9390612039565b8015610fe05780601f10610fb557610100808354040283529160200191610fe0565b820191906000526020600020905b815481529060010190602001808311610fc357829003601f168201915b505050505081526020016003820160009054906101000a900473ffffffffffffffffffffffffffffffffffffffff1673ffffffffffffffffffffffffffffffffffffffff1673ffffffffffffffffffffffffffffffffffffffff168152602001600482015481525050905080600001518160200151826040015183606001518460800151955095509550955095505091939590929450565b60025481565b600080600084815260200190815260200160002060000160008373ffffffffffffffffffffffffffffffffffffffff1673ffffffffffffffffffffffffffffffffffffffff16815260200190815260200160002060009054906101000a900460ff16905092915050565b6000801b81565b600160205280600052604060002060009150905080600001549080600101549080600201805461111e90612039565b80601f016020809104026020016040519081016040528092919081815260200182805461114a90612039565b80156111975780601f1061116c57610100808354040283529160200191611197565b820191906000526020600020905b81548152906001019060200180831161117a57829003601f168201915b5050505050908060030160009054906101000a900473ffffffffffffffffffffffffffffffffffffffff16908060040154905085565b6111d6826104be565b6111df81611294565b6111e983836113a1565b50505050565b6000801b6111fc81611294565b6112267f59a1c48e5837ad7a7f3dcedcbe129bf3249ec4fbf651fd4f5e2600ead39fe2f5836106f5565b5050565b60007f01ffc9a7000000000000000000000000000000000000000000000000000000007bffffffffffffffffffffffffffffffffffffffffffffffffffffffff1916827bffffffffffffffffffffffffffffffffffffffffffffffffffffffff1916149050919050565b6112a5816112a0611399565b611493565b50565b60006112b4838361107e565b61138e57600160008085815260200190815260200160002060000160008473ffffffffffffffffffffffffffffffffffffffff1673ffffffffffffffffffffffffffffffffffffffff16815260200190815260200160002060006101000a81548160ff02191690831515021790555061132b611399565b73ffffffffffffffffffffffffffffffffffffffff168273ffffffffffffffffffffffffffffffffffffffff16847f2f8788117e7eff1d82e926ec794901d17c78024a50270940304540a733656f0d60405160405180910390a460019050611393565b600090505b92915050565b600033905090565b60006113ad838361107e565b1561148857600080600085815260200190815260200160002060000160008473ffffffffffffffffffffffffffffffffffffffff1673ffffffffffffffffffffffffffffffffffffffff16815260200190815260200160002060006101000a81548160ff021916908315150217905550611425611399565b73ffffffffffffffffffffffffffffffffffffffff168273ffffffffffffffffffffffffffffffffffffffff16847ff6391f5c32d9c69d2a47ea670b442974b53935d1edc7fd64eb21e047a839171b60405160405180910390a46001905061148d565b600090505b92915050565b61149d828261107e565b6114e05780826040517fe2517d3f0000000000000000000000000000000000000000000000000000000081526004016114d7929190612317565b60405180910390fd5b5050565b6000604051905090565b600080fd5b600080fd5b60007fffffffff0000000000000000000000000000000000000000000000000000000082169050919050565b61152d816114f8565b811461153857600080fd5b50565b60008135905061154a81611524565b92915050565b600060208284031215611566576115656114ee565b5b60006115748482850161153b565b91505092915050565b60008115159050919050565b6115928161157d565b82525050565b60006020820190506115ad6000830184611589565b92915050565b6000819050919050565b6115c6816115b3565b81146115d157600080fd5b50565b6000813590506115e3816115bd565b92915050565b6000602082840312156115ff576115fe6114ee565b5b600061160d848285016115d4565b91505092915050565b61161f816115b3565b82525050565b600060208201905061163a6000830184611616565b92915050565b6000819050919050565b61165381611640565b811461165e57600080fd5b50565b6000813590506116708161164a565b92915050565b6003811061168357600080fd5b50565b60008135905061169581611676565b92915050565b6000806000606084860312156116b4576116b36114ee565b5b60006116c286828701611661565b93505060206116d3868287016115d4565b92505060406116e486828701611686565b9150509250925092565b600073ffffffffffffffffffffffffffffffffffffffff82169050919050565b6000611719826116ee565b9050919050565b6117298161170e565b811461173457600080fd5b50565b60008135905061174681611720565b92915050565b60008060408385031215611763576117626114ee565b5b6000611771858286016115d4565b925050602061178285828601611737565b9150509250929050565b6000602082840312156117a2576117a16114ee565b5b60006117b084828501611661565b91505092915050565b6117c281611640565b82525050565b60006020820190506117dd60008301846117b9565b92915050565b600080fd5b600080fd5b6000601f19601f8301169050919050565b7f4e487b7100000000000000000000000000000000000000000000000000000000600052604160045260246000fd5b611836826117ed565b810181811067ffffffffffffffff82111715611855576118546117fe565b5b80604052505050565b60006118686114e4565b9050611874828261182d565b919050565b600067ffffffffffffffff821115611894576118936117fe565b5b61189d826117ed565b9050602081019050919050565b82818337600083830152505050565b60006118cc6118c784611879565b61185e565b9050828152602081018484840111156118e8576118e76117e8565b5b6118f38482856118aa565b509392505050565b600082601f8301126119105761190f6117e3565b5b81356119208482602086016118b9565b91505092915050565b600080604083850312156119405761193f6114ee565b5b600061194e858286016115d4565b925050602083013567ffffffffffffffff81111561196f5761196e6114f3565b5b61197b858286016118fb565b9150509250929050565b60006020828403121561199b5761199a6114ee565b5b60006119a984828501611737565b91505092915050565b600080604083850312156119c9576119c86114ee565b5b60006119d785828601611661565b92505060206119e885828601611661565b9150509250929050565b7f4e487b7100000000000000000000000000000000000000000000000000000000600052602160045260246000fd5b60038110611a3257611a316119f2565b5b50565b6000819050611a4382611a21565b919050565b6000611a5382611a35565b9050919050565b611a6381611a48565b82525050565b611a728161170e565b82525050565b600060a082019050611a8d60008301886117b9565b611a9a6020830187611616565b611aa76040830186611a5a565b611ab46060830185611a69565b611ac160808301846117b9565b9695505050505050565b600081519050919050565b600082825260208201905092915050565b6000819050602082019050919050565b611b0081611640565b82525050565b6000611b128383611af7565b60208301905092915050565b6000602082019050919050565b6000611b3682611acb565b611b408185611ad6565b9350611b4b83611ae7565b8060005b83811015611b7c578151611b638882611b06565b9750611b6e83611b1e565b925050600181019050611b4f565b5085935050505092915050565b600081519050919050565b600082825260208201905092915050565b6000819050602082019050919050565b611bbe816115b3565b82525050565b6000611bd08383611bb5565b60208301905092915050565b6000602082019050919050565b6000611bf482611b89565b611bfe8185611b94565b9350611c0983611ba5565b8060005b83811015611c3a578151611c218882611bc4565b9750611c2c83611bdc565b925050600181019050611c0d565b5085935050505092915050565b600081519050919050565b600082825260208201905092915050565b6000819050602082019050919050565b611c7c81611a48565b82525050565b6000611c8e8383611c73565b60208301905092915050565b6000602082019050919050565b6000611cb282611c47565b611cbc8185611c52565b9350611cc783611c63565b8060005b83811015611cf8578151611cdf8882611c82565b9750611cea83611c9a565b925050600181019050611ccb565b5085935050505092915050565b600081519050919050565b600082825260208201905092915050565b6000819050602082019050919050565b611d3a8161170e565b82525050565b6000611d4c8383611d31565b60208301905092915050565b6000602082019050919050565b6000611d7082611d05565b611d7a8185611d10565b9350611d8583611d21565b8060005b83811015611db6578151611d9d8882611d40565b9750611da883611d58565b925050600181019050611d89565b5085935050505092915050565b600060a0820190508181036000830152611ddd8188611b2b565b90508181036020830152611df18187611be9565b90508181036040830152611e058186611ca7565b90508181036060830152611e198185611d65565b90508181036080830152611e2d8184611b2b565b90509695505050505050565b600081519050919050565b600082825260208201905092915050565b60005b83811015611e73578082015181840152602081019050611e58565b60008484015250505050565b6000611e8a82611e39565b611e948185611e44565b9350611ea4818560208601611e55565b611ead816117ed565b840191505092915050565b600060a082019050611ecd60008301886117b9565b611eda6020830187611616565b8181036040830152611eec8186611e7f565b9050611efb6060830185611a69565b611f0860808301846117b9565b9695505050505050565b7f5265636f726420646f6573206e6f742065786973740000000000000000000000600082015250565b6000611f48601583611e44565b9150611f5382611f12565b602082019050919050565b60006020820190508181036000830152611f7781611f3b565b9050919050565b6000604082019050611f936000830185611616565b611fa06020830184611a5a565b9392505050565b7f4e487b7100000000000000000000000000000000000000000000000000000000600052601160045260246000fd5b6000611fe182611640565b9150611fec83611640565b925082820190508082111561200457612003611fa7565b5b92915050565b7f4e487b7100000000000000000000000000000000000000000000000000000000600052602260045260246000fd5b6000600282049050600182168061205157607f821691505b6020821081036120645761206361200a565b5b50919050565b60008190508160005260206000209050919050565b60006020601f8301049050919050565b600082821b905092915050565b6000600883026120cc7fffffffffffffffffffffffffffffffffffffffffffffffffffffffffffffffff8261208f565b6120d6868361208f565b95508019841693508086168417925050509392505050565b6000819050919050565b600061211361210e61210984611640565b6120ee565b611640565b9050919050565b6000819050919050565b61212d836120f8565b6121416121398261211a565b84845461209c565b825550505050565b600090565b612156612149565b612161818484612124565b505050565b5b818110156121855761217a60008261214e565b600181019050612167565b5050565b601f8211156121ca5761219b8161206a565b6121a48461207f565b810160208510156121b3578190505b6121c76121bf8561207f565b830182612166565b50505b505050565b600082821c905092915050565b60006121ed600019846008026121cf565b1980831691505092915050565b600061220683836121dc565b9150826002028217905092915050565b61221f82611e39565b67ffffffffffffffff811115612238576122376117fe565b5b6122428254612039565b61224d828285612189565b600060209050601f831160018114612280576000841561226e578287015190505b61227885826121fa565b8655506122e0565b601f19841661228e8661206a565b60005b828110156122b657848901518255600182019150602085019450602081019050612291565b868310156122d357848901516122cf601f8916826121dc565b8355505b6001600288020188555050505b505050505050565b7f4e487b7100000000000000000000000000000000000000000000000000000000600052603260045260246000fd5b600060408201905061232c6000830185611a69565b6123396020830184611616565b939250505056fea2646970667358221220efdf95952b165481489d83a498b3a0344aa39402c947e84a30c8d665ff30c21c64736f6c634300081c0033",
  "linkReferences": {},
  "deployedLinkReferences": {}
}