{
  "_format": "hh-sol-artifact-1",
  "contractName": "GovSpendingLedger",
  "sourceName": "contracts/GovSpendingLedger.sol",
  "abi": [
    {
      "inputs": [],
      "stateMutability": "nonpayable",
      "type": "constructor"
    },
    {
      "inputs": [],
      "name": "AccessControlBadConfirmation",
      "type": "error"
    },
    {
      "inputs": [
        {
          "internalType": "address",
          "name": "account",
          "type": "address"
        },
        {
          "internalType": "bytes32",
          "name": "neededRole",
          "type": "bytes32"
        }
      ],
      "name": "AccessControlUnauthorizedAccount",
      "type": "error"
    },
    {
      "anonymous": false,
      "inputs": [
        {
          "indexed": true,
          "internalType": "uint256",
          "name": "recordId",
          "type": "uint256"
        },
        {
          "indexed": true,
          "internalType": "address",
          "name": "auditor",
          "type": "address"
        },
        {
          "indexed": false,
          "internalType": "string",
          "name": "notes",
          "type": "string"
        }
      ],
      "name": "AuditSubmitted",
      "type": "event"
    },
    {
      "anonymous": false,
      "inputs": [
        {
          "indexed": true,
          "internalType": "uint256",
          "name": "recordId",
          "type": "uint256"
        },
        {
          "indexed": true,
          "internalType": "address",
          "name": "submittedBy",
          "type": "address"
        },
        {
          "indexed": false,
          "internalType": "bytes32",
          "name": "documentHash",
          "type": "bytes32"
        }
      ],
      "name": "RecordSubmitted",
      "type": "event"
    },
    {
      "anonymous": false,
      "inputs": [
        {
          "indexed": true,
          "internalType": "bytes32",
          "name": "role",
          "type": "bytes32"
        },
        {
          "indexed": true,
          "internalType": "bytes32",
          "name": "previousAdminRole",
          "type": "bytes32"
        },
        {
          "indexed": true,
          "internalType": "bytes32",
          "name": "newAdminRole",
          "type": "bytes32"
        }
      ],
      "name": "RoleAdminChanged",
      "type": "event"
    },
    {
      "anonymous": false,
      "inputs": [
        {
          "indexed": true,
          "internalType": "bytes32",
          "name": "role",
          "type": "bytes32"
        },
        {
          "indexed": true,
          "internalType": "address",
          "name": "account",
          "type": "address"
        },
        {
          "indexed": true,
          "internalType": "address",
          "name": "sender",
          "type": "address"
        }
      ],
      "name": "RoleGranted",
      "type": "event"
    },
    {
      "anonymous": false,
      "inputs": [
        {
          "indexed": true,
          "internalType": "bytes32",
          "name": "role",
          "type": "bytes32"
        },
        {
          "indexed": true,
          "internalType": "address",
          "name": "account",
          "type": "address"
        },
        {
          "indexed": true,
          "internalType": "address",
          "name": "sender",
          "type": "address"
        }
      ],
      "name": "RoleRevoked",
      "type": "event"
    },
    {
      "inputs": [],
      "name": "AUDITOR_ROLE",
      "outputs": [
        {
          "internalType": "bytes32",
          "name": "",
          "type": "bytes32"
        }
      ],
      "stateMutability": "view",
      "type": "function"
    },
    {
      "inputs": [],
      "name": "CITIZEN_ROLE",
      "outputs": [
        {
          "internalType": "bytes32",
          "name": "",
          "type": "bytes32"
        }
      ],
      "stateMutability": "view",
      "type": "function"
    },
    {
      "inputs": [],
      "name": "DEFAULT_ADMIN_ROLE",
      "outputs": [
        {
          "internalType": "bytes32",
          "name": "",
          "type": "bytes32"
        }
      ],
      "stateMutability": "view",
      "type": "function"
    },
    {
      "inputs": [],
      "name": "GOV_AGENCY_ROLE",
      "outputs": [
        {
          "internalType": "bytes32",
          "name": "",
          "type": "bytes32"
        }
      ],
      "stateMutability": "view",
      "type": "function"
    },
    {
      "inputs": [
        {
          "internalType": "address",
          "name": "account",
          "type": "address"
        }
      ],
      "name": "addGovAgency",
      "outputs": [],
      "stateMutability": "nonpayable",
      "type": "function"
    },
    {
      "inputs": [
        {
          "internalType": "uint256",
          "name": "",
          "type": "uint256"
        },
        {
          "internalType": "uint256",
          "name": "",
          "type": "uint256"
        }
      ],
      "name": "auditFindings",
      "outputs": [
        {
          "internalType": "uint256",
          "name": "recordId",
          "type": "uint256"
        },
        {
          "internalType": "string",
          "name": "notes",
          "type": "string"
        },
        {
          "internalType": "address",
          "name": "auditor",
          "type": "address"
        },
        {
          "internalType": "uint256",
          "name": "timestamp",
          "type": "uint256"
        }
      ],
      "stateMutability": "view",
      "type": "function"
    },
    {
      "inputs": [
        {
          "internalType": "uint256",
          "name": "recordId",
          "type": "uint256"
        }
      ],
      "name": "getAuditCount",
      "outputs": [
        {
          "internalType": "uint256",
          "name": "",
          "type": "uint256"
        }
      ],
      "stateMutability": "view",
      "type": "function"
    },
    {
      "inputs": [
        {
          "internalType": "uint256",
          "name": "recordId",
          "type": "uint256"
        }
      ],
      "name": "getAudits",
      "outputs": [
        {
          "components": [
            {
              "internalType": "uint256",
              "name": "recordId",
              "type": "uint256"
            },
            {
              "internalType": "string",
              "name": "notes",
              "type": "string"
            },
            {
              "internalType": "address",
              "name": "auditor",
              "type": "address"
            },
            {
              "internalType": "uint256",
              "name": "timestamp",
              "type": "uint256"
            }
          ],
          "internalType": "struct GovSpendingLedger.AuditFinding[]",
          "name": "",
          "type": "tuple[]"
        }
      ],
      "stateMutability": "view",
      "type": "function"
    },
    {
      "inputs": [
        {
          "internalType": "uint256",
          "name": "recordId",
          "type": "uint256"
        }
      ],
      "name": "getRecordBasic",
      "outputs": [
        {
          "internalType": "uint256",
          "name": "",
          "type": "uint256"
        },
        {
          "internalType": "bytes32",
          "name": "",
          "type": "bytes32"
        },
        {
          "internalType": "string",
          "name": "",
          "type": "string"
        },
        {
          "internalType": "uint256",
          "name": "",
          "type": "uint256"
        },
        {
          "internalType": "address",
          "name": "",
          "type": "address"
        },
        {
          "internalType": "uint256",
          "name": "",
          "type": "uint256"
        }
      ],
      "stateMutability": "view",
      "type": "function"
    },
    {
      "inputs": [
        {
          "internalType": "bytes32",
          "name": "role",
          "type": "bytes32"
        }
      ],
      "name": "getRoleAdmin",
      "outputs": [
        {
          "internalType": "bytes32",
          "name": "",
          "type": "bytes32"
        }
      ],
      "stateMutability": "view",
      "type": "function"
    },
    {
      "inputs": [],
      "name": "getSpendingCount",
      "outputs": [
        {
          "internalType": "uint256",
          "name": "",
          "type": "uint256"
        }
      ],
      "stateMutability": "view",
      "type": "function"
    },
    {
      "inputs": [
        {
          "internalType": "bytes32",
          "name": "role",
          "type": "bytes32"
        },
        {
          "internalType": "address",
          "name": "account",
          "type": "address"
        }
      ],
      "name": "grantRole",
      "outputs": [],
      "stateMutability": "nonpayable",
      "type": "function"
    },
    {
      "inputs": [
        {
          "internalType": "bytes32",
          "name": "role",
          "type": "bytes32"
        },
        {
          "internalType": "address",
          "name": "account",
          "type": "address"
        }
      ],
      "name": "hasRole",
      "outputs": [
        {
          "internalType": "bool",
          "name": "",
          "type": "bool"
        }
      ],
      "stateMutability": "view",
      "type": "function"
    },
    {
      "inputs": [],
      "name": "recordCount",
      "outputs": [
        {
          "internalType": "uint256",
          "name": "",
          "type": "uint256"
        }
      ],
      "stateMutability": "view",
      "type": "function"
    },
    {
      "inputs": [
        {
          "internalType": "bytes32",
          "name": "role",
          "type": "bytes32"
        },
        {
          "internalType": "address",
          "name": "callerConfirmation",
          "type": "address"
        }
      ],
      "name": "renounceRole",
      "outputs": [],
      "stateMutability": "nonpayable",
      "type": "function"
    },
    {
      "inputs": [
        {
          "internalType": "bytes32",
          "name": "role",
          "type": "bytes32"
        },
        {
          "internalType": "address",
          "name": "account",
          "type": "address"
        }
      ],
      "name": "revokeRole",
      "outputs": [],
      "stateMutability": "nonpayable",
      "type": "function"
    },
    {
      "inputs": [
        {
          "internalType": "uint256",
          "name": "",
          "type": "uint256"
        }
      ],
      "name": "spendingRecords",
      "outputs": [
        {
          "internalType": "uint256",
          "name": "recordId",
          "type": "uint256"
        },
        {
          "internalType": "bytes32",
          "name": "documentHash",
          "type": "bytes32"
        },
        {
          "internalType": "string",
          "name": "recordType",
          "type": "string"
        },
        {
          "internalType": "uint256",
          "name": "amount",
          "type": "uint256"
        },
        {
          "internalType": "address",
          "name": "submittedBy",
          "type": "address"
        },
        {
          "internalType": "uint256",
          "name": "timestamp",
          "type": "uint256"
        }
      ],
      "stateMutability": "view",
      "type": "function"
    },
    {
      "inputs": [
        {
          "internalType": "uint256",
          "name": "recordId",
          "type": "uint256"
        },
        {
          "internalType": "string",
          "name": "notes",
          "type": "string"
        }
      ],
      "name": "submitAudit",
      "outputs": [],
      "stateMutability": "nonpayable",
      "type": "function"
    },
    {
      "inputs": [
        {
          "internalType": "bytes32",
          "name": "documentHash",
          "type": "bytes32"
        },
        {
          "internalType": "string",
          "name": "recordType",
          "type": "string"
        },
        {
          "internalType": "uint256",
          "name": "amount",
          "type": "uint256"
        }
      ],
      "name": "submitSpendingRecord",
      "outputs": [],
      "stateMutability": "nonpayable",
      "type": "function"
    },
    {
      "inputs": [
        {
          "internalType": "bytes4",
          "name": "interfaceId",
          "type": "bytes4"
        }
      ],
      "name": "supportsInterface",
      "outputs": [
        {
          "internalType": "bool",
          "name": "",
          "type": "bool"
        }
      ],
      "stateMutability": "view",
      "type": "function"
    }
  ],
  "bytecode": "0x6080604052600060025534801561001557600080fd5b506100296000801b3361002f60201b60201c565b5061019e565b6000610041838361012c60201b60201c565b61012157600160008085815260200190815260200160002060000160008473ffffffffffffffffffffffffffffffffffffffff1673ffffffffffffffffffffffffffffffffffffffff16815260200190815260200160002060006101000a81548160ff0219169083151502179055506100be61019660201b60201c565b73ffffffffffffffffffffffffffffffffffffffff168273ffffffffffffffffffffffffffffffffffffffff16847f2f8788117e7eff1d82e926ec794901d17c78024a50270940304540a733656f0d60405160405180910390a460019050610126565b600090505b92915050565b600080600084815260200190815260200160002060000160008373ffffffffffffffffffffffffffffffffffffffff1673ffffffffffffffffffffffffffffffffffffffff16815260200190815260200160002060009054906101000a900460ff16905092915050565b600033905090565b611e21806101ad6000396000f3fe608060405234801561001057600080fd5b506004361061012c5760003560e01c8063656a42be116100ad578063900407bc11610071578063900407bc1461035d57806391d148541461037b578063a217fddf146103ab578063bac5d8f9146103c9578063d547741f146103fe5761012c565b8063656a42be146102a057806366cf3930146102be57806366e1d6af146102da5780636e1d616e1461030a57806376e2f16a146103285761012c565b806336568abe116100f457806336568abe146101fb578063487819db146102175780634d320c31146102335780635843296e146102515780635ca26de11461026d5761012c565b806301ffc9a714610131578063248a9ca3146101615780632b9e1d70146101915780632f2ff15d146101af578063347c19cd146101cb575b600080fd5b61014b60048036038101906101469190611269565b61041a565b60405161015891906112b1565b60405180910390f35b61017b60048036038101906101769190611302565b610494565b604051610188919061133e565b60405180910390f35b6101996104b3565b6040516101a6919061133e565b60405180910390f35b6101c960048036038101906101c491906113b7565b6104d7565b005b6101e560048036038101906101e0919061142d565b6104f9565b6040516101f29190611469565b60405180910390f35b610215600480360381019061021091906113b7565b610569565b005b610231600480360381019061022c91906115ca565b6105e4565b005b61023b610761565b604051610248919061133e565b60405180910390f35b61026b60048036038101906102669190611639565b610785565b005b61028760048036038101906102829190611666565b6107c0565b6040516102979493929190611734565b60405180910390f35b6102a86108b5565b6040516102b59190611469565b60405180910390f35b6102d860048036038101906102d39190611780565b6108bf565b005b6102f460048036038101906102ef919061142d565b610a74565b6040516103019190611969565b60405180910390f35b610312610c33565b60405161031f919061133e565b60405180910390f35b610342600480360381019061033d919061142d565b610c57565b6040516103549695949392919061198b565b60405180910390f35b610365610dc6565b6040516103729190611469565b60405180910390f35b610395600480360381019061039091906113b7565b610dcc565b6040516103a291906112b1565b60405180910390f35b6103b3610e36565b6040516103c0919061133e565b60405180910390f35b6103e360048036038101906103de919061142d565b610e3d565b6040516103f59695949392919061198b565b60405180910390f35b610418600480360381019061041391906113b7565b610f21565b005b60007f7965db0b000000000000000000000000000000000000000000000000000000007bffffffffffffffffffffffffffffffffffffffffffffffffffffffff1916827bffffffffffffffffffffffffffffffffffffffffffffffffffffffff1916148061048d575061048c82610f43565b5b9050919050565b6000806000838152602001908152602001600020600101549050919050565b7f8f1426173eb922d2001706a308dabfa96e3c06475230fb5111184f70a4b5776d81565b6104e082610494565b6104e981610fad565b6104f38383610fc1565b50505050565b6000808211801561050c57506002548211155b61054b576040517f08c379a000000000000000000000000000000000000000000000000000000000815260040161054290611a3f565b60405180910390fd5b60036000838152602001908152602001600020805490509050919050565b6105716110b2565b73ffffffffffffffffffffffffffffffffffffffff168173ffffffffffffffffffffffffffffffffffffffff16146105d5576040517f6697b23200000000000000000000000000000000000000000000000000000000815260040160405180910390fd5b6105df82826110ba565b505050565b7f94ac8bf7c2c0d570b676d8037eaa0516224e8bca85d85e9465db2088d225fcab61060e81610fad565b6001600260008282546106219190611a8e565b925050819055506040518060c0016040528060025481526020018581526020018481526020018381526020013373ffffffffffffffffffffffffffffffffffffffff16815260200142815250600160006002548152602001908152602001600020600082015181600001556020820151816001015560408201518160020190816106ab9190611cce565b506060820151816003015560808201518160040160006101000a81548173ffffffffffffffffffffffffffffffffffffffff021916908373ffffffffffffffffffffffffffffffffffffffff16021790555060a082015181600501559050503373ffffffffffffffffffffffffffffffffffffffff166002547fb47aefd0fcf9ea22919b53c3e42140e5fbcfed253f5aa6dc225cb4fa1915278486604051610753919061133e565b60405180910390a350505050565b7f94ac8bf7c2c0d570b676d8037eaa0516224e8bca85d85e9465db2088d225fcab81565b6000801b61079281610fad565b6107bc7f94ac8bf7c2c0d570b676d8037eaa0516224e8bca85d85e9465db2088d225fcab836104d7565b5050565b600360205281600052604060002081815481106107dc57600080fd5b90600052602060002090600402016000915091505080600001549080600101805461080690611af1565b80601f016020809104026020016040519081016040528092919081815260200182805461083290611af1565b801561087f5780601f106108545761010080835404028352916020019161087f565b820191906000526020600020905b81548152906001019060200180831161086257829003601f168201915b5050505050908060020160009054906101000a900473ffffffffffffffffffffffffffffffffffffffff16908060030154905084565b6000600254905090565b7f59a1c48e5837ad7a7f3dcedcbe129bf3249ec4fbf651fd4f5e2600ead39fe2f56108e981610fad565b6000831180156108fb57506002548311155b61093a576040517f08c379a000000000000000000000000000000000000000000000000000000000815260040161093190611a3f565b60405180910390fd5b6003600084815260200190815260200160002060405180608001604052808581526020018481526020013373ffffffffffffffffffffffffffffffffffffffff1681526020014281525090806001815401808255809150506001900390600052602060002090600402016000909190919091506000820151816000015560208201518160010190816109cc9190611cce565b5060408201518160020160006101000a81548173ffffffffffffffffffffffffffffffffffffffff021916908373ffffffffffffffffffffffffffffffffffffffff1602179055506060820151816003015550503373ffffffffffffffffffffffffffffffffffffffff16837fae05e28e072a893738dd5e5fe7b7de2434bbf70c0da8be431ca7f522a583dee484604051610a679190611da0565b60405180910390a3505050565b6060600082118015610a8857506002548211155b610ac7576040517f08c379a0000000000000000000000000000000000000000000000000000000008152600401610abe90611a3f565b60405180910390fd5b60036000838152602001908152602001600020805480602002602001604051908101604052809291908181526020016000905b82821015610c28578382906000526020600020906004020160405180608001604052908160008201548152602001600182018054610b3790611af1565b80601f0160208091040260200160405190810160405280929190818152602001828054610b6390611af1565b8015610bb05780601f10610b8557610100808354040283529160200191610bb0565b820191906000526020600020905b815481529060010190602001808311610b9357829003601f168201915b505050505081526020016002820160009054906101000a900473ffffffffffffffffffffffffffffffffffffffff1673ffffffffffffffffffffffffffffffffffffffff1673ffffffffffffffffffffffffffffffffffffffff16815260200160038201548152505081526020019060010190610afa565b505050509050919050565b7f59a1c48e5837ad7a7f3dcedcbe129bf3249ec4fbf651fd4f5e2600ead39fe2f581565b6000806060600080600080600160008981526020019081526020016000206040518060c00160405290816000820154815260200160018201548152602001600282018054610ca490611af1565b80601f0160208091040260200160405190810160405280929190818152602001828054610cd090611af1565b8015610d1d5780601f10610cf257610100808354040283529160200191610d1d565b820191906000526020600020905b815481529060010190602001808311610d0057829003601f168201915b50505050508152602001600382015481526020016004820160009054906101000a900473ffffffffffffffffffffffffffffffffffffffff1673ffffffffffffffffffffffffffffffffffffffff1673ffffffffffffffffffffffffffffffffffffffff1681526020016005820154815250509050806000015181602001518260400151836060015184608001518560a001519650965096509650965096505091939550919395565b60025481565b600080600084815260200190815260200160002060000160008373ffffffffffffffffffffffffffffffffffffffff1673ffffffffffffffffffffffffffffffffffffffff16815260200190815260200160002060009054906101000a900460ff16905092915050565b6000801b81565b6001602052806000526040600020600091509050806000015490806001015490806002018054610e6c90611af1565b80601f0160208091040260200160405190810160405280929190818152602001828054610e9890611af1565b8015610ee55780601f10610eba57610100808354040283529160200191610ee5565b820191906000526020600020905b815481529060010190602001808311610ec857829003601f168201915b5050505050908060030154908060040160009054906101000a900473ffffffffffffffffffffffffffffffffffffffff16908060050154905086565b610f2a82610494565b610f3381610fad565b610f3d83836110ba565b50505050565b60007f01ffc9a7000000000000000000000000000000000000000000000000000000007bffffffffffffffffffffffffffffffffffffffffffffffffffffffff1916827bffffffffffffffffffffffffffffffffffffffffffffffffffffffff1916149050919050565b610fbe81610fb96110b2565b6111ac565b50565b6000610fcd8383610dcc565b6110a757600160008085815260200190815260200160002060000160008473ffffffffffffffffffffffffffffffffffffffff1673ffffffffffffffffffffffffffffffffffffffff16815260200190815260200160002060006101000a81548160ff0219169083151502179055506110446110b2565b73ffffffffffffffffffffffffffffffffffffffff168273ffffffffffffffffffffffffffffffffffffffff16847f2f8788117e7eff1d82e926ec794901d17c78024a50270940304540a733656f0d60405160405180910390a4600190506110ac565b600090505b92915050565b600033905090565b60006110c68383610dcc565b156111a157600080600085815260200190815260200160002060000160008473ffffffffffffffffffffffffffffffffffffffff1673ffffffffffffffffffffffffffffffffffffffff16815260200190815260200160002060006101000a81548160ff02191690831515021790555061113e6110b2565b73ffffffffffffffffffffffffffffffffffffffff168273ffffffffffffffffffffffffffffffffffffffff16847ff6391f5c32d9c69d2a47ea670b442974b53935d1edc7fd64eb21e047a839171b60405160405180910390a4600190506111a6565b600090505b92915050565b6111b68282610dcc565b6111f95780826040517fe2517d3f0000000000000000000000000000000000000000000000000000000081526004016111f0929190611dc2565b60405180910390fd5b5050565b6000604051905090565b600080fd5b600080fd5b60007fffffffff0000000000000000000000000000000000000000000000000000000082169050919050565b61124681611211565b811461125157600080fd5b50565b6000813590506112638161123d565b92915050565b60006020828403121561127f5761127e611207565b5b600061128d84828501611254565b91505092915050565b60008115159050919050565b6112ab81611296565b82525050565b60006020820190506112c660008301846112a2565b92915050565b6000819050919050565b6112df816112cc565b81146112ea57600080fd5b50565b6000813590506112fc816112d6565b92915050565b60006020828403121561131857611317611207565b5b6000611326848285016112ed565b91505092915050565b611338816112cc565b82525050565b6000602082019050611353600083018461132f565b92915050565b600073ffffffffffffffffffffffffffffffffffffffff82169050919050565b600061138482611359565b9050919050565b61139481611379565b811461139f57600080fd5b50565b6000813590506113b18161138b565b92915050565b600080604083850312156113ce576113cd611207565b5b60006113dc858286016112ed565b92505060206113ed858286016113a2565b9150509250929050565b6000819050919050565b61140a816113f7565b811461141557600080fd5b50565b60008135905061142781611401565b92915050565b60006020828403121561144357611442611207565b5b600061145184828501611418565b91505092915050565b611463816113f7565b82525050565b600060208201905061147e600083018461145a565b92915050565b600080fd5b600080fd5b6000601f19601f8301169050919050565b7f4e487b7100000000000000000000000000000000000000000000000000000000600052604160045260246000fd5b6114d78261148e565b810181811067ffffffffffffffff821117156114f6576114f561149f565b5b80604052505050565b60006115096111fd565b905061151582826114ce565b919050565b600067ffffffffffffffff8211156115355761153461149f565b5b61153e8261148e565b9050602081019050919050565b82818337600083830152505050565b600061156d6115688461151a565b6114ff565b90508281526020810184848401111561158957611588611489565b5b61159484828561154b565b509392505050565b600082601f8301126115b1576115b0611484565b5b81356115c184826020860161155a565b91505092915050565b6000806000606084860312156115e3576115e2611207565b5b60006115f1868287016112ed565b935050602084013567ffffffffffffffff8111156116125761161161120c565b5b61161e8682870161159c565b925050604061162f86828701611418565b9150509250925092565b60006020828403121561164f5761164e611207565b5b600061165d848285016113a2565b91505092915050565b6000806040838503121561167d5761167c611207565b5b600061168b85828601611418565b925050602061169c85828601611418565b9150509250929050565b600081519050919050565b600082825260208201905092915050565b60005b838110156116e05780820151818401526020810190506116c5565b60008484015250505050565b60006116f7826116a6565b61170181856116b1565b93506117118185602086016116c2565b61171a8161148e565b840191505092915050565b61172e81611379565b82525050565b6000608082019050611749600083018761145a565b818103602083015261175b81866116ec565b905061176a6040830185611725565b611777606083018461145a565b95945050505050565b6000806040838503121561179757611796611207565b5b60006117a585828601611418565b925050602083013567ffffffffffffffff8111156117c6576117c561120c565b5b6117d28582860161159c565b9150509250929050565b600081519050919050565b600082825260208201905092915050565b6000819050602082019050919050565b611811816113f7565b82525050565b600082825260208201905092915050565b6000611833826116a6565b61183d8185611817565b935061184d8185602086016116c2565b6118568161148e565b840191505092915050565b61186a81611379565b82525050565b60006080830160008301516118886000860182611808565b50602083015184820360208601526118a08282611828565b91505060408301516118b56040860182611861565b5060608301516118c86060860182611808565b508091505092915050565b60006118df8383611870565b905092915050565b6000602082019050919050565b60006118ff826117dc565b61190981856117e7565b93508360208202850161191b856117f8565b8060005b85811015611957578484038952815161193885826118d3565b9450611943836118e7565b925060208a0199505060018101905061191f565b50829750879550505050505092915050565b6000602082019050818103600083015261198381846118f4565b905092915050565b600060c0820190506119a0600083018961145a565b6119ad602083018861132f565b81810360408301526119bf81876116ec565b90506119ce606083018661145a565b6119db6080830185611725565b6119e860a083018461145a565b979650505050505050565b7f5265636f726420646f6573206e6f742065786973740000000000000000000000600082015250565b6000611a296015836116b1565b9150611a34826119f3565b602082019050919050565b60006020820190508181036000830152611a5881611a1c565b9050919050565b7f4e487b7100000000000000000000000000000000000000000000000000000000600052601160045260246000fd5b6000611a99826113f7565b9150611aa4836113f7565b9250828201905080821115611abc57611abb611a5f565b5b92915050565b7f4e487b7100000000000000000000000000000000000000000000000000000000600052602260045260246000fd5b60006002820490506001821680611b0957607f821691505b602082108103611b1c57611b1b611ac2565b5b50919050565b60008190508160005260206000209050919050565b60006020601f8301049050919050565b600082821b905092915050565b600060088302611b847fffffffffffffffffffffffffffffffffffffffffffffffffffffffffffffffff82611b47565b611b8e8683611b47565b95508019841693508086168417925050509392505050565b6000819050919050565b6000611bcb611bc6611bc1846113f7565b611ba6565b6113f7565b9050919050565b6000819050919050565b611be583611bb0565b611bf9611bf182611bd2565b848454611b54565b825550505050565b600090565b611c0e611c01565b611c19818484611bdc565b505050565b5b81811015611c3d57611c32600082611c06565b600181019050611c1f565b5050565b601f821115611c8257611c5381611b22565b611c5c84611b37565b81016020851015611c6b578190505b611c7f611c7785611b37565b830182611c1e565b50505b505050565b600082821c905092915050565b6000611ca560001984600802611c87565b1980831691505092915050565b6000611cbe8383611c94565b9150826002028217905092915050565b611cd7826116a6565b67ffffffffffffffff811115611cf057611cef61149f565b5b611cfa8254611af1565b611d05828285611c41565b600060209050601f831160018114611d385760008415611d26578287015190505b611d308582611cb2565b865550611d98565b601f198416611d4686611b22565b60005b82811015611d6e57848901518255600182019150602085019450602081019050611d49565b86831015611d8b5784890151611d87601f891682611c94565b8355505b6001600288020188555050505b505050505050565b60006020820190508181036000830152611dba81846116ec565b905092915050565b6000604082019050611dd76000830185611725565b611de4602083018461132f565b939250505056fea2646970667358221220c43cdb817486ee9ac890d9df28a0ec50c07ca909b00f8bbf38a13b66cceb809e64736f6c634300081c0033",
  "linkReferences": {},
  "deployedLinkReferences": {}
}